:020000040000FA
:060000000216C4020A19F9
:03001300020A3BA3
:03002B0002145567
:03003300020C6359
:03003B00020A9026
:0300530002094E51
:03005B000211C7C8
:030063000211E89F
:03006B00020C097B
:03007B00020C3A3A
:100083000209AD010020FD0002012C050000000162
:10009300AE1CC01C0000C61CCC1C00000000D21CFF
:1000A300F01CF61CFC1C0000000000000000010115
:1000B3000204081020408001FFFF090D0101040123
:1000C300FEFF0000000000000006FFFFFFFFFFFF30
:1000D300FF0101010400CE19000000E8030000FF46
:1000E300FF9A1AE803000064006400B801A0BB0D86
:1000F30000A0BB0D00020200F8FF0705021E040169
:10010300051E02051E020A0A010108080103102741
:1001130002803E0102FEFFE8030A050001FFFF0122
:100123000A1401E0C503423F1A51123FF304B53FDD
:100133000000803E010105030101FF0F10FEFFC314
:100143003B00000000353A00000000FF000000FF04
:1001530000C082C083E9FA5407F8749428F582E456
:10016300341DF583E0F87900EAC4540F54036008A2
:1001730014600914600D8012E5808002E5905870C8
:10018300078007E5A0586002790102025BC082C0C4
:10019300831202ED600814601214601C802BEA6065
:1001A30005EB42808023E85280801EEA6005EB4223
:1001B300908016E852908011EBC39420500BEA60B4
:1001C30005EB42A08003E852A002025BC082C08319
:1001D3001202ED600814602C146050807BE852F327
:1001E30074016A601274026A601574046A7003EB26
:1001F300428FEB42FD806153F7DFE8528F80F34378
:10020300F72080F6E852F474016A601274026A609F
:100213001574046A7003EB42F6EB42FE803A53F71F
:10022300BFE852F680F343F74080F6EBC3942050C7
:1002330027E852F574016A601274026A6015740447
:100243006A7003EB42F7EB42FF800D53F77FE852EE
:10025300F780F343F78080F6D083D08222C082C038
:10026300831202ED600814602B14604E806CE85218
:10027300F352FD74016A600F74026A600F74046ABA
:100283007058EB428F805353F7DF800343F720E826
:10029300528F8046E852F452FE74016A600F740272
:1002A3006A600F74046A7032EB42F6802D53F7BF15
:1002B300800343F740E852F68020EBC39420501AA2
:1002C300E844E0F852F552FF74016A601074026A60
:1002D300601374046A7003EB42F702025B53F77F07
:1002E300E852F780F543F78080F6E95407FC7494ED
:1002F3002CF582E4341DF583E0FBF4F8E9C4540FD4
:10030300540322C082C0831202ED600814601214E9
:10031300601C802DEA6005EB42FD8025E852FD80DC
:1003230020EA6005EB42FE8018E852FE8013EBC31F
:100333009420500DEA6005EB42FF800574E04852BB
:10034300FF02025BC082C0831202ED6008146015D5
:100353001460228034EA6005EB42808003E8528017
:10036300EB42FD8024EA6005EB42908003E8529063
:10037300EB42FE8014EBC39420500EEA6005EB427F
:10038300A08003E852A0EB42FF02025BE9C4540FD2
:1003930054036007146013146020227801E8F4FB0F
:1003A300EA602014602114601522740F59C3940469
:1003B3005004780280E7780480E3780880DFE58CD6
:1003C300586004EB528C22E8428C221216D4601D32
:1003D3001216E37005191919801A121565701F1288
:1003E300153DC37003E66733191919400718181828
:1003F3002208080874FFF618F618F618F6221215E4
:100403003D6017121789702192F0121792701950DC
:100413001720F014080808090909E7F61819E7F680
:100423001819E7F61819E7F62212179260E6E86939
:10043300701F0808E62480F608E436F618547FB4E3
:100443007F0CE654806007F6E418F618F6221818B5
:1004530022E9C6CC08C6CD08C6CE08C6CFC0E0E8A0
:10046300C0E0EAC0E0EBC0E009E9F809E7FA09E710
:10047300FBE6F918E6F8C3EC98ED99EE9AEBC2E7C0
:10048300F5F0EFC2E795F0500E600CEBCFFBEACE30
:10049300FAE9CDF9E8CCF8EAA2E7D2E7FAEB33FBC5
:1004A30013F5F0EEA2E7D2E7FEEF33FFC5F013A298
:1004B300E730E601B313C5F0C3C0E0C0F07F00C36B
:1004C3009BFB605E9418600F401D14601AD0E023FC
:1004D300F9D0E0F80205AF8AF0E9486003D2F0E40E
:1004E300AFF0FAF9F8803BEB30E40D89F0EA6003F2
:1004F300D2F0E4AFF0F9CAF8EB30E30D88F0EF6027
:1005030002D2F0AFF0E4CAC9F8EB54076014FBC39E
:10051300EA13FAE913F9E813F8EF135002D2E0FFF4
:10052300DBEDD0E0C0E030E739C3E49FFFF5F0EC4A
:1005330098FC42F0ED99FD42F0EE9AFE42F0D0E0D5
:10054300F9D0E0F8E5F0607AE923F9EE20E742D844
:10055300028067C3EF33FFEC33FCED33FDEE33FE74
:1005630080EAEC28FCED39FDEE3AFED0E023F9D029
:10057300E0F84002801BC3EE13FEED13FDEC13FC09
:10058300EF135002D2E0FF08B800067F7F74FF80AC
:100593002EEF3350178CF020F00260100CBC000CCF
:1005A3000DBD00080EBE000408E860DFE933E81360
:1005B300FFEE2313FE4F4D4C8008E95480FFE4FE09
:1005C300FDFCEE33EF33F47004FCFD7E80D0E0FBE2
:1005D300D0E0FAD0E0F8D0E0CFC618CEC618CDC62A
:1005E30018CCC6F9221216D4700418181822121641
:1005F300E3700D74FFF61819F61819F61819F62298
:10060300E7548066F6121792700F12178970F01470
:10061300F608F608F608F680D1121789700CF6086A
:10062300F608768008E6447F80EC121540700C12C1
:10063300156860BFE65480F6E480BB121568700548
:1006430019191980A5E869700C763F18768018F699
:1006530018F6E8F922E6CDC0E018ECC0E0E633CDA9
:1006630033CDD313F6E719FCE7191933CC33C3940D
:100673007F400ECD9D502408E65480F6E418F680A2
:100683000FF4043D14501408E6447FF6187680E412
:1006930018F618F6D0E0FCD0E0FD22CCD313CCFD45
:1006A30018E4C6CBC0E018E4C6CAC0E00808ED08E9
:1006B300C633E613F618E433C675F003C3CA97CA04
:1006C30009CB97CB199C40047D08802EBD00030203
:1006D300079116B6FF050606081618C3CA33CACB18
:1006E30033CB33CA27CA09CB37CB193CC37D088028
:1006F3003E187D0820E75CC633C6CA33CACB33CB6A
:1007030033DDF1D5F0EB30E77BCA97CA09CB974AC3
:10071300CB199C406F4B7025E620E0218066187D45
:1007230008C3CA97CA09CB97CB199CD3C633C6CA89
:1007330033CACB33CB3350C9DDE7D5F0E1D3E4C6BD
:1007430036C608C636C608C636C608C636C618181C
:10075300188031C3CA97CA09CB97CB199CB340976A
:10076300C633C6CA33CACB33CB33DD34D5F02EC63A
:10077300A2E0C640C8CA27CA09CB37194A70BECB04
:100783003CB480B90808E63308E633601F1818182C
:10079300D0E0FAD0E0FBD0E0FCD0E0FD22187D08E9
:1007A300CA27CA09CB37CB193CD3808013F618E488
:1007B300B67F11F618B6FF0EF618C60470D20808F5
:1007C300768080CAF618F618F680C5001216D46033
:1007D3004F1216E36012E7548066F6121565701126
:1007E300121789703B090909F4F618F618F618F67A
:1007F3002212153D701512179208080860EAE644A4
:100803007FF618768018E4F618F62212179260160F
:100813001217897012E4F608F608F608E65480F613
:1008230009090918181822EAC0E0EBC0E0ECC0E09F
:10083300EDC0E0E687F0A4FBACF008E687F0A42C5B
:10084300FCE435F0FA1809E687F0A42C4B60027437
:1008530001CA35F0FCE433FB09E687F0D2F7A42C98
:10086300CB35F0FC1908E687F0A42BCC35F0FBE47C
:1008730033FD0819E687F0D2E7A42C4ACB35F0CD37
:100883003400FC09E687F0D2E7A42DCC35F0FDE473
:1008930033FA0918E687F0D2F7A42CCD35F0CA3421
:1008A30000FC08E687F0D2E7D2F7A42ACC35F07A29
:1008B3007E20E70B0ACB33CBCD33CDCC33CC33CB3C
:1008C3003350147004ED30E00ED2F1E4CD3DCDCCC5
:1008D3003CCC3B5005DA05C2F1EB547FC63308E646
:1008E3003392F0FBE73309E733C39A502D2B70198A
:1008F3000C0D4C4D70151806E608C333700D20F12E
:100903000AA2F013F6E418800B4024E4F630F00258
:10091300768018F618F618F68024D33B145010741A
:10092300FFA2F013F6187680E418F618F6800FA2EB
:10093300F013F618E63303F618ECF618EDF6D0E0EC
:10094300FDD0E0FCD0E0FBD0E0FA22C0E074F1126D
:100953000E5FA2AFE433F509D2AF85A708AFA1EFCD
:100963005508FE74105E60061219A875A1EF74088D
:100973005E60081219AE75A1F78024EFA2E092F031
:10098300E508A2E082F05017906198E0F890049C8B
:10099300E0C398A2D265D0335002E8F075A1FEE51A
:1009A30009A2E092AF7F02020EBEC0E074F2120E03
:1009B3005FA2AFE433FED2AF9061A4E0F8759B0071
:1009C300E59158540860087591F71219F68023E5EC
:1009D3009158541060087591EF1219FC8014E59139
:1009E300A2E092F0E8A2E082F05007E0C2E0F01249
:1009F3001B469061A3E0F8E5E9585404600E121B0E
:100A03001C75E9FB906193E0A2E640F2EEA2E0924E
:100A1300AF7F01020EBEC0E074F2120E5FA2AFE41C
:100A230033FED2AF9061A5E0F8E5BF5854046006E9
:100A330075BFFB121B5E80D4C0E0C0D0E8C0E0E904
:100A4300C0E0C082C083A8C1E8C0E0900409E0F818
:100A5300748828F582E43403F583D0E0F090040829
:100A6300E0F8A3E0687006E59590040BF0900409A4
:100A7300E004F0C394804002E4F0A374C6F0D08392
:100A8300D082D0E0F9D0E0F8D0D0D0E032C0E0C0DE
:100A9300D0E8C0E0E9C0E0C082C08390048CE0F8F5
:100AA300A3E0687008539AFBA374018022C2E99003
:100AB300048CE0F8740128F0740C28F582E4340403
:100AC300F583E0F5C190048CE0C394804002E4F028
:100AD30080AC120B2030F039120B658034120B20DE
:100AE30020F01430E72B74FFFCFBFA747F8022E4C0
:100AF300FCFBFA7480801AB48008BC00F2BB00EFE0
:100B0300800F50EBF9E4C39AFAE49BFBE49CFCE40A
:100B130099C6CC18C6CB18C6CA18C6F922E4C9C6EA
:100B230008CAC608CBC6D3330308CCC63392F0C376
:100B3300947F402E94184019C9B90704CACBCC221C
:100B43005025C309CA33CACB33CBCC33CC33D9F406
:100B530022F4600DC9CCC313CB13CBCA13CAD9F685
:100B6300CC22E4FCFBFA2214FCFBFA22C3E498F83F
:100B7300E499F9120BB08026C3E49AFAE49BFBE9EB
:100B830020E7E9120BB0E498F8E499F922C3E4985A
:100B9300F8E499F9120BB0E498F8E499F9C3E49AEC
:100BA300FAE49BFB22EB20E7CFE920E7E0B9001052
:100BB300BB0008E88AF084F8AAF022E4FBC8FA2212
:100BC300EB70227B10C833C8C933C9335007C39AAB
:100BD300C3DBF280069A50012ADBEAC833F4C8C9A2
:100BE30033F4C9FA2275F008E4C833C8C933C933EA
:100BF300C99AC99B5004C92AC93BD5F0ECFBC83339
:100C0300F4C8E4C9FA22C0E074F2120E5FA2AFE4A2
:100C130033FED2AF90062DE05589600FE589FA794E
:100C230000121E0A90062DE0F45289C2C5EEA2E01E
:100C330092AF7F01020EBEC0E074F2120E5FA2AF4C
:100C4300E433FED2AF90062EE0558A600FE58AFAB0
:100C53007901121E0A90062EE0F4528AC2EB80CD6F
:100C6300C0E074F2120E5FA2AFE433FED2AF90067F
:100C73002FE0558B600FE58BFA7902121E0A90065E
:100C83002FE0F4528BC2E880A4080808EAC0E0EB26
:100C9300C0E086F0E7A4FA180986F0E7A42AFA1858
:100CA3000986F0E7A42AFA180986F0E7A42AFA19B4
:100CB30086F0E7A4FBE5F02AFA190886F0E7A42BEF
:100CC300FBE5F03AFA190886F0E7A42BFBE5F03AC6
:100CD300FA18180986F0E7A4C5F02BFBE43AFA19D1
:100CE30008E7C5F0C6A426F6E5F03BFBE43AFA189C
:100CF30086F0E7A4F6E5F00826F6E43B08F6E43AC6
:100D030008F6D0E0FBD0E0FA22080808E630E71145
:100D13001215A1120D24080808C64480C618181815
:100D230022181818E9799EC608CAC608CBC608CC8B
:100D3300C6C370207996CACBCC7019798ECBCC7090
:100D4300137986CC700EF9802ACA33CACB33CBCC45
:100D530033CC331930E7F2CCCBCA3350147004EAE6
:100D630030E00DE4CA3ACACB3BCBCC3CCC500209B1
:100D7300C3E913C6CC182313C6CB18C6CA18C6F9C1
:100D830022E4CFC0E0E4CEC0E0E4CDC0E0E4CCC0D8
:100D9300E075F020E626F608E633F608E633F608B3
:100DA300E633F6181818EC33FCED33FDEE33FEEFA3
:100DB30033FFC3EC9709ED9709EE9709EF971919DC
:100DC30019400FFFEC97FC09ED97FD09EE97FE190B
:100DD3001906D5F0BFECF709EDF709EEF709EFF7C0
:100DE300191919D0E0FCD0E0FDD0E0FED0E0FF22DD
:100DF3002518C582C0E0E51934FFC583C0E0E518B6
:100E0300C3958224F810AF0885831985821880085A
:100E1300858319858218D2AFCEF0A3E520F0A3789D
:100E230008E608F0A3DEFAEFF0A3E58124FAF8E67A
:100E330008F0A3E608F0A3E608F0A30808E608F024
:100E4300A3E608F0A315811581D0E0FED0E0F815E4
:100E53008115811581E8C0E0EEC0E022C0D02518DD
:100E6300C582C0E0E51934FFC583C0E0E518C3952A
:100E73008224F310AF08858319858218800885833F
:100E830019858218D2AFC8F0A3E9F0A3EAF0A3EB67
:100E9300F0A37908E709F0A3D8FAECF0A3EDF0A3E7
:100EA300EEF0A3EFF0A3D0E0F0A3D0E0F0A3D0E006
:100EB300F0A3E520F0A3E5F0F0A3228519838518BC
:100EC30082E0C0E0A3E0F9A3E0FAA3E0FBA3780883
:100ED300E0F608A3DFFAE0FCA3E0FDA3E0FEA3E055
:100EE300FFA3E0C0E0A3E0C0E0A3E0F5D0A3E0F5FA
:100EF30020A3E0A3F5F010AF08858319858218803D
:100F030008858319858218D2AFD082D083D0E0F8C8
:100F1300D0E0321215A4181818120D841216731982
:100F2300191922121673191919080808E61818183E
:100F330020E7E0120D841215A418181822090909D4
:100F4300E719191920E7DC080808E618181820E73C
:100F530003020D841215A4181818120D841215A477
:100F630018181812167319191922121774B90003D5
:100F7300020FACE49003317838791B8002F0A3D8D8
:100F8300FCD9FA7A687B1D90008678CF79018015A9
:100F9300E493A3AD82AE838A828B83F0A3AA82AB50
:100FA300838D828E83D8E9D9E77582EC7583BF740C
:100FB300071213CC7582A275833774001213CCE425
:100FC3007375F0108E1A8F1B85821F85831E8518FB
:100FD30082851983E0CEA3E0CF851F82851E83EB34
:100FE300C9EAC8EDCBECCAC3E833C8E933C9EA336D
:100FF300CAEB33CBC3EA9EF51DEB9FF51CB350043C
:10100300AB1CAA1DEC33CCED33CDD5F0DAAE1AAF61
:101013001B221216D4601C1216E36017121792706B
:10102300071217897001D322C0D01217897006D016
:10103300D0B322C32233D0D0501430E0F6C3E796A6
:101043000809E7960809E7960809E796B32220E01E
:10105300D5E6970809E6970809E6970809E697B3DE
:1010630022D083D082ECC0E0EDC0E0E493A3FCE4A3
:1010730093A3FDED4C600D121188EC24FFFCED34BD
:10108300FFFD80EFE493A3FCE493A3FDED4C600D1F
:1010930012128FEC24FFFCED34FFFD80EFD0E0FD56
:1010A300D0E0FCE493A3C0E0E493C0E0221216D4A2
:1010B300601B1216E36016121792700712178960ED
:1010C3000CB322C0D01217897005D0D022C32233AB
:1010D300D0D0501330E0EBC3E7960809E796080930
:1010E300E7960809E7962220E0E4E6970809E697E1
:1010F3000809E6970809E69722D083D082E9C0E081
:10110300E493A3C386F0C5F095F0F908E493A386AE
:10111300F0C5F095F0700BE493A3C3994005E9047F
:101123008002A3E475F002A42582F582E5F03583FD
:10113300F583D0E0F9E493A3C0E0E493C0E0228513
:101143001983851882E0A3FEE0A3F5207808E0A3C5
:10115300F608DFFAE0A3FFE0A3C0E0E0A3C0E0E00D
:10116300A3C0E0E0A3C0E0E0A3C0E010AF08858225
:10117300188583198008858218858319D2AFD08397
:10118300D0820213D2C0E0C3E4939608740193960D
:1011930018400FE493667008087401936618700092
:1011A3007019A3A3C3E49396087401939618A3A399
:1011B300400DD0E0D0E0D0E00210A0A3A3A3A3A3EE
:1011C300A3D0E022C0E074F2120E5FC2D9901DB129
:1011D300E0C39400A2D265D0334005E0F912214662
:1011E3007F01020EBEC0E074F2120E5FC2DC901DDE
:1011F300B3E0F9C39400A2D265D033400312214671
:1012030080DE7404800474028000CCC0E0EDC0E092
:10121300E518C39CCCAD1950011D10AF068C188D79
:101223001980068C188D19D2AF12134ED0E0FDD061
:10123300E0FC2274028000CCC0E0EDC0E0E518C3FE
:101243009CCCAD1950011D10AF068C188D1980066A
:101253008C188D19D2AF12130AD0E0FDD0E0FC2216
:101263001216D460251216E360201217927003023F
:101273001789080808E76670101819E766700A18D6
:1012830019E76670041819E76622F422C0E0C0F07B
:1012930088F0E4936670080874019366187000A8D8
:1012A300F0A3A3700BD0F0D0E0D0E0D0E00210A008
:1012B300A3A3D0F0D0E022D083D082CCC0E0E493CB
:1012C300A3600612136F1470FAE493A3600612145A
:1012D300D21470FAD0E0FCE493A3C0E0E493C0E03E
:1012E30022C008C3E096F50808A3E096420808A3C5
:1012F300E096420808A3E0964208A2D265D033E5FF
:10130300087001D3D00822CAC0E0E493A3C582CCFD
:10131300C582C583CDC583F0A3C582CCC582C583F1
:10132300CDC583DAE5D0E0CA22A2E792D65002F413
:101333000430F70663F0FF05F0B3400384800384B1
:10134300F40430D60563F0FF05F022CAC0E0E0A341
:10135300C582CCC582C583CDC583F0A3C582CCC568
:1013630082C583CDC583DAE6D0E0CA22C0E0E49328
:10137300A3D39C5010E493A3C39C400AD0E0D0E0D5
:10138300D0E00212D7A3A3A3D0E022700908080873
:10139300226016181818C6C333C608C633C608C653
:1013A30033C608C633C6D5E0EA22C008C3E096F5C3
:1013B3000808A3E096420808A3E096420808A3E0C1
:1013C3009645087001D3D00822C09FF59FE473D0DF
:1013D3009F22D083D082C09FE493C0E0740193C066
:1013E300E0740293F59F227404800A7403800674E8
:1013F3000280027401C0E0F404121420D0E012173A
:101403001F2200C0D0251810AF08F518500C05197D
:101413008008F51850020519D2AFD0D0222518F54F
:101423008210AF08F518400C15198008F518400212
:101433001519D2AF85198322BB0102E722C082C0EE
:101443008389828A83BB0003E08002E493D083D044
:101453008222C0E0C0D0E8C0E0A8A8D2AFC2C7E8EB
:10146300A2E792AFD0E0F8D0D0D0E03260170808FE
:1014730008C6A2E713C618C613C618C613C618C6ED
:1014830013C6D5E0E9226016080808C6C313C618B8
:10149300C613C618C613C618C613C6D5E0EA22C3B8
:1014A300E0C696F608A3E0C696F608A3E0C696F64D
:1014B30008A3E0C696F6222518F8E43519F9222583
:1014C30018FAE43519FB222518FCE43519FD22C06E
:1014D300E0E493A36C7009D0E0D0E0D0E00212D72F
:1014E300A3A3D0E022251810AF08F518400C151956
:1014F3008008F51840021519D2AF22E7667010086C
:1015030009E766700A0809E76670040809E76622B6
:10151300C3E09608A3E09608A3E09608A3E096A28A
:10152300D265D03322E066701008A3E066700A0823
:10153300A3E066700408A3E06622191919E70947B6
:10154300097009E727097005E733F4220922C3E08C
:1015530096F008A3E096F008A3E096F008A3E096BF
:10156300F022181818E60846087009E626087005E0
:10157300E633F4220822C3E4939608740193960891
:1015830074029396087403939622C3E697F60809A8
:10159300E697F60809E697F60809E697F62218187B
:1015A30018E4C396F608E496F608E496F608E4967B
:1015B300F622E056F008A3E056F008A3E056F00840
:1015C300A3E056F022E667F60809E667F60809E69F
:1015D30067F60809E667F622E493F608740193F6C2
:1015E30008740293F608740393F622E657F6080983
:1015F300E657F60809E657F60809E657F622E627FE
:10160300F60809E637F60809E637F60809E637F675
:1016130022E026F608A3E036F608A3E036F608A390
:10162300E036F622E026F008A3E036F008A3E03621
:10163300F008A3E036F022E647F60809E647F60885
:1016430009E647F60809E647F622700422600D18FA
:10165300C6C333C608C633C6D5E0F41822E056F62F
:1016630008A3E056F608A3E056F608A3E056F622D0
:10167300E4C397F709E497F709E497F709E497F7C1
:1016830022600D08C6A2E713C618C613C6D5E0F339
:1016930022C6F4C608C6F4C608C6F4C608C6F4C60D
:1016A30022C3E09608A3E09608A3E09608A3E09679
:1016B30022C3E7960809E7960809E7960809E7961B
:1016C3002275D00075813F75183175190300020F1B
:1016D3006DE6084608C3134608336002E633F42276
:1016E300E7094709C3134709336002E733F422606C
:1016F3000C08C6C313C618C613C6D5E0F422E6F019
:1017030008A3E6F008A3E6F008A3E6F022E0F60853
:10171300A3E0F608A3E0F608A3E0F622CAC0E0E6D9
:10172300F0A308DAFAD0E0FA22E0FCA3E0FDA3E09C
:10173300FEA3E0FF22EAF0A3EBF0A3ECF0A3EDF0AD
:1017430022E0FAA3E0FBA3E0FCA3E0FD22E8F0A380
:10175300E9F0A3EAF0A3EBF022ECF0A3EDF0A3EEA3
:10176300F0A3EFF022E0F8A3E0F9A3E0FAA3E0FB93
:1017730022E5C754F84401F5C77901222518F582FB
:10178300E43519F58322E72719471947194722E654
:101793002618461846184622C2AF75D69F02000087
:1017A300221213D55CCD051213D53ED0051213D5E5
:1017B30090D1051213D546D2051213D545D3051280
:1017C30013D578D4051213D5D2B6071213D55AB749
:1017D300071213D59AB8071213D577D0071213D56A
:1017E30088D0071213D526D1071213D531D107128A
:1017F30013D5EFFF021213D551D6071213D584D296
:10180300071213D594D2071213D5A9D2071213D5F1
:101813000FD3071213D575CD071213D5F8CD0712C1
:1018230013D55ECE071213D5EEBD071213D529BE0D
:10183300071213D584BE071213D5DCBE071213D5C6
:1018430062BF071213D59EBF071213D564D60712C2
:1018530013D574D6071213D5409A071213D5969A47
:10186300071213D5E59A071213D5129B071213D546
:10187300689B071213D594D5071213D562B90712C3
:1018830013D5ACB9071213D542BA071213D5C8BA88
:10189300071213D5F9BA071213D511BB071213D5C3
:1018A30085BB071213D59BBB071213D5AEBB07121B
:1018B30013D5B8BB071213D583F3031213D534F82A
:1018C300031213D549F9031213D575F9031213D56E
:1018D300FAF9031213D5C1FC031213D5A6EA0512B4
:1018E30013D509EB051213D5B9EB051213D584EC07
:1018F300051213D5D9ED051213D5B9EE051213D57B
:10190300B6EF051213D58EF1051213D5B5F10512F5
:1019130013D541F2051213D59BF3051213D52EF4FB
:10192300051213D540F4051213D5169C061213D5D0
:10193300E49D061213D50F9F061213D5D2A00612EB
:1019430013D5CDF6061213D5F9F6061213D56AF997
:10195300061213D5AAF9061213D5EAF9061213D5FE
:10196300FEF9061213D517FA061213D508FB061251
:1019730013D5ADFB061213D5C1FB061213D555C6FD
:10198300071213D579C6071213D592C6071213D5BA
:10199300C4C6071213D5F4C6071213D521C70712FD
:1019A30013D583C7071213D592C7071213D59CC744
:1019B300071213D5A9C7071213D53CB4071213D5C1
:1019C3005CB4071213D59BB4071213D5B6B4071230
:1019D30013D5D5B4071213D53BB5071213D544B5A8
:1019E300071213D5A1B5071213D5C5B5071213D521
:1019F30086B6071213D593B6071213D5A4B60712EA
:101A030013D519D3071213D531D3071213D55DD3C9
:101A1300071213D50E85071213D56886071213D53F
:101A23007686071213D58986071213D59E86071269
:101A330013D5B386071213D5C686071213D53A8773
:101A4300071213D59F87071213D54188071213D5A1
:101A53000589071213D51589071213D5248907128F
:101A630013D550D1071213D574D1071213D59CD1B6
:101A7300071213D5C4D1071213D5CBBB071213D545
:101A8300F2BB071213D510BC071213D583BC071280
:101A930013D569B1071213D582B1071213D58EB1CD
:101AA300071213D5A2B1071213D5C0B1071213D56C
:101AB300CAB1071213D5D4B1071213D5E7B1071270
:101AC30013D56DB2071213D5E2B2071213D511B3B2
:101AD300071213D55FB3071213D5AEB3071213D58D
:101AE300C9B3071213D5D3B3071213D5E4B307123F
:101AF30013D527B4071213D57FD4071213D500804B
:101B0300061213D52A80061213D54780061213D561
:101B13005A80061213D57080061213D5CE80061292
:101B230013D50681061213D5FA84061213D53F8600
:101B3300061213D57286061213D5D586061213D54F
:101B43003F88061213D56788061213D57C880612C0
:101B530013D58C88061213D5D088061213D52B897A
:101B6300061213D53B89061213D535CA071213D5AE
:101B73004FCA071213D577CA071213D590CA071293
:101B830013D5B4CA071213D5D2CA071213D5E9CA9B
:101B9300071213D517CB071213D532CB071213D560
:101BA300CAD4071213D5269E071213D5369E0712E1
:101BB30013D53D9F071213D5719F071213D5939F1A
:101BC300071213D5B69F071213D5D49F071213D547
:101BD3000EA0071213D573A0071213D5B5A00712D1
:101BE30013D5F4A0071213D525A1071213D55CA1B1
:101BF300071213D59EF7021213D59AF8021213D5C2
:101C0300B8F8021213D5DFF8021213D5A9FA02129B
:101C130013D5D7FA021213D58CFB021213D54FFC3E
:101C2300021213D55EFD021213D599FE021213D5CB
:101C3300D5FB061213D52AFC061213D5A4FC0612F3
:101C430013D5B7FC061213D5DEFC061213D571FDAE
:101C5300061213D54BFE061213D5CB92061213D5DB
:101C6300F692061213D5C193061213D5FE930612EC
:101C730013D58F94061213D50B98061213D51E9AFB
:101C8300061213D58AD4041213D5C4D4041213D55F
:101C9300C4D6041213D50ED9041213D507DC0412CB
:101CA30013D579DC041213D513DD041213D562DDC9
:101CB300041213D5A5DD041213D5BFDD041213D509
:101CC30018DE041213D546DE041213D549DE0412BE
:101CD30013D559DE041213D56CDE041213D5B7DE07
:101CE300041213D5CBE0041213D5FEE0041213D56E
:101CF30063E1041213D5B6E1041213D53CE20412D6
:101D030013D5C8E2041213D5E0E4041213D580E618
:101D1300041213D5BEE7041213D562E9041213D5D6
:101D230077CF071213D591CF071213D5D8CF071248
:101D330013D506D0071213D520D0071213D539D0E7
:101D4300071213D55DD0071213D51BD6061213D570
:101D53004CD6061213D5A0D6061213D570D7061289
:101D630013D59DD7061213D5CAD7061213D51CD87F
:101D7300061213D546D8061213D56AD8061213D500
:101D830092D8061213D5D2D8061213D55CD90612EF
:101D930013D58DD9061213D5B4D9061213D5FAD992
:101DA300061213D518DA061213D53CDA061213D528
:101DB3005CDA061213D592DA061213D5F1DA06129B
:101DC30013D513DB061213D572DB061213D581DB91
:101DD300061213D5BADB061213D59E78001213D55B
:101DE300D878001213D5137A001213D52B7B001267
:101DF30013D5817F001213D50FE7061213D549E7D8
:101E0300061213D5F0E7061213D56ECC071213D5BD
:101E1300DFCC071213D541CD071213D56DD00612AF
:101E230013D57ED1061213D58FD2061213D5DDD367
:101E3300061213D533D4061213D571D4061213D553
:101E43007FD4061213D510D6061213D536A807125F
:101E530013D598A8071213D594AA071213D5B9F16D
:101E6300061213D5FAF1061213D530F2061213D562
:101E730057F3061213D5F3F4061213D593F506128E
:101E830013D5B1F6061213D5A8BE061213D5F0BEAC
:101E9300061213D5D7BF061213D5CAC2061213D51D
:101EA300F4C2061213D5C6C3061213D58AC307128A
:101EB30013D5C7C3071213D5FBC3071213D50EC41B
:101EC300071213D5B4A1071213D5C7A2071213D54E
:101ED30089A3071213D534A4071213D560A40712DC
:101EE30013D5D7A4071213D5C9DB061213D529DCE2
:101EF300061213D5B8DC061213D5DEDD061213D590
:101F030093E0061213D5A9E0061213D5F2C4071203
:101F130013D512C5071213D525C6071213D528C624
:101F2300071213D5B6FE031213D5ECFE031213D515
:101F330006FF031213D548FF031213D558FF0312EC
:101F430013D5F2FF031213D58FAA061213D599AA3C
:101F5300061213D5D3AA061213D53CAB061213D51A
:101F630059AB061213D5FBAB061213D504AC0612FC
:101F730013D549AC061213D572AC061213D57FAC38
:101F8300061213D5F0AC061213D57BAD061213D58A
:101F9300C9AD061213D507AE061213D56CAE0612E1
:101FA30013D58FAE061213D506AF061213D55DAF48
:101FB300061213D598AF061213D5CDAF061213D55B
:101FC300DFAF061213D5F1AF061213D510B0061208
:101FD30013D519B0061213D5D4B0061213D520B1F8
:101FE300061213D55EB1061213D5B3C7071213D564
:101FF300F3C8071213D536D6071213D55AAB0712F7
:1020030013D59EAB071213D5E6AB071213D5CCAD90
:10201300071213D55BAE071213D59ED3071213D540
:102023000080051213D52481051213D55E81051294
:1020330013D50883051213D53283051213D5A7854B
:10204300051213D5E785051213D57D87051213D520
:102053001A88051213D56C88051213D50F8905123A
:1020630013D54789051213D58989051213D5F88A23
:10207300051213D5468C051213D5778E051213D589
:10208300A58E051213D5CC8E051213D5D58E051248
:1020930013D5258F051213D5B78F051213D5E692E5
:1020A300051213D56993051213D5F8D5071213D565
:1020B3000ED6071213D54092071213D55692071264
:1020C30013D5FA92071213D53993071213D55693E2
:1020D300071213D58793071213D5D493071213D579
:1020E3000794071213D54294071213D53796071294
:1020F30013D5A3CA061213D5C9CC061213D5FBCD2B
:10210300061213D513CE061213D50080071213D56A
:102113004281071213D5DA82071213D58AB1061248
:1021230013D58EB2061213D5B0B3061213D5CBB4A2
:10213300061213D5A1B5061213D5CCC1071213D5B8
:1021430042C2071213D5B693051213D57B94051219
:1021530013D58894051213D53195051213D590958F
:10216300051213D50097051213D57897051213D5C9
:102173003A99051213D56699051213D5739B051267
:1021830013D59B9B051213D5FC9B051213D5579CA6
:10219300051213D5A89D051213D5FB9D051213D562
:1021A300809E051213D56DE1061213D594E1061234
:1021B30013D5E8E3061213D50FE4061213D564E42E
:1021C300061213D596E5061213D512E6061213D599
:1021D30077CE071213D5D6CE071213D514CF071215
:1021E30013D555CF071213D5F4B0051213D55DB12E
:1021F300051213D5A8B1051213D5E3B1051213D5F2
:1022030058B4051213D574B8051213D590BA051234
:1022130013D59EBB051213D578BC051213D54DB843
:10222300061213D587B8061213D5C0B9061213D5F3
:1022330061BB061213D58EBB061213D531BC061231
:1022430013D594BC061213D5CBBD061213D5E9D111
:10225300071213D533D2071213D5C7C4061213D5E9
:1022630024C5061213D502C6061213D5F3C60612E9
:1022730013D51FC7061213D5FBC7061213D517C8EC
:10228300061213D5B0C8061213D539C9061213D5D1
:10229300DCFF011213D5EFFF011213D504C9071296
:1022A30013D513C9071213D573C9071213D5E8FF42
:1022B300061213D5773E001213D5833E001213D5B1
:1022C300E53E001213D5EF3E001213D5823F0012F4
:1022D30013D5BE3F001213D57E40001213D58B4099
:1022E300001213D5EE40001213D58341001213D50B
:1022F300B941001213D53642001213D5D64300124A
:1023030013D5AA45001213D58B46001213D5D54712
:10231300001213D5374A001213D59C4B001213D564
:10232300314C001213D5644D001213D5584E0012D0
:1023330013D5914F001213D52754001213D51455FA
:10234300001213D5AC55001213D5D155001213D575
:10235300FD55001213D59556001213D5AB56001236
:1023630013D5CD56001213D53357001213D5525738
:10237300001213D57B57001213D59B58001213D5A7
:102383007159001213D5E65A001213D5075B0012D8
:1023930013D5885B001213D52E5C001213D5765C1F
:1023A300001213D5E75C001213D5735D001213D529
:1023B300D75D001213D5375E001213D5E65E001207
:1023C30013D5525F001213D5855F001213D5036036
:1023D300001213D55F61001213D5CF61001213D51C
:1023E3006162001213D5C463001213D54B6400124B
:1023F30013D5B064001213D5DE66001213D56A68D4
:10240300001213D57A68001213D5AE68001213D5E3
:102413001C69001213D55769001213D5B96900124C
:1024230013D54E6A001213D5296C001213D5F46D1F
:10243300001213D5FE6E001213D5FB72001213D5D2
:10244300C873001213D5E074001213D58A760012F4
:1024530013D502F2011213D5B9F2011213D5C0F349
:10246300011213D53EF4011213D580F5011213D5D1
:10247300A1F5011213D559F6011213D504F7011270
:1024830013D5E4FA011213D500FD011213D567FE2B
:10249300011213D50ED5071213D5BDD6031213D5CA
:1024A30018D7031213D5A2D7031213D513D90312C6
:1024B30013D5EBD9031213D5D4DA031213D5EBDA00
:1024C300031213D53DDB031213D5A1DB031213D57E
:1024D300E2DB031213D5F5DB031213D54BDC031236
:1024E30013D5A4DC031213D5BCDC031213D56CDFA4
:1024F300031213D501E0031213D52BE0031213D5F6
:1025030074E0031213D564E2031213D5CEE203126F
:1025130013D5A2E3031213D5E5E3031213D5FFE3A7
:10252300031213D546E4031213D566E4031213D53D
:1025330010E5031213D50EE6031213D568E6031252
:1025430013D5B9E6031213D5C4E7031213D568EA0A
:10255300031213D595EA031213D5FEEA031213D51A
:1025630023EB031213D59DEB031213D566EC031271
:1025730013D5A3EC031213D505ED031213D5C6ED42
:10258300031213D5C9ED031213D5D3ED031213D5DB
:10259300DDED031213D5F0ED031213D56CEE031228
:1025A30013D595EE031213D5A8EE031213D5D4EE6B
:1025B300031213D5FBEE031213D51FEF031213D52A
:1025C3005AEF031213D5CCEF031213D5F4EF031212
:1025D30013D535F0031213D56AF0031213D58AF01D
:1025E300031213D5C7F0031213D5FEF0031213D54C
:1025F30008F2031213D53BF3031213D551F303125D
:1026030013D5A87F001213D5C07F001213D565CB55
:10261300071213D58FA3061213D5DEA3061213D503
:102623007EA5061213D539A7061213D57BA706126A
:1026330013D564A8061213D56EA9061213D590A953
:10264300061213D5DAA9061213D55BAA061213D5FF
:102653002ED8021213D551D8021213D544D902121F
:1026630013D58DD9021213D5E5D9021213D541DA48
:10267300021213D58DDA021213D503DB021213D51E
:102683008FDB021213D504DC021213D547DC0212CE
:1026930013D518E0021213D520F7051213D5A1E2C2
:1026A300021213D525E3021213D556E6021213D5EF
:1026B300CBE6021213D55BE8021213D563E90212CB
:1026C30013D579EA021213D5EFEA021213D5B6EB4A
:1026D300021213D51FEC021213D522EC021213D5EA
:1026E300F6EC021213D532EE021213D5F2EF0212F8
:1026F30013D5EDF1021213D5F8F2021213D594F3A8
:10270300021213D5DFF4021213D5E5F5021213D525
:1027130048F6021213D5E5F6021213D57BEA04122A
:1027230013D51BEB041213D585EB041213D52CEC34
:10273300041213D588CC051213D537ED041213D523
:10274300E0EF041213D506F1041213D58AF1041233
:1027530013D567F3041213D50CF4041213D5AFF495
:10276300041213D50EF5041213D5C7F5041213D5AD
:1027730046F7041213D503F9041213D584FA04128D
:1027830013D5DEFB041213D5EEFC041213D594FD0E
:10279300041213D5B3FE041213D509BA041213D5C8
:1027A30081BA041213D5C9BA041213D50DBB04128E
:1027B30013D556BB041213D5A0BB041213D5D5BB36
:1027C300041213D553BC041213D5ADBC041213D594
:1027D30006BE041213D585BE041213D59CBF041282
:1027E30013D5BEBF041213D5CAC0041213D5DBC060
:1027F300041213D5F3C0041213D513C2041213D554
:1028030030C2041213D503C3041213D527C3041211
:1028130013D53EC3041213D55FC3041213D581C36A
:10282300041213D573C4041213D5CBC4041213D5E5
:1028330041C6041213D59FC6041213D5BEC6041293
:1028430013D5F0C7041213D56DC8041213D5DAC813
:10285300041213D51AC9041213D57CC9041213D553
:102863002CCA041213D5FECB041213D5E9CC0412DF
:1028730013D5E3CD041213D5E9CE041213D505D035
:10288300041213D513D0041213D5ECD0041213D5AC
:102893008CD1041213D5D0D1041213D5E5D104126F
:1028A30013D5F6D2041213D599D3041213D5F1D349
:1028B300041213D5FFA4071213D5A7A6071213D525
:1028C30064A7071213D5B9A7071213D544960712A5
:1028D30013D56296071213D5A696071213D5CC9675
:1028E300071213D5F296071213D50A97071213D5B9
:1028F3002297071213D53A97071213D59D970712FC
:1029030013D5DF97071213D50199071213D50A9927
:10291300071213D51399071213D51C99071213D550
:102923002699071213D54799071213D5E68D071277
:1029330013D5C691071213D5D491071213D5D99184
:10294300071213D559C0071213D516D4071213D57E
:10295300CCD5071213D56BFE051213D518D6071263
:1029630013D50080021213D55780021213D5C380EA
:10297300021213D54F81021213D50582021213D509
:102983004D82021213D56682021213D58982021276
:1029930013D5AB82021213D5E982021213D5388301
:1029A300021213D56383021213D5C183021213D506
:1029B3006884021213D51085021213D58C85021276
:1029C30013D55986021213D5A086021213D5EC86AD
:1029D300021213D57487021213D5AD87021213D5D1
:1029E3000388021213D51F88021213D54E880212D0
:1029F30013D55A8A021213D5888B021213D5B48BBE
:102A0300021213D5E88B021213D5098C021213D5C7
:102A1300188C021213D5238C021213D5D28C0212F6
:102A230013D5428D021213D5CD8D021213D5D58D38
:102A3300021213D5428E021213D57E8E021213D5C3
:102A4300448F021213D51790021213D56C90021201
:102A530013D50B91021213D56591021213D5AA91C6
:102A6300021213D54394021213D58695021213D57D
:102A73007098021213D55499021213D5389A021280
:102A830013D5499A021213D5BB9A021213D5529B3E
:102A9300021213D5B79B021213D5A79C021213D5AA
:102AA300CC9C021213D5EA9C021213D5069D021286
:102AB30013D5799D021213D5889D021213D5109E4A
:102AC300021213D50D9F021213D51A9F021213D5AA
:102AD300239F021213D505A1021213D527A20212B6
:102AE30013D537A2021213D565A3021213D5E4A39B
:102AF300021213D5FFA4021213D53BA5021213D55C
:102B030015A7021213D5D2AA021213D5E6AA0212EE
:102B130013D5F0AA021213D5FAAA021213D504ABE5
:102B2300021213D51DAB021213D527AB021213D514
:102B330094AB021213D59FAB021213D5C7AB02128B
:102B430013D5D2AB021213D537AC021213D542AC54
:102B5300021213D566AC021213D58AAC021213D536
:102B6300FCAC021213D545AD021213D561AD0212AE
:102B730013D5D2AD021213D51EAE021213D567AE12
:102B8300021213D5A5AE021213D526AF021213D526
:102B9300CDAF021213D59CB1021213D501B20212AA
:102BA30013D52FB3021213D555B3021213D59DB407
:102BB300021213D5D7B7021213D5D5B9021213D502
:102BC300A0BB021213D539BC021213D53ABE0212AE
:102BD30013D5EFBE021213D528BF021213D58EBF31
:102BE300021213D598BF021213D5C1C1021213D515
:102BF30000C3021213D557C3021213D502C4021223
:102C030013D5B2C5021213D5FFC6021213D51FC7BF
:102C1300021213D574C7021213D575C8021213D545
:102C23009DC8021213D5FCC8021213D5F4C90212AF
:102C330013D56BCA021213D57ECB021213D5ECCB7C
:102C4300021213D5EBCC021213D545CF021213D5C2
:102C53006ECF021213D5D4D0021213D556D202125C
:102C630013D5ADD2021213D55BD3021213D500D400
:102C7300021213D559D4021213D517D5021213D544
:102C8300A9D5021213D508D6021213D54AD60212B9
:102C930013D57BD6021213D5D2D7021213D50080D7
:102CA300031213D53280031213D56B80031213D58D
:102CB3002982031213D5FF82031213D55E830312F5
:102CC30013D57484031213D5C084031213D54E870E
:102CD300031213D5288A031213D56F8B031213D54E
:102CE300078C031213D5138C031213D55C8C0312B8
:102CF30013D59E8D031213D5948E031213D5BE8E56
:102D0300031213D5148F031213D56D8F031213D52A
:102D1300E08F031213D51692031213D5989303125F
:102D230013D58394031213D5CD95031213D50598A8
:102D3300031213D5029B031213D5119B031213D550
:102D4300A59B031213D5509C031213D5939C031216
:102D530013D5DC9C031213D52C9D031213D5909D20
:102D6300031213D5029E031213D51E9E031213D50D
:102D73004D9E031213D58C9E031213D5879F031206
:102D830013D536A0031213D5B3A2031213D5E5A3AB
:102D9300031213D5BDA4031213D53FA5031213D5F4
:102DA30074A9031213D5A3A9031213D5FEA9031201
:102DB30013D531AA031213D5A9AA031213D5DCAA7A
:102DC300031213D53DAB031213D58DAB031213D5E9
:102DD3005AAC031213D513AD031213D5D7AD031297
:102DE30013D551B0031213D5B3B1031213D504B3E2
:102DF300031213D528B4031213D52BB4031213D51E
:102E03005AB4031213D552B6031213D511B70312D2
:102E130013D540B7031213D55EB8031213D526B9E1
:102E2300031213D5E4BA031213D516BB031213D539
:102E330058BB031213D557BC031213D5CABC0312D4
:102E430013D5F3BE031213D552BF031213D5A6BF76
:102E5300031213D5D5C1031213D5B8C2031213D568
:102E630074C3031213D588C3031213D59CC303126F
:102E730013D5C9C3031213D5F9C3031213D5B4C5AC
:102E8300031213D5C6C6031213D51BC7031213D5DA
:102E930064C7031213D58BC7031213D553C8031288
:102EA30013D5F9C8031213D57FCA031213D5C6CAA3
:102EB300031213D538CB031213D58DCC031213D5BC
:102EC30036CD031213D56ACD031213D582CD031267
:102ED30013D525CE031213D5A1D0031213D549D28E
:102EE300031213D567D2031213D585D2031213D558
:102EF30051D3031213D59FD6031213D57E84011227
:102F030013D5B684011213D5B689011213D5FC89E2
:102F1300011213D5328B011213D5978B011213D5DE
:102F23000C8D011213D51690011213D53F91011286
:102F330013D5529B011213D5E29B011213D5CC9EDC
:102F4300011213D5D99F011213D53CA0011213D539
:102F530084A1011213D5F2A3011213D584A5011282
:102F630013D511A6011213D530A7011213D5BDA78E
:102F7300011213D5C7A7011213D5EFA7011213D559
:102F83008FA8011213D57AA9011213D547AA0112EA
:102F930013D564AA011213D58DAA011213D5BAAAA7
:102FA300011213D501AD011213D5D0AD011213D502
:102FB3000FAE011213D591AE011213D532AF011228
:102FC30013D564AF011213D5ABAF011213D5DEAF26
:102FD300011213D522B0011213D571B0011213D50A
:102FE30076B0011213D5D2B0011213D516B1011266
:102FF30013D5F0B1011213D555B2011213D5BBB2DB
:10300300011213D536B3011213D59EB6011213D58F
:10301300A1B7011213D51FB9011213D535BC011283
:1030230013D5D7BC011213D520BF011213D5DBBFB3
:10303300011213D51AC0011213D5F2C1011213D50F
:103043000FC2011213D518C2011213D521C20112E6
:1030530013D52CC2011213D54BC2011213D5EFC3E2
:10306300011213D54CC4011213D556C4011213D542
:1030730060C4011213D5BFC4011213D509C50112CF
:1030830013D50AC6011213D561C6011213D572C72F
:10309300011213D5BBC7011213D575C8011213D57D
:1030A3008CC9011213D561CA011213D5A8CB011221
:1030B30013D5ACCC011213D5A5CD011213D5BDCDBB
:1030C300011213D5F4CD011213D5FECD011213D580
:1030D30008CE011213D513CE011213D531CE01122E
:1030E30013D579CE011213D5D7CE011213D5FECE47
:1030F300011213D510CF011213D5C5CF011213D569
:10310300FECF011213D520D1011213D573D10112B1
:1031130013D559D2011213D580D2011213D5F0D28F
:10312300011213D56CD3011213D5C8D4011213D5D0
:10313300EFD5011213D5B1D6011213D57FD70112E2
:1031430013D53DD8011213D525D9011213D5CFD9E3
:10315300011213D537DA011213D5ECDA011213D5A4
:1031630048DB011213D5A0DB011213D566DC011273
:1031730013D589DC011213D544DD011213D566DDA5
:10318300011213D5C7DD011213D5F7DF011213D5D1
:10319300F0E0011213D59CE1011213D5BDE3011236
:1031A30013D506E4011213D551E4011213D5ADE48E
:1031B300011213D50BE5011213D52FE5011213D517
:1031C30053E5011213D588E5011213D5B0E50112B9
:1031D30013D5F5E5011213D549E6011213D5A2E67D
:1031E300011213D59CE7011213D53AE9011213D545
:1031F3007FE9011213D5A8E9011213D531EA0112AF
:1032030013D5A4EA011213D5B2EA011213D5D6EAF3
:10321300011213D52CEB011213D547EB011213D571
:1032230002EC011213D52EEC011213D571EC01122D
:1032330013D5D4EC011213D5E2EE011213D50EEF20
:10324300011213D5C9EF011213D5ADF0011213D535
:1032530041F1011213D526E0051213D55EE00512E4
:1032630013D57FE0051213D5C1E0051213D525E16F
:10327300051213D52FE1051213D53FE1051213D51E
:1032830076E1051213D51FE5051213D5E7E60512FE
:1032930013D5CBE8051213D56DE9051213D5F7E95C
:1032A300051213D55080041213D5F980041213D5D7
:1032B300D881041213D5E482041213D504830412B3
:1032C30013D52684041213D5D685041213D5438649
:1032D300041213D51487041213D51A88041213D5B4
:1032E3009288041213D5CD88041213D526890412AB
:1032F30013D56189041213D5AA89041213D53E8A02
:10330300041213D5D48A041213D5A98B041213D52E
:103313007C8C041213D50A8D041213D5308D04123C
:1033230013D55D8D041213D58E8D041213D55B8EC8
:10333300041213D56B8E041213D5BE8E041213D54B
:10334300CB8E041213D5D88E041213D5E18E04123A
:1033530013D5458F041213D5A38F041213D5EE8F03
:10336300041213D50990041213D53090041213D507
:103373004D90041213D55990041213D5EA910412F7
:1033830013D50392041213D57F92041213D592928C
:10339300041213D5A292041213D54693041213D523
:1033A300B294041213D5C595041213D5659604126D
:1033B30013D56F96041213D5EE96041213D5FF9608
:1033C300041213D53E97041213D56C97041213D528
:1033D3003998041213D59098041213D5C99804127E
:1033E30013D51F99041213D53D99041213D58B9944
:1033F300041213D5569A041213D5A49A041213D5A2
:10340300F19A041213D5749B041213D59E9B0412D4
:1034130013D5D49B041213D5E39B041213D5429CFA
:10342300041213D5BA9C041213D5FB9C041213D5B2
:103433004B9D041213D5769D041213D5909D04124F
:1034430013D5AA9D041213D57F9E041213D5899E0A
:10345300041213D5C49E041213D5D49E041213D59B
:10346300259F041213D5399F041213D55BA00412B0
:1034730013D570A0041213D503A1041213D577A199
:10348300041213D51CA2041213D527A2041213D5B8
:103493008AA3041213D5A6A3041213D5F2A304120C
:1034A30013D560A4041213D592A4041213D5ACA4AB
:1034B300041213D50CA5041213D5ABA5041213D50E
:1034C300F6A5041213D549A8041213D5E1A80412D2
:1034D30013D558A9041213D5B5AB041213D5CDAB2C
:1034E300041213D5D0AB041213D5DCAB041213D5DD
:1034F300F0AB041213D5F8AB041213D52FAC04129E
:1035030013D523AD041213D5ADAD041213D52FAECD
:10351300041213D5AFAE041213D586AF041213D51C
:10352300A8AF041213D541B0041213D59EB00412F0
:1035330013D5A1B0041213D510B1041213D55CB284
:10354300041213D56FB3041213D5FAB3041213D5AF
:103553000DB5041213D5D4B5041213D505B6041250
:1035630013D52BB6041213D534B6041213D563B690
:10357300041213D513B7041213D5C3B7041213D50A
:1035830036B8041213D5D9B8041213D54CB90412A2
:1035930013D58BB9041213D5D4B9041213D5D5F6A8
:1035A300051213D53AF6051213D5ABF4051213D54C
:1035B30040AF051213D5C5AD051213D5C8AC05121E
:1035C30013D589AA051213D533AA051213D576A8E4
:1035D300051213D5EDA5051213D567A5051213D54D
:1035E30023A4051213D588CB051213D5A9CA051236
:1035F30013D5DFA2051213D558A2051213D554F122
:10360300061213D5B7F0061213D559AF071213D507
:1036130031AF071213D5C4AE071213D564AE071228
:1036230013D5D0C9051213D5F6C8051213D52CC866
:10363300051213D59BC6051213D564C6051213D5FF
:1036430036C6051213D5EAC5051213D553C505129F
:1036530013D5C3C4051213D59DC4051213D552C483
:10366300051213D51CC4051213D59FC3051213D518
:103673003AC3051213D5E9C2051213D511C20512B7
:1036830013D581C1051213D535C1051213D5B0C0A9
:10369300051213D56BC0051213D54FC0051213D5F0
:1036A300F7BE051213D56FED061213D5C9BE051269
:1036B30013D5ECEC061213D599EC061213D56DD580
:1036C300071213D552D5071213D515FD051213D5BD
:1036D300B7FB051213D54EFB051213D5E5FA0512F8
:1036E30013D596BE051213D51ABE051213D5C78B73
:1036F300071213D5B28A071213D5C5F9051213D5CC
:10370300DE89071213D55D89071213D5DBDF051296
:1037130013D582DF051213D5F6F8051213D54DDF45
:10372300051213D58BEC041213D518DF051213D52C
:10373300E4DE051213D577DE051213D55FDE05121D
:1037430013D53ADE051213D513DB051213D5E6D8CC
:10375300051213D5EDD6051213D579D6051213D557
:103763002AD6051213D5E4D5051213D586D505122D
:1037730013D5828F061213D5F08E061213D53DF89A
:10378300051213D50C8E061213D5728C061213D59F
:10379300328A061213D56B89061213D567E202002B
:1037A300000080FB8F000100341B87000100041E12
:1037B30035000400C81D25000200CC1D26000200B0
:1037C300CE1D27000200D01D28000100DA1D2900AC
:1037D3000100DB1D84000400DC1D86000100E01DE8
:1037E3002A000100E11D2B000100E21D2C00010055
:1037F300E61D2D0008001C1B2E000100E71D2F00F5
:103803000100E81D30000100E91D31000100EA1D3F
:1038130032000100241B33000100251B340001008A
:10382300EB1D36000100261B38000100EC1D39009A
:103833000100E51D83000200021E63000100311B2D
:1038430064000100E31D65000100E41D6D0001003B
:10385300321B71000800141B66000100011E4300A7
:103863000100F21D44000200F31D45000100F51D97
:1038730046000200F61D47000800291B480001000E
:10388300F81D4B000100F91D04000100051EA100F5
:103893000100081E37000100071E88000100061EF4
:1038A3003C000100271B3D000100ED1D4900020003
:1038B300FA1D67000100331B4D000200FC1D4E0082
:1038C3000100FE1D4F000200FF1D3E000100F11D1F
:1038D30051000100EE1D52000100EF1D53000100D5
:1038E300F01D54000100281B00000000000000012F
:1038F3003636010100010201000103010001040148
:10390300060605020000070100340801000F090440
:1039130001010D0100FF0E0800001702000019014C
:1039230000FF1A0100011B0100FE1C0100081D021B
:1039330000001F01000120010001210200002301FA
:10394300000F2402000026010001270100082802BD
:1039530000FF2A0100072B0102402C0100002D016A
:1039630000012E0100012F0100FF30010B1D310862
:1039730000003A0100083B01000F3C0100013D013A
:1039830000FF3E04000042040000460400004A0415
:1039930000004E04000052040000560400005A04C4
:1039A30000000000000020017984000001002001D4
:1039B30079840000020020017C84000003002001C0
:1039C3007B840000040042016D8000000500420179
:1039D3007E80000006004201A08000000700200155
:1039E300AB80000000404201A080000010004201B3
:1039F3008F80000011002001FF0600001200100359
:103A0300931D060000001011000008000000203381
:103A130000000C005500393300000C001C00423339
:103A23000000120055002001000014000E00422285
:103A330000000103710301030103010301030103F7
:103A43002203020301031003000300030003000326
:103A530000030003000342030003240306030003DF
:103A63000003040312032503230325032303040391
:103A730004030003000300034403000300032303C0
:103A830000036503210035038103000305030003DD
:103A93000003000300032503230301017101010156
:103AA3000101110101013101010101018001100135
:103AB30061013B0014006301730172016201430160
:103AC3000001130106013D0135000401120100014B
:103AD30000010001000104010401330133013C0131
:103AE3004401320136000001000165010001350087
:103AF30081010001050182018301000103047104B6
:103B030002046004110470040204020401040204A8
:103B13001004610400041404630473047204620453
:103B23004304000413040604000400040404120400
:103B330000040004000400045104640000040004B1
:103B430000044404000400040004000465040004A9
:103B530035048104640005040004830400040302A3
:103B630071023001600211027002010202020202BC
:103B73008002100261023A00410063027302720282
:103B83006202430200021302380000020002040230
:103B930012020002000200020002040204023700C3
:103BA30037003C02440200023900000200026502B1
:103BB3000002350281020002050282028302000232
:103BC3000300710030016000110070003102200316
:103BD30050048000100061000000140063007300B3
:103BE30072006200430000001300060000000000A2
:103BF30004001200000000000000000004000400A4
:103C0300370037003C0244000000000000000000C1
:103C130065000000350081000000050000008300FE
:103C2300000036000100060000000F000000000045
:103C3300000000000000000003FFFF00000403FF7A
:103C4300FF0000FFFF0FF4010005C404032000017F
:103C530000000B000000000000000003010F000043
:103C63000000000000000000000000000000000051
:103C73000000000000000000000000000000000041
:103C8300C8232224CE23D222D4232824D423342489
:103C9300DA23D222D4232824E023D222E623D222F9
:103CA300EC23D222F223D222F823D222FE23D222E1
:103CB30004243A240A24D222000000000000000059
:103CC3000000000010244C241624D22210244C247B
:103CD3001624D22204243A241C24D22200003A2798
:103CE3001300E6261F00EC261F80F22601003A2768
:103CF30002006E260300742604007A26050080263F
:103D030006008C263000AA263100A4263200B626EF
:103D13003300BC263500C2263400C8263600CE2622
:103D23001100DA261400E02615009E26FFFF00008E
:103D33000A00000002000000040000000800000068
:103D43001000000020000000400000008000000080
:103D53000001000000020000000400000008000051
:103D630000100000002000000040000001382F0672
:103D7300622F085C2F0B7A2F10502C023E2F055018
:103D83002F07442F0C202F0D2C2F644C2AFF0000EB
:103D930007ECFDFDFDECDCDCCCBCACAC9C9C8C7C72
:103DA3007C6C6C5C5C5C4C4C3C3C2C2C1C1C03EA1B
:103DB300F5E5D5D5C5B5A595958585757565655520
:103DC3005545453535252515150500160F00000BFE
:103DD300150B020002220F3300000E5A6967426579
:103DE30065416C6C69616E636530390103050709D0
:103DF3000B0D0F00020406080A0C0D00011916181A
:103E0300161618230300303017181921301B1D1FF5
:103E130030303016181920231A1C1E3000034A496B
:103E2300434E181A25050200393D3F373C3C362CDA
:103E3300442D0C0E020B040B0A0708000F020402A8
:103E430001010101090200BE040AE80300000000A9
:103E53000E00E80300007F001E1E0503000304009C
:103E6300100A0C10080C280904040903010C0508A6
:103E7300151208FFC082C083E9901984F002417CC7
:103E830074F4120DF38A088B09EB5480604D800E95
:103E9300EEFAEFFB122332EEFAEFFB121F729019C8
:103EA30084E0F9121F848A0A8B0BAE0AAF0BEE4F24
:103EB30060208E828F83E0641A60D5EEFAEFFB12E6
:103EC30022CCE9F974FF6960CEEEFAEFFB121F789A
:103ED30080CCAA08E5096480FB80047A007B000299
:103EE300416474F7120DF37AFF0255A474F6120DB0
:103EF300F3E9FEEAFF7A047B00124577A808A909D3
:103F0300EA496034EF8A828B83A3A3A3F0EE8A820B
:103F13008B83A3123F73E4F0A3F090199312459798
:103F23007009901993E8F0A3E9803FE0FB8A828B44
:103F330083A3A3A3E06F700479008031EAFCEBFD57
:103F43008A828B8312459770E474FF6F700C8C82A6
:103F53008D83123F7AE4F0A38010901993125ECB05
:103F6300901993123F7AEAF0A3EBF0790102574DCF
:103F7300A3F08A828B8322126DE28882898322C016
:103F830082C083EA126EE43BF583E0FA90199380D2
:103F93000488828983125D6D601C88828983A3A350
:103FA300A3E0FBEA6B600574FF6B70E5888289838D
:103FB300A3A3E0F9800279FF02417C74F4120DF3AC
:103FC300EAFEEBFF8A82F583125ECB1222CCE9F57F
:103FD3000874FF69700302406F7A197B00121F6C2B
:103FE300EA4B700302406F8A828B83743412694CEC
:103FF300A3EA2402FCE43BFD740612134E8E828F67
:10400300831272348882F583126EF68A828B83A3BD
:10401300A3A3A3A3A3A3A3124074A3A3A3A3A3A390
:10402300EA240AFCE43BFD740C12134E8E828F8348
:10403300125FFEC8126EE438F583E0C0E0EA24168E
:10404300F582E43BF583D0E0F0EE240CF8E43FF98D
:104053008882F583126EFAEA2417F582E43BF5832E
:10406300124074E4F0A3F0A908121F787901024109
:1040730064ECF0A3EDF08882898322C082C0839030
:104083001991125ECB02417C74F4120DF38A088BF2
:1040930009ECFEEDFF7A081240DE700479108038D7
:1040A300124148124170740C12177F125ECB888242
:1040B3008983A3A3A3A312788E901989124597909D
:1040C3001989601112416B8003EAFCEB124592706F
:1040D300F88C828D831241420241647B00122008D6
:1040E3008A0A8B0BA80AA90BEA492274F4120DF36E
:1040F30089088A09ECFEEDFF7A0A1240DE70047922
:1041030010803A1241488A828B83A3A3A3E4F0A3CD
:1041130012415BE50912415BA3EEF0A3EFF09019A6
:104123008D12459790198D601112416B8003EAFC43
:10413300EB12459270F88C828D83124142802212D9
:104143006DE279002212414C228A828B83E4F012C1
:104153003F73A3A3E508F022125595A3A3221214DB
:10416300057F040211428F83E0FCA3E022A3E5094B
:1041730012559AEEF0A3EFF022D083D0820213D22D
:1041830074F2120DF3EAFEEBFF8C088D0912234A39
:104193008B0DA90DEA4960198A828B83A3A3A3EE31
:1041A300F0A3EF125591E508F0A3E509F07900803B
:1041B300027901025F4D74F4120DF374F71214E8DF
:1041C300E9FE8518828519837401F0EC7006EDC34E
:1041D3009406404D74036A4B604774011214BA8805
:1041E3000A890B780A1213F27C127D007A007B0095
:1041F300EE12422F121405E9601CE4F50AF50B7860
:104203000A1213F274031214CA74021214C2122390
:104213009E7402121405851882851983E064017067
:10422300047901800279007409024161F912235073
:1042330074022274E8120DF374FA1214E889128AD4
:10424300168B178C088D0912373C8A148B15EA4B91
:10425300700579020243C5AA08AB09A912122368A3
:10426300E9F50FA2E6401C901991125D6D6014E808
:104273002419F582E439F583E064017006E50FD271
:10428300E6F50F7C067D007900AA18AB19121F5AB8
:10429300741F12177F1243CA6009E054FCF0E04414
:1042A300018003E054FC1272DC125D6D602B741EFE
:1042B30012177FE0FE88828983A3121209EEFD7430
:1042C3000212177FE05403FCAA08AB09A9121222B9
:1042D300F07402121405E9700579010243C57422D2
:1042E30012177F125D6D6012851882851983E04471
:1042F30004F0740212177F126DDE742012177F12FE
:1043030043CA6005E044088003E054F7F0742112C7
:10431300177F1243CA6005E044108003E054EFF0B6
:10432300742412177FE0C0E0740412177FD0E0F00A
:10433300740512177FEEF07803851882851983E0E0
:10434300540460027805742512177F1249BEE825CC
:1043530010FEE43511FF12465C6063AC0AAD0BAA94
:1043630018AB1912233E742712177F125EDD121346
:10437300EEAC10AD1112614C121405750C1E780CC5
:104383001213F6750C87750D19780C1213F2780A4F
:104393001213F28E0C8F0D780C1213F2780812138D
:1043A300F2A90FAC14AD15AA16AB1712374874094E
:1043B300121405E9FEAA0AAB0B12200E80027E102E
:1043C300EEF97406026DEC1243CE22E08518828565
:1043D30019832274EA120DF374FE1214E8890B8A0E
:1043E300148B158C0E8D0F7E007F00750A007418D8
:1043F30012177F1249BE80111245881223AA8B0916
:10440300EE2AFEEF3509FF050A126BF7502EE50A77
:1044130075F0061249752403FEE43FFFA3A3E07081
:10442300E60EEE70010F88828983A3A3A3A312452E
:10443300978882898360C1125CDE80C2EEFAEFFB4B
:104443001245778A0C8B0DEA4B700302456B750A94
:10445300008030A818A9198812891378121213F250
:1044630078081213F28A828B831245881223B07460
:104473000412140512722EE50828F508E50939F52A
:1044830009050A126BF7507CE50A75F006A4F8A932
:10449300F0E51028F582E511126BDE12457F8A8262
:1044A3008B83A3125505F0125579125500F0E508D8
:1044B3002403F5085002050988828983E070C2EA63
:1044C300240308E43BF98882F58312457FA38582A0
:1044D300088583098A828B83A3A3A3A312416B8CD0
:1044E30082F583E58245837003024456AC08AD0927
:1044F300AA82AB8388828983E0F91223808A088B9E
:1045030009024484780C1213F28E088F097808127A
:1045130013F2742012177F1249B41213F6E4F5084C
:10452300F50978081213F2742212177F1249B41294
:1045330013F6742212177F1249B41213F67508008A
:1045430078081213F675080178081213F6AC0EAD4D
:104553000FAA14AB15A90B124E52121405E9FEAAA9
:104563000CAB0D12200E80027E10EEF974021214B1
:10457300050245A51220088A088B0922E0850882D6
:10458300850983F0221272CAAA0EAB0FA90B22FD72
:104593008C828D83125ED3EA4B22EEF98004AA1239
:1045A300AB137F0E02114274EC120DF3890A8A10C9
:1045B3008B11ECFEEDFF741412177F1247B07003DA
:1045C30002464DA808A9097C00800D1247935001AB
:1045D3000B1247C35001090C850C82850D83E0FA49
:1045E300ECC39A40E674016A700AA3E07006750E84
:1045F30001750F0078081213F2780E1213F2741C6F
:1046030012177F12478D1213F6E4F50CF50D780C93
:104613001213F2741E12177F12478D1213F6741EB3
:1046230012177F12478D1213F6750B00780B1213B6
:10463300F6750B04780B1213F6124E48121405E9A3
:10464300FEAA08AB0912200E80027E100247767480
:104653000A1214057F0C021142EEFAEFFB12200836
:104663008A0A8B0BEA4B22F58312589522F8E4351C
:104673000DF98882F5831249A4A32285108285113E
:1046830083E0F8E508C3982274EC120DF3890A8AD3
:10469300108B11ECFEEDFF741412177F12477BF59C
:1046A300087509007402780812164D85080E8509ED
:1046B3000FAA0EAB0F12749970030247747900802E
:1046C3003EE9F5127513007402781212164DE50CCB
:1046D3002512FCE50D3513FD8C82F583A312466C80
:1046E300124F7EA312466CA3F0EC2403FC50010D81
:1046F300F5828D83E0124F78124F5250010B0985DA
:104703000C82850D83E0F8E9C39840B574016870A5
:104713000AA3E07006750E01750F0078081213F2F4
:10472300780E1213F2741C12177F12478D1213F6B0
:10473300E4F50CF50D780C1213F2741E12177F12A8
:10474300478D1213F6741E12177F12478D1213F63C
:10475300750B00780B1213F6750B07780B1213F613
:10476300124E48121405E9FEAA08AB0912200E8066
:10477300027E10EEF902465712477F22E0F50CA3A2
:10478300E0F50D850C82F583E022E0F50B780B2232
:10479300EC75F003A4FAABF0E50C2AFAE50D3BFB4C
:1047A3008A82F5831249D1F0EA2402FA2212477F62
:1047B30075F003A4F50EE5F0F50FAA0E1272872229
:1047C300F5828B83124B881249CAA3A3F0E8240312
:1047D300F82274E8120DF374FE1214E8124A1C1244
:1047E300177F1249BE8009EE2402FEE43FFF05084D
:1047F30012467E5037E50875F00D1249752404FE04
:10480300E43FFFE070E8A3E070DDEE2405FEE43F43
:10481300FFE82404F50AE43912499060D1850A823D
:10482300850B83E0F9122392EE2980BE12465C7059
:10483300030249708A0E8B0F7508008018E50C245B
:1048430009FAE4350DFB8A8212499E1249C6F08C9F
:104853000E8D0F050812467E400302490DE50875CB
:10486300F00D1249D8AA82AB83124679F0E50C24E5
:10487300021246701249EDA3F0E50E2404F50E5022
:1048830002050F850C82850D83E070C7E50E2402B7
:10489300FCE4350FFD850E82850F83A3A882A983CF
:1048A3008A828B83E07096E50C2404F512E4350DBF
:1048B300F51385128212499EF0E50C2405F516E4E2
:1048C300350DF51785168212749D1249FF2407F8DA
:1048D300E4350DF9888212499E124A14F0E50E243C
:1048E30005F50E5002050F85128285138312499731
:1048F3007003024856AC0EAD0FE50C240BF582E4B1
:10490300350DF5831249AC024856780A1213F28E1C
:104913000C8F0D780C1213F2742212177F1249B404
:104923001213F6E4F50CF50D780C1213F27424123D
:10493300177F1249B41213F6742412177F1249B465
:104943001213F675080078081213F675080978082B
:104953001213F6AC14AD15740B12177F124985129E
:104963001405E9FEAA0AAB0B12200E80027E100288
:104973006DE8A4F8A9F0E51028F582E511124B23A0
:10498300EE22125ED3A9091222F6740B22F50B85CF
:104993000A82F583E0F9122386E922F5831249A4FA
:1049A30022E0850E82850F8322124B8D8A0E8B0F98
:1049B30022E0F5087808228E828F83E0F510A3E0C9
:1049C300F511221249CA22123F741249D122A3E0DF
:1049D3008882898322126DAC85820C85830D1249EE
:1049E300A4F0850C82850D83A3221249F122A31220
:1049F3004C2AE0850E82850F83A3A322F0851682BD
:104A0300851783124A0DF0E50C22A3E08C828D8377
:104A130022A3A31249F1A3A322851882851983EA4D
:104A2300F0A3EBF089098C148D157E007F007508C7
:104A330000741A2274EA120DF3890B8A108B118CFD
:104A43000E8D0F7E007F00750A00741612177F12F9
:104A530053C08003124AF0850C82850D83126BFDCF
:104A630040F2EEFAEF127498607EA808A909750A5D
:104A7300008003124B2C850C82850D83E0FAE50A36
:104A8300C39A40EF78081213F28E0C8F0D780C1234
:104A930013F2741E12177F126C231213F6E4F50C33
:104AA300F50D780C1213F2742012177F126C231277
:104AB30013F6742012177F126C231213F6750A0073
:104AC300780A1213F6750A0A780A1213F6AC0EADB9
:104AD3000FAA10AB11A90B124E52121405E9FEAA2C
:104AE30008AB0912200E80027E1002459DE50A756F
:104AF300F005A4F8A9F0E50C28F582E50D124B2387
:104B0300A3A3A3127896A3A3E0F91223988B09EA2F
:104B13002403F8E43509F9EE28FEEF39FF050A22EC
:104B230039F583A3A882A98322E50A75F005A4FABF
:104B3300ABF0124B7C8582148583151249D2124F38
:104B43007388828983A3F0E5141275D935158A1207
:104B5300F5138A82F583124B88A3F0E82403FCE45F
:104B630039FD851482851583A3A3A3124B8D8A1265
:104B73008B13A812A913050A22E50C2AF582E50D69
:104B83003BF583A3221249D2A322125ED785128258
:104B9300851383E0F91223802274F6120DF374FE59
:104BA3001214E8E9FE740C12177F124C1BC0E07458
:104BB3000112177FD0E0F0A818A91988088909788D
:104BC300081213F275080275090078081213F274BB
:104BD3001612177F1249B41213F6741512177F12A7
:104BE3001209741612177F1249B41213F6741612AF
:104BF300177F1249B41213F675080078081213F6DA
:104C030075080B78081213F6EEF9124E52121405BA
:104C1300740212140502574D1272F68882F583123C
:104C230043CE124C2AE022F088828983A32274EABD
:104C3300120DF389138A108B11ECFEEDFF7416121B
:104C4300177F1275F7E50A2402F50CE4350BF50D11
:104C5300850C82F583E004751200F50E750F00FADA
:104C6300AB0F1274997003024D5C850A82850B8326
:104C7300124E3C801EEAFC850A82850B83A3A3A304
:104C8300E02CFBA3E034008B8212749DF0A3A88276
:104C9300A9830A850C82850D83E0FBEAC39B40D57B
:104CA300850A82850B83A3E0F8741812177FE0F955
:104CB300741912177FE0FA741A12177FE0FB74114C
:104CC30068703978081213F2780E1213F2EBF50AB2
:104CD300780A1213F6E4F50AF50B780A1213F2EACE
:104CE300F50A780A1213F6E9F50A780A1213F6752B
:104CF3000A00780A1213F6750A12803C741368705E
:104D03004F78081213F2780E1213F2EBF50A780AB1
:104D13001213F6E4F50AF50B780A1213F2EAF50A10
:104D2300780A1213F6E9F50A780A1213F6750A00DF
:104D3300780A1213F6750A14780A1213F6EEFCEFCA
:104D4300FDAA10AB11A913124E52121405E9F51264
:104D5300AA08AB0912200E8003751210A91202458E
:104D6300A574E8120DF389108A128B13ECFEEDFF84
:104D7300741812177F124F5E75F003A4A9F0240173
:104D8300F50EE4391274947003024E35850C828556
:104D93000D83124E3C802EEA75F003A4FCADF0E5C2
:104DA3000C2CFCE50D3D124F4412749D124F6F887D
:104DB300828983124F8588828983A3A3F0E8240321
:104DC300F85001090A850A82850B83E0FBEAC39B3D
:104DD30040C578081213F2780E1213F274201217DA
:104DE3007F126C231213F6E4F50AF50B780A1213FB
:104DF300F2742212177F126C231213F67422121705
:104E03007F126C231213F6750A00780A1213F675D3
:104E13000A0D780A1213F6EEFCEFFDAA12AB13A9E2
:104E230010124E52121405E9FEAA08AB0912200E05
:104E330080027E10EEF9026DEF125895F0A3A8825E
:104E4300A9837A0022EEFCEFFDAA10AB11A90A1286
:104E530022F6740B2274E8120DF389128A108B1157
:104E6300ECFEEDFF741812177F124F5EF5087509FB
:104E7300007402780812164DE5082401F50EE43596
:104E8300091274947003024F3F850C82850D8312BF
:104E9300588CA3AA82AB8379008034E9F514751585
:104EA300007402781412164DE50C2514FCE50D353B
:104EB30015124F4412466A124F6F8A828B83124F28
:104EC30085124F78A3A3A3A3124F5250010B098558
:104ED3000A82850B83E0F8E9C39840BF7808121370
:104EE300F2780E1213F2742012177F126C2312132E
:104EF300F6E4F50AF50B780A1213F2742212177FFF
:104F0300126C231213F6742212177F126C231213DE
:104F1300F6750A00780A1213F6750A16780A121340
:104F2300F6EEFCEFFDAA10AB11A912124E521214A9
:104F330005E9FEAA08AB0912200E80027E10024E7C
:104F430037FDEC2402F514E43DF515851482221295
:104F53005895A3A3A3F0EA2404FA221253C4850CA0
:104F630082F583A385820A85830BE022124F732285
:104F73001272E2E0228A828B83A3A3F08C828D8358
:104F8300A322A3F08C828D83A3A3A3A3E02274F1B5
:104F9300120DF374EB1214E8EAFEEBFFC200EA24ED
:104FA30020F8E43F8808F5098882F583C3E0940379
:104FB300A3E09400500579010253B8901991127837
:104FC30090740212177F127890740E12177FE4F018
:104FD300A3F0740A12177FE4F0A3F0740C12177F86
:104FE300E4F0A3F0EA2422F8E43F880AF50B888270
:104FF300F583126EFA740412177FAA82AB8312230D
:10500300388A0C8B0DA80CA90D740A12177F12781D
:1050130090850882850983125ECBEAC398F8EB99E1
:10502300F9850A82850B83E028F8A3E039F9740C2B
:1050330012177F126DDE740812177FE0901988F043
:10504300EE2414F508E43FF509850882F583E0F9B9
:1050530012373C8A828B83E5824583700C901991C9
:10506300E4F0A3F079020253B8125406602BEE2445
:1050730004F50AE43FF50BA3121209740B12177F10
:10508300E0FD740612177FE05403FC12541512223C
:10509300F07402121405E9700C901991E4F0A3F076
:1050A30079030253B8125415122368E9F50E850AE1
:1050B30082850B83125ECBEAFCEBFD901989800499
:1050C30088828983125D6D70030251B4888289835B
:1050D300A3A31253C0C3EA950CEB950D40E288825B
:1050E3008983A3A3A3A3C3E09CA3E09D40D2E8FCD0
:1050F300E9FD740412177FE05407700D7409121749
:105103007FE0640B70030251B8E50EA2E640030290
:1051130051B8EE2419F582E43FF583E060030251B0
:10512300B8740212177F1253DE707A740212177F5B
:10513300125D6870707C00850882850983E0F9122E
:10514300236E740112177F7401F0740912177F1212
:1051530053CC12177FE0F50C780C1213F674071278
:10516300177F121209750C01780C1213F6740812CA
:10517300177F1274A91213F674051214BA880C89D6
:105183000D780C1213F2740912177F1253FD1217C4
:105193007F1253D212177F1253EC1214057C0112A3
:1051A300541512236E901991E4F0A3F0790502537C
:1051B300B87C007D00740412177FE0F85403600389
:1051C3000252D3E8540460057E8402531274091218
:1051D300177FE0F8C3941740030252CFE8F50A752E
:1051E3000B007402780A12164D7483250AF5827433
:1051F3003C350B125874E84970030252CF8508827C
:10520300850983E0C0E0741012177FD0E0F0740CBE
:1052130012177F125ECB741112177F127890740AE3
:1052230012177F125ECB741312177F1278907410CB
:105233001214C288828983120FC28B09A909740EC2
:1052430012177F127890EA496048740912177FE0B9
:10525300F5087509007402780812164D748525083F
:10526300F582743C3509F583E493F87401938882DD
:10527300F583E5824583601274021214C2120FC2D1
:10528300740E12177F125D6D6008740E12177F1271
:10529300783F740912177FE0F86054740268604F16
:1052A300740368604A7406686045740868604074F3
:1052B3000C68603B74116860367413686031741550
:1052C30068602C740B6860277E0080437E82803F79
:1052D300EC4D602B8C828D83A3A3A3125406601F15
:1052E30074021214C2120FC2E9FE74FF6E700B90A7
:1052F3001991E4F0A3F0F90253B874016E701074BD
:105303000412177FE0540460047E8380027E81745C
:105313000212177F1253DE7075740212177F125D2B
:1053230068706B740412177FE0FA54107060740194
:1053330012177FEEF0740912177F1253CC12177FE6
:105343001249B41213F6740712177F121209750863
:105353000178081213F6EA131313541F640154015E
:10536300F50878081213F674051214BA8808890927
:1053730078081213F2740912177F1253FD12177F64
:105383001253D212177F1253EC121405D200901944
:1053930091E4F0A3F0EE70047900801974846EA296
:1053A30000700A50047907800C790680085004794C
:1053B30009800279087415121405025CD81253C4CB
:1053C30022E0F50CA3E0F50D2212783A740822E0EE
:1053D3002406FAA3E03400FB740922125FFEC824FA
:1053E30015F582E438F583E022A3E0C8126EE838AD
:1053F300F583E0F912231A7407221271DA1272C6C6
:10540300740922A3A3A3125FFE8882F583E5824574
:105413008322850A82850B83125ED38508828509E0
:1054230083E0F92274F4120DF38A088B09ECFEED84
:10543300FF7C067D007900121F5A85088285098347
:10544300E054FCF8A3E0F98E828F83E05403FAE87A
:105453004A850882850983F0A3E9127886A2E2507F
:1054630004D2F08002C2F0850882850983E054FBF0
:10547300F0A2F0E433F50A750B007402780A1216F1
:105483004DE0450A127886A2E3850882850983E008
:1054930050044408800254F7127886A2E45004D2E0
:1054A300F08002C2F0850882850983E054EFF0A200
:1054B300F0E433F50A7404780A12164DE0450A1233
:1054C3006152850882850983E0540460108E828FBF
:1054D30083E0FAA3E0F9EA1266A350010F8E828FEC
:1054E30083125500A312550E850882850983A3A351
:1054F300A3A3A3F0EE1275D93FFB02416412550535
:10550300A322E0850882850983A322A312694CE0C4
:105513002274F7120DF38A828B83E054038C828DFD
:105523008312558C54041255855408125585541012
:10553300F88C828D83E048F0A3AC82AD838A828BA2
:1055430083E054046016125579124A0E124C258CCE
:10555300828D83A3F0EC2402FC50010D8A828B839D
:10556300A3A3A3124A0D125591124A0EA3F0EC12F3
:1055730075D93DFB802EEA2402F8E43BF98882F5D5
:105583008322F88C828D83E048123F74E022125507
:10559300952212559AA322F08A828B83A3A3A3A3F5
:1055A300221222C67F01021142C082C08390198B4E
:1055B30080048A828B83124597600C8A828B83A333
:1055C300A3E06970ED80047A007B0002417CC08215
:1055D300C08390198D80048A828B83124597601350
:1055E3008A828B83A3A3E0F8E968600B74FF687079
:1055F300E680047A007B0002417C74F0120DF38A8A
:10560300088B09ECFEEDFF12234A8A0C8B0DEA4B43
:1056130060627C0080010C850C82850D83A3A3A3AB
:10562300A3A3A3A3125FE4504BECF50E750F007414
:1056330003780E12164D850C82850D83A3A3A3A3B5
:1056430012587E8882F583E493FA740193FBE5088C
:105653006A7003E5096B70BEA3A312567B7002EF59
:105663006B70B3741012177F125685740812130AE5
:105673007901800279008015E493FA740193FBEEBB
:105683006A221272CA89838882221214057F080251
:10569300114274F6120DF31256C16005125EC880F2
:1056A300047A007B0002574D74F6120DF31256C1B3
:1056B3006005125EC680047A007B0002574D1223F8
:1056C3004A8A828B83E58245832274F7120DF3E9BC
:1056D300FFEAFCEBFD90198F800488828983125DB9
:1056E3006D604688828983A3A3E06F70ED7E00809E
:1056F300010E88828983A3A3A3E0FAEEC39A50DA4A
:10570300EE75F003A4FA85F008AB0888828983A3B9
:10571300A3A3A3E02AFAA3E03BFB8A82F583E06C10
:105723007003A3E06D70CA80047A007B000255A762
:1057330074F6120DF31223628A828B83E58245830A
:105743006006A3A3E0F9800279007F02021142748C
:10575300F6120DF3ECFF1223628B09A909EA4960E3
:1057630015EA2402F582E439F583EF6005E0D2E619
:105773008003E0C2E6F080D274F0120DF3EAFEEB90
:10578300FF8C098D0A1223448A0C8B0DEA4B70039C
:10579300025869750B00741012177F126BF2FAE945
:1057A300FB80128C828D83A3A3A3E493A2E3500313
:1057B30002584F050B850C82850D83A3A3A3E0F844
:1057C300E50BC3984003025869E50BF50E750F000E
:1057D3007402780E12164D850C82850D8312587E45
:1057E30012586EEE687002EF6970C88A828B83E08C
:1057F300F88C828D83A3A3E493C39840B674116598
:105803000970197401650A609AE50A70A68C828D85
:1058130083A3A3A3E493A2E24032809774136509A0
:105823007044E50A700D8C828D83A3A3A3E493A235
:10583300E080E57401650A60030257B68C828D83AC
:10584300A3A3A3E493A2E140030257B67412121771
:105853007F125965740412130A88828983A3A312E1
:10586300588C790180027900025690E8FCE9FD88A2
:1058730082F583E493F8740193F922A3A3A3A3E02D
:10588300250EF8A3E0350FF922125895F0228E82E7
:105893008F83E08A828B832274F0120DF38A088B44
:1058A300098C0B12234A8A0E8B0FEA4B70030259A1
:1058B300527A007B00741012177F125FF180050A81
:1058C300EA70010B850E82850F83A3A3A3A3A3A371
:1058D300A3E0F8C3EA98EB940050748A0C8B0D7420
:1058E30003780C12164D850E82850F83A3A3A3A301
:1058F30012595712586EE508687003E5096970BFBD
:10590300A3A3E493F50C740193F50D8E828F831298
:105913007234C3E50C98E50D9940A48C828D83A362
:10592300A3A3A3A3E493A2E7E433650B70917412DA
:1059330012177F125965740812130A88828983A388
:10594300A31272348E828F83126DDE790180027905
:1059530000025690A3A3A3A3E0250CF8A3E0350D02
:10596300F9221272F68C828D83E8FCE9FD2274F130
:10597300120DF3EAFEEBFFECFAEDFBEE4F700302C0
:105983005AE3EC2402F50CE43BF50D8C828D83A3E2
:10599300AC82AD838E088F09750A00E91212BA042E
:1059A3004142B05A4344C25AE0E27B5AE8E9275ADB
:1059B3002108195A09275A0A3D5A0B7B5A10195ABA
:1059C30018195A19275A1A3D5A1B7B5A20195A215A
:1059D300275A223D5A237B5A248C5A25955A269EB0
:1059E3005A27A75A28195A29275A2A3D5A2B7B5A2C
:1059F3002C8C5A2D955A2E9E5A2FA75A30195A314C
:105A0300275A38275A397B5A3AA75AEA7B5AF0A7BA
:105A13005AF1D45AE35A8E828F8312588CECFAEDE2
:105A2300FB025AE38E828F8312466C12550F8C82CF
:105A33008D83F00A0AAB0D025AE38E828F837808B6
:105A43001217108A828B83E508126951780812179E
:105A530010E5098C828D831269517808121710742E
:105A6300107808121489850C82850D83E508F0EA05
:105A73002403FA506B0B80688E828F8312120512F7
:105A83001FD87404121405805778081213EE7C058E
:105A9300804678081213EE7C06803D78081213EED8
:105AA3007C07803478081213EE7C08802B78081268
:105AB30013EE8E828F83E02401FCE43400800F78A0
:105AC300081213EE8E828F83125C6DFCE439FD8025
:105AD3000978081213EE7C107D0012614C12140534
:105AE300025CD8C082C083E91212BA03202FFE5A87
:105AF300383AFE5AE0E2FE5A00025B7901800279ED
:105B03000002417C74F2120DF374FE1214E8EAFEF3
