:020000040000FA
:060000000216C4020A19F9
:03001300020A3BA3
:03002B0002145567
:03003300020C6359
:03003B00020A9026
:0300530002094E51
:03005B000211C7C8
:030063000211E89F
:03006B00020C097B
:03007B00020C3A3A
:100083000209AD010020FD0002012E050000000160
:10009300C01CD21C0000D81CDE1C00000000E41CA5
:1000A300021D081D0E1D00000000000000000101DC
:1000B3000204081020408001FFFF090D0101040123
:1000C300FEFF0000000000000006FFFFFFFFFFFF30
:1000D300FF0101010400D019000000E8030000FF44
:1000E300FF9C1AE803000064006400B801A0BB0D84
:1000F30000A0BB0D00020200F8FF0705021E040169
:10010300051E02051E020A0A010108080103102741
:1001130002803E0102FEFFE8030A050001FFFF0122
:100123000A1401E0C503423F1A51123FF304B53FDD
:100133000000803E010105030101FF0F10FEFFAF28
:100143003A00000000473A00000000FF000000FFF3
:1001530000C082C083E9FA5407F8749628F582E454
:10016300341DF583E0F87900EAC4540F54036008A2
:1001730014600914600D8012E5808002E5905870C8
:10018300078007E5A0586002790102025BC082C0C4
:10019300831202ED600814601214601C802BEA6065
:1001A30005EB42808023E85280801EEA6005EB4223
:1001B300908016E852908011EBC39420500BEA60B4
:1001C30005EB42A08003E852A002025BC082C08319
:1001D3001202ED600814602C146050807BE852F327
:1001E30074016A601274026A601574046A7003EB26
:1001F300428FEB42FD806153F7DFE8528F80F34378
:10020300F72080F6E852F474016A601274026A609F
:100213001574046A7003EB42F6EB42FE803A53F71F
:10022300BFE852F680F343F74080F6EBC3942050C7
:1002330027E852F574016A601274026A6015740447
:100243006A7003EB42F7EB42FF800D53F77FE852EE
:10025300F780F343F78080F6D083D08222C082C038
:10026300831202ED600814602B14604E806CE85218
:10027300F352FD74016A600F74026A600F74046ABA
:100283007058EB428F805353F7DF800343F720E826
:10029300528F8046E852F452FE74016A600F740272
:1002A3006A600F74046A7032EB42F6802D53F7BF15
:1002B300800343F740E852F68020EBC39420501AA2
:1002C300E844E0F852F552FF74016A601074026A60
:1002D300601374046A7003EB42F702025B53F77F07
:1002E300E852F780F543F78080F6E95407FC7496EB
:1002F3002CF582E4341DF583E0FBF4F8E9C4540FD4
:10030300540322C082C0831202ED600814601214E9
:10031300601C802DEA6005EB42FD8025E852FD80DC
:1003230020EA6005EB42FE8018E852FE8013EBC31F
:100333009420500DEA6005EB42FF800574E04852BB
:10034300FF02025BC082C0831202ED6008146015D5
:100353001460228034EA6005EB42808003E8528017
:10036300EB42FD8024EA6005EB42908003E8529063
:10037300EB42FE8014EBC39420500EEA6005EB427F
:10038300A08003E852A0EB42FF02025BE9C4540FD2
:1003930054036007146013146020227801E8F4FB0F
:1003A300EA602014602114601522740F59C3940469
:1003B3005004780280E7780480E3780880DFE58CD6
:1003C300586004EB528C22E8428C221216D4601D32
:1003D3001216E37005191919801A121565701F1288
:1003E300153DC37003E66733191919400718181828
:1003F3002208080874FFF618F618F618F6221215E4
:100403003D6017121789702192F0121792701950DC
:100413001720F014080808090909E7F61819E7F680
:100423001819E7F61819E7F62212179260E6E86939
:10043300701F0808E62480F608E436F618547FB4E3
:100443007F0CE654806007F6E418F618F6221818B5
:1004530022E9C6CC08C6CD08C6CE08C6CFC0E0E8A0
:10046300C0E0EAC0E0EBC0E009E9F809E7FA09E710
:10047300FBE6F918E6F8C3EC98ED99EE9AEBC2E7C0
:10048300F5F0EFC2E795F0500E600CEBCFFBEACE30
:10049300FAE9CDF9E8CCF8EAA2E7D2E7FAEB33FBC5
:1004A30013F5F0EEA2E7D2E7FEEF33FFC5F013A298
:1004B300E730E601B313C5F0C3C0E0C0F07F00C36B
:1004C3009BFB605E9418600F401D14601AD0E023FC
:1004D300F9D0E0F80205AF8AF0E9486003D2F0E40E
:1004E300AFF0FAF9F8803BEB30E40D89F0EA6003F2
:1004F300D2F0E4AFF0F9CAF8EB30E30D88F0EF6027
:1005030002D2F0AFF0E4CAC9F8EB54076014FBC39E
:10051300EA13FAE913F9E813F8EF135002D2E0FFF4
:10052300DBEDD0E0C0E030E739C3E49FFFF5F0EC4A
:1005330098FC42F0ED99FD42F0EE9AFE42F0D0E0D5
:10054300F9D0E0F8E5F0607AE923F9EE20E742D844
:10055300028067C3EF33FFEC33FCED33FDEE33FE74
:1005630080EAEC28FCED39FDEE3AFED0E023F9D029
:10057300E0F84002801BC3EE13FEED13FDEC13FC09
:10058300EF135002D2E0FF08B800067F7F74FF80AC
:100593002EEF3350178CF020F00260100CBC000CCF
:1005A3000DBD00080EBE000408E860DFE933E81360
:1005B300FFEE2313FE4F4D4C8008E95480FFE4FE09
:1005C300FDFCEE33EF33F47004FCFD7E80D0E0FBE2
:1005D300D0E0FAD0E0F8D0E0CFC618CEC618CDC62A
:1005E30018CCC6F9221216D4700418181822121641
:1005F300E3700D74FFF61819F61819F61819F62298
:10060300E7548066F6121792700F12178970F01470
:10061300F608F608F608F680D1121789700CF6086A
:10062300F608768008E6447F80EC121540700C12C1
:10063300156860BFE65480F6E480BB121568700548
:1006430019191980A5E869700C763F18768018F699
:1006530018F6E8F922E6CDC0E018ECC0E0E633CDA9
:1006630033CDD313F6E719FCE7191933CC33C3940D
:100673007F400ECD9D502408E65480F6E418F680A2
:100683000FF4043D14501408E6447FF6187680E412
:1006930018F618F6D0E0FCD0E0FD22CCD313CCFD45
:1006A30018E4C6CBC0E018E4C6CAC0E00808ED08E9
:1006B300C633E613F618E433C675F003C3CA97CA04
:1006C30009CB97CB199C40047D08802EBD00030203
:1006D300079116B6FF050606081618C3CA33CACB18
:1006E30033CB33CA27CA09CB37CB193CC37D088028
:1006F3003E187D0820E75CC633C6CA33CACB33CB6A
:1007030033DDF1D5F0EB30E77BCA97CA09CB974AC3
:10071300CB199C406F4B7025E620E0218066187D45
:1007230008C3CA97CA09CB97CB199CD3C633C6CA89
:1007330033CACB33CB3350C9DDE7D5F0E1D3E4C6BD
:1007430036C608C636C608C636C608C636C618181C
:10075300188031C3CA97CA09CB97CB199CB340976A
:10076300C633C6CA33CACB33CB33DD34D5F02EC63A
:10077300A2E0C640C8CA27CA09CB37194A70BECB04
:100783003CB480B90808E63308E633601F1818182C
:10079300D0E0FAD0E0FBD0E0FCD0E0FD22187D08E9
:1007A300CA27CA09CB37CB193CD3808013F618E488
:1007B300B67F11F618B6FF0EF618C60470D20808F5
:1007C300768080CAF618F618F680C5001216D46033
:1007D3004F1216E36012E7548066F6121565701126
:1007E300121789703B090909F4F618F618F618F67A
:1007F3002212153D701512179208080860EAE644A4
:100803007FF618768018E4F618F62212179260160F
:100813001217897012E4F608F608F608E65480F613
:1008230009090918181822EAC0E0EBC0E0ECC0E09F
:10083300EDC0E0E687F0A4FBACF008E687F0A42C5B
:10084300FCE435F0FA1809E687F0A42C4B60027437
:1008530001CA35F0FCE433FB09E687F0D2F7A42C98
:10086300CB35F0FC1908E687F0A42BCC35F0FBE47C
:1008730033FD0819E687F0D2E7A42C4ACB35F0CD37
:100883003400FC09E687F0D2E7A42DCC35F0FDE473
:1008930033FA0918E687F0D2F7A42CCD35F0CA3421
:1008A30000FC08E687F0D2E7D2F7A42ACC35F07A29
:1008B3007E20E70B0ACB33CBCD33CDCC33CC33CB3C
:1008C3003350147004ED30E00ED2F1E4CD3DCDCCC5
:1008D3003CCC3B5005DA05C2F1EB547FC63308E646
:1008E3003392F0FBE73309E733C39A502D2B70198A
:1008F3000C0D4C4D70151806E608C333700D20F12E
:100903000AA2F013F6E418800B4024E4F630F00258
:10091300768018F618F618F68024D33B145010741A
:10092300FFA2F013F6187680E418F618F6800FA2EB
:10093300F013F618E63303F618ECF618EDF6D0E0EC
:10094300FDD0E0FCD0E0FBD0E0FA22C0E074F1126D
:100953000E5FA2AFE433F509D2AF85A708AFA1EFCD
:100963005508FE74105E60061219A875A1EF74088D
:100973005E60081219AE75A1F78024EFA2E092F031
:10098300E508A2E082F05017906198E0F890049C8B
:10099300E0C398A2D265D0335002E8F075A1FEE51A
:1009A30009A2E092AF7F02020EBEC0E074F2120E03
:1009B3005FA2AFE433FED2AF9061A4E0F8759B0071
:1009C300E59158540860087591F71219F68023E5EC
:1009D3009158541060087591EF1219FC8014E59139
:1009E300A2E092F0E8A2E082F05007E0C2E0F01249
:1009F3001B589061A3E0F8E5E9585404600E121BFC
:100A03002E75E9FB906193E0A2E640F2EEA2E0923C
:100A1300AF7F01020EBEC0E074F2120E5FA2AFE41C
:100A230033FED2AF9061A5E0F8E5BF5854046006E9
:100A330075BFFB121B7080D4C0E0C0D0E8C0E0E9F2
:100A4300C0E0C082C083A8C1E8C0E0900409E0F818
:100A5300748828F582E43403F583D0E0F090040829
:100A6300E0F8A3E0687006E59590040BF0900409A4
:100A7300E004F0C394804002E4F0A374C6F0D08392
:100A8300D082D0E0F9D0E0F8D0D0D0E032C0E0C0DE
:100A9300D0E8C0E0E9C0E0C082C08390048CE0F8F5
:100AA300A3E0687008539AFBA374018022C2E99003
:100AB300048CE0F8740128F0740C28F582E4340403
:100AC300F583E0F5C190048CE0C394804002E4F028
:100AD30080AC120B2030F039120B658034120B20DE
:100AE30020F01430E72B74FFFCFBFA747F8022E4C0
:100AF300FCFBFA7480801AB48008BC00F2BB00EFE0
:100B0300800F50EBF9E4C39AFAE49BFBE49CFCE40A
:100B130099C6CC18C6CB18C6CA18C6F922E4C9C6EA
:100B230008CAC608CBC6D3330308CCC63392F0C376
:100B3300947F402E94184019C9B90704CACBCC221C
:100B43005025C309CA33CACB33CBCC33CC33D9F406
:100B530022F4600DC9CCC313CB13CBCA13CAD9F685
:100B6300CC22E4FCFBFA2214FCFBFA22C3E498F83F
:100B7300E499F9120BB08026C3E49AFAE49BFBE9EB
:100B830020E7E9120BB0E498F8E499F922C3E4985A
:100B9300F8E499F9120BB0E498F8E499F9C3E49AEC
:100BA300FAE49BFB22EB20E7CFE920E7E0B9001052
:100BB300BB0008E88AF084F8AAF022E4FBC8FA2212
:100BC300EB70227B10C833C8C933C9335007C39AAB
:100BD300C3DBF280069A50012ADBEAC833F4C8C9A2
:100BE30033F4C9FA2275F008E4C833C8C933C933EA
:100BF300C99AC99B5004C92AC93BD5F0ECFBC83339
:100C0300F4C8E4C9FA22C0E074F2120E5FA2AFE4A2
:100C130033FED2AF90062FE05589600FE589FA794C
:100C230000121E1C90062FE0F45289C2C5EEA2E00A
:100C330092AF7F01020EBEC0E074F2120E5FA2AF4C
:100C4300E433FED2AF900630E0558A600FE58AFAAE
:100C53007901121E1C900630E0F4528AC2EB80CD5B
:100C6300C0E074F2120E5FA2AFE433FED2AF90067F
:100C730031E0558B600FE58BFA7902121E1C90064A
:100C830031E0F4528BC2E880A4080808EAC0E0EB24
:100C9300C0E086F0E7A4FA180986F0E7A42AFA1858
:100CA3000986F0E7A42AFA180986F0E7A42AFA19B4
:100CB30086F0E7A4FBE5F02AFA190886F0E7A42BEF
:100CC300FBE5F03AFA190886F0E7A42BFBE5F03AC6
:100CD300FA18180986F0E7A4C5F02BFBE43AFA19D1
:100CE30008E7C5F0C6A426F6E5F03BFBE43AFA189C
:100CF30086F0E7A4F6E5F00826F6E43B08F6E43AC6
:100D030008F6D0E0FBD0E0FA22080808E630E71145
:100D13001215A1120D24080808C64480C618181815
:100D230022181818E9799EC608CAC608CBC608CC8B
:100D3300C6C370207996CACBCC7019798ECBCC7090
:100D4300137986CC700EF9802ACA33CACB33CBCC45
:100D530033CC331930E7F2CCCBCA3350147004EAE6
:100D630030E00DE4CA3ACACB3BCBCC3CCC500209B1
:100D7300C3E913C6CC182313C6CB18C6CA18C6F9C1
:100D830022E4CFC0E0E4CEC0E0E4CDC0E0E4CCC0D8
:100D9300E075F020E626F608E633F608E633F608B3
:100DA300E633F6181818EC33FCED33FDEE33FEEFA3
:100DB30033FFC3EC9709ED9709EE9709EF971919DC
:100DC30019400FFFEC97FC09ED97FD09EE97FE190B
:100DD3001906D5F0BFECF709EDF709EEF709EFF7C0
:100DE300191919D0E0FCD0E0FDD0E0FED0E0FF22DD
:100DF3002518C582C0E0E51934FFC583C0E0E518B6
:100E0300C3958224F810AF0885831985821880085A
:100E1300858319858218D2AFCEF0A3E520F0A3789D
:100E230008E608F0A3DEFAEFF0A3E58124FAF8E67A
:100E330008F0A3E608F0A3E608F0A30808E608F024
:100E4300A3E608F0A315811581D0E0FED0E0F815E4
:100E53008115811581E8C0E0EEC0E022C0D02518DD
:100E6300C582C0E0E51934FFC583C0E0E518C3952A
:100E73008224F310AF08858319858218800885833F
:100E830019858218D2AFC8F0A3E9F0A3EAF0A3EB67
:100E9300F0A37908E709F0A3D8FAECF0A3EDF0A3E7
:100EA300EEF0A3EFF0A3D0E0F0A3D0E0F0A3D0E006
:100EB300F0A3E520F0A3E5F0F0A3228519838518BC
:100EC30082E0C0E0A3E0F9A3E0FAA3E0FBA3780883
:100ED300E0F608A3DFFAE0FCA3E0FDA3E0FEA3E055
:100EE300FFA3E0C0E0A3E0C0E0A3E0F5D0A3E0F5FA
:100EF30020A3E0A3F5F010AF08858319858218803D
:100F030008858319858218D2AFD082D083D0E0F8C8
:100F1300D0E0321215A4181818120D841216731982
:100F2300191922121673191919080808E61818183E
:100F330020E7E0120D841215A418181822090909D4
:100F4300E719191920E7DC080808E618181820E73C
:100F530003020D841215A4181818120D841215A477
:100F630018181812167319191922121774B90003D5
:100F7300020FACE4900331783A791B8002F0A3D8D6
:100F8300FCD9FA7A6A7B1D90008678CF79018015A7
:100F9300E493A3AD82AE838A828B83F0A3AA82AB50
:100FA300838D828E83D8E9D9E77582337583C074C4
:100FB300071213CC7582B475833774001213CCE413
:100FC3007375F0108E1A8F1B85821F85831E8518FB
:100FD30082851983E0CEA3E0CF851F82851E83EB34
:100FE300C9EAC8EDCBECCAC3E833C8E933C9EA336D
:100FF300CAEB33CBC3EA9EF51DEB9FF51CB350043C
:10100300AB1CAA1DEC33CCED33CDD5F0DAAE1AAF61
:101013001B221216D4601C1216E36017121792706B
:10102300071217897001D322C0D01217897006D016
:10103300D0B322C32233D0D0501430E0F6C3E796A6
:101043000809E7960809E7960809E796B32220E01E
:10105300D5E6970809E6970809E6970809E697B3DE
:1010630022D083D082ECC0E0EDC0E0E493A3FCE4A3
:1010730093A3FDED4C600D121188EC24FFFCED34BD
:10108300FFFD80EFE493A3FCE493A3FDED4C600D1F
:1010930012128FEC24FFFCED34FFFD80EFD0E0FD56
:1010A300D0E0FCE493A3C0E0E493C0E0221216D4A2
:1010B300601B1216E36016121792700712178960ED
:1010C3000CB322C0D01217897005D0D022C32233AB
:1010D300D0D0501330E0EBC3E7960809E796080930
:1010E300E7960809E7962220E0E4E6970809E697E1
:1010F3000809E6970809E69722D083D082E9C0E081
:10110300E493A3C386F0C5F095F0F908E493A386AE
:10111300F0C5F095F0700BE493A3C3994005E9047F
:101123008002A3E475F002A42582F582E5F03583FD
:10113300F583D0E0F9E493A3C0E0E493C0E0228513
:101143001983851882E0A3FEE0A3F5207808E0A3C5
:10115300F608DFFAE0A3FFE0A3C0E0E0A3C0E0E00D
:10116300A3C0E0E0A3C0E0E0A3C0E010AF08858225
:10117300188583198008858218858319D2AFD08397
:10118300D0820213D2C0E0C3E4939608740193960D
:1011930018400FE493667008087401936618700092
:1011A3007019A3A3C3E49396087401939618A3A399
:1011B300400DD0E0D0E0D0E00210A0A3A3A3A3A3EE
:1011C300A3D0E022C0E074F2120E5FC2D9901DB327
:1011D300E0C39400A2D265D0334005E0F912215850
:1011E3007F01020EBEC0E074F2120E5FC2DC901DDE
:1011F300B5E0F9C39400A2D265D03340031221585D
:1012030080DE7404800474028000CCC0E0EDC0E092
:10121300E518C39CCCAD1950011D10AF068C188D79
:101223001980068C188D19D2AF12134ED0E0FDD061
:10123300E0FC2274028000CCC0E0EDC0E0E518C3FE
:101243009CCCAD1950011D10AF068C188D1980066A
:101253008C188D19D2AF12130AD0E0FDD0E0FC2216
:101263001216D460251216E360201217927003023F
:101273001789080808E76670101819E766700A18D6
:1012830019E76670041819E76622F422C0E0C0F07B
:1012930088F0E4936670080874019366187000A8D8
:1012A300F0A3A3700BD0F0D0E0D0E0D0E00210A008
:1012B300A3A3D0F0D0E022D083D082CCC0E0E493CB
:1012C300A3600612136F1470FAE493A3600612145A
:1012D300D21470FAD0E0FCE493A3C0E0E493C0E03E
:1012E30022C008C3E096F50808A3E096420808A3C5
:1012F300E096420808A3E0964208A2D265D033E5FF
:10130300087001D3D00822CAC0E0E493A3C582CCFD
:10131300C582C583CDC583F0A3C582CCC582C583F1
:10132300CDC583DAE5D0E0CA22A2E792D65002F413
:101333000430F70663F0FF05F0B3400384800384B1
:10134300F40430D60563F0FF05F022CAC0E0E0A341
:10135300C582CCC582C583CDC583F0A3C582CCC568
:1013630082C583CDC583DAE6D0E0CA22C0E0E49328
:10137300A3D39C5010E493A3C39C400AD0E0D0E0D5
:10138300D0E00212D7A3A3A3D0E022700908080873
:10139300226016181818C6C333C608C633C608C653
:1013A30033C608C633C6D5E0EA22C008C3E096F5C3
:1013B3000808A3E096420808A3E096420808A3E0C1
:1013C3009645087001D3D00822C09FF59FE473D0DF
:1013D3009F22D083D082C09FE493C0E0740193C066
:1013E300E0740293F59F227404800A7403800674E8
:1013F3000280027401C0E0F404121420D0E012173A
:101403001F2200C0D0251810AF08F518500C05197D
:101413008008F51850020519D2AFD0D0222518F54F
:101423008210AF08F518400C15198008F518400212
:101433001519D2AF85198322BB0102E722C082C0EE
:101443008389828A83BB0003E08002E493D083D044
:101453008222C0E0C0D0E8C0E0A8A8D2AFC2C7E8EB
:10146300A2E792AFD0E0F8D0D0D0E03260170808FE
:1014730008C6A2E713C618C613C618C613C618C6ED
:1014830013C6D5E0E9226016080808C6C313C618B8
:10149300C613C618C613C618C613C6D5E0EA22C3B8
:1014A300E0C696F608A3E0C696F608A3E0C696F64D
:1014B30008A3E0C696F6222518F8E43519F9222583
:1014C30018FAE43519FB222518FCE43519FD22C06E
:1014D300E0E493A36C7009D0E0D0E0D0E00212D72F
:1014E300A3A3D0E022251810AF08F518400C151956
:1014F3008008F51840021519D2AF22E7667010086C
:1015030009E766700A0809E76670040809E76622B6
:10151300C3E09608A3E09608A3E09608A3E096A28A
:10152300D265D03322E066701008A3E066700A0823
:10153300A3E066700408A3E06622191919E70947B6
:10154300097009E727097005E733F4220922C3E08C
:1015530096F008A3E096F008A3E096F008A3E096BF
:10156300F022181818E60846087009E626087005E0
:10157300E633F4220822C3E4939608740193960891
:1015830074029396087403939622C3E697F60809A8
:10159300E697F60809E697F60809E697F62218187B
:1015A30018E4C396F608E496F608E496F608E4967B
:1015B300F622E056F008A3E056F008A3E056F00840
:1015C300A3E056F022E667F60809E667F60809E69F
:1015D30067F60809E667F622E493F608740193F6C2
:1015E30008740293F608740393F622E657F6080983
:1015F300E657F60809E657F60809E657F622E627FE
:10160300F60809E637F60809E637F60809E637F675
:1016130022E026F608A3E036F608A3E036F608A390
:10162300E036F622E026F008A3E036F008A3E03621
:10163300F008A3E036F022E647F60809E647F60885
:1016430009E647F60809E647F622700422600D18FA
:10165300C6C333C608C633C6D5E0F41822E056F62F
:1016630008A3E056F608A3E056F608A3E056F622D0
:10167300E4C397F709E497F709E497F709E497F7C1
:1016830022600D08C6A2E713C618C613C6D5E0F339
:1016930022C6F4C608C6F4C608C6F4C608C6F4C60D
:1016A30022C3E09608A3E09608A3E09608A3E09679
:1016B30022C3E7960809E7960809E7960809E7961B
:1016C3002275D00075813F75183175190300020F1B
:1016D3006DE6084608C3134608336002E633F42276
:1016E300E7094709C3134709336002E733F422606C
:1016F3000C08C6C313C618C613C6D5E0F422E6F019
:1017030008A3E6F008A3E6F008A3E6F022E0F60853
:10171300A3E0F608A3E0F608A3E0F622CAC0E0E6D9
:10172300F0A308DAFAD0E0FA22E0FCA3E0FDA3E09C
:10173300FEA3E0FF22EAF0A3EBF0A3ECF0A3EDF0AD
:1017430022E0FAA3E0FBA3E0FCA3E0FD22E8F0A380
:10175300E9F0A3EAF0A3EBF022ECF0A3EDF0A3EEA3
:10176300F0A3EFF022E0F8A3E0F9A3E0FAA3E0FB93
:1017730022E5C754F84401F5C77901222518F582FB
:10178300E43519F58322E72719471947194722E654
:101793002618461846184622C2AF75D69F02000087
:1017A300221213D55CCD051213D53ED0051213D5E5
:1017B30090D1051213D546D2051213D545D3051280
:1017C30013D578D4051213D519B7071213D5A1B7BA
:1017D300071213D5E1B8071213D5C1D0071213D5D9
:1017E300D2D0071213D570D1071213D57BD10712AC
:1017F30013D5F77F001213D59ED7071213D580D3C5
:10180300071213D590D3071213D5A5D3071213D5F7
:101813000BD4071213D5BFCD071213D542CE07122F
:1018230013D5A8CE071213D535BE071213D570BE34
:10183300071213D5CBBE071213D523BF071213D537
:10184300A9BF071213D5E5BF071213D5B1D70712E6
:1018530013D5C1D7071213D5499A071213D59F9AE7
:10186300071213D5EE9A071213D51B9B071213D534
:10187300719B071213D5B6D6071213D5A9B9071250
:1018830013D5F3B9071213D589BA071213D50FBBB2
:10189300071213D540BB071213D558BB071213D534
:1018A300CCBB071213D5E2BB071213D5F5BB071246
:1018B30013D5FFBB071213D583F3031213D534F8E3
:1018C300031213D549F9031213D575F9031213D56E
:1018D300FAF9031213D5C1FC031213D5A6EA0512B4
:1018E30013D509EB051213D5B9EB051213D584EC07
:1018F300051213D5D9ED051213D5B9EE051213D57B
:10190300B6EF051213D58EF1051213D5B5F10512F5
:1019130013D541F2051213D59BF3051213D52EF4FB
:10192300051213D540F4051213D5339C061213D5B3
:10193300019E061213D52C9F061213D5EFA0061293
:1019430013D5EAF6061213D516F7061213D587F93F
:10195300061213D5C7F9061213D507FA061213D5C3
:101963001BFA061213D534FA061213D525FB0612F9
:1019730013D5CAFB061213D5DEFB061213D59FC679
:10198300071213D5C3C6071213D5DCC6071213D526
:101993000EC7071213D53EC7071213D56BC707121D
:1019A30013D5CDC7071213D5DCC7071213D5E6C766
:1019B300071213D5F3C7071213D583B4071213D530
:1019C300A3B4071213D5E2B4071213D5FDB407125B
:1019D30013D51CB5071213D582B5071213D58BB5D2
:1019E300071213D5E8B5071213D50CB6071213D592
:1019F300CDB6071213D5DAB6071213D5EBB6071215
:101A030013D515D4071213D52DD4071213D559D4D2
:101A1300071213D50E85071213D56286071213D545
:101A23007086071213D58386071213D5988607127B
:101A330013D5AD86071213D5C086071213D5348785
:101A4300071213D59987071213D53B88071213D5AD
:101A5300FF88071213D50F89071213D51E890712A2
:101A630013D54CD2071213D570D2071213D598D2BF
:101A7300071213D5C0D2071213D512D5071213D5E7
:101A830012BC071213D539BC071213D557BC071262
:101A930013D5CABC071213D56DAE071213D586AE84
:101AA300071213D592AE071213D5A6AE071213D59C
:101AB300C4AE071213D5CEAE071213D5D8AE071294
:101AC30013D5EBAE071213D575AF071213D5EAAFD3
:101AD300071213D51EB0071213D56CB0071213D516
:101AE300B9B0071213D5D4B0071213D5DEB007125D
:101AF30013D504B1071213D569B1071213D593D1C6
:101B0300071213D5B5D1071213D573D7071213D5FF
:101B13000080061213D52A80061213D547800612B9
:101B230013D55A80061213D57080061213D5CE80B2
:101B3300061213D50681061213D5FE84061213D599
:101B43004386061213D57686061213D5D986061256
:101B530013D55C88061213D58488061213D5998889
:101B6300061213D5A988061213D5ED88061213D5CC
:101B73004889061213D55889061213D57FCA07124E
:101B830013D599CA071213D5C1CA071213D5DACAD6
:101B9300071213D5FECA071213D51CCB071213D590
:101BA30033CB071213D561CB071213D57CCB0712A6
:101BB30013D530D6071213D52F9E071213D53F9E88
:101BC300071213D5469F071213D57A9F071213D511
:101BD3009C9F071213D5BF9F071213D5DD9F0712D2
:101BE30013D517A0071213D57CA0071213D5BEA0D7
:101BF300071213D5FDA0071213D52EA1071213D573
:101C030065A1071213D59EF7021213D59AF8021293
:101C130013D5B8F8021213D5DFF8021213D5A9FAB7
:101C2300021213D5D7FA021213D58CFB021213D565
:101C33004FFC021213D55EFD021213D599FE021258
:101C430013D53A92071213D58F92071213D509931E
:101C5300071213D51C93071213D54393071213D5F9
:101C6300D693071213D5B094071213D5E892061230
:101C730013D51393061213D5DE93061213D51B94B3
:101C8300061213D5AC94061213D52898061213D551
:101C93003B9A061213D58AD4041213D5C4D4041262
:101CA30013D5C4D6041213D50ED9041213D507DCE9
:101CB300041213D579DC041213D513DD041213D5E2
:101CC30062DD041213D5A5DD041213D5BFDD0412A2
:101CD30013D518DE041213D546DE041213D549DEDC
:101CE300041213D559DE041213D56CDE041213D576
:101CF300B7DE041213D5CBE0041213D5FEE00412B1
:101D030013D563E1041213D5B6E1041213D53CE2F3
:101D1300041213D5C8E2041213D5E0E4041213D558
:101D230080E6041213D5BEE7041213D562E9041248
:101D330013D5C1CE071213D5DBCE071213D522CF8D
:101D4300071213D550CF071213D56ACF071213D535
:101D530083CF071213D5A7CF071213D538D6061290
:101D630013D569D6061213D5BDD6061213D58DD752
:101D7300061213D5BAD7061213D5E7D7061213D511
:101D830039D8061213D563D8061213D587D806128D
:101D930013D5AFD8061213D5EFD8061213D579D9B8
:101DA300061213D5AAD9061213D5D1D9061213D503
:101DB30017DA061213D535DA061213D559DA0612D5
:101DC30013D579DA061213D5AFDA061213D50EDB63
:101DD300061213D530DB061213D58FDB061213D58B
:101DE3009EDB061213D5D7DB061213D5A978001292
:101DF30013D5E378001213D51E7A001213D5367B60
:101E0300001213D58C7F001213D52CE7061213D5BD
:101E130066E7061213D50DE8061213D5B8CC0712E0
:101E230013D529CD071213D58BCD071213D58AD01D
:101E3300061213D59BD1061213D5ACD2061213D5B5
:101E4300FAD3061213D550D4061213D58ED4061224
:101E530013D59CD4061213D52DD6061213D53FA83D
:101E6300071213D5A1A8071213D59DAA071213D5DC
:101E7300D6F1061213D517F2061213D54DF2061238
:101E830013D574F3061213D510F5061213D5B0F556
:101E9300061213D5CEF6061213D5C5BE061213D5F8
:101EA3000DBF061213D5F4BF061213D5E7C20612EF
:101EB30013D511C3061213D5E3C3061213D5D4C326
:101EC300071213D511C4071213D545C4071213D52E
:101ED30058C4071213D5BDA1071213D5D0A20712F8
:101EE30013D592A3071213D53DA4071213D569A4E2
:101EF300071213D5E0A4071213D5E6DB061213D598
:101F030046DC061213D5D5DC061213D5FBDD06120B
:101F130013D5B0E0061213D5C6E0061213D53CC59F
:101F2300071213D55CC5071213D56FC6071213D555
:101F330072C6071213D5B6FE031213D5ECFE0312B5
:101F430013D506FF031213D548FF031213D558FF09
:101F5300031213D5F2FF031213D5ACAA061213D53D
:101F6300B6AA061213D5F0AA061213D559AB061258
:101F730013D576AB061213D518AC061213D521ACC4
:101F8300061213D566AC061213D58FAC061213D501
:101F93009CAC061213D50DAD061213D598AD0612DF
:101FA30013D5E6AD061213D524AE061213D589AEAA
:101FB300061213D5ACAE061213D523AF061213D5F2
:101FC3007AAF061213D5B5AF061213D5EAAF0612D0
:101FD30013D5FCAF061213D50EB0061213D52DB0D0
:101FE300061213D536B0061213D5F1B0061213D567
:101FF3003DB1061213D57BB1061213D5FDC70712E7
:1020030013D53DC9071213D558D7071213D563ABA0
:10201300071213D5A7AB071213D5EFAB071213D5CE
:10202300D5AD071213D564AE071213D59AD4071290
:1020330013D50080051213D52481051213D55E81B3
:10204300051213D50883051213D53283051213D550
:10205300A785051213D5E785051213D57D870512CC
:1020630013D51A88051213D56C88051213D50F8959
:10207300051213D54789051213D58989051213D57E
:10208300F88A051213D5468C051213D5778E0512DF
:1020930013D5A58E051213D5CC8E051213D5D58E67
:1020A300051213D5258F051213D5B78F051213D536
:1020B300E692051213D56993051213D51AD70712A1
:1020C30013D530D7071213D5F2FB061213D508FC2C
:1020D300061213D5ACFC061213D5EBFC061213D56E
:1020E30008FD061213D539FD061213D586FD061217
:1020F30013D5B9FD061213D5F4FD061213D5E9FF66
:10210300061213D5C0CA061213D5E6CC061213D590
:1021130018CE061213D530CE061213D5008007123F
:1021230013D54281071213D5DA82071213D5A7B14B
:10213300061213D5ABB2061213D5CDB3061213D5BF
:10214300E8B4061213D5BEB5061213D516C207128C
:1021530013D58CC2071213D5B693051213D57B94EE
:10216300051213D58894051213D53195051213D58D
:102173009095051213D50097051213D5789705127C
:1021830013D53A99051213D56699051213D5739B86
:10219300051213D59B9B051213D5FC9B051213D572
:1021A300579C051213D5A89D051213D5FB9D051247
:1021B30013D5809E051213D58AE1061213D5B1E11A
:1021C300061213D505E4061213D52CE4061213D513
:1021D30081E4061213D5B3E5061213D52FE60612D2
:1021E30013D5C1CF071213D520D0071213D55ED054
:1021F300071213D59FD0071213D5F4B0051213D5C8
:102203005DB1051213D5A8B1051213D5E3B10512BB
:1022130013D558B4051213D574B8051213D590BA53
:10222300051213D59EBB051213D578BC051213D521
:102233006AB8061213D5A4B8061213D5DDB906126F
:1022430013D57EBB061213D5ABBB061213D54EBCFA
:10225300061213D5B1BC061213D5E8BD061213D569
:10226300E5D2071213D52FD3071213D5E4C40612F0
:1022730013D541C5061213D51FC6061213D510C7B1
:10228300061213D53CC7061213D518C8061213D568
:1022930034C8061213D5CDC8061213D556C9061273
:1022A30013D5DCFF011213D5EFFF011213D54EC96D
:1022B300071213D55DC9071213D5BDC9071213D56C
:1022C3008BD7071213D5823E001213D58E3E001210
:1022D30013D5F03E001213D5FA3E001213D58D3FED
:1022E300001213D5C93F001213D58940001213D52C
:1022F3009640001213D5F940001213D58E410012F7
:1023030013D5C441001213D54142001213D5E14342
:10231300001213D5B545001213D59646001213D5F6
:10232300E047001213D5424A001213D5A74B0012FF
:1023330013D53C4C001213D56F4D001213D5634EC9
:10234300001213D59C4F001213D53254001213D52B
:102353001F55001213D5B755001213D5DC550012C3
:1023630013D50856001213D5A056001213D5B6562E
:10237300001213D5D856001213D53E57001213D5A9
:102383005D57001213D58657001213D5A6580012B5
:1023930013D57C59001213D5F15A001213D5125BD1
:1023A300001213D5935B001213D5395C001213D5B9
:1023B300815C001213D5F25C001213D57E5D00120E
:1023C30013D5E25D001213D5425E001213D5F15E00
:1023D300001213D55D5F001213D5905F001213D561
:1023E3000E60001213D56A61001213D5DA61001270
:1023F30013D56C62001213D5CF63001213D5566444
:10240300001213D5BB64001213D5E966001213D56D
:102413007568001213D58568001213D5B9680012C8
:1024230013D52769001213D56269001213D5C46945
:10243300001213D5596A001213D5346C001213D548
:10244300FF6D001213D5096F001213D50673001226
:1024530013D5D373001213D5EB74001213D59576ED
:10246300001213D502F2011213D5B9F2011213D5DA
:10247300C0F3011213D53EF4011213D580F50112F6
:1024830013D5A1F5011213D559F6011213D504F78B
:10249300011213D5E4FA011213D500FD011213D56D
:1024A30067FE011213D5B37F001213D5BDD60312F5
:1024B30013D518D7031213D5A2D7031213D513D9E3
:1024C300031213D5EBD9031213D5D4DA031213D5A0
:1024D300EBDA031213D53DDB031213D5A1DB031291
:1024E30013D5E2DB031213D5F5DB031213D54BDC53
:1024F300031213D5A4DC031213D5BCDC031213D5CA
:102503006CDF031213D501E0031213D52BE0031282
:1025130013D574E0031213D564E2031213D5CEE28C
:10252300031213D5A2E3031213D5E5E3031213D564
:10253300FFE3031213D546E4031213D566E4031233
:1025430013D510E5031213D50EE6031213D568E66F
:10255300031213D5B9E6031213D5C4E7031213D537
:1025630068EA031213D595EA031213D5FEEA0312A0
:1025730013D523EB031213D59DEB031213D566EC8E
:10258300031213D5A3EC031213D505ED031213D5D0
:10259300C6ED031213D5C9ED031213D5D3ED031200
:1025A30013D5DDED031213D5F0ED031213D56CEE45
:1025B300031213D595EE031213D5A8EE031213D508
:1025C300D4EE031213D5FBEE031213D51FEF031240
:1025D30013D55AEF031213D5CCEF031213D5F4EF2F
:1025E300031213D535F0031213D56AF0031213D572
:1025F3008AF0031213D5C7F0031213D5FEF00312AA
:1026030013D508F2031213D53BF3031213D551F379
:10261300031213D5D8D5071213D5F0D5071213D546
:10262300AFCB071213D5ACA3061213D5FBA3061227
:1026330013D59BA5061213D556A7061213D598A733
:10264300061213D581A8061213D58BA9061213D52A
:10265300ADA9061213D5F7A9061213D578AA061247
:1026630013D52ED8021213D551D8021213D544D93B
:10267300021213D58DD9021213D5E5D9021213D53F
:1026830041DA021213D58DDA021213D503DB0212DB
:1026930013D58FDB021213D504DC021213D547DCEA
:1026A300021213D520F7051213D567E2021213D5D0
:1026B300A1E2021213D525E3021213D556E6021244
:1026C30013D5CBE6021213D55BE8021213D563E9E7
:1026D300021213D579EA021213D5EFEA021213D5C7
:1026E300B6EB021213D51FEC021213D522EC021221
:1026F30013D5F6EC021213D532EE021213D5F2EF14
:10270300021213D5EDF1021213D5F8F2021213D50A
:1027130094F3021213D5DFF4021213D5E5F5021276
:1027230013D548F6021213D5E5F6021213D57BEA48
:10273300041213D51BEB041213D588CC051213D541
:102743002CEC041213D58BEC041213D537ED0412C1
:1027530013D5E0EF041213D506F1041213D58AF151
:10276300041213D567F3041213D50CF4041213D512
:10277300AFF4041213D50EF5041213D5C7F50412E2
:1027830013D546F7041213D503F9041213D584FAAB
:10279300041213D5DEFB041213D5EEFC041213D579
:1027A30094FD041213D5B3FE041213D509BA04120F
:1027B30013D581BA041213D5C9BA041213D50DBBAC
:1027C300041213D556BB041213D5A0BB041213D5A0
:1027D300D5BB041213D553BC041213D5ADBC0412DC
:1027E30013D506BE041213D585BE041213D59CBFA0
:1027F300041213D5BEBF041213D5CAC0041213D5D5
:10280300DBC0041213D5F3C0041213D513C2041290
:1028130013D530C2041213D503C3041213D527C32F
:10282300041213D53EC3041213D55FC3041213D588
:1028330081C3041213D573C4041213D5CBC4041279
:1028430013D541C6041213D59FC6041213D5BEC6B1
:10285300041213D5F0C7041213D56DC8041213D58F
:10286300DAC8041213D51AC9041213D57CC9041289
:1028730013D52CCA041213D5FECB041213D5E9CCFD
:10288300041213D5E3CD041213D5E9CE041213D5E4
:1028930005D0041213D513D0041213D5ECD00412AF
:1028A30013D58CD1041213D5D0D1041213D5E5D18D
:1028B300041213D5F6D2041213D599D3041213D5E7
:1028C300F1D3041213D508A5071213D5B0A6071226
:1028D30013D56DA7071213D5C2A7071213D54D96AB
:1028E300071213D56B96071213D5AF96071213D59C
:1028F300D596071213D5FB96071213D51397071214
:1029030013D52B97071213D54397071213D5A69701
:10291300071213D5E897071213D50A99071213D58F
:102923001399071213D51C99071213D5259907126A
:1029330013D52F99071213D55099071213D5E08D8C
:10294300071213D5C091071213D5CE91071213D5D1
:10295300D391071213D5A3C0071213D577D5071246
:1029630013D5EED6071213D56BFE051213D53AD73E
:10297300071213D50080021213D55780021213D504
:10298300C380021213D54F81021213D5058202129E
:1029930013D54D82021213D56682021213D5898292
:1029A300021213D5AB82021213D5E982021213D598
:1029B3003883021213D56383021213D5C183021223
:1029C30013D56884021213D51085021213D58C8592
:1029D300021213D55986021213D5A086021213D5FB
:1029E300EC86021213D57487021213D5AD87021237
:1029F30013D50388021213D51F88021213D54E88EC
:102A0300021213D55A8A021213D5888B021213D5D8
:102A1300B48B021213D5E88B021213D5098C021260
:102A230013D5188C021213D5238C021213D5D28C12
:102A3300021213D5428D021213D5CD8D021213D576
:102A4300D58D021213D5428E021213D57E8E021239
:102A530013D5448F021213D51790021213D56C901D
:102A6300021213D50B91021213D56591021213D5DD
:102A7300AA91021213D54394021213D5869502121A
:102A830013D57098021213D55499021213D5389A9C
:102A9300021213D5499A021213D5BB9A021213D507
:102AA300529B021213D5B79B021213D5A79C021295
:102AB30013D5CC9C021213D5EA9C021213D5069DA2
:102AC300021213D5799D021213D5889D021213D5D4
:102AD300109E021213D50D9F021213D51A9F0212D4
:102AE30013D5239F021213D505A1021213D527A2D2
:102AF300021213D537A2021213D565A3021213D5FE
:102B0300E4A3021213D5FFA4021213D53BA50212AC
:102B130013D515A7021213D5D2AA021213D5E6AA0A
:102B2300021213D5F0AA021213D5FAAA021213D570
:102B330004AB021213D51DAB021213D527AB02123D
:102B430013D594AB021213D59FAB021213D5C7ABA7
:102B5300021213D5D2AB021213D537AC021213D51E
:102B630042AC021213D566AC021213D58AAC021220
:102B730013D5FCAC021213D545AD021213D561ADCA
:102B8300021213D5D2AD021213D51EAE021213D503
:102B930067AE021213D5A5AE021213D526AF0212E9
:102BA30013D5CDAF021213D59CB1021213D501B2C6
:102BB300021213D52FB3021213D555B3021213D534
:102BC3009DB4021213D5D7B7021213D5D5B9021289
:102BD30013D5A0BB021213D539BC021213D53ABECA
:102BE300021213D5EFBE021213D528BF021213D55A
:102BF3008EBF021213D598BF021213D5C1C10212A0
:102C030013D500C3021213D557C3021213D502C43E
:102C1300021213D5B2C5021213D5FFC6021213D581
:102C23001FC7021213D574C7021213D575C8021237
:102C330013D59DC8021213D5FCC8021213D5F4C9CB
:102C4300021213D56BCA021213D57ECB021213D50F
:102C5300ECCB021213D5EBCC021213D545CF0212E3
:102C630013D56ECF021213D5D4D0021213D556D278
:102C7300021213D5ADD2021213D55BD3021213D5B0
:102C830000D4021213D559D4021213D517D5021248
:102C930013D5A9D5021213D508D6021213D54AD6D5
:102CA300021213D57BD6021213D5D2D7021213D533
:102CB3000080031213D53280031213D56B800312E5
:102CC30013D52982031213D5FF82031213D55E8312
:102CD300031213D57484031213D5C084031213D5BE
:102CE3004E87031213D5288A031213D56F8B031251
:102CF30013D5078C031213D5138C031213D55C8CD5
:102D0300031213D59E8D031213D5948E031213D57C
:102D1300BE8E031213D5148F031213D56D8F0312B6
:102D230013D5E08F031213D51692031213D598937C
:102D3300031213D58394031213D5CD95031213D520
:102D43000598031213D5029B031213D5119B03128B
:102D530013D5A59B031213D5509C031213D5939C33
:102D6300031213D5DC9C031213D52C9D031213D528
:102D7300909D031213D5029E031213D51E9E0312B8
:102D830013D54D9E031213D58C9E031213D5879F23
:102D9300031213D536A0031213D5B3A2031213D50E
:102DA300E5A3031213D5BDA4031213D53FA5031244
:102DB30013D574A9031213D5A3A9031213D5FEA91E
:102DC300031213D531AA031213D5A9AA031213D5DB
:102DD300DCAA031213D53DAB031213D58DAB03123B
:102DE30013D55AAC031213D513AD031213D5D7ADB4
:102DF300031213D551B0031213D5B3B1031213D574
:102E030004B3031213D528B4031213D52BB403123E
:102E130013D55AB4031213D552B6031213D511B7EF
:102E2300031213D540B7031213D55EB8031213D59B
:102E330026B9031213D5E4BA031213D516BB031232
:102E430013D558BB031213D557BC031213D5CABCF1
:102E5300031213D5F3BE031213D552BF031213D5B6
:102E6300A6BF031213D5D5C1031213D5B8C20312DB
:102E730013D574C3031213D588C3031213D59CC38C
:102E8300031213D5C9C3031213D5F9C3031213D500
:102E9300B4C5031213D5C6C6031213D51BC7031239
:102EA30013D564C7031213D58BC7031213D553C8A5
:102EB300031213D5F9C8031213D57FCA031213D50E
:102EC300C6CA031213D538CB031213D58DCC031204
:102ED30013D536CD031213D56ACD031213D582CD84
:102EE300031213D525CE031213D5A1D0031213D584
:102EF30049D2031213D567D2031213D585D2031215
:102F030013D551D3031213D59FD6031213D57E8441
:102F1300011213D5B684011213D5B689011213D544
:102F2300FC89011213D5328B011213D5978B011231
:102F330013D50C8D011213D51690011213D53F91A1
:102F4300011213D5529B011213D5E29B011213D523
:102F5300CC9E011213D5D99F011213D53CA00112A7
:102F630013D584A1011213D5F2A3011213D584A59D
:102F7300011213D511A6011213D530A7011213D5CF
:102F8300BDA7011213D5C7A7011213D5EFA70112CD
:102F930013D58FA8011213D57AA9011213D547AA05
:102FA300011213D564AA011213D58DAA011213D5E8
:102FB300BAAA011213D501AD011213D5D0AD011276
:102FC30013D50FAE011213D591AE011213D532AF43
:102FD300011213D564AF011213D5ABAF011213D590
:102FE300DEAF011213D522B0011213D571B0011255
:102FF30013D576B0011213D5D2B0011213D516B181
:10300300011213D5F0B1011213D555B2011213D524
:10301300BBB2011213D536B3011213D59EB60112FA
:1030230013D5A1B7011213D51FB9011213D535BC9E
:10303300011213D5D7BC011213D520BF011213D52A
:10304300DBBF011213D51AC0011213D5F2C101124D
:1030530013D50FC2011213D518C2011213D521C201
:10306300011213D52CC2011213D54BC2011213D571
:10307300EFC3011213D54CC4011213D556C4011268
:1030830013D560C4011213D5BFC4011213D509C5EA
:10309300011213D50AC6011213D561C6011213D545
:1030A30072C7011213D5BBC7011213D575C801121C
:1030B30013D58CC9011213D561CA011213D5A8CB3C
:1030C300011213D5ACCC011213D5A5CD011213D522
:1030D300BDCD011213D5F4CD011213D5FECD0112CE
:1030E30013D508CE011213D513CE011213D531CE49
:1030F300011213D579CE011213D5D7CE011213D5F0
:10310300FECE011213D510CF011213D5C5CF011274
:1031130013D5FECF011213D520D1011213D573D1CC
:10312300011213D559D2011213D580D2011213D52E
:10313300F0D2011213D56CD3011213D5C8D40112E6
:1031430013D5EFD5011213D5B1D6011213D57FD7FD
:10315300011213D53DD8011213D525D9011213D568
:10316300CFD9011213D537DA011213D5ECDA0112D4
:1031730013D548DB011213D5A0DB011213D566DC8E
:10318300011213D589DC011213D544DD011213D5C5
:1031930066DD011213D5C7DD011213D5F7DF011266
:1031A30013D5F0E0011213D59CE1011213D5BDE351
:1031B300011213D506E4011213D551E4011213D5FC
:1031C300ADE4011213D50BE5011213D52FE501125E
:1031D30013D553E5011213D588E5011213D5B0E5D4
:1031E300011213D5F5E5011213D549E6011213D5E2
:1031F300A2E6011213D59CE7011213D53AE9011295
:1032030013D57FE9011213D5A8E9011213D531EAC9
:10321300011213D5A4EA011213D5B2EA011213D590
:10322300D6EA011213D52CEB011213D547EB011289
:1032330013D502EC011213D52EEC011213D571EC48
:10324300011213D5D4EC011213D5E2EE011213D5FA
:103253000EEF011213D5C9EF011213D5ADF0011210
:1032630013D541F1011213D526E0051213D55EE003
:10327300051213D57FE0051213D5C1E0051213D54E
:1032830025E1051213D52FE1051213D53FE10512F0
:1032930013D576E1051213D51FE5051213D5E7E61D
:1032A300051213D5CBE8051213D56DE9051213D515
:1032B300F7E9051213D55080041213D5F9800412CF
:1032C30013D5D881041213D5E482041213D50483D1
:1032D300041213D52684041213D5D685041213D5EC
:1032E3004386041213D51487041213D51A880412C3
:1032F30013D59288041213D5CD88041213D52689C9
:10330300041213D56189041213D5AA89041213D5A3
:103313003E8A041213D5D48A041213D5A98B04123E
:1033230013D57C8C041213D50A8D041213D5308D5A
:10333300041213D55D8D041213D58E8D041213D58B
:103343005B8E041213D56B8E041213D5BE8E04123A
:1033530013D5CB8E041213D5D88E041213D5E18E58
:10336300041213D5458F041213D5A38F041213D55A
:10337300EE8F041213D50990041213D53090041262
:1033830013D54D90041213D55990041213D5EA9115
:10339300041213D50392041213D57F92041213D58A
:1033A3009292041213D5A292041213D546930412D7
:1033B30013D5B294041213D5C595041213D565968B
:1033C300041213D56F96041213D5EE96041213D577
:1033D300FF96041213D53E97041213D56C9704126B
:1033E30013D53998041213D59098041213D5C9989C
:1033F300041213D51F99041213D53D99041213D542
:103403008B99041213D5569A041213D5A49A041255
:1034130013D5F19A041213D5749B041213D59E9BF2
:10342300041213D5D49B041213D5E39B041213D5B2
:10343300429C041213D5BA9C041213D5FB9C0412AC
:1034430013D54B9D041213D5769D041213D5909D6D
:10345300041213D5AA9D041213D57F9E041213D50B
:10346300899E041213D5C49E041213D5D49E04124C
:1034730013D5259F041213D5399F041213D55BA0CE
:10348300041213D570A0041213D503A1041213D58B
:1034930077A1041213D51CA2041213D527A2041278
:1034A30013D58AA3041213D5A6A3041213D5F2A32A
:1034B300041213D560A4041213D592A4041213D5D5
:1034C300ACA4041213D50CA5041213D5ABA5041296
:1034D30013D5F6A5041213D549A8041213D5E1A8F0
:1034E300041213D558A9041213D5B5AB041213D57E
:1034F300CDAB041213D5D0AB041213D5DCAB04123D
:1035030013D5F0AB041213D5F8AB041213D52FACBB
:10351300041213D523AD041213D5ADAD041213D584
:103523002FAE041213D5AFAE041213D586AF041217
:1035330013D5A8AF041213D541B0041213D59EB00E
:10354300041213D5A1B0041213D510B1041213D56C
:103553005CB2041213D56FB3041213D5FAB3041279
:1035630013D50DB5041213D5D4B5041213D505B66E
:10357300041213D52BB6041213D534B6041213D583
:1035830063B6041213D513B7041213D5C3B70412C9
:1035930013D536B8041213D5D9B8041213D54CB9C0
:1035A300041213D58BB9041213D5D4B9041213D54D
:1035B300D5F6051213D53AF6051213D5ABF4051259
:1035C30013D540AF051213D5C5AD051213D5C8AC3D
:1035D300051213D589AA051213D533AA051213D5DB
:1035E30076A8051213D5EDA5051213D567A5051207
:1035F30013D523A4051213D588CB051213D5A9CA55
:10360300051213D5DFA2051213D558A2051213D53F
:1036130071F1061213D5D4F0061213D569B207124D
:1036230013D541B2071213D5D4B1071213D574B110
:10363300071213D5D0C9051213D5F6C8051213D531
:103643002CC8051213D59BC6051213D564C60512E3
:1036530013D536C6051213D5EAC5051213D553C5BE
:10366300051213D5C3C4051213D59DC4051213D572
:1036730052C4051213D51CC4051213D59FC30512DA
:1036830013D53AC3051213D5E9C2051213D511C2D6
:10369300051213D581C1051213D535C1051213D5F2
:1036A300B0C0051213D56BC0051213D54FC0051258
:1036B30013D5F7BE051213D58CED061213D5C9BE6B
:1036C300051213D509ED061213D5B6EC061213D560
:1036D3008FD6071213D574D6071213D515FD05120D
:1036E30013D5B7FB051213D54EFB051213D5E5FA17
:1036F300051213D596BE051213D51ABE051213D59E
:10370300C18B071213D5AC8A071213D5C5F905125D
:1037130013D5D889071213D55789071213D5DBDFC1
:10372300051213D582DF051213D5F6F8051213D54A
:103733004DDF051213D585EB041213D518DF0512DF
:1037430013D5E4DE051213D577DE051213D55FDE3C
:10375300051213D53ADE051213D513DB051213D563
:10376300E6D8051213D5EDD6051213D579D6051271
:1037730013D52AD6051213D5E4D5051213D586D54C
:10378300051213D59F8F061213D50D8F061213D56D
:103793003DF8051213D5298E061213D58F8C061208
:1037A30013D54F8A061213D58889061213D518E04C
:1037B3000200000080FB8F000100361B8700010020
:1037C300061E35000400CA1D25000200CE1D26007A
:1037D3000200D01D27000200D21D28000100DC1DBD
:1037E30029000100DD1D84000400DE1D86000100A8
:1037F300E21D2A000100E31D2B000100E41D2C0043
:103803000100E81D2D0008001E1B2E000100E91D0C
:103813002F000100EA1D30000100EB1D3100010003
:10382300EC1D32000100261B33000100271B34006E
:103833000100ED1D36000100281B38000100EE1DBC
:1038430039000100E71D83000200041E630001002C
:10385300331B64000100E51D65000100E61D6D00DA
:103863000100341B71000800161B66000100031ED3
:1038730043000100F41D44000200F51D4500010052
:10388300F71D46000200F81D470008002B1B4800E7
:103893000100FA1D4B000100FB1D04000100071E7F
:1038A300A10001000A1E37000100091E8800010063
:1038B300081E3C000100291B3D000100EF1D4900CB
:1038C3000200FC1D67000100351B4D000200FE1DB8
:1038D3004E000100001E4F000200011E3E000100C9
:1038E300F31D51000100F01D52000100F11D5300B2
:1038F3000100F21D540001002A1B0000000000001B
:10390300000136360101000102010001030100013B
:103913000401060605020000070100340801000F38
:10392300090401010D0100FF0E0800001702000049
:10393300190100FF1A0100011B0100FE1C01000810
:103943001D0200001F0100012001000121020000EF
:103953002301000F240200002601000127010008B3
:10396300280200FF2A0100072B0102402C0100005E
:103973002D0100012E0100012F0100FF30010B1D5D
:10398300310800003A0100083B01000F3C0100012F
:103993003D0100FF3E040000420400004604000015
:1039A3004A0400004E0400005204000056040000C4
:1039B3005A04000000000000200179840000010087
:1039C300200179840000020020017C8400000300B0
:1039D30020017B840000040042016D80000005008B
:1039E30042017E80000006004201A0800000070023
:1039F3002001AB80000000404201A08000001000C5
:103A030042018F8000001100200101070000120015
:103A13001003951D060000001011000008000000AF
:103A2300203300000C005500393300000C001C004B
:103A330042330000120055002001000014000E0064
:103A43004222000001037103010301030103010387
:103A53000103220302030103100300030003000315
:103A630000030003000300034203000324030603CF
:103A73000003000304031203250323032503230385
:103A830004030403000300030003440300030003CF
:103A930023030003650321003503810300030503AA
:103AA3000003000300030003250323030300710045
:103AB30030016000110070003102200350048000C7
:103AC30010006100000014006300730072006200C4
:103AD3004300000013000600000000000400120071
:103AE300000000000000000004000400370037005D
:103AF3003C024400000000000000000065000000DC
:103B03003500810000000500000083000000010172
:103B130071010101010111010101310101010101E2
:103B23008001100161013B00140063017301720104
:103B3300620143010001130106013D013500040147
:103B4300120100010001000100010401040133011D
:103B530033013C01440132013600000100016501DB
:103B6300000135008101000105018201830100018B
:103B730003047104020460041104700402040204C7
:103B830001040204100461040004140463047304B4
:103B930072046204430400041304060400040004D2
:103BA300040412040004000400040004510464002B
:103BB300000400040004440400040004000400049E
:103BC30065040004350481046400050400048304CF
:103BD300000403027102300160021102700201024B
:103BE300020202028002100261023A0041006302F3
:103BF30073027202620243020002130238000002DF
:103C03000002040212020002000200020002040287
:103C13000402370037003C0244020002390000026C
:103C230000026502000235028102000205028202DF
:103C33008302000236000100060000000F000000AE
:103C43000000000000000000000003FFFF0000046C
:103C530003FFFF0000FFFF0FF4010005C40403206E
:103C6300000100000B000000000000000003010F32
:103C73000000000000000000000000000000000041
:103C83000000000000000000000000000000000031
:103C93000000DA233424E023E422E6233A24E62353
:103CA3004624EC23E422E6233A24F223E422F823F5
:103CB300E422FE23E4220424E4220A24E42210243E
:103CC300E42216244C241C24E422000000000000FB
:103CD30000000000000022245E242824E422222481
:103CE3005E242824E42216244C242E24E4220000FB
:103CF3004C271300F8261F00FE261F80042701000F
:103D03004C27020080260300862604008C2605002B
:103D1300922606009E263000BC263100B6263200CD
:103D2300C8263300CE263500D4263400DA263600E2
:103D3300E0261100EC261400F2261500B026FFFF42
:103D430000000A0000000200000004000000080058
:103D53000000100000002000000040000000800070
:103D63000000000100000002000000040000000841
:103D73000000001000000020000000400000014A85
:103D83002F06742F086E2F0B8C2F10622C02502FCE
:103D930005622F07562F0C322F0D3E2F645E2AFF2C
:103DA300000007ECFDFDFDECDCDCCCBCACAC9C9C6A
:103DB3008C7C7C6C6C5C5C5C4C4C3C3C2C2C1C1CF0
:103DC30000160F00000B150B020002220F33000038
:103DD3000E5A6967426565416C6C69616E63653053
:103DE3003901030507090B0D0F00020406080A0C2D
:103DF3000D140AE5D5C5B5A5A5958585756500019D
:103E03001916181616182303003030171819213005
:103E13001B1D1F30303016181920231A1C1E3000AA
:103E2300034A49434E181A25050200393D3F373CE2
:103E33003C362C442D0C0E020B040B0A0708000F12
:103E4300020402010101010902E803000000BE04AB
:103E53000AA53D00000000F43D0E00FA067F00E8CD
:103E630003FF1E1E00050C0804040010280908099E
:103E730003010C05030815120300FF0A0C1004C00C
:103E830082C083E9901986F002418774F4120DF31E
:103E93008A088B09EB5480604D800EEEFAEFFB121B
:103EA3002344EEFAEFFB121F84901986E0F9121FE8
:103EB300968A0A8B0BAE0AAF0BEE4F60208E828F71
:103EC30083E0641A60D5EEFAEFFB1222DEE9F9749F
:103ED300FF6960CEEEFAEFFB121F8A80CCAA08E5D9
:103EE300096480FB80047A007B0002416F74F7123F
:103EF3000DF37AFF0255AF74F6120DF3E9FEEAFFF4
:103F03007A047B00124582A808A909EA496034EFC4
:103F13008A828B83A3A3A3F0EE8A828B83A3123FAF
:103F23007EE4F0A3F09019951245A27009901995BB
:103F3300E8F0A3E9803FE0FB8A828B83A3A3A3E09D
:103F43006F700479008031EAFCEBFD8A828B831267
:103F530045A270E474FF6F700C8C828D83123F85D1
:103F6300E4F0A38010901995125ED6901995123F34
:103F730085EAF0A3EBF07901025758A3F08A828B0C
:103F83008322126DED8882898322C082C083EA1264
:103F93006EEF3BF583E0FA9019958004888289835C
:103FA300125D78601C88828983A3A3A3E0FBEA6B7C
:103FB300600574FF6B70E588828983A3A3E0F980B1
:103FC3000279FF02418774F4120DF3EAFEEBFF8AD4
:103FD30082F583125ED61222DEE9F50874FF69705A
:103FE3000302407A7A197B00121F7EEA4B700302A8
:103FF300407A8A828B837434126957A3EA2402FCC1
:10400300E43BFD740612134E8E828F8312723F8837
:1040130082F583126F018A828B83A3A3A3A3A3A335
:10402300A3A312407FA3A3A3A3A3A3EA240AFCE4AC
:104033003BFD740C12134E8E828F83126009C812DB
:104043006EEF38F583E0C0E0EA2416F582E43BF531
:1040530083D0E0F0EE240CF8E43FF98882F5831274
:104063006F05EA2417F582E43BF58312407FE4F001
:10407300A3F0A908121F8A790102416FECF0A3EDA6
:10408300F08882898322C082C083901993125ED6FE
:1040930002418774F4120DF38A088B09ECFEEDFFDD
:1040A3007A081240E97004791080381241531241A2
:1040B3007B740C12177F125ED688828983A3A3A315
:1040C300A312789990198B1245A290198B60111243
:1040D30041768003EAFCEB12459D70F88C828D8358
:1040E30012414D02416F7B0012201A8A0A8B0BA8E2
:1040F3000AA90BEA492274F4120DF389088A09EC20
:10410300FEEDFF7A0A1240E970047910803A1241F9
:10411300538A828B83A3A3A3E4F0A3124166E50928
:10412300124166A3EEF0A3EFF090198F1245A2900F
:10413300198F60111241768003EAFCEB12459D70E2
:10414300F88C828D8312414D8022126DED7900220D
:10415300124157228A828B83E4F0123F7EA3A3E5A8
:1041630008F0221255A0A3A3221214057F04021102
:10417300428F83E0FCA3E022A3E5091255A5EEF0EC
:10418300A3EFF022D083D0820213D274F2120DF384
:10419300EAFEEBFF8C088D0912235C8B0DA90DEA57
:1041A3004960198A828B83A3A3A3EEF0A3EF125570
:1041B3009CE508F0A3E509F0790080027901025F2C
:1041C3005874F4120DF374F71214E8E9FE8518829B
:1041D3008519837401F0EC7006EDC39406404D74A9
:1041E300036A4B604774011214BA880A890B780A70
:1041F3001213F27C127D007A007B00EE12423A1217
:104203001405E9601CE4F50AF50B780A1213F2743D
:10421300031214CA74021214C21223B074021214C9
:1042230005851882851983E0640170047901800291
:104233007900740902416CF912236274022274E852
:10424300120DF374FA1214E889128A168B178C086C
:104253008D0912374E8A148B15EA4B7005790202C9
:1042630043D0AA08AB09A91212237AE9F50FA2E6F3
:10427300401C901993125D786014E82419F582E4C8
:1042830039F583E064017006E50FD2E6F50F7C068D
:104293007D007900AA18AB19121F6C741F12177FC7
:1042A3001243D56009E054FCF0E044018003E0547C
:1042B300FC1272E7125D78602B741E12177FE0FE0A
:1042C30088828983A3121209EEFD740212177FE01C
:1042D3005403FCAA08AB09A9121223027402121494
:1042E30005E9700579010243D0742212177F125D2C
:1042F300786012851882851983E04404F0740212F1
:10430300177F126DE9742012177F1243D56005E001
:1043130044088003E054F7F0742112177F1243D549
:104323006005E044108003E054EFF0742412177F1B
:10433300E0C0E0740412177FD0E0F0740512177F19
:10434300EEF07803851882851983E05404600278BF
:1043530005742512177F1249C9E82510FEE43511AB
:10436300FF1246676063AC0AAD0BAA18AB191223A0
:1043730050742712177F125EE81213EEAC10AD11C2
:10438300126157121405750C1E780C1213F6750C76
:1043930089750D19780C1213F2780A1213F28E0C28
:1043A3008F0D780C1213F278081213F2A90FAC14C4
:1043B300AD15AA16AB1712375A7409121405E9FE84
:1043C300AA0AAB0B12202080027E10EEF9740602BB
:1043D3006DF71243D922E08518828519832274EA86
:1043E300120DF374FE1214E8890B8A148B158C0ECC
:1043F3008D0F7E007F00750A00741812177F124913
:10440300C980111245931223BC8B09EE2AFEEF35A6
:1044130009FF050A126C02502EE50A75F0061249CF
:10442300802403FEE43FFFA3A3E070E60EEE7001D9
:104433000F88828983A3A3A3A31245A288828983B9
:1044430060C1125CE980C2EEFAEFFB1245828A0C6E
:104453008B0DEA4B7003024576750A008030A8186D
:10446300A9198812891378121213F278081213F219
:104473008A828B831245931223C274041214051289
:104483007239E50828F508E50939F509050A126CBA
:1044930002507CE50A75F006A4F8A9F0E51028F5AA
:1044A30082E511126BE912458A8A828B83A3125526
:1044B30010F012558412550BF0E5082403F508504B
:1044C30002050988828983E070C2EA240308E43B79
:1044D300F98882F58312458AA38582088583098A30
:1044E300828B83A3A3A3A31241768C82F583E582F7
:1044F30045837003024461AC08AD09AA82AB83888B
:10450300828983E0F91223928A088B0902448F7807
:104513000C1213F28E088F0978081213F27420120A
:10452300177F1249BF1213F6E4F508F5097808124C
:1045330013F2742212177F1249BF1213F674221258
:10454300177F1249BF1213F675080078081213F685
:1045530075080178081213F6AC0EAD0FAA14AB154B
:10456300A90B124E5D121405E9FEAA0CAB0D122025
:104573002080027E10EEF974021214050245B01277
:10458300201A8A088B0922E0850882850983F02294
:104593001272D5AA0EAB0FA90B22FD8C828D83124A
:1045A3005EDEEA4B22EEF98004AA12AB137F0E0201
:1045B300114274EC120DF3890A8A108B11ECFEED93
:1045C300FF741412177F1247BB7003024658A808E2
:1045D300A9097C00800D12479E50010B1247CE5053
:1045E30001090C850C82850D83E0FAECC39A40E641
:1045F30074016A700AA3E07006750E01750F0078E6
:10460300081213F2780E1213F2741C12177F12475A
:10461300981213F6E4F50CF50D780C1213F2741ED0
:1046230012177F1247981213F6741E12177F124740
:10463300981213F6750B00780B1213F6750B0478AA
:104643000B1213F6124E53121405E9FEAA08AB0916
:1046530012202080027E10024781740A1214057F03
:104663000C021142EEFAEFFB12201A8A0A8B0BEAB4
:104673004B22F5831258A022F8E4350DF98882F510
:10468300831249AFA322851082851183E0F8E508E0
:10469300C3982274EC120DF3890A8A108B11ECFE75
:1046A300EDFF741412177F124786F508750900741D
:1046B30002780812164D85080E85090FAA0EAB0F56
:1046C3001274A4700302477F7900803EE9F51275E6
:1046D30013007402781212164DE50C2512FCE50D39
:1046E3003513FD8C82F583A3124677124F89A312EB
:1046F3004677A3F0EC2403FC50010DF5828D83E093
:10470300124F83124F5D50010B09850C82850D8377
:10471300E0F8E9C39840B5740168700AA3E0700635
:10472300750E01750F0078081213F2780E1213F24A
:10473300741C12177F1247981213F6E4F50CF50D4B
:10474300780C1213F2741E12177F1247981213F685
:10475300741E12177F1247981213F6750B00780B0D
:104763001213F6750B07780B1213F6124E5312142D
:1047730005E9FEAA08AB0912202080027E10EEF99B
:1047830002466212478A22E0F50CA3E0F50D850C80
:1047930082F583E022E0F50B780B22EC75F003A49D
:1047A300FAABF0E50C2AFAE50D3BFB8A82F583129E
:1047B30049DCF0EA2402FA2212478A75F003A4F5D1
:1047C3000EE5F0F50FAA0E12729222F5828B831278
:1047D3004B931249D5A3A3F0E82403F82274E812FB
:1047E3000DF374FE1214E8124A2712177F1249C9F7
:1047F3008009EE2402FEE43FFF0508124689503784
:10480300E50875F00D1249802404FEE43FFFE070D3
:10481300E8A3E070DDEE2405FEE43FFFE82404F5A1
:104823000AE43912499B60D1850A82850B83E0F93A
:104833001223A4EE2980BE124667700302497B8AC5
:104843000E8B0F7508008018E50C2409FAE4350D6A
:10485300FB8A821249A91249D1F08C0E8D0F0508EB
:104863001246894003024918E50875F00D1249E321
:10487300AA82AB83124684F0E50C240212467B1213
:1048830049F8A3F0E50E2404F50E5002050F850C3C
:1048930082850D83E070C7E50E2402FCE4350FFD2D
:1048A300850E82850F83A3A882A9838A828B83E0E6
:1048B3007096E50C2404F512E4350DF51385128288
:1048C3001249A9F0E50C2405F516E4350DF5178515
:1048D30016821274A8124A0A2407F8E4350DF988DF
:1048E300821249A9124A1FF0E50E2405F50E500263
:1048F300050F8512828513831249A2700302486152
:10490300AC0EAD0FE50C240BF582E4350DF58312E7
:1049130049B7024861780A1213F28E0C8F0D780C96
:104923001213F2742212177F1249BF1213F6E4F521
:104933000CF50D780C1213F2742412177F1249BF71
:104943001213F6742412177F1249BF1213F6750857
:104953000078081213F675080978081213F6AC14D8
:10496300AD15740B12177F124990121405E9FEAAB4
:104973000AAB0B12202080027E10026DF3A4F8A96B
:10498300F0E51028F582E511124B2EEE22125EDEC1
:10499300A909122308740B22F50B850A82F583E01B
:1049A300F9122398E922F5831249AF22E0850E829A
:1049B300850F8322124B988A0E8B0F22E0F508781D
:1049C30008228E828F83E0F510A3E0F511221249AD
:1049D300D522123F7F1249DC22A3E08882898322F9
:1049E300126DB785820C85830D1249AFF0850C8259
:1049F300850D83A3221249FC22A3124C35E0850EB8
:104A030082850F83A3A322F0851682851783124A1A
:104A130018F0E50C22A3E08C828D8322A3A3124914
:104A2300FCA3A322851882851983EAF0A3EBF089FE
:104A3300098C148D157E007F00750800741A22748A
:104A4300EA120DF3890B8A108B118C0E8D0F7E00E9
:104A53007F00750A00741612177F1253CB8003125E
:104A63004AFB850C82850D83126C0840F2EEFAEF47
:104A73001274A3607EA808A909750A008003124B6B
:104A830037850C82850D83E0FAE50AC39A40EF78F7
:104A9300081213F28E0C8F0D780C1213F2741E127F
:104AA300177F126C2E1213F6E4F50CF50D780C1229
:104AB30013F2742012177F126C2E1213F674201245
:104AC300177F126C2E1213F6750A00780A1213F66A
:104AD300750A0A780A1213F6AC0EAD0FAA10AB11C1
:104AE300A90B124E5D121405E9FEAA08AB091220A8
:104AF3002080027E100245A8E50A75F005A4F8A9F6
:104B0300F0E50C28F582E50D124B2EA3A3A3127832
:104B1300A1A3A3E0F91223AA8B09EA2403F8E4353D
:104B230009F9EE28FEEF39FF050A2239F583A3A818
:104B330082A98322E50A75F005A4FAABF0124B872C
:104B43008582148583151249DD124F7E88828983FD
:104B5300A3F0E5141275E435158A12F5138A82F56C
:104B630083124B93A3F0E82403FCE439FD851482FC
:104B7300851583A3A3A3124B988A128B13A812A99A
:104B830013050A22E50C2AF582E50D3BF583A322E2
:104B93001249DDA322125EE2851282851383E0F9B6
:104BA3001223922274F6120DF374FE1214E8E9FE36
:104BB300740C12177F124C26C0E0740112177FD0B9
:104BC300E0F0A818A9198808890978081213F27562
:104BD300080275090078081213F2741612177F126F
:104BE30049BF1213F6741512177F121209741612A5
:104BF300177F1249BF1213F6741612177F1249BF9B
:104C03001213F675080078081213F675080B780866
:104C13001213F6EEF9124E5D121405740212140506
:104C23000257581273018882F5831243D9124C3507
:104C3300E022F088828983A32274EA120DF3891398
:104C43008A108B11ECFEEDFF741612177F12760299
:104C5300E50A2402F50CE4350BF50D850C82F5838A
:104C6300E004751200F50E750F00FAAB0F1274A471
:104C73007003024D67850A82850B83124E47801E9F
:104C8300EAFC850A82850B83A3A3A3E02CFBA3E0A4
:104C930034008B821274A8F0A3A882A9830A850C1E
:104CA30082850D83E0FBEAC39B40D5850A82850B91
:104CB30083A3E0F8741812177FE0F9741912177FB1
:104CC300E0FA741A12177FE0FB74116870397808E0
:104CD3001213F2780E1213F2EBF50A780A1213F696
:104CE300E4F50AF50B780A1213F2EAF50A780A12C8
:104CF30013F6E9F50A780A1213F6750A00780A1210
:104D030013F6750A12803C741368704F78081213F7
:104D1300F2780E1213F2EBF50A780A1213F6E4F5A1
:104D23000AF50B780A1213F2EAF50A780A1213F657
:104D3300E9F50A780A1213F6750A00780A1213F6CF
:104D4300750A14780A1213F6EEFCEFFDAA10AB11E4
:104D5300A913124E5D121405E9F512AA08AB091244
:104D630020208003751210A9120245B074E8120DB9
:104D7300F389108A128B13ECFEEDFF741812177F60
:104D8300124F6975F003A4A9F02401F50EE439125A
:104D9300749F7003024E40850C82850D83124E472B
:104DA300802EEA75F003A4FCADF0E50C2CFCE50DB8
:104DB3003D124F4F1274A8124F7A88828983124F83
:104DC3009088828983A3A3F0E82403F85001090A99
:104DD300850A82850B83E0FBEAC39B40C5780812F2
:104DE30013F2780E1213F2742012177F126C2E1224
:104DF30013F6E4F50AF50B780A1213F2742212176C
:104E03007F126C2E1213F6742212177F126C2E125D
:104E130013F6750A00780A1213F6750A0D780A124A
:104E230013F6EEFCEFFDAA12AB13A910124E5D129E
:104E33001405E9FEAA08AB0912202080027E10EEB9
:104E4300F9026DFA1258A0F0A3A882A9837A00226E
:104E5300EEFCEFFDAA10AB11A90A122308740B2272
:104E630074E8120DF389128A108B11ECFEEDFF74B6
:104E73001812177F124F69F5087509007402780834
:104E830012164DE5082401F50EE4350912749F70DE
:104E930003024F4A850C82850D83125897A3AA8279
:104EA300AB8379008034E9F5147515007402781426
:104EB30012164DE50C2514FCE50D3515124F4F1256
:104EC3004675124F7A8A828B83124F90124F83A3B7
:104ED300A3A3A3124F5D50010B09850A82850B839F
:104EE300E0F8E9C39840BF78081213F2780E121362
:104EF300F2742012177F126C2E1213F6E4F50AF5E2
:104F03000B780A1213F2742212177F126C2E1213EB
:104F1300F6742212177F126C2E1213F6750A00789C
:104F23000A1213F6750A16780A1213F6EEFCEFFD51
:104F3300AA10AB11A912124E5D121405E9FEAA08BC
:104F4300AB0912202080027E10024E42FDEC2402A7
:104F5300F514E43DF515851482221258A0A3A3A3EA
:104F6300F0EA2404FA221253CF850C82F583A38539
:104F7300820A85830BE022124F7E221272EDE02219
:104F83008A828B83A3A3F08C828D83A322A3F08CCC
:104F9300828D83A3A3A3A3E02274F1120DF374EB18
:104FA3001214E8EAFEEBFFC200EA2420F8E43F888B
:104FB30008F5098882F583C3E09403A3E0940050C5
:104FC3000579010253C390199312789B7402121747
:104FD3007F12789B740E12177FE4F0A3F0740A1209
:104FE300177FE4F0A3F0740C12177FE4F0A3F0EA48
:104FF3002422F8E43F880AF50B8882F583126F05B3
:10500300740412177FAA82AB8312234A8A0C8B0D76
:10501300A80CA90D740A12177F12789B8508828544
:105023000983125ED6EAC398F8EB99F9850A82855B
:105033000B83E028F8A3E039F9740C12177F126D83
:10504300E9740812177FE090198AF0EE2414F5082A
:10505300E43FF509850882F583E0F912374E8A8229
:105063008B83E5824583700C901993E4F0A3F07968
:10507300020253C3125411602BEE2404F50AE43FD9
:10508300F50BA3121209740B12177FE0FD740612BD
:10509300177FE05403FC12542012230274021214EB
:1050A30005E9700C901993E4F0A3F079030253C35C
:1050B30012542012237AE9F50E850A82850B831296
:1050C3005ED6EAFCEBFD90198B80048882898312FB
:1050D3005D7870030251BF88828983A3A31253CBE7
:1050E300C3EA950CEB950D40E288828983A3A3A3C1
:1050F300A3C3E09CA3E09D40D2E8FCE9FD74041245
:10510300177FE05407700D740912177FE0640B706A
:10511300030251C3E50EA2E640030251C3EE241974
:10512300F582E43FF583E060030251C37402121772
:105133007F1253E9707A740212177F125D737070D5
:105143007C00850882850983E0F9122380740112AB
:10515300177F7401F0740912177F1253D712177F48
:10516300E0F50C780C1213F6740712177F1212096C
:10517300750C01780C1213F6740812177F1274B4AD
:105183001213F674051214BA880C890D780C1213D5
:10519300F2740912177F12540812177F1253DD128B
:1051A300177F1253F71214057C0112542012238027
:1051B300901993E4F0A3F079050253C37C007D00BA
:1051C300740412177FE0F8540360030252DEE854BC
:1051D3000460057E8402531D740912177FE0F8C32F
:1051E300941740030252DAE8F50A750B007402784B
:1051F3000A12164D7495250AF582743C350B125824
:105203007FE84970030252DA850882850983E0C08A
:10521300E0741012177FD0E0F0740C12177F125E47
:10522300D6741112177F12789B740A12177F125EBD
:10523300D6741312177F12789B74101214C28882CB
:105243008983120FC28B09A909740E12177F127872
:105253009BEA496048740912177FE0F50875090055
:105263007402780812164D74972508F582743C353C
:1052730009F583E493F87401938882F583E5824505
:1052830083601274021214C2120FC2740E12177FBB
:10529300125D786008740E12177F12784A7409122F
:1052A300177FE0F86054740268604F740368604AC3
:1052B30074066860457408686040740C68603B74E9
:1052C300116860367413686031741568602C740B50
:1052D3006860277E0080437E82803FEC4D602B8C8C
:1052E300828D83A3A3A3125411601F74021214C2EC
:1052F300120FC2E9FE74FF6E700B901993E4F0A3D2
:10530300F0F90253C374016E7010740412177FE036
:10531300540460047E8380027E81740212177F121C
:1053230053E97075740212177F125D73706B740406
:1053330012177FE0FA54107060740112177FEEF0B9
:10534300740912177F1253D712177F1249BF121312
:10535300F6740712177F12120975080178081213E1
:10536300F6EA131313541F64015401F50878081265
:1053730013F674051214BA8808890978081213F20F
:10538300740912177F12540812177F1253DD121774
:105393007F1253F7121405D200901993E4F0A3F08F
:1053A300EE70047900801974846EA200700A5004B0
:1053B3007907800C790680085004790980027908FE
:1053C3007415121405025CE31253CF22E0F50CA30B
:1053D300E0F50D22127845740822E02406FAA3E0D2
:1053E3003400FB740922126009C82415F582E438DD
:1053F300F583E022A3E0C8126EF338F583E0F912D7
:10540300232C7407221271E51272D1740922A3A30B
:10541300A31260098882F583E582458322850A8287
:10542300850B83125EDE850882850983E0F9227489
:10543300F4120DF38A088B09ECFEEDFF7C067D0068
:105443007900121F6C850882850983E054FCF8A358
:10545300E0F98E828F83E05403FAE84A8508828557
:105463000983F0A3E9127891A2E25004D2F08002FA
:10547300C2F0850882850983E054FBF0A2F0E4338F
:10548300F50A750B007402780A12164DE0450A12EC
:105493007891A2E3850882850983E050044408805B
:1054A3000254F7127891A2E45004D2F08002C2F0C1
:1054B300850882850983E054EFF0A2F0E433F50A0E
:1054C3007404780A12164DE0450A12615D8508825C
:1054D300850983E0540460108E828F83E0FAA3E091
:1054E300F9EA1266AE50010F8E828F8312550BA319
:1054F300125519850882850983A3A3A3A3A3F0EEFC
:105503001275E43FFB02416F125510A322E0850898
:1055130082850983A322A3126957E02274F7120D2F
:10552300F38A828B83E054038C828D8312559754C4
:105533000412559054081255905410F88C828D83A0
:10554300E048F0A3AC82AD838A828B83E05404608D
:1055530016125584124A19124C308C828D83A3F093
:10556300EC2402FC50010D8A828B83A3A3A3124A6D
:105573001812559C124A19A3F0EC1275E43DFB80F6
:105583002EEA2402F8E43BF98882F58322F88C8220
:105593008D83E048123F7FE0221255A0221255A5C9
:1055A300A322F08A828B83A3A3A3A3221222D87FF0
:1055B30001021142C082C08390198D80048A828BBC
:1055C300831245A2600C8A828B83A3A3E06970EDEA
:1055D30080047A007B00024187C082C08390198FC8
:1055E30080048A828B831245A260138A828B83A3F1
:1055F300A3E0F8E968600B74FF6870E680047A0042
:105603007B0002418774F0120DF38A088B09ECFECC
:10561300EDFF12235C8A0C8B0DEA4B60627C0080E9
:10562300010C850C82850D83A3A3A3A3A3A3A312BB
:105633005FEF504BECF50E750F007403780E1216E6
:105643004D850C82850D83A3A3A3A3125889888259
:10565300F583E493FA740193FBE5086A7003E509A3
:105663006B70BEA3A31256867002EF6B70B37410F7
:1056730012177F125690740812130A790180027967
:10568300008015E493FA740193FBEE6A221272D53B
:1056930089838882221214057F0802114274F6124C
:1056A3000DF31256CC6005125ED380047A007B00A2
:1056B30002575874F6120DF31256CC6005125ED1E0
:1056C30080047A007B0002575812235C8A828B8302
:1056D300E58245832274F7120DF3E9FFEAFCEBFD43
:1056E300901991800488828983125D78604688824C
:1056F3008983A3A3E06F70ED7E0080010E88828909
:1057030083A3A3A3E0FAEEC39A50DAEE75F003A4E1
:10571300FA85F008AB0888828983A3A3A3A3E02AB0
:10572300FAA3E03BFB8A82F583E06C7003A3E06D90
:1057330070CA80047A007B000255B274F6120DF32E
:105743001223748A828B83E58245836006A3A3E0D8
:10575300F9800279007F0202114274F6120DF3EC14
:10576300FF1223748B09A909EA496015EA2402F59B
:1057730082E439F583EF6005E0D2E68003E0C2E618
:10578300F080D274F0120DF3EAFEEBFF8C098D0A60
:105793001223568A0C8B0DEA4B7003025874750B57
:1057A30000741012177F126BFDFAE9FB80128C82D2
:1057B3008D83A3A3A3E493A2E3500302585A050BDA
:1057C300850C82850D83A3A3A3E0F8E50BC3984062
:1057D30003025874E50BF50E750F007402780E1270
:1057E300164D850C82850D83125889125879EE68FF
:1057F3007002EF6970C88A828B83E0F88C828D8394
:10580300A3A3E493C39840B6741165097019740196
:10581300650A609AE50A70A68C828D83A3A3A3E42C
:1058230093A2E240328097741365097044E50A70CD
:105833000D8C828D83A3A3A3E493A2E080E574017E
:10584300650A60030257C18C828D83A3A3A3E493EB
:10585300A2E140030257C1741212177F12597074E8
:105863000412130A88828983A3A3125897790180AB
:1058730002790002569BE8FCE9FD8882F583E493F4
:10588300F8740193F922A3A3A3A3E0250EF8A3E0E0
:10589300350FF9221258A0F0228E828F83E08A827C
:1058A3008B832274F0120DF38A088B098C0B12235D
:1058B3005C8A0E8B0FEA4B700302595D7A007B0002
:1058C300741012177F125FFC80050AEA70010B85C2
:1058D3000E82850F83A3A3A3A3A3A3A3E0F8C3EA24
:1058E30098EB940050748A0C8B0D7403780C121689
:1058F3004D850E82850F83A3A3A3A3125962125869
:1059030079E508687003E5096970BFA3A3E493F51B
:105913000C740193F50D8E828F8312723FC3E50CD5
:1059230098E50D9940A48C828D83A3A3A3A3A3E43C
:1059330093A2E7E433650B7091741212177F125927
:1059430070740812130A88828983A3A312723F8E8C
:10595300828F83126DE979018002790002569BA33D
:10596300A3A3A3E0250CF8A3E0350DF922127301DC
:105973008C828D83E8FCE9FD2274F1120DF3EAFEBB
:10598300EBFFECFAEDFBEE4F7003025AEEEC240250
:10599300F50CE43BF50D8C828D83A3AC82AD838E35
:1059A300088F09750A00E91212BA044142BB5A432F
:1059B30044CD5AE0E2865AE8E9325A2108245A09CA
:1059C300325A0A485A0B865A10245A18245A193242
:1059D3005A1A485A1B865A20245A21325A22485AA4
:1059E30023865A24975A25A05A26A95A27B25A28F9
:1059F300245A29325A2A485A2B865A2C975A2DA0B0
:105A03005A2EA95A2FB25A30245A31325A38325A9E
:105A130039865A3AB25AEA865AF0B25AF1DF5AEE46
:105A23005A8E828F83125897ECFAEDFB025AEE8E50
:105A3300828F8312467712551A8C828D83F00A0A5D
:105A4300AB0D025AEE8E828F8378081217108A826A
:105A53008B83E50812695C7808121710E5098C82BC
:105A63008D8312695C780812171074107808121469
:105A730089850C82850D83E508F0EA2403FA506BCF
:105A83000B80688E828F83121205121FEA74041230
:105A93001405805778081213EE7C058046780812A7
:105AA30013EE7C06803D78081213EE7C0780347871
:105AB300081213EE7C08802B78081213EE8E828F67
:105AC30083E02401FCE43400800F78081213EE8E87
:105AD300828F83125C78FCE439FD80097808121305
:105AE300EE7C107D00126157121405025CE3C08244
:105AF300C083E91212BA03202F095B383A095BE02D
:105B0300E2095B000D5B7901800279000241877431
