:020000040000FA
:060000000216C4020A19F9
:03001300020A3BA3
:03002B0002145567
:03003300020C6359
:03003B00020A9026
:0300530002094E51
:03005B000211C7C8
:030063000211E89F
:03006B00020C097B
:03007B00020C3A3A
:100083000209AD010020FD0002012E050000000160
:10009300BA1CCC1C0000D21CD81C00000000DE1CC3
:1000A300FC1C021D081D00000000000000000101EF
:1000B3000204081020408001FFFF090D0101040123
:1000C300FEFF0000000000000006FFFFFFFFFFFF30
:1000D300FF0101010400D019000000E8030000FF44
:1000E300FF9C1AE803000064006400B801A0BB0D84
:1000F30000A0BB0D00020200F8FF0705021E040169
:10010300051E02051E020A0A010108080103102741
:1001130002803E0102FEFFE8030A050001FFFF0122
:100123000A1401E0C503423F1A51123FF304B53FDD
:100133000000803E010105030101FF0F10FEFFA92E
:100143003A00000000413A00000000FF000000FFF9
:1001530000C082C083E9FA5407F8749628F582E454
:10016300341DF583E0F87900EAC4540F54036008A2
:1001730014600914600D8012E5808002E5905870C8
:10018300078007E5A0586002790102025BC082C0C4
:10019300831202ED600814601214601C802BEA6065
:1001A30005EB42808023E85280801EEA6005EB4223
:1001B300908016E852908011EBC39420500BEA60B4
:1001C30005EB42A08003E852A002025BC082C08319
:1001D3001202ED600814602C146050807BE852F327
:1001E30074016A601274026A601574046A7003EB26
:1001F300428FEB42FD806153F7DFE8528F80F34378
:10020300F72080F6E852F474016A601274026A609F
:100213001574046A7003EB42F6EB42FE803A53F71F
:10022300BFE852F680F343F74080F6EBC3942050C7
:1002330027E852F574016A601274026A6015740447
:100243006A7003EB42F7EB42FF800D53F77FE852EE
:10025300F780F343F78080F6D083D08222C082C038
:10026300831202ED600814602B14604E806CE85218
:10027300F352FD74016A600F74026A600F74046ABA
:100283007058EB428F805353F7DF800343F720E826
:10029300528F8046E852F452FE74016A600F740272
:1002A3006A600F74046A7032EB42F6802D53F7BF15
:1002B300800343F740E852F68020EBC39420501AA2
:1002C300E844E0F852F552FF74016A601074026A60
:1002D300601374046A7003EB42F702025B53F77F07
:1002E300E852F780F543F78080F6E95407FC7496EB
:1002F3002CF582E4341DF583E0FBF4F8E9C4540FD4
:10030300540322C082C0831202ED600814601214E9
:10031300601C802DEA6005EB42FD8025E852FD80DC
:1003230020EA6005EB42FE8018E852FE8013EBC31F
:100333009420500DEA6005EB42FF800574E04852BB
:10034300FF02025BC082C0831202ED6008146015D5
:100353001460228034EA6005EB42808003E8528017
:10036300EB42FD8024EA6005EB42908003E8529063
:10037300EB42FE8014EBC39420500EEA6005EB427F
:10038300A08003E852A0EB42FF02025BE9C4540FD2
:1003930054036007146013146020227801E8F4FB0F
:1003A300EA602014602114601522740F59C3940469
:1003B3005004780280E7780480E3780880DFE58CD6
:1003C300586004EB528C22E8428C221216D4601D32
:1003D3001216E37005191919801A121565701F1288
:1003E300153DC37003E66733191919400718181828
:1003F3002208080874FFF618F618F618F6221215E4
:100403003D6017121789702192F0121792701950DC
:100413001720F014080808090909E7F61819E7F680
:100423001819E7F61819E7F62212179260E6E86939
:10043300701F0808E62480F608E436F618547FB4E3
:100443007F0CE654806007F6E418F618F6221818B5
:1004530022E9C6CC08C6CD08C6CE08C6CFC0E0E8A0
:10046300C0E0EAC0E0EBC0E009E9F809E7FA09E710
:10047300FBE6F918E6F8C3EC98ED99EE9AEBC2E7C0
:10048300F5F0EFC2E795F0500E600CEBCFFBEACE30
:10049300FAE9CDF9E8CCF8EAA2E7D2E7FAEB33FBC5
:1004A30013F5F0EEA2E7D2E7FEEF33FFC5F013A298
:1004B300E730E601B313C5F0C3C0E0C0F07F00C36B
:1004C3009BFB605E9418600F401D14601AD0E023FC
:1004D300F9D0E0F80205AF8AF0E9486003D2F0E40E
:1004E300AFF0FAF9F8803BEB30E40D89F0EA6003F2
:1004F300D2F0E4AFF0F9CAF8EB30E30D88F0EF6027
:1005030002D2F0AFF0E4CAC9F8EB54076014FBC39E
:10051300EA13FAE913F9E813F8EF135002D2E0FFF4
:10052300DBEDD0E0C0E030E739C3E49FFFF5F0EC4A
:1005330098FC42F0ED99FD42F0EE9AFE42F0D0E0D5
:10054300F9D0E0F8E5F0607AE923F9EE20E742D844
:10055300028067C3EF33FFEC33FCED33FDEE33FE74
:1005630080EAEC28FCED39FDEE3AFED0E023F9D029
:10057300E0F84002801BC3EE13FEED13FDEC13FC09
:10058300EF135002D2E0FF08B800067F7F74FF80AC
:100593002EEF3350178CF020F00260100CBC000CCF
:1005A3000DBD00080EBE000408E860DFE933E81360
:1005B300FFEE2313FE4F4D4C8008E95480FFE4FE09
:1005C300FDFCEE33EF33F47004FCFD7E80D0E0FBE2
:1005D300D0E0FAD0E0F8D0E0CFC618CEC618CDC62A
:1005E30018CCC6F9221216D4700418181822121641
:1005F300E3700D74FFF61819F61819F61819F62298
:10060300E7548066F6121792700F12178970F01470
:10061300F608F608F608F680D1121789700CF6086A
:10062300F608768008E6447F80EC121540700C12C1
:10063300156860BFE65480F6E480BB121568700548
:1006430019191980A5E869700C763F18768018F699
:1006530018F6E8F922E6CDC0E018ECC0E0E633CDA9
:1006630033CDD313F6E719FCE7191933CC33C3940D
:100673007F400ECD9D502408E65480F6E418F680A2
:100683000FF4043D14501408E6447FF6187680E412
:1006930018F618F6D0E0FCD0E0FD22CCD313CCFD45
:1006A30018E4C6CBC0E018E4C6CAC0E00808ED08E9
:1006B300C633E613F618E433C675F003C3CA97CA04
:1006C30009CB97CB199C40047D08802EBD00030203
:1006D300079116B6FF050606081618C3CA33CACB18
:1006E30033CB33CA27CA09CB37CB193CC37D088028
:1006F3003E187D0820E75CC633C6CA33CACB33CB6A
:1007030033DDF1D5F0EB30E77BCA97CA09CB974AC3
:10071300CB199C406F4B7025E620E0218066187D45
:1007230008C3CA97CA09CB97CB199CD3C633C6CA89
:1007330033CACB33CB3350C9DDE7D5F0E1D3E4C6BD
:1007430036C608C636C608C636C608C636C618181C
:10075300188031C3CA97CA09CB97CB199CB340976A
:10076300C633C6CA33CACB33CB33DD34D5F02EC63A
:10077300A2E0C640C8CA27CA09CB37194A70BECB04
:100783003CB480B90808E63308E633601F1818182C
:10079300D0E0FAD0E0FBD0E0FCD0E0FD22187D08E9
:1007A300CA27CA09CB37CB193CD3808013F618E488
:1007B300B67F11F618B6FF0EF618C60470D20808F5
:1007C300768080CAF618F618F680C5001216D46033
:1007D3004F1216E36012E7548066F6121565701126
:1007E300121789703B090909F4F618F618F618F67A
:1007F3002212153D701512179208080860EAE644A4
:100803007FF618768018E4F618F62212179260160F
:100813001217897012E4F608F608F608E65480F613
:1008230009090918181822EAC0E0EBC0E0ECC0E09F
:10083300EDC0E0E687F0A4FBACF008E687F0A42C5B
:10084300FCE435F0FA1809E687F0A42C4B60027437
:1008530001CA35F0FCE433FB09E687F0D2F7A42C98
:10086300CB35F0FC1908E687F0A42BCC35F0FBE47C
:1008730033FD0819E687F0D2E7A42C4ACB35F0CD37
:100883003400FC09E687F0D2E7A42DCC35F0FDE473
:1008930033FA0918E687F0D2F7A42CCD35F0CA3421
:1008A30000FC08E687F0D2E7D2F7A42ACC35F07A29
:1008B3007E20E70B0ACB33CBCD33CDCC33CC33CB3C
:1008C3003350147004ED30E00ED2F1E4CD3DCDCCC5
:1008D3003CCC3B5005DA05C2F1EB547FC63308E646
:1008E3003392F0FBE73309E733C39A502D2B70198A
:1008F3000C0D4C4D70151806E608C333700D20F12E
:100903000AA2F013F6E418800B4024E4F630F00258
:10091300768018F618F618F68024D33B145010741A
:10092300FFA2F013F6187680E418F618F6800FA2EB
:10093300F013F618E63303F618ECF618EDF6D0E0EC
:10094300FDD0E0FCD0E0FBD0E0FA22C0E074F1126D
:100953000E5FA2AFE433F509D2AF85A708AFA1EFCD
:100963005508FE74105E60061219A875A1EF74088D
:100973005E60081219AE75A1F78024EFA2E092F031
:10098300E508A2E082F05017906198E0F890049C8B
:10099300E0C398A2D265D0335002E8F075A1FEE51A
:1009A30009A2E092AF7F02020EBEC0E074F2120E03
:1009B3005FA2AFE433FED2AF9061A4E0F8759B0071
:1009C300E59158540860087591F71219F68023E5EC
:1009D3009158541060087591EF1219FC8014E59139
:1009E300A2E092F0E8A2E082F05007E0C2E0F01249
:1009F3001B529061A3E0F8E5E9585404600E121B02
:100A03002875E9FB906193E0A2E640F2EEA2E09242
:100A1300AF7F01020EBEC0E074F2120E5FA2AFE41C
:100A230033FED2AF9061A5E0F8E5BF5854046006E9
:100A330075BFFB121B6A80D4C0E0C0D0E8C0E0E9F8
:100A4300C0E0C082C083A8C1E8C0E0900409E0F818
:100A5300748828F582E43403F583D0E0F090040829
:100A6300E0F8A3E0687006E59590040BF0900409A4
:100A7300E004F0C394804002E4F0A374C6F0D08392
:100A8300D082D0E0F9D0E0F8D0D0D0E032C0E0C0DE
:100A9300D0E8C0E0E9C0E0C082C08390048CE0F8F5
:100AA300A3E0687008539AFBA374018022C2E99003
:100AB300048CE0F8740128F0740C28F582E4340403
:100AC300F583E0F5C190048CE0C394804002E4F028
:100AD30080AC120B2030F039120B658034120B20DE
:100AE30020F01430E72B74FFFCFBFA747F8022E4C0
:100AF300FCFBFA7480801AB48008BC00F2BB00EFE0
:100B0300800F50EBF9E4C39AFAE49BFBE49CFCE40A
:100B130099C6CC18C6CB18C6CA18C6F922E4C9C6EA
:100B230008CAC608CBC6D3330308CCC63392F0C376
:100B3300947F402E94184019C9B90704CACBCC221C
:100B43005025C309CA33CACB33CBCC33CC33D9F406
:100B530022F4600DC9CCC313CB13CBCA13CAD9F685
:100B6300CC22E4FCFBFA2214FCFBFA22C3E498F83F
:100B7300E499F9120BB08026C3E49AFAE49BFBE9EB
:100B830020E7E9120BB0E498F8E499F922C3E4985A
:100B9300F8E499F9120BB0E498F8E499F9C3E49AEC
:100BA300FAE49BFB22EB20E7CFE920E7E0B9001052
:100BB300BB0008E88AF084F8AAF022E4FBC8FA2212
:100BC300EB70227B10C833C8C933C9335007C39AAB
:100BD300C3DBF280069A50012ADBEAC833F4C8C9A2
:100BE30033F4C9FA2275F008E4C833C8C933C933EA
:100BF300C99AC99B5004C92AC93BD5F0ECFBC83339
:100C0300F4C8E4C9FA22C0E074F2120E5FA2AFE4A2
:100C130033FED2AF90062FE05589600FE589FA794C
:100C230000121E1690062FE0F45289C2C5EEA2E010
:100C330092AF7F01020EBEC0E074F2120E5FA2AF4C
:100C4300E433FED2AF900630E0558A600FE58AFAAE
:100C53007901121E16900630E0F4528AC2EB80CD61
:100C6300C0E074F2120E5FA2AFE433FED2AF90067F
:100C730031E0558B600FE58BFA7902121E16900650
:100C830031E0F4528BC2E880A4080808EAC0E0EB24
:100C9300C0E086F0E7A4FA180986F0E7A42AFA1858
:100CA3000986F0E7A42AFA180986F0E7A42AFA19B4
:100CB30086F0E7A4FBE5F02AFA190886F0E7A42BEF
:100CC300FBE5F03AFA190886F0E7A42BFBE5F03AC6
:100CD300FA18180986F0E7A4C5F02BFBE43AFA19D1
:100CE30008E7C5F0C6A426F6E5F03BFBE43AFA189C
:100CF30086F0E7A4F6E5F00826F6E43B08F6E43AC6
:100D030008F6D0E0FBD0E0FA22080808E630E71145
:100D13001215A1120D24080808C64480C618181815
:100D230022181818E9799EC608CAC608CBC608CC8B
:100D3300C6C370207996CACBCC7019798ECBCC7090
:100D4300137986CC700EF9802ACA33CACB33CBCC45
:100D530033CC331930E7F2CCCBCA3350147004EAE6
:100D630030E00DE4CA3ACACB3BCBCC3CCC500209B1
:100D7300C3E913C6CC182313C6CB18C6CA18C6F9C1
:100D830022E4CFC0E0E4CEC0E0E4CDC0E0E4CCC0D8
:100D9300E075F020E626F608E633F608E633F608B3
:100DA300E633F6181818EC33FCED33FDEE33FEEFA3
:100DB30033FFC3EC9709ED9709EE9709EF971919DC
:100DC30019400FFFEC97FC09ED97FD09EE97FE190B
:100DD3001906D5F0BFECF709EDF709EEF709EFF7C0
:100DE300191919D0E0FCD0E0FDD0E0FED0E0FF22DD
:100DF3002518C582C0E0E51934FFC583C0E0E518B6
:100E0300C3958224F810AF0885831985821880085A
:100E1300858319858218D2AFCEF0A3E520F0A3789D
:100E230008E608F0A3DEFAEFF0A3E58124FAF8E67A
:100E330008F0A3E608F0A3E608F0A30808E608F024
:100E4300A3E608F0A315811581D0E0FED0E0F815E4
:100E53008115811581E8C0E0EEC0E022C0D02518DD
:100E6300C582C0E0E51934FFC583C0E0E518C3952A
:100E73008224F310AF08858319858218800885833F
:100E830019858218D2AFC8F0A3E9F0A3EAF0A3EB67
:100E9300F0A37908E709F0A3D8FAECF0A3EDF0A3E7
:100EA300EEF0A3EFF0A3D0E0F0A3D0E0F0A3D0E006
:100EB300F0A3E520F0A3E5F0F0A3228519838518BC
:100EC30082E0C0E0A3E0F9A3E0FAA3E0FBA3780883
:100ED300E0F608A3DFFAE0FCA3E0FDA3E0FEA3E055
:100EE300FFA3E0C0E0A3E0C0E0A3E0F5D0A3E0F5FA
:100EF30020A3E0A3F5F010AF08858319858218803D
:100F030008858319858218D2AFD082D083D0E0F8C8
:100F1300D0E0321215A4181818120D841216731982
:100F2300191922121673191919080808E61818183E
:100F330020E7E0120D841215A418181822090909D4
:100F4300E719191920E7DC080808E618181820E73C
:100F530003020D841215A4181818120D841215A477
:100F630018181812167319191922121774B90003D5
:100F7300020FACE4900331783A791B8002F0A3D8D6
:100F8300FCD9FA7A6A7B1D90008678CF79018015A7
:100F9300E493A3AD82AE838A828B83F0A3AA82AB50
:100FA300838D828E83D8E9D9E77582337583C074C4
:100FB300071213CC7582AE75833774001213CCE419
:100FC3007375F0108E1A8F1B85821F85831E8518FB
:100FD30082851983E0CEA3E0CF851F82851E83EB34
:100FE300C9EAC8EDCBECCAC3E833C8E933C9EA336D
:100FF300CAEB33CBC3EA9EF51DEB9FF51CB350043C
:10100300AB1CAA1DEC33CCED33CDD5F0DAAE1AAF61
:101013001B221216D4601C1216E36017121792706B
:10102300071217897001D322C0D01217897006D016
:10103300D0B322C32233D0D0501430E0F6C3E796A6
:101043000809E7960809E7960809E796B32220E01E
:10105300D5E6970809E6970809E6970809E697B3DE
:1010630022D083D082ECC0E0EDC0E0E493A3FCE4A3
:1010730093A3FDED4C600D121188EC24FFFCED34BD
:10108300FFFD80EFE493A3FCE493A3FDED4C600D1F
:1010930012128FEC24FFFCED34FFFD80EFD0E0FD56
:1010A300D0E0FCE493A3C0E0E493C0E0221216D4A2
:1010B300601B1216E36016121792700712178960ED
:1010C3000CB322C0D01217897005D0D022C32233AB
:1010D300D0D0501330E0EBC3E7960809E796080930
:1010E300E7960809E7962220E0E4E6970809E697E1
:1010F3000809E6970809E69722D083D082E9C0E081
:10110300E493A3C386F0C5F095F0F908E493A386AE
:10111300F0C5F095F0700BE493A3C3994005E9047F
:101123008002A3E475F002A42582F582E5F03583FD
:10113300F583D0E0F9E493A3C0E0E493C0E0228513
:101143001983851882E0A3FEE0A3F5207808E0A3C5
:10115300F608DFFAE0A3FFE0A3C0E0E0A3C0E0E00D
:10116300A3C0E0E0A3C0E0E0A3C0E010AF08858225
:10117300188583198008858218858319D2AFD08397
:10118300D0820213D2C0E0C3E4939608740193960D
:1011930018400FE493667008087401936618700092
:1011A3007019A3A3C3E49396087401939618A3A399
:1011B300400DD0E0D0E0D0E00210A0A3A3A3A3A3EE
:1011C300A3D0E022C0E074F2120E5FC2D9901DB327
:1011D300E0C39400A2D265D0334005E0F912215256
:1011E3007F01020EBEC0E074F2120E5FC2DC901DDE
:1011F300B5E0F9C39400A2D265D033400312215263
:1012030080DE7404800474028000CCC0E0EDC0E092
:10121300E518C39CCCAD1950011D10AF068C188D79
:101223001980068C188D19D2AF12134ED0E0FDD061
:10123300E0FC2274028000CCC0E0EDC0E0E518C3FE
:101243009CCCAD1950011D10AF068C188D1980066A
:101253008C188D19D2AF12130AD0E0FDD0E0FC2216
:101263001216D460251216E360201217927003023F
:101273001789080808E76670101819E766700A18D6
:1012830019E76670041819E76622F422C0E0C0F07B
:1012930088F0E4936670080874019366187000A8D8
:1012A300F0A3A3700BD0F0D0E0D0E0D0E00210A008
:1012B300A3A3D0F0D0E022D083D082CCC0E0E493CB
:1012C300A3600612136F1470FAE493A3600612145A
:1012D300D21470FAD0E0FCE493A3C0E0E493C0E03E
:1012E30022C008C3E096F50808A3E096420808A3C5
:1012F300E096420808A3E0964208A2D265D033E5FF
:10130300087001D3D00822CAC0E0E493A3C582CCFD
:10131300C582C583CDC583F0A3C582CCC582C583F1
:10132300CDC583DAE5D0E0CA22A2E792D65002F413
:101333000430F70663F0FF05F0B3400384800384B1
:10134300F40430D60563F0FF05F022CAC0E0E0A341
:10135300C582CCC582C583CDC583F0A3C582CCC568
:1013630082C583CDC583DAE6D0E0CA22C0E0E49328
:10137300A3D39C5010E493A3C39C400AD0E0D0E0D5
:10138300D0E00212D7A3A3A3D0E022700908080873
:10139300226016181818C6C333C608C633C608C653
:1013A30033C608C633C6D5E0EA22C008C3E096F5C3
:1013B3000808A3E096420808A3E096420808A3E0C1
:1013C3009645087001D3D00822C09FF59FE473D0DF
:1013D3009F22D083D082C09FE493C0E0740193C066
:1013E300E0740293F59F227404800A7403800674E8
:1013F3000280027401C0E0F404121420D0E012173A
:101403001F2200C0D0251810AF08F518500C05197D
:101413008008F51850020519D2AFD0D0222518F54F
:101423008210AF08F518400C15198008F518400212
:101433001519D2AF85198322BB0102E722C082C0EE
:101443008389828A83BB0003E08002E493D083D044
:101453008222C0E0C0D0E8C0E0A8A8D2AFC2C7E8EB
:10146300A2E792AFD0E0F8D0D0D0E03260170808FE
:1014730008C6A2E713C618C613C618C613C618C6ED
:1014830013C6D5E0E9226016080808C6C313C618B8
:10149300C613C618C613C618C613C6D5E0EA22C3B8
:1014A300E0C696F608A3E0C696F608A3E0C696F64D
:1014B30008A3E0C696F6222518F8E43519F9222583
:1014C30018FAE43519FB222518FCE43519FD22C06E
:1014D300E0E493A36C7009D0E0D0E0D0E00212D72F
:1014E300A3A3D0E022251810AF08F518400C151956
:1014F3008008F51840021519D2AF22E7667010086C
:1015030009E766700A0809E76670040809E76622B6
:10151300C3E09608A3E09608A3E09608A3E096A28A
:10152300D265D03322E066701008A3E066700A0823
:10153300A3E066700408A3E06622191919E70947B6
:10154300097009E727097005E733F4220922C3E08C
:1015530096F008A3E096F008A3E096F008A3E096BF
:10156300F022181818E60846087009E626087005E0
:10157300E633F4220822C3E4939608740193960891
:1015830074029396087403939622C3E697F60809A8
:10159300E697F60809E697F60809E697F62218187B
:1015A30018E4C396F608E496F608E496F608E4967B
:1015B300F622E056F008A3E056F008A3E056F00840
:1015C300A3E056F022E667F60809E667F60809E69F
:1015D30067F60809E667F622E493F608740193F6C2
:1015E30008740293F608740393F622E657F6080983
:1015F300E657F60809E657F60809E657F622E627FE
:10160300F60809E637F60809E637F60809E637F675
:1016130022E026F608A3E036F608A3E036F608A390
:10162300E036F622E026F008A3E036F008A3E03621
:10163300F008A3E036F022E647F60809E647F60885
:1016430009E647F60809E647F622700422600D18FA
:10165300C6C333C608C633C6D5E0F41822E056F62F
:1016630008A3E056F608A3E056F608A3E056F622D0
:10167300E4C397F709E497F709E497F709E497F7C1
:1016830022600D08C6A2E713C618C613C6D5E0F339
:1016930022C6F4C608C6F4C608C6F4C608C6F4C60D
:1016A30022C3E09608A3E09608A3E09608A3E09679
:1016B30022C3E7960809E7960809E7960809E7961B
:1016C3002275D00075813F75183175190300020F1B
:1016D3006DE6084608C3134608336002E633F42276
:1016E300E7094709C3134709336002E733F422606C
:1016F3000C08C6C313C618C613C6D5E0F422E6F019
:1017030008A3E6F008A3E6F008A3E6F022E0F60853
:10171300A3E0F608A3E0F608A3E0F622CAC0E0E6D9
:10172300F0A308DAFAD0E0FA22E0FCA3E0FDA3E09C
:10173300FEA3E0FF22EAF0A3EBF0A3ECF0A3EDF0AD
:1017430022E0FAA3E0FBA3E0FCA3E0FD22E8F0A380
:10175300E9F0A3EAF0A3EBF022ECF0A3EDF0A3EEA3
:10176300F0A3EFF022E0F8A3E0F9A3E0FAA3E0FB93
:1017730022E5C754F84401F5C77901222518F582FB
:10178300E43519F58322E72719471947194722E654
:101793002618461846184622C2AF75D69F02000087
:1017A300221213D55CCD051213D53ED0051213D5E5
:1017B30090D1051213D546D2051213D545D3051280
:1017C30013D578D4051213D519B7071213D5A1B7BA
:1017D300071213D5E1B8071213D5C7D0071213D5D3
:1017E300D8D0071213D576D1071213D581D107129A
:1017F30013D5F27F001213D52CD7071213D584D338
:10180300071213D594D3071213D5A9D3071213D5EF
:101813000FD4071213D5C5CD071213D548CE07121F
:1018230013D5AECE071213D535BE071213D570BE2E
:10183300071213D5CBBE071213D523BF071213D537
:10184300A9BF071213D5E5BF071213D53FD7071258
:1018530013D54FD7071213D5499A071213D59F9A59
:10186300071213D5EE9A071213D51B9B071213D534
:10187300719B071213D555D6071213D5A9B90712B1
:1018830013D5F3B9071213D589BA071213D50FBBB2
:10189300071213D540BB071213D558BB071213D534
:1018A300CCBB071213D5E2BB071213D5F5BB071246
:1018B30013D5FFBB071213D583F3031213D534F8E3
:1018C300031213D549F9031213D575F9031213D56E
:1018D300FAF9031213D5C1FC031213D5A6EA0512B4
:1018E30013D509EB051213D5B9EB051213D584EC07
:1018F300051213D5D9ED051213D5B9EE051213D57B
:10190300B6EF051213D58EF1051213D5B5F10512F5
:1019130013D541F2051213D59BF3051213D52EF4FB
:10192300051213D540F4051213D5339C061213D5B3
:10193300019E061213D52C9F061213D5EFA0061293
:1019430013D5EAF6061213D516F7061213D587F93F
:10195300061213D5C7F9061213D507FA061213D5C3
:101963001BFA061213D534FA061213D525FB0612F9
:1019730013D5CAFB061213D5DEFB061213D5A5C673
:10198300071213D5C9C6071213D5E2C6071213D51A
:1019930014C7071213D544C7071213D571C707120B
:1019A30013D5D3C7071213D5E2C7071213D5ECC754
:1019B300071213D5F9C7071213D583B4071213D52A
:1019C300A3B4071213D5E2B4071213D5FDB407125B
:1019D30013D51CB5071213D582B5071213D58BB5D2
:1019E300071213D5E8B5071213D50CB6071213D592
:1019F300CDB6071213D5DAB6071213D5EBB6071215
:101A030013D519D4071213D531D4071213D55DD4C6
:101A1300071213D50E85071213D56286071213D545
:101A23007086071213D58386071213D5988607127B
:101A330013D5AD86071213D5C086071213D5348785
:101A4300071213D59987071213D53B88071213D5AD
:101A5300FF88071213D50F89071213D51E890712A2
:101A630013D550D2071213D574D2071213D59CD2B3
:101A7300071213D5C4D2071213D512BC071213D5FC
:101A830039BC071213D557BC071213D5CABC0712AA
:101A930013D56DAE071213D586AE071213D592AECA
:101AA300071213D5A6AE071213D5C4AE071213D56A
:101AB300CEAE071213D5D8AE071213D5EBAE07126D
:101AC30013D575AF071213D5EAAF071213D51EB09E
:101AD300071213D56CB0071213D5B9B0071213D57B
:101AE300D4B0071213D5DEB0071213D504B1071211
:101AF30013D569B1071213D599D1071213D5BBD1E9
:101B0300071213D512D7071213D50080061213D567
:101B13002A80061213D54780061213D55A8006125F
:101B230013D57080061213D5CE80061213D5068105
:101B3300061213D5FE84061213D54386061213D557
:101B43007686061213D5D986061213D55C8806123B
:101B530013D58488061213D59988061213D5A9883C
:101B6300061213D5ED88061213D54889061213D52C
:101B73005889061213D585CA071213D59FCA0712AF
:101B830013D5C7CA071213D5E0CA071213D504CB5E
:101B9300071213D522CB071213D539CB071213D54E
:101BA30067CB071213D582CB071213D5AE7F001272
:101BB30013D52F9E071213D53F9E071213D5469FA9
:101BC300071213D57A9F071213D59C9F071213D5BB
:101BD300BF9F071213D5DD9F071213D517A0071256
:101BE30013D57CA0071213D5BEA0071213D5FDA0F1
:101BF300071213D52EA1071213D565A1071213D50A
:101C03009EF7021213D59AF8021213D5B8F80212EE
:101C130013D5DFF8021213D5A9FA021213D5D7FA96
:101C2300021213D58CFB021213D54FFC021213D5EB
:101C33005EFD021213D599FE021213D53A920712D2
:101C430013D58F92071213D50993071213D51C933B
:101C5300071213D54393071213D5D693071213D53F
:101C6300B094071213D5E892061213D513930612F4
:101C730013D5DE93061213D51B94061213D5AC9419
:101C8300061213D52898061213D53B9A061213D5BC
:101C93008AD4041213D5C4D4041213D5C4D604129F
:101CA30013D50ED9041213D507DC041213D579DC2E
:101CB300041213D513DD041213D562DD041213D5F8
:101CC300A5DD041213D5BFDD041213D518DE0412EB
:101CD30013D546DE041213D549DE041213D559DE9B
:101CE300041213D56CDE041213D5B7DE041213D518
:101CF300CBE0041213D5FEE0041213D563E1041202
:101D030013D5B6E1041213D53CE2041213D5C8E28D
:101D1300041213D5E0E4041213D580E6041213D59C
:101D2300BEE7041213D562E9041213D5C7CF071215
:101D330013D5E1CF071213D528D0071213D556D0E8
:101D4300071213D570D0071213D589D0071213D5F4
:101D5300ADD0071213D538D6061213D569D606129D
:101D630013D5BDD6061213D58DD7061213D5BAD700
:101D7300061213D5E7D7061213D539D8061213D591
:101D830063D8061213D587D8061213D5AFD8061217
:101D930013D5EFD8061213D579D9061213D5AAD9BC
:101DA300061213D5D1D9061213D517DA061213D595
:101DB30035DA061213D559DA061213D579DA061273
:101DC30013D5AFDA061213D50EDB061213D530DBAB
:101DD300061213D58FDB061213D59EDB061213D51D
:101DE300D7DB061213D5A478001213D5DE780012C0
:101DF30013D5197A001213D5317B001213D5877FBF
:101E0300001213D52CE7061213D566E7061213D575
:101E13000DE8061213D5BECC071213D52FCD07122A
:101E230013D591CD071213D58AD0061213D59BD1A2
:101E3300061213D5ACD2061213D5FAD3061213D554
:101E430050D4061213D58ED4061213D59CD4061281
:101E530013D52DD6061213D53FA8071213D5A1A863
:101E6300071213D59DAA071213D5D6F1061213D55F
:101E730017F2061213D54DF2061213D574F3061298
:101E830013D510F5061213D5B0F5061213D5CEF6F9
:101E9300061213D5C5BE061213D50DBF061213D5F0
:101EA300F4BF061213D5E7C2061213D511C30612E7
:101EB30013D5E3C3061213D5DAC3071213D517C418
:101EC300071213D54BC4071213D55EC4071213D5DB
:101ED300BDA1071213D5D0A2071213D592A30712DF
:101EE30013D53DA4071213D569A4071213D5E0A493
:101EF300071213D5E6DB061213D546DC061213D5FB
:101F0300D5DC061213D5FBDD061213D5B0E006129D
:101F130013D5C6E0061213D542C5071213D562C501
:101F2300071213D575C6071213D578C6071213D532
:101F3300B6FE031213D5ECFE031213D506FF0312EC
:101F430013D548FF031213D558FF031213D5F2FF1D
:101F5300031213D5ACAA061213D5B6AA061213D5CB
:101F6300F0AA061213D559AB061213D576AB061297
:101F730013D518AC061213D521AC061213D566ACD3
:101F8300061213D58FAC061213D59CAC061213D5CB
:101F93000DAD061213D598AD061213D5E6AD061294
:101FA30013D524AE061213D589AE061213D5ACAEE3
:101FB300061213D523AF061213D57AAF061213D523
:101FC300B5AF061213D5EAAF061213D5FCAF06124E
:101FD30013D50EB0061213D52DB0061213D536B095
:101FE300061213D5F1B0061213D53DB1061213D55F
:101FF3007BB1061213D503C8071213D543C90712C1
:1020030013D5F7D6071213D563AB071213D5A7ABB6
:10201300071213D5EFAB071213D5D5AD071213D59E
:1020230064AE071213D59ED4071213D50080051290
:1020330013D52481051213D55E81051213D50883A8
:10204300051213D53283051213D5A785051213D5AF
:10205300E785051213D57D87051213D51A88051256
:1020630013D56C88051213D50F89051213D547892B
:10207300051213D58989051213D5F88A051213D5CC
:10208300468C051213D5778E051213D5A58E05122E
:1020930013D5CC8E051213D5D58E051213D5258FE6
:1020A300051213D5B78F051213D5E692051213D572
:1020B3006993051213D5B9D6071213D5CFD60712D4
:1020C30013D5F2FB061213D508FC061213D5ACFC8C
:1020D300061213D5EBFC061213D508FD061213D511
:1020E30039FD061213D586FD061213D5B9FD061266
:1020F30013D5F4FD061213D5E9FF061213D5C0CA92
:10210300061213D5E6CC061213D518CE061213D534
:1021130030CE061213D50080071213D54281071261
:1021230013D5DA82071213D5A7B1061213D5ABB2B2
:10213300061213D5CDB3061213D5E8B4061213D580
:10214300BEB5061213D51CC2071213D592C20712CD
:1021530013D5B693051213D57B94051213D5889422
:10216300051213D53195051213D59095051213D584
:102173000097051213D57897051213D53A990512CE
:1021830013D56699051213D5739B051213D59B9B23
:10219300051213D5FC9B051213D5579C051213D5B5
:1021A300A89D051213D5FB9D051213D5809E05121C
:1021B30013D58AE1061213D5B1E1061213D505E44E
:1021C300061213D52CE4061213D581E4061213D597
:1021D300B3E5061213D52FE6061213D5C7CE0712A1
:1021E30013D526CF071213D564CF071213D5A5CF66
:1021F300071213D5F4B0051213D55DB1051213D52B
:10220300A8B1051213D5E3B1051213D558B40512BD
:1022130013D574B8051213D590BA051213D59EBB06
:10222300051213D578BC051213D56AB8061213D557
:10223300A4B8061213D5DDB9061213D57EBB061258
:1022430013D5ABBB061213D54EBC061213D5B1BCC6
:10225300061213D5E8BD061213D5E9D2071213D51A
:1022630033D3071213D5E4C4061213D541C506129E
:1022730013D51FC6061213D510C7061213D53CC7B4
:10228300061213D518C8061213D534C8061213D56F
:10229300CDC8061213D556C9061213D5DCFF011299
:1022A30013D5EFFF011213D554C9071213D563C910
:1022B300071213D5C3C9071213D552D7071213D563
:1022C3007D3E001213D5893E001213D5EB3E00125A
:1022D30013D5F53E001213D5883F001213D5C43F22
:1022E300001213D58440001213D59140001213D568
:1022F300F440001213D58941001213D5BF410012D7
:1023030013D53C42001213D5DC43001213D5B0455C
:10231300001213D59146001213D5DB47001213D5D3
:102323003D4A001213D5A24B001213D5374C0012AD
:1023330013D56A4D001213D55E4E001213D5974F75
:10234300001213D52D54001213D51A55001213D5AC
:10235300B255001213D5D755001213D503560012E8
:1023630013D59B56001213D5B156001213D5D3566D
:10237300001213D53957001213D55857001213D52D
:102383008157001213D5A158001213D577590012A3
:1023930013D5EC5A001213D50D5B001213D58E5BC7
:1023A300001213D5345C001213D57C5C001213D5D4
:1023B300ED5C001213D5795D001213D5DD5D0012BB
:1023C30013D53D5E001213D5EC5E001213D5585F92
:1023D300001213D58B5F001213D50960001213D5B9
:1023E3006561001213D5D561001213D5676200121F
:1023F30013D5CA63001213D55164001213D5B66402
:10240300001213D5E466001213D57068001213D5B9
:102413008068001213D5B468001213D52269001224
:1024230013D55D69001213D5BF69001213D5546A21
:10243300001213D52F6C001213D5FA6D001213D5A9
:10244300046F001213D50173001213D5CE7300125B
:1024530013D5E674001213D59076001213D502F249
:10246300011213D5B9F2011213D5C0F3011213D51A
:102473003EF4011213D580F5011213D5A1F5011213
:1024830013D559F6011213D504F7011213D5E4FA43
:10249300011213D500FD011213D567FE011213D5E6
:1024A300CFD5071213D5BDD6031213D518D70312F0
:1024B30013D5A2D7031213D513D9031213D5EBD90E
:1024C300031213D5D4DA031213D5EBDA031213D59F
:1024D3003DDB031213D5A1DB031213D5E2DB031299
:1024E30013D5F5DB031213D54BDC031213D5A4DC90
:1024F300031213D5BCDC031213D56CDF031213D5FF
:1025030001E0031213D52BE0031213D574E0031279
:1025130013D564E2031213D5CEE2031213D5A2E35B
:10252300031213D5E5E3031213D5FFE3031213D507
:1025330046E4031213D566E4031213D510E5031220
:1025430013D50EE6031213D568E6031213D5B9E6C5
:10255300031213D5C4E7031213D568EA031213D584
:1025630095EA031213D5FEEA031213D523EB0312E4
:1025730013D59DEB031213D566EC031213D5A3EC0D
:10258300031213D505ED031213D5C6ED031213D5AC
:10259300C9ED031213D5D3ED031213D5DDED0312E9
:1025A30013D5F0ED031213D56CEE031213D595EE8C
:1025B300031213D5A8EE031213D5D4EE031213D5C9
:1025C300FBEE031213D51FEF031213D55AEF0312B9
:1025D30013D5CCEF031213D5F4EF031213D535F053
:1025E300031213D56AF0031213D58AF0031213D51D
:1025F300C7F0031213D5FEF0031213D508F203122A
:1026030013D53BF3031213D551F3031213D577D527
:10261300071213D58FD5071213D5B5CB071213D5D0
:10262300ACA3061213D5FBA3061213D59BA5061262
:1026330013D556A7061213D598A7061213D581A84A
:10264300061213D58BA9061213D5ADA9061213D5FD
:10265300F7A9061213D578AA061213D52ED802129B
:1026630013D551D8021213D544D9021213D58DD9DB
:10267300021213D5E5D9021213D541DA021213D58A
:102683008DDA021213D503DB021213D58FDB02128C
:1026930013D504DC021213D547DC021213D520F73D
:1026A300051213D567E2021213D5A1E2021213D564
:1026B30025E3021213D556E6021213D5CBE6021216
:1026C30013D55BE8021213D563E9021213D579EA35
:1026D300021213D5EFEA021213D5B6EB021213D589
:1026E3001FEC021213D522EC021213D5F6EC0212E0
:1026F30013D532EE021213D5F2EF021213D5EDF118
:10270300021213D5F8F2021213D594F3021213D561
:10271300DFF4021213D5E5F5021213D548F60212BF
:1027230013D5E5F6021213D57BEA041213D51BEB7E
:10273300041213D585EB041213D588CC051213D5D7
:102743008BEC041213D537ED041213D5E0EF04120A
:1027530013D506F1041213D58AF1041213D567F3C6
:10276300041213D50CF4041213D5AFF4041213D5C9
:102773000EF5041213D5C7F5041213D546F7041248
:1027830013D503F9041213D584FA041213D5DEFB0F
:10279300041213D5EEFC041213D594FD041213D5C1
:1027A300B3FE041213D509BA041213D581BA041265
:1027B30013D5C9BA041213D50DBB041213D556BBD6
:1027C300041213D5A0BB041213D5D5BB041213D521
:1027D30053BC041213D5ADBC041213D506BE0412A8
:1027E30013D585BE041213D59CBF041213D5BEBFE7
:1027F300041213D5CAC0041213D5DBC0041213D5B7
:10280300F3C0041213D513C2041213D530C2041239
:1028130013D503C3041213D527C3041213D53EC320
:10282300041213D55FC3041213D581C3041213D545
:1028330073C4041213D5CBC4041213D541C60412B6
:1028430013D59FC6041213D5BEC6041213D5F0C701
:10285300041213D56DC8041213D5DAC8041213D5A4
:102863001AC9041213D57CC9041213D52CCA041235
:1028730013D5FECB041213D5E9CC041213D5E3CD43
:10288300041213D5E9CE041213D505D0041213D5BF
:1028930013D0041213D5ECD0041213D58CD1041227
:1028A30013D5D0D1041213D5E5D1041213D5F6D222
:1028B300041213D599D3041213D5F1D3041213D5EB
:1028C30008A5071213D5B0A6071213D56DA70712D3
:1028D30013D5C2A7071213D54D96071213D56B96BE
:1028E300071213D5AF96071213D5D596071213D532
:1028F300FB96071213D51397071213D52B970712BD
:1029030013D54397071213D5A697071213D5E89744
:10291300071213D50A99071213D51399071213D562
:102923001C99071213D52599071213D52F9907124E
:1029330013D55099071213D5E08D071213D5C09103
:10294300071213D5CE91071213D5D391071213D5BE
:10295300A9C0071213D516D5071213D58DD60712A2
:1029630013D56BFE051213D5D9D6071213D50080E4
:10297300021213D55780021213D5C380021213D546
:102983004F81021213D50582021213D54D82021212
:1029930013D56682021213D58982021213D5AB8234
:1029A300021213D5E982021213D53883021213D50A
:1029B3006383021213D5C183021213D568840212F2
:1029C30013D51085021213D58C85021213D559869F
:1029D300021213D5A086021213D5EC86021213D568
:1029E3007487021213D5AD87021213D5038802121E
:1029F30013D51F88021213D54E88021213D55A8A93
:102A0300021213D5888B021213D5B48B021213D57D
:102A1300E88B021213D5098C021213D5188C0212FB
:102A230013D5238C021213D5D28C021213D5428DE7
:102A3300021213D5CD8D021213D5D58D021213D5E3
:102A4300428E021213D57E8E021213D5448F0212C8
:102A530013D51790021213D56C90021213D50B9154
:102A6300021213D56591021213D5AA91021213D53E
:102A73004394021213D58695021213D5709802124D
:102A830013D55499021213D5389A021213D5499AC1
:102A9300021213D5BB9A021213D5529B021213D5FD
:102AA300B79B021213D5A79C021213D5CC9C02121A
:102AB30013D5EA9C021213D5069D021213D5799DF4
:102AC300021213D5889D021213D5109E021213D53C
:102AD3000D9F021213D51A9F021213D5239F0212C0
:102AE30013D505A1021213D527A2021213D537A2BB
:102AF300021213D565A3021213D5E4A3021213D550
:102B0300FFA4021213D53BA5021213D515A7021277
:102B130013D5D2AA021213D5E6AA021213D5F0AA2C
:102B2300021213D5FAAA021213D504AB021213D55B
:102B33001DAB021213D527AB021213D594AB0212AD
:102B430013D59FAB021213D5C7AB021213D5D2AB69
:102B5300021213D537AC021213D542AC021213D5AD
:102B630066AC021213D58AAC021213D5FCAC021266
:102B730013D545AD021213D561AD021213D5D2ADF3
:102B8300021213D51EAE021213D567AE021213D56D
:102B9300A5AE021213D526AF021213D5CDAF021282
:102BA30013D59CB1021213D501B2021213D52FB360
:102BB300021213D555B3021213D59DB4021213D5C5
:102BC300D7B7021213D5D5B9021213D5A0BB02127F
:102BD30013D539BC021213D53ABE021213D5EFBE78
:102BE300021213D528BF021213D58EBF021213D5BA
:102BF30098BF021213D5C1C1021213D500C302122A
:102C030013D557C3021213D502C4021213D5B2C58A
:102C1300021213D5FFC6021213D51FC7021213D512
:102C230074C7021213D575C8021213D59DC80212B8
:102C330013D5FCC8021213D5F4C9021213D56BCAFB
:102C4300021213D57ECB021213D5ECCB021213D58D
:102C5300EBCC021213D545CF021213D56ECF02125D
:102C630013D5D4D0021213D556D2021213D5ADD236
:102C7300021213D55BD3021213D500D4021213D55B
:102C830059D4021213D517D5021213D5A9D502129E
:102C930013D508D6021213D54AD6021213D57BD602
:102CA300021213D5D2D7021213D50080031213D503
:102CB3003280031213D56B80031213D529820312BA
:102CC30013D5FF82031213D55E83031213D57484C5
:102CD300031213D5C084031213D54E87031213D5E1
:102CE300288A031213D56F8B031213D5078C031293
:102CF30013D5138C031213D55C8C031213D59E8D3D
:102D0300031213D5948E031213D5BE8E031213D55B
:102D1300148F031213D56D8F031213D5E08F031293
:102D230013D51692031213D59893031213D58394D4
:102D3300031213D5CD95031213D50598031213D59A
:102D4300029B031213D5119B031213D5A59B0312E8
:102D530013D5509C031213D5939C031213D5DC9CFB
:102D6300031213D52C9D031213D5909D031213D573
:102D7300029E031213D51E9E031213D54D9E0312FA
:102D830013D58C9E031213D5879F031213D536A038
:102D9300031213D5B3A2031213D5E5A3031213D55C
:102DA300BDA4031213D53FA5031213D574A90312AF
:102DB30013D5A3A9031213D5FEA9031213D531AA60
:102DC300031213D5A9AA031213D5DCAA031213D530
:102DD3003DAB031213D58DAB031213D55AAC0312BB
:102DE30013D513AD031213D5D7AD031213D551B0B9
:102DF300031213D5B3B1031213D504B3031213D5BE
:102E030028B4031213D52BB4031213D55AB40312E7
:102E130013D552B6031213D511B7031213D540B706
:102E2300031213D55EB8031213D526B9031213D5B3
:102E3300E4BA031213D516BB031213D558BB0312FE
:102E430013D557BC031213D5CABC031213D5F3BE53
:102E5300031213D552BF031213D5A6BF031213D502
:102E6300D5C1031213D5B8C2031213D574C3031209
:102E730013D588C3031213D59CC3031213D5C9C337
:102E8300031213D5F9C3031213D5B4C5031213D513
:102E9300C6C6031213D51BC7031213D564C7031287
:102EA30013D58BC7031213D553C8031213D5F9C80F
:102EB300031213D57FCA031213D5C6CA031213D53F
:102EC30038CB031213D58DCC031213D536CD031291
:102ED30013D56ACD031213D582CD031213D525CE94
:102EE300031213D5A1D0031213D549D2031213D55C
:102EF30067D2031213D585D2031213D551D303120C
:102F030013D59FD6031213D57E84011213D5B6842D
:102F1300011213D5B689011213D5FC89011213D5F9
:102F2300328B011213D5978B011213D50C8D01121D
:102F330013D51690011213D53F91011213D5529B4D
:102F4300011213D5E29B011213D5CC9E011213D5A6
:102F5300D99F011213D53CA0011213D584A10112EC
:102F630013D5F2A3011213D584A5011213D511A60B
:102F7300011213D530A7011213D5BDA7011213D522
:102F8300C7A7011213D5EFA7011213D58FA80112FA
:102F930013D57AA9011213D547AA011213D564AA2E
:102FA300011213D58DAA011213D5BAAA011213D592
:102FB30001AD011213D5D0AD011213D50FAE01121D
:102FC30013D591AE011213D532AF011213D564AFED
:102FD300011213D5ABAF011213D5DEAF011213D516
:102FE30022B0011213D571B0011213D576B00112BC
:102FF30013D5D2B0011213D516B1011213D5F0B106
:10300300011213D555B2011213D5BBB2011213D558
:1030130036B3011213D59EB6011213D5A1B701120F
:1030230013D51FB9011213D535BC011213D5D7BC63
:10303300011213D520BF011213D5DBBF011213D523
:103043001AC0011213D5F2C1011213D50FC2011216
:1030530013D518C2011213D521C2011213D52CC2E4
:10306300011213D54BC2011213D5EFC3011213D5AD
:103073004CC4011213D556C4011213D560C40112F6
:1030830013D5BFC4011213D509C5011213D50AC63E
:10309300011213D561C6011213D572C7011213D5DC
:1030A300BBC7011213D575C8011213D58CC9011200
:1030B30013D561CA011213D5A8CB011213D5ACCC19
:1030C300011213D5A5CD011213D5BDCD011213D510
:1030D300F4CD011213D5FECD011213D508CE011282
:1030E30013D513CE011213D531CE011213D579CED8
:1030F300011213D5D7CE011213D5FECE011213D56B
:1031030010CF011213D5C5CF011213D5FECF011273
:1031130013D520D1011213D573D1011213D559D26E
:10312300011213D580D2011213D5F0D2011213D597
:103133006CD3011213D5C8D4011213D5EFD50112E4
:1031430013D5B1D6011213D57FD7011213D53DD8AC
:10315300011213D525D9011213D5CFD9011213D5D5
:1031630037DA011213D5ECDA011213D548DB011259
:1031730013D5A0DB011213D566DC011213D589DC4C
:10318300011213D544DD011213D566DD011213D5E7
:10319300C7DD011213D5F7DF011213D5F0E00112D9
:1031A30013D59CE1011213D5BDE3011213D506E437
:1031B300011213D551E4011213D5ADE4011213D555
:1031C3000BE5011213D52FE5011213D553E50112B7
:1031D30013D588E5011213D5B0E5011213D5F5E532
:1031E300011213D549E6011213D5A2E6011213D534
:1031F3009CE7011213D53AE9011213D57FE90112B5
:1032030013D5A8E9011213D531EA011213D5A4EAA3
:10321300011213D5B2EA011213D5D6EA011213D55E
:103223002CEB011213D547EB011213D502EC01125B
:1032330013D52EEC011213D571EC011213D5D4EC76
:10324300011213D5E2EE011213D50EEF011213D5BD
:10325300C9EF011213D5ADF0011213D541F10112DB
:1032630013D526E0051213D55EE0051213D57FE0D2
:10327300051213D5C1E0051213D525E1051213D5A7
:103283002FE1051213D53FE1051213D576E105129F
:1032930013D51FE5051213D5E7E6051213D5CBE8C1
:1032A300051213D56DE9051213D5F7E9051213D5E8
:1032B3005080041213D5F980041213D5D881041257
:1032C30013D5E482041213D50483041213D5268480
:1032D300041213D5D685041213D54386041213D5CD
:1032E3001487041213D51A88041213D59288041272
:1032F30013D5CD88041213D52689041213D56189F9
:10330300041213D5AA89041213D53E8A041213D5C5
:10331300D48A041213D5A98B041213D57C8C0412FE
:1033230013D50A8D041213D5308D041213D55D8D78
:10333300041213D58E8D041213D55B8E041213D58C
:103343006B8E041213D5BE8E041213D5CB8E0412CA
:1033530013D5D88E041213D5E18E041213D5458FDD
:10336300041213D5A38F041213D5EE8F041213D5B1
:103373000990041213D53090041213D54D90041202
:1033830013D55990041213D5EA91041213D503925D
:10339300041213D57F92041213D59292041213D5FB
:1033A300A292041213D54693041213D5B2940412B5
:1033B30013D5C595041213D56596041213D56F96CC
:1033C300041213D5EE96041213D5FF96041213D5E7
:1033D3003E97041213D56C97041213D5399804122F
:1033E30013D59098041213D5C998041213D51F99B5
:1033F300041213D53D99041213D58B99041213D5D6
:10340300569A041213D5A49A041213D5F19A0412EE
:1034130013D5749B041213D59E9B041213D5D49B0E
:10342300041213D5E39B041213D5429C041213D543
:10343300BA9C041213D5FB9C041213D54B9D0412A2
:1034430013D5769D041213D5909D041213D5AA9D0E
:10345300041213D57F9E041213D5899E041213D52B
:10346300C49E041213D5D49E041213D5259F0412AF
:1034730013D5399F041213D55BA0041213D570A082
:10348300041213D503A1041213D577A1041213D583
:103493001CA2041213D527A2041213D58AA3041263
:1034A30013D5A6A3041213D5F2A3041213D560A453
:1034B300041213D592A4041213D5ACA4041213D589
:1034C3000CA5041213D5ABA5041213D5F6A504124B
:1034D30013D549A8041213D5E1A8041213D558A98A
:1034E300041213D5B5AB041213D5CDAB041213D507
:1034F300D0AB041213D5DCAB041213D5F0AB04121A
:1035030013D5F8AB041213D52FAC041213D523AD86
:10351300041213D5ADAD041213D52FAE041213D577
:10352300AFAE041213D586AF041213D5A8AF04129D
:1035330013D541B0041213D59EB0041213D5A1B014
:10354300041213D510B1041213D55CB2041213D5AF
:103553006FB3041213D5FAB3041213D50DB50412C5
:1035630013D5D4B5041213D505B6041213D52BB64F
:10357300041213D534B6041213D563B6041213D54B
:1035830013B7041213D5C3B7041213D536B80412F4
:1035930013D5D9B8041213D54CB9041213D58BB96A
:1035A300041213D5D4B9041213D5D5F6051213D5C5
:1035B3003AF6051213D5ABF4051213D540AF051235
:1035C30013D5C5AD051213D5C8AC051213D589AAF9
:1035D300051213D533AA051213D576A8051213D5F0
:1035E300EDA5051213D567A5051213D523A405125E
:1035F30013D588CB051213D5A9CA051213D5DFA29B
:10360300051213D558A2051213D571F1061213D55D
:10361300D4F0061213D569B2071213D541B20712BB
:1036230013D5D4B1071213D574B1071213D5D0C96A
:10363300051213D5F6C8051213D52CC8051213D5D8
:103643009BC6051213D564C6051213D536C60512DB
:1036530013D5EAC5051213D553C5051213D5C3C433
:10366300051213D59DC4051213D552C4051213D5E3
:103673001CC4051213D59FC3051213D53AC30512F3
:1036830013D5E9C2051213D511C2051213D581C191
:10369300051213D535C1051213D5B0C0051213D5C4
:1036A3006BC0051213D54FC0051213D5F7BE051213
:1036B30013D58CED061213D5C9BE051213D509ED2A
:1036C300061213D5B6EC061213D52ED6071213D550
:1036D30013D6071213D515FD051213D5B7FB051223
:1036E30013D54EFB051213D5E5FA051213D596BE75
:1036F300051213D51ABE051213D5C18B071213D5A4
:10370300AC8A071213D5C5F9051213D5D889071248
:1037130013D55789071213D5DBDF051213D582DFC3
:10372300051213D5F6F8051213D54DDF051213D57F
:103733002CEC041213D518DF051213D5E4DE0512A1
:1037430013D577DE051213D55FDE051213D53ADEE6
:10375300051213D513DB051213D5E6D8051213D5BD
:10376300EDD6051213D579D6051213D52AD605122F
:1037730013D5E4D5051213D586D5051213D59F8F1E
:10378300061213D50D8F061213D53DF8051213D566
:10379300298E061213D58F8C061213D54F8A061263
:1037A30013D58889061213D518E00200000080FBA8
:1037B3008F000100361B87000100061E3500040040
:1037C300CA1D25000200CE1D26000200D01D2700C1
:1037D3000200D21D28000100DC1D29000100DD1DAF
:1037E30084000400DE1D86000100E21D2A000100A2
:1037F300E31D2B000100E41D2C000100E81D2D003A
:1038030008001E1B2E000100E91D2F000100EA1D08
:1038130030000100EB1D31000100EC1D32000100FE
:10382300261B33000100271B34000100ED1D360069
:103833000100281B38000100EE1D39000100E71DBF
:1038430083000200041E63000100331B64000100B7
:10385300E51D65000100E61D6D000100341B7100CC
:103863000800161B66000100031E43000100F41D3F
:1038730044000200F51D45000100F71D460002004B
:10388300F81D470008002B1B48000100FA1D4B00E0
:103893000100FB1D04000100071EA10001000A1E18
:1038A30037000100091E88000100081E3C000100CA
:1038B300291B3D000100EF1D49000200FC1D6700AC
:1038C3000100351B4D000200FE1D4E000100001ECD
:1038D3004F000200011E3E000100F31D51000100D4
:1038E300F01D52000100F11D53000100F21D5400B0
:1038F30001002A1B00000000000000013636010110
:103903000001020100010301000104010606050292
:103913000000070100340801000F090401010D0133
:1039230000FF0E08000017020000190100FF1A0132
:1039330000011B0100FE1C0100081D0200001F0105
:10394300000120010001210200002301000F2402D5
:1039530000002601000127010008280200FF2A01B8
:1039630000072B0102402C0100002D0100012E0154
:1039730000012F0100FF30010B1D310800003A0147
:1039830000083B01000F3C0100013D0100FF3E0424
:10399300000042040000460400004A0400004E04F4
:1039A300000052040000560400005A040000000006
:1039B30000002001798400000100200179840000C7
:1039C300020020017C840000030020017B840000AE
:1039D300040042016D800000050042017E8000006A
:1039E30006004201A080000007002001AB80000018
:1039F30000404201A0800000100042018F800000BF
:103A0300110020010107000012001003951D06009C
:103A130000001011000008000000203300000C001B
:103A23005500393300000C001C0042330000120023
:103A330055002001000014000E0042220000010383
:103A430071030103010301030103010322030203C1
:103A5300010310030003000300030003000300033A
:103A630000034203000324030603000300030403CB
:103A73001203250323032503230304030403000381
:103A8300000300034403000300032303000365034F
:103A93002100350381030003050300030003000332
:103AA30000032503230303007100300160001100AC
:103AB30070003102200350048000100061000000F8
:103AC30014006300730072006200430000001300DF
:103AD30006000000000004001200000000000000C7
:103AE300000004000400370037003C0244000000DB
:103AF30000000000000065000000350081000000A8
:103B030005000000830000000101710101010101B2
:103B13001101010131010101010180011001610164
:103B23003B00140063017301720162014301000150
:103B3300130106013D0135000401120100010001DA
:103B43000001000104010401330133013C0144017C
:103B530032013600000100016501000135008101D9
:103B630000010501820183010001030471040204C1
:103B7300600411047004020402040104020410042A
:103B830061040004140463047304720462044304B0
:103B930000041304060400040004040412040004D3
:103BA3000004000400045104640000040004000441
:103BB3004404000400040004000465040004350404
:103BC30081046400050400048304000403027102F9
:103BD300300160021102700201020202020280023D
:103BE300100261023A004100630273027202620230
:103BF3004302000213023800000200020402120210
:103C0300000200020002000204020402370037002F
:103C13003C02440200023900000200026502000275
:103C2300350281020002050282028302000236008D
:103C33000100060000000F0000000000000000006B
:103C43000000000003FFFF00000403FFFF0000FF6C
:103C5300FF0FF4010005C4040320000100000B0062
:103C63000000000000000003010F0000000000003E
:103C73000000000000000000000000000000000041
:103C8300000000000000000000000000D4232E24E8
:103C9300DA23DE22E0233424E0234024E623DE2259
:103CA300E0233424EC23DE22F223DE22F823DE2277
:103CB300FE23DE220424DE220A24DE2210244624EC
:103CC3001624DE22000000000000000000000000B7
:103CD3001C2458242224DE221C2458242224DE22DD
:103CE300102446242824DE22000046271300F2264F
:103CF3001F00F8261F80FE260100462702007A26B1
:103D0300030080260400862605008C2606009826DC
:103D13003000B6263100B0263200C2263300C82652
:103D23003500CE263400D4263600DA261100E626E6
:103D33001400EC261500AA26FFFF00000A0000006D
:103D43000200000004000000080000001000000052
:103D5300200000004000000080000000000100007F
:103D63000002000000040000000800000010000032
:103D7300002000000040000001442F066E2F086859
:103D83002F0B862F105C2C024A2F055C2F07502F18
:103D93000C2C2F0D382F64582AFF000007ECFDFD73
:103DA300FDECDCDCCCBCACAC9C9C8C7C7C6C6C5C9F
:103DB3005C5C4C4C3C3C2C2C1C1C00160F00000B78
:103DC300150B020002220F3300000E5A6967426589
:103DD30065416C6C69616E636530390103050709E0
:103DE3000B0D0F00020406080A0C0D150AF4D4C0CB
:103DF300A59582726361555049000119161816166C
:103E030018230300303017181921301B1D1F3030C1
:103E13003016181920231A1C1E3000034A49434E3A
:103E2300181A25050200393D3F373C3C362C442DFA
:103E33000C0E020B040B0A0708000F020402010117
:103E430001010902E803000000BE040A9F3D0000CF
:103E53000000EE3D0E00FA067F00E803FF1E1E0081
:103E6300050C08040400102809080903010C0503C4
:103E73000815120300FF0A0C1004C082C083E990E6
:103E83001986F002418274F4120DF38A088B09EB50
:103E93005480604D800EEEFAEFFB12233EEEFAEFF4
:103EA300FB121F7E901986E0F9121F908A0A8B0B72
:103EB300AE0AAF0BEE4F60208E828F83E0641A60F0
:103EC300D5EEFAEFFB1222D8E9F974FF6960CEEE62
:103ED300FAEFFB121F8480CCAA08E5096480FB80FB
:103EE300047A007B0002416A74F7120DF37AFF0231
:103EF30055AA74F6120DF3E9FEEAFF7A047B001269
:103F0300457DA808A909EA496034EF8A828B83A317
:103F1300A3A3F0EE8A828B83A3123F79E4F0A3F08C
:103F230090199512459D7009901995E8F0A3E980C1
:103F33003FE0FB8A828B83A3A3A3E06F7004790025
:103F43008031EAFCEBFD8A828B8312459D70E47419
:103F5300FF6F700C8C828D83123F80E4F0A380107E
:103F6300901995125ED1901995123F80EAF0A3EB58
:103F7300F07901025753A3F08A828B8322126DE8F2
:103F83008882898322C082C083EA126EEA3BF5836A
:103F9300E0FA901995800488828983125D73601C0E
:103FA30088828983A3A3A3E0FBEA6B600574FF6B9C
:103FB30070E588828983A3A3E0F9800279FF024137
:103FC3008274F4120DF3EAFEEBFF8A82F583125E2C
:103FD300D11222D8E9F50874FF6970030240757A9B
:103FE300197B00121F78EA4B70030240758A828B9B
:103FF300837434126952A3EA2402FCE43BFD740681
:1040030012134E8E828F8312723A8882F583126E58
:10401300FC8A828B83A3A3A3A3A3A3A3A312407AA3
:10402300A3A3A3A3A3A3EA240AFCE43BFD740C12F9
:10403300134E8E828F83126004C8126EEA38F583A2
:10404300E0C0E0EA2416F582E43BF583D0E0F0EE2D
:10405300240CF8E43FF98882F583126F00EA2417F1
:10406300F582E43BF58312407AE4F0A3F0A9081249
:104073001F84790102416AECF0A3EDF08882898301
:1040830022C082C083901993125ED102418274F4DC
:10409300120DF38A088B09ECFEEDFF7A081240E457
:1040A30070047910803812414E124176740C121745
:1040B3007F125ED188828983A3A3A3A312789490ED
:1040C300198B12459D90198B60111241718003EA7F
:1040D300FCEB12459870F88C828D831241480241A3
:1040E3006A7B001220148A0A8B0BA80AA90BEA49DF
:1040F3002274F4120DF389088A09ECFEEDFF7A0AA3
:104103001240E470047910803A12414E8A828B8304
:10411300A3A3A3E4F0A3124161E509124161A3EE55
:10412300F0A3EFF090198F12459D90198F60111233
:1041330041718003EAFCEB12459870F88C828D8301
:104143001241488022126DE8790022124152228ADC
:10415300828B83E4F0123F79A3A3E508F022125582
:104163009BA3A3221214057F040211428F83E0FC58
:10417300A3E022A3E5091255A0EEF0A3EFF022D0AD
:1041830083D0820213D274F2120DF3EAFEEBFF8C9A
:10419300088D091223568B0DA90DEA4960198A82ED
:1041A3008B83A3A3A3EEF0A3EF125597E508F0A327
:1041B300E509F0790080027901025F5374F4120D6E
:1041C300F374F71214E8E9FE8518828519837401E4
:1041D300F0EC7006EDC39406404D74036A4B6047E0
:1041E30074011214BA880A890B780A1213F27C122A
:1041F3007D007A007B00EE124235121405E9601C43
:10420300E4F50AF50B780A1213F274031214CA7454
:10421300021214C21223AA7402121405851882858D
:104223001983E06401700479018002790074090242
:104233004167F912235C74022274E8120DF374FAD5
:104243001214E889128A168B178C088D09123748C5
:104253008A148B15EA4B700579020243CBAA08AB8B
:1042630009A912122374E9F50FA2E6401C901993D1
:10427300125D736014E82419F582E439F583E06470
:10428300017006E50FD2E6F50F7C067D007900AAE2
:1042930018AB19121F66741F12177F1243D06009DF
:1042A300E054FCF0E044018003E054FC1272E2129B
:1042B3005D73602B741E12177FE0FE88828983A3CF
:1042C300121209EEFD740212177FE05403FCAA08D0
:1042D300AB09A9121222FC7402121405E9700579C4
:1042E300010243CB742212177F125D73601285188B
:1042F30082851983E04404F0740212177F126DE47F
:10430300742012177F1243D06005E044088003E055
:1043130054F7F0742112177F1243D06005E0441064
:104323008003E054EFF0742412177FE0C0E07404BC
:1043330012177FD0E0F0740512177FEEF078038533
:104343001882851983E054046002780574251217D6
:104353007F1249C4E82510FEE43511FF124662605E
:1043630063AC0AAD0BAA18AB1912234A74271217B0
:104373007F125EE31213EEAC10AD111261521214F0
:1043830005750C1E780C1213F6750C89750D1978CA
:104393000C1213F2780A1213F28E0C8F0D780C1292
:1043A30013F278081213F2A90FAC14AD15AA16ABC9
:1043B300171237547409121405E9FEAA0AAB0B123B
:1043C300201A80027E10EEF97406026DF21243D4B5
:1043D30022E08518828519832274EA120DF374FE94
:1043E3001214E8890B8A148B158C0E8D0F7E007FB7
:1043F30000750A00741812177F1249C48011124500
:104403008E1223B68B09EE2AFEEF3509FF050A1239
:104413006BFD502EE50A75F00612497B2403FEE47A
:104423003FFFA3A3E070E60EEE70010F888289833D
:10443300A3A3A3A312459D8882898360C1125CE470
:1044430080C2EEFAEFFB12457D8A0C8B0DEA4B70AE
:1044530003024571750A008030A818A919881289CA
:104463001378121213F278081213F28A828B8312D2
:10447300458E1223BC7404121405127234E5082805
:10448300F508E50939F509050A126BFD507CE50AC3
:1044930075F006A4F8A9F0E51028F582E511126B72
:1044A300E41245858A828B83A312550BF012557F44
:1044B300125506F0E5082403F50850020509888221
:1044C3008983E070C2EA240308E43BF98882F58318
:1044D300124585A38582088583098A828B83A3A3DA
:1044E300A3A31241718C82F583E582458370030295
:1044F300445CAC08AD09AA82AB8388828983E0F966
:1045030012238C8A088B0902448A780C1213F28EC8
:10451300088F0978081213F2742012177F1249BA10
:104523001213F6E4F508F50978081213F27422124F
:10453300177F1249BA1213F6742212177F1249BA5F
:104543001213F675080078081213F6750801780837
:104553001213F6AC0EAD0FAA14AB15A90B124E58DD
:10456300121405E9FEAA0CAB0D12201A80027E106C
:10457300EEF974021214050245AB1220148A088B5B
:104583000922E0850882850983F0221272D0AA0EDF
:10459300AB0FA90B22FD8C828D83125ED9EA4B22CD
:1045A300EEF98004AA12AB137F0E02114274EC12CF
:1045B3000DF3890A8A108B11ECFEEDFF74141217A8
:1045C3007F1247B67003024653A808A9097C0080EE
:1045D3000D12479950010B1247C95001090C850C64
:1045E30082850D83E0FAECC39A40E674016A700A8F
:1045F300A3E07006750E01750F0078081213F278A8
:104603000E1213F2741C12177F1247931213F6E45F
:10461300F50CF50D780C1213F2741E12177F124766
:10462300931213F6741E12177F1247931213F67523
:104633000B00780B1213F6750B04780B1213F6129A
:104643004E4E121405E9FEAA08AB0912201A800285
:104653007E1002477C740A1214057F0C021142EE8D
:10466300FAEFFB1220148A0A8B0BEA4B22F5831212
:10467300589B22F8E4350DF98882F5831249AAA3E1
:1046830022851082851183E0F8E508C3982274EC33
:10469300120DF3890A8A108B11ECFEEDFF741412CC
:1046A300177F124781F508750900740278081216FE
:1046B3004D85080E85090FAA0EAB0F12749F700368
:1046C30002477A7900803EE9F51275130074027887
:1046D3001212164DE50C2512FCE50D3513FD8C82E7
:1046E300F583A3124672124F84A3124672A3F0EC11
:1046F3002403FC50010DF5828D83E0124F7E124F8F
:104703005850010B09850C82850D83E0F8E9C398A5
:1047130040B5740168700AA3E07006750E01750F49
:104723000078081213F2780E1213F2741C12177F1A
:104733001247931213F6E4F50CF50D780C1213F2ED
:10474300741E12177F1247931213F6741E12177FEB
:104753001247931213F6750B00780B1213F6750BB1
:1047630007780B1213F6124E4E121405E9FEAA082F
:10477300AB0912201A80027E10EEF902465D124741
:104783008522E0F50CA3E0F50D850C82F583E0228C
:10479300E0F50B780B22EC75F003A4FAABF0E50C13
:1047A3002AFAE50D3BFB8A82F5831249D7F0EA2406
:1047B30002FA2212478575F003A4F50EE5F0F50F12
:1047C300AA0E12728D22F5828B83124B8E1249D060
:1047D300A3A3F0E82403F82274E8120DF374FE1285
:1047E30014E8124A2212177F1249C48009EE2402E8
:1047F300FEE43FFF05081246845037E50875F00DC7
:1048030012497B2404FEE43FFFE070E8A3E070DD7F
:10481300EE2405FEE43FFFE82404F50AE4391249D7
:104823009660D1850A82850B83E0F912239EEE29D7
:1048330080BE12466270030249768A0E8B0F75089A
:10484300008018E50C2409FAE4350DFB8A8212492D
:10485300A41249CCF08C0E8D0F0508124684400338
:10486300024913E50875F00D1249DEAA82AB8312E3
:10487300467FF0E50C24021246761249F3A3F0E5D5
:104883000E2404F50E5002050F850C82850D83E07E
:1048930070C7E50E2402FCE4350FFD850E82850FFB
:1048A30083A3A882A9838A828B83E07096E50C2474
:1048B30004F512E4350DF5138512821249A4F0E5CF
:1048C3000C2405F516E4350DF5178516821274A32D
:1048D300124A052407F8E4350DF988821249A41217
:1048E3004A1AF0E50E2405F50E5002050F851282D3
:1048F30085138312499D700302485CAC0EAD0FE52E
:104903000C240BF582E4350DF5831249B202485CA1
:10491300780A1213F28E0C8F0D780C1213F2742294
:1049230012177F1249BA1213F6E4F50CF50D780C41
:104933001213F2742412177F1249BA1213F6742455
:1049430012177F1249BA1213F6750800780812136A
:10495300F675080978081213F6AC14AD15740B122A
:10496300177F12498B121405E9FEAA0AAB0B12201A
:104973001A80027E10026DEEA4F8A9F0E51028F566
:1049830082E511124B29EE22125ED9A909122302E4
:10499300740B22F50B850A82F583E0F9122392E961
:1049A30022F5831249AA22E0850E82850F83221203
:1049B3004B938A0E8B0F22E0F5087808228E828FA4
:1049C30083E0F510A3E0F511221249D022123F7AB9
:1049D3001249D722A3E08882898322126DB285828D
:1049E3000C85830D1249AAF0850C82850D83A322C1
:1049F3001249F722A3124C30E0850E82850F83A360
:104A0300A322F0851682851783124A13F0E50C2240
:104A1300A3E08C828D8322A3A31249F7A3A322854B
:104A23001882851983EAF0A3EBF089098C148D159C
:104A33007E007F00750800741A2274EA120DF38950
:104A43000B8A108B118C0E8D0F7E007F00750A0070
:104A5300741612177F1253C68003124AF6850C820E
:104A6300850D83126C0340F2EEFAEF12749E607EA2
:104A7300A808A909750A008003124B32850C8285A8
:104A83000D83E0FAE50AC39A40EF78081213F28E19
:104A93000C8F0D780C1213F2741E12177F126C29EF
:104AA3001213F6E4F50CF50D780C1213F2742012C0
:104AB300177F126C291213F6742012177F126C29B8
:104AC3001213F6750A00780A1213F6750A0A780AA1
:104AD3001213F6AC0EAD0FAA10AB11A90B124E5860
:104AE300121405E9FEAA08AB0912201A80027E10EF
:104AF3000245A3E50A75F005A4F8A9F0E50C28F52D
:104B030082E50D124B29A3A3A312789CA3A3E0F97A
:104B13001223A48B09EA2403F8E43509F9EE28FEED
:104B2300EF39FF050A2239F583A3A882A98322E579
:104B33000A75F005A4FAABF0124B828582148583C3
:104B4300151249D8124F7988828983A3F0E514128C
:104B530075DF35158A12F5138A82F583124B8EA3FE
:104B6300F0E82403FCE439FD851482851583A3A3AF
:104B7300A3124B938A128B13A812A913050A22E5D9
:104B83000C2AF582E50D3BF583A3221249D8A32213
:104B9300125EDD851282851383E0F912238C227461
:104BA300F6120DF374FE1214E8E9FE740C12177F6B
:104BB300124C21C0E0740112177FD0E0F0A818A9AD
:104BC300198808890978081213F275080275090013
:104BD30078081213F2741612177F1249BA1213F6D9
:104BE300741512177F121209741612177F1249BA1D
:104BF3001213F6741612177F1249BA1213F67508B8
:104C03000078081213F675080B78081213F6EEF9FC
:104C1300124E5812140574021214050257531272DD
:104C2300FC8882F5831243D4124C30E022F0888250
:104C33008983A32274EA120DF389138A108B11EC72
:104C4300FEEDFF741612177F1275FDE50A2402F5B7
:104C53000CE4350BF50D850C82F583E00475120029
:104C6300F50E750F00FAAB0F12749F7003024D62BD
:104C7300850A82850B83124E42801EEAFC850A82D6
:104C8300850B83A3A3A3E02CFBA3E034008B821248
:104C930074A3F0A3A882A9830A850C82850D83E0FF
:104CA300FBEAC39B40D5850A82850B83A3E0F87496
:104CB3001812177FE0F9741912177FE0FA741A12A9
:104CC300177FE0FB741168703978081213F2780EBD
:104CD3001213F2EBF50A780A1213F6E4F50AF50B50
:104CE300780A1213F2EAF50A780A1213F6E9F50ABA
:104CF300780A1213F6750A00780A1213F6750A1267
:104D0300803C741368704F78081213F2780E1213F4
:104D1300F2EBF50A780A1213F6E4F50AF50B780AB2
:104D23001213F2EAF50A780A1213F6E9F50A780A79
:104D33001213F6750A00780A1213F6750A14780A24
:104D43001213F6EEFCEFFDAA10AB11A913124E5885
:104D5300121405E9F512AA08AB0912201A8003758B
:104D63001210A9120245AB74E8120DF389108A12CE
:104D73008B13ECFEEDFF741812177F124F6475F05E
:104D830003A4A9F02401F50EE43912749A70030206
:104D93004E3B850C82850D83124E42802EEA75F0C0
:104DA30003A4FCADF0E50C2CFCE50D3D124F4A12BB
:104DB30074A3124F7588828983124F8B88828983EB
:104DC300A3A3F0E82403F85001090A850A82850B9E
:104DD30083E0FBEAC39B40C578081213F2780E12F6
:104DE30013F2742012177F126C291213F6E4F50ADA
:104DF300F50B780A1213F2742212177F126C291220
:104E030013F6742212177F126C291213F6750A0017
:104E1300780A1213F6750A0D780A1213F6EEFCEFF0
:104E2300FDAA12AB13A910124E58121405E9FEAADB
:104E330008AB0912201A80027E10EEF9026DF512FA
:104E4300589BF0A3A882A9837A0022EEFCEFFDAA67
:104E530010AB11A90A122302740B2274E8120DF38A
:104E630089128A108B11ECFEEDFF741812177F1252
:104E73004F64F5087509007402780812164DE508A9
:104E83002401F50EE4350912749A7003024F458527
:104E93000C82850D83125892A3AA82AB837900807A
:104EA30034E9F5147515007402781412164DE50CE7
:104EB3002514FCE50D3515124F4A124670124F7535
:104EC3008A828B83124F8B124F7EA3A3A3A3124F0D
:104ED3005850010B09850A82850B83E0F8E9C398D2
:104EE30040BF78081213F2780E1213F274201217CF
:104EF3007F126C291213F6E4F50AF50B780A1213E4
:104F0300F2742212177F126C291213F674221217ED
:104F13007F126C291213F6750A00780A1213F675BC
:104F23000A16780A1213F6EEFCEFFDAA10AB11A9CC
:104F330012124E58121405E9FEAA08AB0912201AE0
:104F430080027E10024E3DFDEC2402F514E43DF593
:104F5300158514822212589BA3A3A3F0EA2404FA12
:104F6300221253CA850C82F583A385820A85830B9B
:104F7300E022124F79221272E8E0228A828B83A305
:104F8300A3F08C828D83A322A3F08C828D83A3A3B1
:104F9300A3A3E02274F1120DF374EB1214E8EAFEFA
:104FA300EBFFC200EA2420F8E43F8808F509888271
:104FB300F583C3E09403A3E0940050057901025301
:104FC300BE901993127896740212177F1278967412
:104FD3000E12177FE4F0A3F0740A12177FE4F0A314
:104FE300F0740C12177FE4F0A3F0EA2422F8E43FF4
:104FF300880AF50B8882F583126F00740412177FF9
:10500300AA82AB831223448A0C8B0DA80CA90D74BE
:105013000A12177F127896850882850983125ED15A
:10502300EAC398F8EB99F9850A82850B83E028F89F
:10503300A3E039F9740C12177F126DE47408121788
:105043007FE090198AF0EE2414F508E43FF5098512
:105053000882F583E0F91237488A828B83E582451B
:1050630083700C901993E4F0A3F079020253BE12FB
:10507300540C602BEE2404F50AE43FF50BA3121243
:1050830009740B12177FE0FD740612177FE05403B7
:10509300FC12541B1222FC7402121405E9700C90CA
:1050A3001993E4F0A3F079030253BE12541B1223A5
:1050B30074E9F50E850A82850B83125ED1EAFCEB57
:1050C300FD90198B800488828983125D73700302BB
:1050D30051BA88828983A3A31253C6C3EA950CEB02
:1050E300950D40E288828983A3A3A3A3C3E09CA375
:1050F300E09D40D2E8FCE9FD740412177FE05407F9
:10510300700D740912177FE0640B70030251BEE542
:105113000EA2E640030251BEEE2419F582E43FF5E8
:1051230083E060030251BE740212177F1253E470CE
:105133007A740212177F125D6E70707C008508828C
:10514300850983E0F912237A740112177F7401F041
:10515300740912177F1253D212177FE0F50C780CE3
:105163001213F6740712177F121209750C01780CCB
:105173001213F6740812177F1274AF1213F6740524
:105183001214BA880C890D780C1213F274091217D1
:105193007F12540312177F1253D812177F1253F240
:1051A3001214057C0112541B12237A901993E4F014
:1051B300A3F079050253BE7C007D00740412177FAF
:1051C300E0F8540360030252D9E8540460057E8476
:1051D300025318740912177FE0F8C39417400302AF
:1051E30052D5E8F50A750B007402780A12164D744D
:1051F3008F250AF582743C350B12587AE8497003FF
:105203000252D5850882850983E0C0E07410121725
:105213007FD0E0F0740C12177F125ED17411121755
:105223007F127896740A12177F125ED174131217C5
:105233007F12789674101214C288828983120FC267
:105243008B09A909740E12177F127896EA496048F0
:10525300740912177FE0F5087509007402780812C3
:10526300164D74912508F582743C3509F583E49352
:10527300F87401938882F583E58245836012740292
:105283001214C2120FC2740E12177F125D736008DC
:10529300740E12177F127845740912177FE0F860B5
:1052A30054740268604F740368604A74066860450A
:1052B3007408686040740C68603B741168603674ED
:1052C30013686031741568602C740B6860277E0066
:1052D30080437E82803FEC4D602B8C828D83A3A321
:1052E300A312540C601F74021214C2120FC2E9FEFF
:1052F30074FF6E700B901993E4F0A3F0F90253BEA0
:1053030074016E7010740412177FE0540460047EFD
:105313008380027E81740212177F1253E4707574C6
:105323000212177F125D6E706B740412177FE0FA1E
:1053330054107060740112177FEEF0740912177F16
:105343001253D212177F1249BA1213F674071217A7
:105353007F12120975080178081213F6EA13131362
:10536300541F64015401F50878081213F6740512EA
:1053730014BA8808890978081213F2740912177F7E
:1053830012540312177F1253D812177F1253F212BB
:105393001405D200901993E4F0A3F0EE70047900A1
:1053A300801974846EA200700A50047907800C7906
:1053B30006800850047909800279087415121405CF
:1053C300025CDE1253CA22E0F50CA3E0F50D2212B3
:1053D3007840740822E02406FAA3E03400FB740941
:1053E30022126004C82415F582E438F583E022A371
:1053F300E0C8126EEE38F583E0F912232674072213
:105403001271E01272CC740922A3A3A31260048860
:1054130082F583E582458322850A82850B83125EAA
:10542300D9850882850983E0F92274F4120DF38A81
:10543300088B09ECFEEDFF7C067D007900121F66E8
:10544300850882850983E054FCF8A3E0F98E828FF6
:1054530083E05403FAE84A850882850983F0A3E9C7
:1054630012788CA2E25004D2F08002C2F085088246
:10547300850983E054FBF0A2F0E433F50A750B00D1
:105483007402780A12164DE0450A12788CA2E3855D
:105493000882850983E050044408800254F7127897
:1054A3008CA2E45004D2F08002C2F0850882850900
:1054B30083E054EFF0A2F0E433F50A7404780A129F
:1054C300164DE0450A126158850882850983E05428
:1054D3000460108E828F83E0FAA3E0F9EA1266A9D2
:1054E30050010F8E828F83125506A312551485081F
:1054F30082850983A3A3A3A3A3F0EE1275DF3FFB69
:1055030002416A12550BA322E0850882850983A311
:1055130022A3126952E02274F7120DF38A828B835D
:10552300E054038C828D83125592540412558B548C
:105533000812558B5410F88C828D83E048F0A3AC8D
:1055430082AD838A828B83E05404601612557F12E6
:105553004A14124C2B8C828D83A3F0EC2402FC5052
:10556300010D8A828B83A3A3A3124A1312559712A8
:105573004A14A3F0EC1275DF3DFB802EEA2402F8F7
:10558300E43BF98882F58322F88C828D83E048120C
:105593003F7AE02212559B221255A0A322F08A8261
:1055A3008B83A3A3A3A3221222D27F01021142C0A1
:1055B30082C08390198D80048A828B8312459D60FB
:1055C3000C8A828B83A3A3E06970ED80047A007B4D
:1055D30000024182C082C08390198F80048A828B2B
:1055E3008312459D60138A828B83A3A3E0F8E96845
:1055F300600B74FF6870E680047A007B00024182CE
:1056030074F0120DF38A088B09ECFEEDFF1223569A
:105613008A0C8B0DEA4B60627C0080010C850C8246
:10562300850D83A3A3A3A3A3A3A3125FEA504BEC0B
:10563300F50E750F007403780E12164D850C8285D6
:105643000D83A3A3A3A31258848882F583E493FA5A
:10565300740193FBE5086A7003E5096B70BEA3A3AD
:105663001256817002EF6B70B3741012177F1256CB
:105673008B740812130A7901800279008015E49370
:10568300FA740193FBEE6A221272D0898388822214
:105693001214057F0802114274F6120DF31256C755
:1056A3006005125ECE80047A007B0002575374F6C5
:1056B300120DF31256C76005125ECC80047A007B8C
:1056C300000257531223568A828B83E58245832235
:1056D30074F7120DF3E9FFEAFCEBFD9019918004D6
:1056E30088828983125D73604688828983A3A3E0DD
:1056F3006F70ED7E0080010E88828983A3A3A3E0EF
:10570300FAEEC39A50DAEE75F003A4FA85F008AB0B
:105713000888828983A3A3A3A3E02AFAA3E03BFB1F
:105723008A82F583E06C7003A3E06D70CA80047A0B
:10573300007B000255AD74F6120DF312236E8A82BC
:105743008B83E58245836006A3A3E0F98002790099
:105753007F0202114274F6120DF3ECFF12236E8BDB
:1057630009A909EA496015EA2402F582E439F583B7
:10577300EF6005E0D2E68003E0C2E6F080D274F089
:10578300120DF3EAFEEBFF8C098D0A1223508A0CEB
:105793008B0DEA4B700302586F750B0074101217D0
:1057A3007F126BF8FAE9FB80128C828D83A3A3A38B
:1057B300E493A2E35003025855050B850C82850D33
:1057C30083A3A3A3E0F8E50BC398400302586FE556
:1057D3000BF50E750F007402780E12164D850C82B0
:1057E300850D83125884125874EE687002EF697045
:1057F300C88A828B83E0F88C828D83A3A3E493C34E
:105803009840B67411650970197401650A609AE5C8
:105813000A70A68C828D83A3A3A3E493A2E24032F1
:105823008097741365097044E50A700D8C828D832B
:10583300A3A3A3E493A2E080E57401650A600302D5
:1058430057BC8C828D83A3A3A3E493A2E1400302FC
:1058530057BC741212177F12596B740412130A88FF
:10586300828983A3A3125892790180027900025698
:1058730096E8FCE9FD8882F583E493F8740193F9D3
:1058830022A3A3A3A3E0250EF8A3E0350FF9221268
:10589300589BF0228E828F83E08A828B832274F05E
:1058A300120DF38A088B098C0B1223568A0E8B0F69
:1058B300EA4B70030259587A007B00741012177F69
:1058C300125FF780050AEA70010B850E82850F834C
:1058D300A3A3A3A3A3A3A3E0F8C3EA98EB94005064
:1058E300748A0C8B0D7403780C12164D850E828509
:1058F3000F83A3A3A3A312595D125874E50868701C
:1059030003E5096970BFA3A3E493F50C740193F550
:105913000D8E828F8312723AC3E50C98E50D994080
:10592300A48C828D83A3A3A3A3A3E493A2E7E4336C
:10593300650B7091741212177F12596B740812134E
:105943000A88828983A3A312723A8E828F83126D8F
:10595300E4790180027900025696A3A3A3A3E0256C
:105963000CF8A3E0350DF9221272FC8C828D83E8CA
:10597300FCE9FD2274F1120DF3EAFEEBFFECFAED04
:10598300FBEE4F7003025AE9EC2402F50CE43BF5FD
:105993000D8C828D83A3AC82AD838E088F09750A2B
:1059A30000E91212BA044142B65A4344C85AE0E22B
:1059B300815AE8E92D5A21081F5A092D5A0A435AD8
:1059C3000B815A101F5A181F5A192D5A1A435A1B62
:1059D300815A201F5A212D5A22435A23815A249235
:1059E3005A259B5A26A45A27AD5A281F5A292D5A9D
:1059F3002A435A2B815A2C925A2D9B5A2EA45A2F42
:105A0300AD5A301F5A312D5A382D5A39815A3AAD71
:105A13005AEA815AF0AD5AF1DA5AE95A8E828F83E3
:105A2300125892ECFAEDFB025AE98E828F831246EA
:105A3300721255158C828D83F00A0AAB0D025AE956
:105A43008E828F8378081217108A828B83E508125F
:105A530069577808121710E5098C828D83126957EC
:105A6300780812171074107808121489850C82852F
:105A73000D83E508F0EA2403FA506B0B80688E82ED
:105A83008F83121205121FE47404121405805778D1
:105A9300081213EE7C05804678081213EE7C06800C
:105AA3003D78081213EE7C07803478081213EE7CDD
:105AB30008802B78081213EE8E828F83E02401FC7A
:105AC300E43400800F78081213EE8E828F83125C09
:105AD30073FCE439FD800978081213EE7C107D0015
:105AE300126152121405025CDEC082C083E91212F5
:105AF300BA03202F045B383A045BE0E2045B00083E
:105B03005B79018002790002418274F2120DF37411
