:020000040000FA
:06000000020B5702024A48
:03002B0002093790
:030033000206BF03
:03004300020805AB
:0300530002017F28
:03006B00020699F1
:100083000201DE010020FD00020000A30F000000BA
:1000930000000045100000031000008B0F0000005B
:1000A300000000000000000000000000000000004D
:1000B300000000000006FFFF060008BA1800000059
:1000C3000160EA00005357353A2048656C702020E0
:1000D30020202020200047145314000059145F14DB
:1000E30000000000000000000000010000000020EC
:1000F300202020202020202020202020202020011C
:10010300080401000100026A82026E8201010104F7
:10011300000619000000E8030000FFFFD219E803FE
:10012300000064006400B801A0BB0D00A0BB0D007B
:10013300020200F8FF0705021E0401051E02051E48
:10014300020A0A010108080103102702803E010286
:10015300FEFFE8030A050001FFFF010A1401E001A5
:100163000105030101FF0F10FEFFD82A0000000064
:10017300AC2900000000FF000000FF00C0E074F1A4
:10018300120461A2AFE433F509D2AF85A708AFA18A
:10019300EF5508FE74105E6006120D1575A1EF741D
:1001A300085E6008120D1B75A1F78024EFA2E09290
:1001B300F0E508A2E082F05017906198E0F890050E
:1001C30083E0C398A2D265D0335002E8F075A1FE54
:1001D300E509A2E092AF7F020204C0C0E074F2120C
:1001E3000461A2AFE433FED2AF9061A4E0F8759B43
:1001F30000E59158540860087591F7120D63802348
:10020300E59158541060087591EF120D698014E55B
:1002130091A2E092F0E8A2E082F05007E0C2E0F0A1
:10022300120EBF9061A3E0F8E5E9585404600E1282
:100233000E9575E9FB906193E0A2E640F2EEA2E031
:1002430092AF7F010204C0C0E074F2120461A2AF56
:10025300E433FED2AF9061A5E0F8E5BF58540460E3
:100263000675BFFB120ED780D4C3E498F8E499F95E
:100273001202AD8026C3E49AFAE49BFBE920E7E986
:100283001202ADE498F8E499F922C3E498F8E499EA
:10029300F91202ADE498F8E499F9C3E49AFAE49BFD
:1002A300FB22EB20E7CFE920E7E0B90010BB000811
:1002B300E88AF084F8AAF022E4FBC8FA22EB702261
:1002C3007B10C833C8C933C9335007C39AC3DBF2A1
:1002D30080069A50012ADBEAC833F4C8C933F4C94B
:1002E300FA2275F008E4C833C8C933C933C99AC9B7
:1002F3009B5004C92AC93BD5F0ECFBC833F4C8E4CE
:10030300C9FA22080808EAC0E0EBC0E086F0E7A4D7
:10031300FA180986F0E7A42AFA180986F0E7A42A4E
:10032300FA180986F0E7A42AFA1986F0E7A4FBE590
:10033300F02AFA190886F0E7A42BFBE5F03AFA193C
:100343000886F0E7A42BFBE5F03AFA18180986F0C3
:10035300E7A4C5F02BFBE43AFA1908E7C5F0C6A4F5
:1003630026F6E5F03BFBE43AFA1886F0E7A4F6E557
:10037300F00826F6E43B08F6E43A08F6D0E0FBD0B2
:10038300E0FA22E4CFC0E0E4CEC0E0E4CDC0E0E494
:10039300CCC0E075F020E626F608E633F608E6332F
:1003A300F608E633F6181818EC33FCED33FDEE339C
:1003B300FEEF33FFC3EC9709ED9709EE9709EF972B
:1003C300191919400FFFEC97FC09ED97FD09EE97FA
:1003D300FE191906D5F0BFECF709EDF709EEF70999
:1003E300EFF7191919D0E0FCD0E0FDD0E0FED0E022
:1003F300FF222518C582C0E0E51934FFC583C0E09C
:10040300E518C3958224F810AF08858319858218EF
:100413008008858319858218D2AFCEF0A3E520F03A
:10042300A37808E608F0A3DEFAEFF0A3E58124FA47
:10043300F8E608F0A3E608F0A3E608F0A30808E648
:1004430008F0A3E608F0A315811581D0E0FED0E003
:10045300F8158115811581E8C0E0EEC0E022C0D017
:100463002518C582C0E0E51934FFC583C0E0E5184F
:10047300C3958224F310AF088583198582188008F9
:10048300858319858218D2AFC8F0A3E9F0A3EAF0F7
:10049300A3EBF0A37908E709F0A3D8FAECF0A3EDF6
:1004A300F0A3EEF0A3EFF0A3D0E0F0A3D0E0F0A32D
:1004B300D0E0F0A3E520F0A3E5F0F0A322851983B3
:1004C300851882E0C0E0A3E0F9A3E0FAA3E0FBA370
:1004D3007808E0F608A3DFFAE0FCA3E0FDA3E0FE62
:1004E300A3E0FFA3E0C0E0A3E0C0E0A3E0F5D0A356
:1004F300E0F520A3E0A3F5F010AF0885831985820A
:10050300188008858319858218D2AFD082D083D012
:10051300E0F8D0E032120BE9B90003020557E4908A
:100523000301789D791A8002F0A3D8FCD9FA7A9D49
:100533007B1C90008678FA79018015E493A3AD8241
:10054300AE838A828B83F0A3AA82AB838D828E8350
:10055300D8E9D9E77582E87583EA74051208C87586
:1005630082AF75832774001208C8E4731E75F010F8
:100573008E1A8F1B85821F85831E8518828519839A
:10058300E0CEA3E0CF851F82851E83EBC9EAC8EDC9
:10059300CBECCAC3E833C8E933C9EA33CAEB33CB7C
:1005A300C3EA9EF51DEB9FF51CB35004AB1CAA1DBB
:1005B300EC33CCED33CDD5F0DAAE1AAF1B22D083BA
:1005C300D082ECC0E0EDC0E0E493A3FCE493A3FD90
:1005D300ED4C600D1206DDEC24FFFCED34FFFD80D5
:1005E300EFE493A3FCE493A3FDED4C600D1207B07D
:1005F300EC24FFFCED34FFFD80EFD0E0FDD0E0FC08
:10060300E493A3C0E0E493C0E022D083D082E9C0A6
:10061300E0E493A3C386F0C5F095F0F908E493A34F
:1006230086F0C5F095F0700BE493A3C3994005E9F8
:10063300048002A3E475F002A42582F582E5F03577
:1006430083F583D0E0F9E493A3C0E0E493C0E02210
:10065300851983851882E0A3FEE0A3F5207808E0DE
:10066300A3F608DFFAE0A3FFE0A3C0E0E0A3C0E045
:10067300E0A3C0E0E0A3C0E0E0A3C0E010AF0885C2
:1006830082188583198008858218858319D2AFD093
:1006930083D0820208CEC0E074F2120461A2AFE4F8
:1006A30033FED2AFE589A2E150031226DD7589003E
:1006B300C2C5EEA2E092AF7F010204C0C0E074F2B3
:1006C300120461A2AFE433FED2AFE58BA2E0500384
:1006D3001226DD758B00C2E880D8C0E0C3E4939690
:1006E300087401939618400FE49366700808740128
:1006F30093661870007019A3A3C3E493960874015A
:10070300939618A3A3400DD0E0D0E0D0E00205FDFE
:10071300A3A3A3A3A3A3D0E022D083D082C5F0E4F4
:1007230093A3C5F0C395F0F5F0E493A3C395F0400C
:1007330005E5F0048001E475F002A42582F582E565
:10074300F03583F583E493A3C0E0E493C0E022741F
:1007530004800474028000CCC0E0EDC0E0E518C35F
:100763009CCCAD1950011D10AF068C188D19800655
:100773008C188D19D2AF12084AD0E0FDD0E0FC22CC
:1007830074028000CCC0E0EDC0E0E518C39CCCADA2
:100793001950011D10AF068C188D1980068C188D09
:1007A30019D2AF120828D0E0FDD0E0FC22C0E0C08F
:1007B300F088F0E49366700808740193661870007B
:1007C300A8F0A3A3700BD0F0D0E0D0E0D0E00205F6
:1007D300FDA3A3D0F0D0E022D083D082CCC0E0E44C
:1007E30093A3600612088A1470FAE493A3600612B6
:1007F30009CA1470FAD0E0FCE493A3C0E0E493C008
:10080300E022C0E074F2120461A2AFE433FED2AF7F
:10081300C2C0E5D1A2E45003120C85EEA2E092AF70
:100823007F010204C0CAC0E0E493A3C582CCC582A1
:10083300C583CDC583F0A3C582CCC582C583CDC591
:1008430083DAE5D0E0CA22CAC0E0E0A3C582CCC502
:1008530082C583CDC583F0A3C582CCC582C583CDB4
:10086300C583DAE6D0E0CA22C008C3E096F50808DB
:10087300A3E096420808A3E096420808A3E0964541
:10088300087001D3D00822C0E0E493A3D39C501096
:10089300E493A3C39C400AD0E0D0E0D0E00207F881
:1008A300A3A3A3D0E0227009080808226016181831
:1008B30018C6C333C608C633C608C633C608C6330C
:1008C300C6D5E0EA22C09FF59FE473D09F22D08370
:1008D300D082C09FE493C0E0740193C0E07402939C
:1008E300F59F227404800A740380067402800274E4
:1008F30001C0E0F404120901D0E0120B9422251880
:10090300F58210AF08F518400C15198008F518404A
:10091300021519D2AF8519832200C0D0251810AF54
:1009230008F518500C05198008F51850020519D25E
:10093300AFD0D022C0E0C0D0E8C0E0A8A8D2AFC2F8
:10094300C7E8A2E792AFD0E0F8D0D0D0E032BB0145
:1009530002E722C082C08389828A83BB0003E080CE
:1009630002E493D083D082226016080808C6C3131A
:10097300C618C613C618C613C618C613C6D5E0EAEA
:1009830022C3E0C696F608A3E0C696F608A3E0C61F
:1009930096F608A3E0C696F6222518F8E43519F969
:1009A300222518FAE43519FB222518FCE43519FD34
:1009B30022251810AF08F518400C15198008F518F2
:1009C30040021519D2AF22C0E0E493A36C7009D0A2
:1009D300E0D0E0D0E00207F8A3A3D0E022E0667005
:1009E3001008A3E066700A08A3E066700408A3E099
:1009F3006622E76670100809E766700A0809E76669
:100A030070040809E76622C3E09608A3E09608A3EA
:100A1300E09608A3E096A2D265D03322C3E096F015
:100A230008A3E096F008A3E096F008A3E096F0226E
:100A3300C3E697F60809E697F60809E697F6080964
:100A4300E697F622C3E4939608740193960874021A
:100A53009396087403939622E627F60809E637F679
:100A63000809E637F60809E637F622E026F608A372
:100A7300E036F608A3E036F608A3E036F622700463
:100A830022600D18C6C333C608C633C6D5E0F418B2
:100A930022E493F608740193F608740293F608743B
:100AA3000393F622E657F60809E657F60809E657D0
:100AB300F60809E657F622E056F608A3E056F608CC
:100AC300A3E056F608A3E056F622E056F008A3E0AA
:100AD30056F008A3E056F008A3E056F022E026F013
:100AE30008A3E036F008A3E036F008A3E036F022CE
:100AF300E647F60809E647F60809E647F60809E671
:100B030047F622E4C396F608E496F608E496F60858
:100B1300E496F622600D08C6A2E713C618C613C6EC
:100B2300D5E0F322C6F4C608C6F4C608C6F4C60860
:100B3300C6F4C622C3E7960809E7960809E79608AC
:100B430009E79622C3E09608A3E09608A3E0960877
:100B5300A3E0962275D00075813F751801751903BE
:100B630000020518E6F008A3E6F008A3E6F008A3E0
:100B7300E6F022600C08C6C313C618C613C6D5E038
:100B8300F422E0F608A3E0F608A3E0F608A3E0F6F3
:100B930022CAC0E0E6F0A308DAFAD0E0FA22E8F0CD
:100BA300A3E9F0A3EAF0A3EBF022E0F8A3E0F9A3B2
:100BB300E0FAA3E0FB22ECF0A3EDF0A3EEF0A3EF49
:100BC300F022E0FCA3E0FDA3E0FEA3E0FF22EAF0B5
:100BD300A3EBF0A3ECF0A3EDF022E0FAA3E0FBA378
:100BE300E0FCA3E0FD22E5C754F84401F5C7790111
:100BF300222518F582E43519F58322C2AF75D69FF5
:100C0300020000221208D182D4051208D1F6D405BD
:100C13001208D110D5051208D127D5051208D135F0
:100C2300D5051208D14DD5051208D162D505120894
:100C3300D187D5051208D1D7D5051208D121DE05F4
:100C43001208D12FDE051208D1A8DE051208D17CC7
:100C5300DF051208D14EE1051208D15C880612089F
:100C6300D1BAB4051208D127B5051208D1DFB505ED
:100C73001208D155B6051208D16EB7051208D1F97D
:100C8300B8051208D162B9051208D1B1B905120825
:100C9300D1BAB9051208D1C9B9051208D1DFB9050E
:100CA3001208D1F2B9051208D1FBB9051208D10E09
:100CB300BA051208D13ABA051208D1ABBC0512081D
:100CC300D1EBBC051208D12BBD051208D13FBD05E0
:100CD3001208D158BD051208D149BE051208D1EE3C
:100CE300BE051208D102BF051208D189FB051208FF
:100CF300D1ADFB051208D1C6FB051208D1F8FB05DF
:100D03001208D128FC051208D155FC051208D1B7E9
:100D1300FC051208D1C6FC051208D1D0FC05120847
:100D2300D1DDFC051208D152E8051208D172E8059D
:100D33001208D1B1E8051208D1CCE8051208D1EBAD
:100D4300E8051208D151E9051208D15AE90512083C
:100D5300D1B7E9051208D1DBE9051208D19CEA05F0
:100D63001208D1A9EA051208D1BAEA051208D16F0F
:100D7300FF051208D187FF051208D1B3FF0512083A
:100D8300D118C9051208D16CCA051208D17ACA054F
:100D93001208D18DCA051208D1A2CA051208D1B70B
:100DA300CA051208D1CACA051208D13ECB051208DA
:100DB300D1A3CB051208D145CC051208D109CD0525
:100DC3001208D119CD051208D128CD051208D13545
:100DD30086061208D15986061208D18186061208A2
:100DE300D1A986061208D181F4051208D1A8F40509
:100DF3001208D1C6F4051208D139F5051208D141FC
:100E0300E5051208D15AE5051208D166E505120871
:100E1300D17AE5051208D198E5051208D1A2E505B6
:100E23001208D1ACE5051208D1BFE5051208D14976
:100E3300E6051208D1BEE6051208D1F2E60512084E
:100E4300D140E7051208D18DE7051208D1A8E705BF
:100E53001208D1B2E7051208D1D8E7051208D13D2F
:100E6300E8051208D17E85061208D1A0850612086E
:100E7300D1E4FF011208D132AB051208D15CAB05F6
:100E83001208D179AB051208D18CAB051208D1A297
:100E9300AB051208D100AC051208D138AC05120815
:100EA300D130B0051208D175B1051208D1A8B1052A
:100EB3001208D10BB2051208D18EB3051208D1B6B0
:100EC300B3051208D1CBB3051208D1DBB305120861
:100ED300D11FB4051208D17AB4051208D18AB4051A
:100EE3001208D13781061208D15181061208D1792F
:100EF30081061208D19281061208D1B68106120822
:100F0300D1D481061208D1EB81061208D1198206C9
:100F13001208D13482061208D11888061208D1B3F8
:100F2300E1051208D1C3E1051208D1CAE20512088E
:100F3300D1FEE2051208D120E3051208D143E305EF
:100F43001208D161E3051208D19BE3051208D10011
:100F5300E4051208D142E4051208D181E405120820
:100F6300D1B2E4051208D1E9E4051208D1008006E4
:100F73001208D11E80061208D18380061208D122DE
:100F830081061208D103FF031208D16782061208F3
:100F9300D1AD82061208D16FF8051208D1AEF9055A
:100FA3001208D18F8C051208D16190051208D15017
:100FB30092051208D17E93051208D15B940512089D
:100FC300D1DD95051208D1AD96051208D10197051B
:100FD3001208D1A4F6051208D1C5F6051208D1F7F7
:100FE300F7051208D121F8051208D17AED05120888
:100FF300D1EFED051208D1FAED051208D11BEE056C
:101003001208D18DF0011208D117F5011208D18011
:10101300F6011208D137F8011208D1BFF8011208FE
:10102300D156F9011208D115FA011208D109FB01B1
:101033001208D121FC011208D14FFD011208D1720F
:10104300E4041208D175E4041208D15AEB0412081F
:10105300D194EC041208D1E5ED041208D19BEE04FF
:101063001208D186EF041208D169F0041208D16581
:10107300F1041208D117F2041208D147F20412083E
:10108300D103F4041208D102F0051208D122F005AD
:101093001208D135F1051208D11DF2051208D1E766
:1010A300FC051208D11DFD051208D137FD051208F4
:1010B300D179FD051208D189FD051208D123FE055A
:1010C3001208D12DFE051208D19FA1051208D1A93E
:1010D300A1051208D1E3A1051208D14CA2051208FB
:1010E300D169A2051208D182A2051208D124A30551
:1010F3001208D1A3A5051208D1ACA5051208D1F198
:10110300A5051208D11AA6051208D127A6051208AB
:10111300D198A6051208D123A7051208D171A705F6
:101123001208D1AFA7051208D114A8051208D137A8
:10113300A8051208D1AEA8051208D105A905120801
:10114300D140A9051208D175A9051208D187A905AF
:101153001208D199A9051208D1B8A9051208D1C15D
:10116300A9051208D17CAA051208D1C8AA0512083C
:10117300D106AB051208D10DC4051208D14DC50522
:101183001208D170C5051208D181C5051208D18096
:10119300C7051208D1A0C7051208D14BF2051208E2
:1011A300D181F2051208D1C9F2051208D122F40542
:1011B3001208D15A68001208D17E69001208D1B80A
:1011C30069001208D1626B001208D18C6B001208FF
:1011D300D1016E001208D1416E001208D1D76F0001
:1011E3001208D17470001208D1C670001208D169B8
:1011F30071001208D1A171001208D1E37100120825
:10120300D15273001208D1A074001208D1D1760014
:101213001208D1FF76001208D12677001208D12FC9
:1012230077001208D17F77001208D11178001208D5
:10123300D1407B001208D1C37B001208D1DAFF0230
:101243001208D1F0FF021208D1C387061208D11D7C
:10125300DA051208D133DA051208D1D7DA051208F4
:10126300D116DB051208D133DB051208D164DB0587
:101273001208D1B1DB051208D1E4DB051208D11F36
:10128300DC051208D114DE051208D17E840612088B
:10129300D1DD84061208D11B85061208D15C8506B0
:1012A3001208D10080041208D10C80041208D16EF8
:1012B30080041208D17880041208D107810412082F
:1012C300D14381041208D1F881041208D1058204A4
:1012D3001208D16882041208D1B582041208D161C0
:1012E30083041208D1DA83041208D18B850412080F
:1012F300D1D287041208D11889041208D16C8A0448
:101303001208D1FD8A041208D13C8C041208D13D85
:101313008D041208D1898E041208D1539304120844
:10132300D13C94041208D1CF94041208D1F494044C
:101333001208D11995041208D1B195041208D1C726
:1013430095041208D12D96041208D1499604120867
:10135300D17596041208D18697041208D1589804BF
:101363001208D1D399041208D1F499041208D17741
:101373009A041208D11D9B041208D1659B0412081C
:10138300D1DB9B041208D1379C041208D1C89C04FA
:101393001208D1219E041208D1649F041208D1EFD0
:1013A3009F041208D152A0041208D19CA20412086F
:1013B300D134A4041208D144A4041208D178A4049B
:1013C3001208D1EDA4041208D127A5041208D1955F
:1013D300A5041208D12AA6041208D12AA8041208C7
:1013E300D1EEA8041208D1F0A9041208D1A5AB04C8
:1013F3001208D13DFE011208D1D9FE011208D1FA1B
:10140300FE011208D130FE051208D174FE05120840
:10141300D1BFFE051208D1FDF3031208D12FF40347
:101423001208D161F4031208D1F1F4031208D1DDDB
:10143300F6031208D18FF8031208D147FA031208F2
:10144300D1ACFA031208D1E8FA031208D123FB0343
:101453001208D13CFB031208D154FB031208D157E5
:10146300FB031208D1A0FB031208D1F2FC031208FC
:10147300D117FD031208D139FE031208D170D60328
:101483001208D1CBD6031208D155D7031208D1C6FF
:10149300D8031208D19ED9031208D187DA031208A0
:1014A300D19EDA031208D1F0DA031208D154DB0318
:1014B3001208D195DB031208D1A8DB031208D1FE71
:1014C300DB031208D157DC031208D16FDC031208C7
:1014D300D11FDF031208D1B4DF031208D1DEDF030B
:1014E3001208D127E0031208D117E2031208D181B1
:1014F300E2031208D155E3031208D198E30312085B
:10150300D1B2E3031208D1F9E3031208D119E403BA
:101513001208D1C3E4031208D19AE5031208D1A536
:10152300E5031208D115E6031208D16FE60312088A
:10153300D1C0E6031208D1CBE7031208D16FEA0347
:101543001208D1A5EA031208D117EB031208D13C04
:10155300EB031208D1B6EB031208D17FEC03120898
:10156300D1BCEC031208D11EED031208D1DFED0349
:101573001208D1E2ED031208D1ECED031208D1F603
:10158300ED031208D109EE031208D185EE03120808
:10159300D1AEEE031208D1C1EE031208D1EDEE0372
:1015A3001208D114EF031208D138EF031208D173D4
:1015B300EF031208D1E5EF031208D10DF00312086F
:1015C300D14EF0031208D168F0031208D18DF00355
:1015D3001208D1BBF0031208D1DBF0031208D118B3
:1015E300F1031208D14FF1031208D159F203120883
:1015F300D18CF3031208D1A2F3031208D1B9F30378
:101603001208D1CBF3031208D16B87061208D183DA
:1016130087061208D116BF051208D154BF05120858
:10162300D1E0BF051208D1EBC0051208D107C305ED
:101633001208D184C3051208D1DDF7021208D12C98
:10164300F8021208D1CCF9021208D187FB02120862
:10165300D1C9FB021208D1E8FC021208D1F2FD0243
:101663001208D114FE021208D15EFE021208D1DF65
:10167300FE021208D12ED8021208D151D802120844
:10168300D151D9021208D19AD9021208D1F2D90242
:101693001208D14EDA021208D19ADA021208D110D6
:1016A300DB021208D19CDB021208D111DC02120802
:1016B300D154DC021208D157E0021208D1A6E2028B
:1016C3001208D1E0E2021208D169E3021208D19AAA
:1016D300E6021208D10FE7021208D19FE8021208AE
:1016E300D1A7E9021208D1BDEA021208D133EB02F5
:1016F3001208D1FAEB021208D163EC021208D16688
:10170300EC021208D13AED021208D176EE02120869
:10171300D136F0021208D131F2021208D142F3029B
:101723001208D1DEF3021208D123F5021208D129DF
:10173300F6021208D187F6021208D124F702120822
:10174300D1C6AD041208D166AE041208D1D0AE04DE
:101753001208D1E9AE041208D178AF041208D1BC43
:10176300AF041208D1D4B0041208D110B104120886
:10177300D18DB1041208D1D8B1041208D137B20403
:101783001208D1E3B2041208D18CB5041208D1BAFD
:10179300B6041208D13EB7041208D11BB9041208CB
:1017A300D1C0B9041208D163BA041208D1C2BA0471
:1017B3001208D137BB041208D190BC041208D15AC5
:1017C300BD041208D190BD041208D1ADBD041208A6
:1017D300D153BE041208D19FBE041208D12BBF04FB
:1017E3001208D1AAC0041208D167C2041208D1E8B2
:1017F300C3041208D146C5041208D156C604120800
:10180300D1FCC6041208D166C7041208D185C804E6
:101813001208D1C4C9041208D13CCA041208D184E5
:10182300CA041208D1C8CA041208D111CB04120881
:10183300D15BCB041208D190CB041208D10ECC0497
:101843001208D168CC041208D1C1CD041208D140CA
:10185300CE041208D157CF041208D179CF0412084D
:10186300D185D0041208D196D0041208D1AED00489
:101873001208D1CED1041208D1EBD1041208D1BE83
:10188300D2041208D1E2D2041208D1F9D204120808
:10189300D11DD3041208D13FD3041208D131D4048B
:1018A3001208D189D4041208D1FFD5041208D161DA
:1018B300D6041208D178D6041208D1A6D604120889
:1018C300D1D8D7041208D155D8041208D1C2D804EC
:1018D3001208D102D9041208D164D9041208D11410
:1018E300DA041208D1E6DB041208D1D1DC041208B1
:1018F300D1CBDD041208D1D1DE041208D1EDDF040F
:101903001208D1FBDF041208D1D4E0041208D1FF7E
:1019130083061208D1B8E1041208D1CDE1041208FC
:10192300D1DEE2041208D181E3041208D1D9E30421
:101933001208D1107C001208D1B87D001208D175AD
:101943007E001208D1CA7E001208D1477F00120818
:10195300D10CD6051208D12AD6051208D16ED605A8
:101963001208D194D6051208D1BAD6051208D1D2DD
:10197300D6051208D1EAD6051208D19DD30512085F
:10198300D165D7051208D1A7D7051208D1BCD70551
:101993001208D1DED8051208D1E7D8051208D1F014
:1019A300D8051208D1F9D8051208D103D9051208B0
:1019B300D124D9051208D161CD051208D141D10531
:1019C3001208D14FD1051208D154D1051208D107FD
:1019D300EC051208D1CC7F001208D19488061208B6
:1019E300D1CB88061208D1F488061208D1008002F0
:1019F3001208D15780021208D1C380021208D14FB6
:101A030081021208D10582021208D14D8202120806
:101A1300D16682021208D18982021208D1AB8202F6
:101A23001208D1E982021208D13883021208D16365
:101A330083021208D1C183021208D16884021208FA
:101A4300D11085021208D18C85021208D159860261
:101A53001208D1A086021208D1EC86021208D174B2
:101A630087021208D1AD87021208D1038802120837
:101A7300D11F88021208D14E88021208D15A8A0255
:101A83001208D1888B021208D1B48B021208D1E854
:101A93008B021208D1098C021208D1188C02120889
:101AA300D1238C021208D1D28C021208D1428D02AA
:101AB3001208D1CD8D021208D1D58D021208D14260
:101AC3008E021208D17E8E021208D1448F021208B0
:101AD300D11790021208D16C90021208D10B910217
:101AE3001208D16591021208D1AA91021208D143BA
:101AF30094021208D18695021208D1709802120836
:101B0300D15499021208D1389A021208D1499A0283
:101B13001208D1BB9A021208D1529B021208D1B704
:101B23009B021208D1A79C021208D1CC9C02120876
:101B3300D1EA9C021208D1069D021208D1799D02B6
:101B43001208D1889D021208D1109E021208D10DED
:101B53009F021208D11A9F021208D1239F02120872
:101B6300D105A1021208D127A2021208D137A2027D
:101B73001208D165A3021208D1E4A3021208D1FF0F
:101B8300A4021208D13BA5021208D115A70212081C
:101B9300D1D2AA021208D1E6AA021208D1F0AA02EF
:101BA3001208D1FAAA021208D104AB021208D11DFD
:101BB300AB021208D127AB021208D194AB02120870
:101BC300D19FAB021208D1C7AB021208D1D2AB022C
:101BD3001208D137AC021208D142AC021208D16606
:101BE300AC021208D18AAC021208D1FCAC02120872
:101BF300D145AD021208D161AD021208D1D2AD02B6
:101C03001208D11EAE021208D167AE021208D1A586
:101C1300AE021208D126AF021208D1CDAF021208CC
:101C2300D19CB1021208D101B2021208D12FB30222
:101C33001208D155B3021208D19DB4021208D1D7AC
:101C4300B7021208D1D5B9021208D1A0BB021208FB
:101C5300D139BC021208D13ABE021208D1EFBE023A
:101C63001208D128BF021208D18EBF021208D198E0
:101C7300BF021208D1C1C1021208D100C302120867
:101C8300D157C3021208D102C4021208D1B2C5024D
:101C93001208D1FFC6021208D11FC7021208D1745D
:101CA300C7021208D175C8021208D19DC8021208D2
:101CB300D1FCC8021208D1F4C9021208D16BCA02BE
:101CC3001208D17ECB021208D1ECCB021208D1EB61
:101CD300CC021208D145CF021208D16ECF021208EE
:101CE300D1D4D0021208D156D2021208D1ADD202F9
:101CF3001208D15BD3021208D100D4021208D159C1
:101D0300D4021208D117D5021208D1A9D50212089C
:101D1300D108D6021208D14AD6021208D17BD602C4
:101D23001208D1D2D7021208D10080031208D1328F
:101D330080031208D16B80031208D1298203120891
:101D4300D1FF82031208D15E83031208D174840386
:101D53001208D1C084031208D14E87031208D12878
:101D63008A031208D16F8B031208D1078C03120860
:101D7300D1138C031208D15C8C031208D19E8D03FE
:101D83001208D1948E031208D1BE8E031208D11407
:101D93008F031208D16D8F031208D1E08F0312084D
:101DA300D11692031208D19893031208D183940396
:101DB3001208D1CD95031208D10598031208D10258
:101DC3009B031208D1119B031208D1A59B03120890
:101DD300D1509C031208D1939C031208D1FB9C039E
:101DE3001208D1179D031208D1469D031208D1850D
:101DF3009D031208D1809E031208D12F9F0312085E
:101E0300D1ACA1031208D1DEA2031208D1B6A303F9
:101E13001208D138A4031208D16DA8031208D19C6B
:101E2300A8031208D1F7A8031208D12AA90312089C
:101E3300D1A2A9031208D1D5A9031208D136AA0346
:101E43001208D186AA031208D153AB031208D10C8E
:101E5300AC031208D1D0AC031208D14AAF03120865
:101E6300D1ACB0031208D1FDB1031208D121B303E1
:101E73001208D124B3031208D153B3031208D14B70
:101E8300B5031208D10AB6031208D139B6031208F2
:101E9300D157B7031208D11FB8031208D1DDB90314
:101EA3001208D10FBA031208D151BA031208D15044
:101EB300BB031208D1C3BB031208D1ECBD03120844
:101EC300D14BBE031208D19FBE031208D1CEC0036B
:101ED3001208D1B1C1031208D139C2031208D127A4
:101EE300C3031208D13BC3031208D14FC303120823
:101EF300D17CC3031208D1ACC3031208D167C50355
:101F03001208D179C6031208D1CEC6031208D1171D
:101F1300C7031208D13EC7031208D106C80312082B
:101F2300D1ACC8031208D132CA031208D179CA034B
:101F33001208D1EBCA031208D140CC031208D1E92D
:101F4300CC031208D11DCD031208D135CD031208DD
:101F5300D1D8CD031208D154D0031208D1FCD10338
:101F63001208D11AD2031208D138D2031208D104AD
:101F7300D3031208D152D6031208D1C98201120821
:101F8300D10183011208D1F587011208D1418801DB
:101F93001208D18788011208D1BD89011208D12204
:101FA3008A011208D1978B011208D1A18E01120860
:101FB300D1CA8F011208D1DD99011208D16D9A019E
:101FC3001208D1579D011208D1649E011208D1C78E
:101FD3009E011208D10FA0011208D17DA20112089F
:101FE300D10FA4011208D19CA4011208D1BBA501F1
:101FF3001208D148A6011208D152A6011208D17ABB
:10200300A6011208D11AA7011208D105A8011208C6
:10201300D1D2A8011208D1EFA8011208D118A90141
:102023001208D145A9011208D18CAB011208D15B6A
:10203300AC011208D19AAC011208D11CAD011208EF
:10204300D1BDAD011208D1EFAD011208D136AE01F9
:102053001208D169AE011208D1ADAE011208D1FC4C
:10206300AE011208D101AF011208D15DAF01120810
:10207300D1A1AF011208D17BB0011208D1E0B001A8
:102083001208D146B1011208D1C1B1011208D129F8
:10209300B5011208D12CB6011208D1AAB701120852
:1020A300D1C0BA011208D162BB011208D1ABBD0184
:1020B3001208D166BE011208D1A5BE011208D17D56
:1020C300C0011208D19AC0011208D1A3C00112089D
:1020D300D1ACC0011208D1B7C0011208D1D6C001DA
:1020E3001208D17AC2011208D1D7C2011208D1E174
:1020F300C2011208D1EBC2011208D14AC30112086E
:10210300D194C3011208D195C4011208D1ECC401C2
:102113001208D1FDC5011208D146C6011208D1002B
:10212300C7011208D117C8011208D1ECC80112085F
:10213300D133CA011208D137CB011208D130CC01F7
:102143001208D148CC011208D17FCC011208D189E1
:10215300CC011208D193CC011208D19ECC011208F4
:10216300D1BCCC011208D104CD011208D162CD013A
:102173001208D189CD011208D19BCD011208D1508B
:10218300CE011208D189CE011208D1ABCF011208BA
:10219300D1FECF011208D1E4D0011208D10BD10135
:1021A3001208D17BD1011208D1F7D1011208D15302
:1021B300D3011208D17AD4011208D13CD5011208F7
:1021C300D10AD6011208D1C8D6011208D1B0D7015D
:1021D3001208D15AD8011208D1C2D8011208D177F6
:1021E300D9011208D1D3D9011208D12BDA0112086F
:1021F300D1F1DA011208D114DB011208D1CFDB01CE
:102203001208D1F1DB011208D152DC011208D1828C
:10221300DE011208D17BDF011208D127E001120889
:10222300D148E2011208D191E2011208D1DCE201A6
:102233001208D138E3011208D196E3011208D1BA8A
:10224300E3011208D1DEE3011208D113E4011208FD
:10225300D13BE4011208D180E4011208D1D4E40196
:102263001208D12DE5011208D127E6011208D1C5C4
:10227300E7011208D10AE8011208D133E801120874
:10228300D1BCE8011208D12FE9011208D13DE901BF
:102293001208D161E9011208D1B7E9011208D1D2BC
:1022A300E9011208D18DEA011208D1B9EA01120835
:1022B300D1FCEA011208D15FEB011208D16DED01E7
:1022C3001208D199ED011208D154EE011208D13848
:1022D300EF011208D1CCEF011208D11F97051208A4
:1022E300D15797051208D17897051208D1BA9705E7
:1022F3001208D11E98051208D12898051208D13862
:1023030098051208D16F98051208D1189C05120878
:10231300D1E09D051208D1C49F051208D166A0051E
:102323001208D1F0A0051208D1982E001208D1414D
:102333002F001208D12030001208D12C31001208CE
:10234300D14C31001208D16E32001208D11E340074
:102353001208D18B34001208D15C35001208D16207
:1023630036001208D1DA36001208D11537001208E8
:10237300D16E37001208D1A937001208D1F2370005
:102383001208D18638001208D11C39001208D1F185
:1023930039001208D1C43A001208D1523B00120886
:1023A300D1783B001208D1A53B001208D1D63B00DF
:1023B3001208D1A33C001208D1B33C001208D10685
:1023C3003D001208D1133D001208D1203D00120830
:1023D300D1293D001208D18D3D001208D1EB3D00FB
:1023E3001208D1363E001208D1513E001208D178AE
:1023F3003E001208D1953E001208D1A13E001208FA
:10240300D13240001208D14B40001208D1C740001E
:102413001208D1DA40001208D1EA40001208D18E26
:1024230041001208D1FA42001208D10D44001208EB
:10243300D1AD44001208D1B744001208D13645008B
:102443001208D14745001208D18645001208D1B4BD
:1024530045001208D18146001208D1D8460012085F
:10246300D11147001208D16747001208D1854700F0
:102473001208D1D347001208D19E48001208D1ECAC
:1024830048001208D13949001208D1BC490012088A
:10249300D1E649001208D11C4A001208D12B4A0088
:1024A3001208D18A4A001208D1024B001208D14304
:1024B3004B001208D1934B001208D1BE4B001208F7
:1024C300D1D84B001208D1F24B001208D1C74C00EF
:1024D3001208D1D14C001208D10C4D001208D11CA6
:1024E3004D001208D1254D001208D1764D00120877
:1024F300D18A4D001208D1AC4E001208D1C14E0052
:102503001208D1544F001208D1C84F001208D16DE0
:1025130050001208D17850001208D1DB5100120884
:10252300D1F751001208D14352001208D1B1520021
:102533001208D1E352001208D1FD52001208D15DF6
:1025430053001208D1FC53001208D147540012085B
:10255300D19A56001208D13257001208D1A9570058
:102563001208D1065A001208D11E5A001208D121AE
:102573005A001208D12D5A001208D1415A001208EC
:10258300D1495A001208D1805A001208D1745B0055
:102593001208D1FE5B001208D1805C001208D10042
:1025A3005D001208D1D75D001208D1F95D00120851
:1025B300D1925E001208D1EF5E001208D1F25E00E4
:1025C3001208D1615F001208D1AD60001208D1C0BA
:1025D30061001208D14B62001208D15E6300120839
:1025E300D12564001208D15664001208D17C64001E
:1025F3001208D18564001208D1B464001208D164B2
:1026030065001208D11466001208D187660012080B
:10261300D12A67001208D19D67001208D1DC670038
:102623001208D12568001208D17C83061208D161F3
:1026330087061208D1F986061208D1DE860612082B
:10264300D1CE86061208D11289061208D1F87F006E
:102653001208D1C2FF021208D124FF021208D113BB
:10266300FF021208D18AFF041208D1B68B051208A3
:10267300D1DC8A051208D1128A051208D181880596
:102683001208D14A88051208D11C88051208D1D036
:1026930087051208D13987051208D1A986051208C2
:1026A300D18386051208D13886051208D102860522
:1026B3001208D18585051208D127D3051208D12028
:1026C30085051208D10DD3051208D1DCD2051208F5
:1026D300D1D0D1051208D1BBD1051208D14AFB05CF
:1026E3001208D1F1FA051208D1A9FA051208D18A04
:1026F300FA051208D1CF84051208D1F78305120811
:10270300D16783051208D11B83051208D124FA056A
:102713001208D19682051208D15182051208D135CB
:1027230082051208D1DD80051208D102FA051208CC
:10273300D1AF80051208D102D7051208D17C8005DC
:102743001208D10080051208D13FFF041208D1E618
:10275300FE041208D1B1FE041208D17CFE04120853
:10276300D148FE041208D1DBFD041208D1C3FD04D5
:102773001208D19EFD041208D177FA041208D14A37
:10278300F8041208D151F6041208D1DDF504120839
:10279300D18EF5041208D16584061208D148F504D8
:1027A3001208D1EAF4041208D174E1040000008095
:1027B300FB87000100741D35000400381D2500024D
:1027C300003C1D260002003E1D27000200401D287C
:1027D3000001004A1D290001004B1D840004004C28
:1027E3001D86000100501D2A000100511D2B000110
:1027F30000521D2C000100561D2D000800541A2EF6
:10280300000100571D2F000100581D300001005921
:102813001D310001005A1D320001005C1A33000112
:10282300005D1A340001005B1D360001005E1A389A
:102833000001005C1D39000100551D830002007278
:102843001D63000100691A64000100531D65000146
:1028530000541D6D0001006A1A710008004C1A66CD
:10286300000100711D43000100621D44000200636A
:102873001D45000100651D46000200661D47000856
:1028830000611A48000100681D4B000100691D0426
:10289300000100751DA1000100781D3700010077BC
:1028A3001D88000100761D3C0001005F1A3D0001F8
:1028B300005D1D490002006A1D670001006B1A4D8F
:1028C3000002006C1D4E0001006E1D4F0002006FE0
:1028D3001D3E000100611D510001005E1D520001FB
:1028E300005F1D53000100601D54000100601A00C9
:1028F3000000000000000136360101000102010062
:10290300010301000104010606050200000701009E
:10291300340801000F090401010D0100FF0E080036
:102923000017020000190100FF1A0100011B01003A
:10293300FE1C0100081D0200001F01000120010010
:1029430001210200002301000F24020000260100E0
:102953000127010008280200FF2A0100072B0102BA
:10296300402C0100002D0100012E0100012F010068
:10297300FF30010B1D310800003A0100083B010044
:102983000F3C0100013D0100FF3E04000042040032
:1029930000460400004A0400004E040000520400F4
:1029A30000560400005A04000001037103010301EF
:1029B30003010301030103220302030103100300C4
:1029C30003000300030003000300030003420300AA
:1029D3000324030603000300030403120325032354
:1029E3000325032303040304030003000300034438
:1029F3000300030003230300036503210035038160
:102A0300030003050300030003000300032503235E
:102A1300030302710230016002110270020102021B
:102A23000202028002100261023A00410063027353
:102A33000272026202430200021302380000020023
:102A43000204021202000200020002000204020455
:102A530002370037003C0244020002390000020042
:102A6300026502000235028102000205028202832E
:102A73000200020101710101010101110101013192
:102A830001010101018001100161013B0014006398
:102A93000173017201620143010001130106013D4B
:102AA30001350004011201000100010001000104CD
:102AB300010401330133013C0144013201360000BA
:102AC300010001650100013500810100010501825A
:102AD30001830100010300710030016000110070E7
:102AE3000031022003500480001000610000001434
:102AF30000630073007200620043000000130006CD
:102B030000000000000400120000000000000000AC
:102B13000004000400370037003C024400000000BA
:102B23000000000000650000003500810000000582
:102B33000000008300000003047104020460041118
:102B4300047004020402040104020410046104007A
:102B5300041404630473047204620443040004133E
:102B63000406040004000404041204000400040026
:102B7300040004510464000004000400044404003D
:102B830004000400040004650400043504810464A3
:102B9300000504000483040004360001000600005D
:102BA300000F000000000000000000000000000310
:102BB300FFFF00000403FFFF0000FFFF0FF401000D
:102BC30005C4040320000100000B00000000000006
:102BD300000003010F0000000000000000000000DF
:102BE30000000000000000000000000000000000E2
:102BF300000000000000008713D5138D13C11200DD
:102C0300000000000000000000000000000000932E
:102C130013C1129913C1129F13C112A513C112AB91
:102C230013C112B113C112B713DB13BD13C11200C9
:102C33000000000000000000000000C313ED13C9F2
:102C430013C112C313ED13C913C112B713DB13CF8F
:102C530013C1120000831713000B171F0011171F56
:102C630080171701008317020093160300991604B7
:102C7300009F160500A5160600B1163000CF1631C9
:102C830000C9163200DB163300E1163500E71634AF
:102C930000ED163600F3161100FF16140005171584
:102CA30000C316FFFF0000000003002001C68200DE
:102CB3000000002001C7820000040042014B800095
:102CC30000050042016D800000060042017E800085
:102CD3000007002001C882000010004203081D0005
:102CE3000011002003CC18000012001003191D0668
:102CF3000000001001CF180A0000000200000004C9
:102D03000000000800000010000000200000004048
:102D1300000000800000000001000000020000002D
:102D23000400000008000000100000002000000064
:102D330040000001BD1F06E71F08E11F0BFF1F1026
:102D4300DB1C02C31F05D51F07C91F0CA51F0DB12F
:102D53001F64D71AFF000007ECFDFDFDECDCDCCCA3
:102D6300BCACAC9C9C8C7C7C6C6C5C5C5C4C4C3CD0
:102D73003C2C2C1C1C00160F00000B150B02000230
:102D8300220F3300000E5A6967426565416C6C6916
:102D9300616E63653039000000040600000406001C
:102DA30001040600020401030507090B0D0F0002CD
:102DB3000406080A0C0D150AF4D4C0A595827263A3
:102DC3006155504900034A49434E181A250502002C
:102DD300393D3F373C3C362C442D0001191618165B
:102DE3001618230300303017181921301B1D1F300C
:102DF300303016181920231A1C1E300C0E020B0437
:102E03000B0A0708000F0204020101010109020075
:102E1300BE040AE8030000FA06000000005A2DE889
:102E2300030E00B92D7F00050C1E04040A101000C8
:102E33000C2804040A000903010C090508150800FD
:102E4300FF030803FFE0041236C8A2E792AF22E4AF
:102E5300F0A3F0A3F022A3122E52A3F0227F0C02C0
:102E63000653E0F508E4F509F50AF50B227401F0C1
:102E730090059BE0640F22740912091C7F0402066B
:102E830053A3A3E024F5C39413229005BB1259C1A5
:102E93007A147B0022C082C083901B857489F0A3BF
:102EA3007423F0A3749BF0A37423F0901B897471B3
:102EB300F0A37423F0A3746BF0A37423F0A374A79B
:102EC300F0A37423F0A374ADF0A37423F0A374A14F
:102ED300F0A37423F0A37459F0A37423F0901B950B
:102EE300747DF0A37423F0A37483F0A37423F0A37D
:102EF3007477F0A37423F0A374B3F0A37423F09056
:102F03001BA6124F4E60061251B81211AD901BA3AF
:102F13001246717408F0A3E4F0A3F0901C46F090FD
:102F23001BA8F07C0BFDF97AA97B1B1210DB7C0B31
:102F33007D0079007AB47B1B1210DB02467A74F7AA
:102F43001203F574F71209B4EAFEEBFF1244987406
:102F53000512300E7403F0EE2402FAE43F122FE858
:102F6300242DFCE43FFD8C828D83123126122FF732
:102F7300600812387074FFF0A3F0EE242BE43F1CBA
:102F83001CFD8C828D83A3E0C0E08A828B83124474
:102F9300A9D0E0122FF788828983124CA12403124F
:102FA300578B12129D7408120BF47403F09005B042
:102FB30012075674021209AC7903EEFAEFFB1225DD
:102FC3004B740212091CE9F5087007EEFAEFFB12C5
:102FD300242BA9087409023880F582E43FF5831293
:102FE30063F6124C96FB8A828B83123006E8F0A3B9
:102FF300E9F0EE221259DF123006E8F0A3E9125F7E
:103003005BE0221230F18A828B8322F0A3E4F01278
:10301300301622EE240DF582E43FF5832274F1127B
:1030230003F5EAFEEBFF8C088D09890A1230FB8A4F
:10303300828B831230F1740F120BF4123114E824D3
:10304300FF18E934FFF988828983E50A1231069073
:1030530005B51231039005B41231037411120BF448
:10306300123114EE2404FCE43FFD880B8A828B8327
:10307300E0F50C8C828D83E0250CC3950B1259DB94
:10308300E8F0A3E9124405A3A3A3A3A3A3A3A3E086
:1030930064037008124761F0A3E48003123407123B
:1030A30030117409F0750CA9750D1B750E00780CA1
:1030B3001208EA1233FB1210CF740312091C750CA9
:1030C300FF750DFF780C1208EEAC08AD097903EE1D
:1030D300FAEFFB12254B740212091CE9F50870077D
:1030E300EEFAEFFB12242BA9087F07020653E02414
:1030F300FFF8A3E034FFF922EE2402FAE43FFB22B7
:1031030012312612310A22F0E824FF18E934FFF9BC
:1031130022E0F50CA312312612310A88828983E555
:103123000CF022E08882898322C082C083901BC571
:10313300E0C39408400474078001E08A828B83F023
:1031430033333354F8F902467A74F01203F5EAFE86
:10315300EBFF890C8C0E8D0F750A00A2AFE433F5DB
:103163000BC2AF901BBF803F12323450371232452F
:1031730064037030EE24F9FEEF34FFFF8508828587
:103183000983A3A3E02405FCA3E03400FDEEFAEFDA
:10319300FB12129DEE24FF1EEF34FFFF7410250A6D
:1031A300F50A150C1243D21263F2E50C6006E5082A
:1031B300450970B4E50BA2E092AFA2AFE433F50B7F
:1031C300C2AF901BBF802C2402FAE43509FB8A822C
:1031D3008B831259CA2406F582E438F583123252DE
:1031E3008A828B8312323AA3A3123252050A150C38
:1031F3001243D21243E76022123245640270F11285
:103203003234E50840C1123535A2E550E3850E821C
:10321300850F837401F0E50C70D6E50BA2E092AF45
:103223008E828F83E50AF0EE24FFFAEF34FFFB80F2
:1032330035123540A2E62212323E22125DBFA3A30D
:10324300A322850882850983125DB91253F322E014
:103253008E828F83F0EE24FF1EEF34FFFF221226AF
:1032630017740412091C7F0802065374EC1203F549
:1032730074F51209B489138A128B0F851882851984
:1032830083E4F0041209A412233BE9F890059AE0C1
:10329300292434F508FA7B001210F98A0A8B0BAE45
:1032A3000AAF0BEE4F70030233EFEE2402F50AE48C
:1032B3003FF50BA808EE28F8E43FF9850A82850B51
:1032C30083122FF02404F510E43FF511851082F5E5
:1032D30083E4F090059AE0FCF8C3E498F895E0F9EC
:1032E300850A82850B83E028F508A3E039F5099068
:1032F3000598125683750E00780C1208EA7D00AA11
:1033030008AB091210CF740312091CAC18AD197461
:1033130001120BF4E0F9E50824FFFAE50934FFFB99
:103323001223418A828B83E4F0EA24FFF508EB340D
:10333300FFF509E50FC454F0F9901C47E0C433339B
:1033430054C0F8900594E0A2E0E4331313484944D1
:103353000F12340FE512C454F04513850882850912
:1033630083F0A808850A82850B83E0FA851082859D
:103373001183E02AC398F0850A82850B83E8F0A3C2
:10338300E509F0123407123011E4F0740A120BF459
:10339300E4F07508B475091BF50A78081208EA12F7
:1033A30033FB1210CF740312091C8518828519830D
:1033B300E06009EE240E12452E4408F0122533E98D
:1033C300F9E4F508F50978081208EE74041209AC5B
:1033D300EEFAEFFB12254B740212091CE97006EE9C
:1033E300FAEFFB800BEEFAEFFB1210FF7A007B0083
:1033F300740B12091C022E607C0B7D00EE2418FA5C
:10340300E43FFB2212449CE4F0A322E0850882857A
:10341300098312341922F01256572274F31203F55A
:103423008A0A8B0BA2AFE433F50CC2AF75080075A3
:103433000900901BBF802C12365C5024850A8285BC
:103443000B83A3A312681F8E828F83A3A31251BB86
:10345300122539E9600A123482C2E6F08E088F0918
:1034630012365112390A70CFE50845096006123544
:103473003CD2E6F0E50CA2E092AF7F0502065312C0
:10348300348622125670E02274F01203F5EAFEEB42
:10349300FF8C0C8D0D750E00A2AFE433F50FC2AF98
:1034A300750800750900901BBF8020850A08850BED
:1034B3000912353CD2E4F0E508123535D2E7F0E5E0
:1034C3000A24FBF582E50B34FFF583E0F50AA3E05C
:1034D300F50BE50A450B6043E50A1242BD350BF5D2
:1034E30083E0A2E750D9850A82850B83A3A3120741
:1034F30056AC0CAD0DEEFAEFFB12253F7402120928
:103503001CE960BBE508450960A1E508240D1235F7
:103513004864017006123551D2E4F0E50FA2E0923F
:10352300AFE50845096006122425750E01A90E02B0
:1035330032691242E712354B2212354022E5082444
:103543001112354822F582E43509F583E022850816
:1035530082850983125DB9E02274F21203F574FEC9
:103563001209B4750C00750D00851882851983E462
:10357300F0A3F0A2AF33F50AC2AF901BBFE0FEA3E6
:10358300E0FF8035EE24FBF582EF34FF1263F07821
:103593000C1208EEEEFCEFFD7ABF7B1B12112F74A9
:1035A3000212091CEEFCEFFDAA18AB1912111DAE95
:1035B30008AF09901BC5E014F0EE4F602712365C8C
:1035C300501DEE240BF8E43FF988828983E024FF41
:1035D300F0A3E034FFF088828983124F4E60A51276
:1035E300364D8099E50AA2E092AF901BC5E06031A9
:1035F30090059BE0640F6006901C46E070237A9D63
:103603007B1B1226239082BA1207527A9D7B1B12D0
:103613002617740412091C800874F01248981224A7
:1036230019AA18AB191211238A0A8B0BAE0AAF0B16
:10363300EE4F601312234D123482A2E28E828F83E7
:10364300A350D674E980D40239128E0C8F0DEE2468
:10365300FBF582EF34FFF58322123486A2E722744E
:10366300F71203F5EAFEEBFF12234D1244A61205EF
:103673006DE964019005B7700AE02401F8A3E03412
:10368300008004E0F8A3E0F9124AF4124EA6901B5E
:10369300C5E0702190059BE0640F70197A9D7B1B38
:1036A3001226239082BA1207527A9D7B1B12261789
:1036B300740412091CA9A8C2AF901BC5E0041236FA
:1036C300C8A2E7800DF0E9A2E7E433F8E922E508B0
:1036D300A2E092AF02493474F71203F5EAFEEBFF5E
:1036E30012370FF012234DEEFCEFFD7ABF7B1B1256
:1036F3001129A9A8C2AF901BC5122E4890059BE0C3
:10370300640F700579081224EB024934123486C21F
:10371300E42274F71203F574EA1209B4EAFEEBFF2C
:10372300900594E060408518828519837401F01236
:103733000BF4E41237E7120BF4AA82AB8312129D47
:103743008E828F83123557C0E0740A120BF4D0E0D7
:103753001259F0740B120BF4AA82AB83122563AADD
:1037630018AB191219B7741602388074F71203F5DF
:10377300EAFEEBFF12232FE9F974DC69601E74DDA6
:1037830069601974E469601474F369600F74DE6925
:10379300600A74DF69600574DB697007EEFAEFFB9A
:1037A3001224F102493474F71203F574EB1209B4CD
:1037B300EAFEEBFF85188285198374061237E71238
:1037C3000BF4AA82AB8312129D1259F5740A120BE1
:1037D300F4AA82AB83122563AA18AB191219B77422
:1037E30015023880F0EE2413FCE43FFD74022274CA
:1037F300F71203F574F71209B4EAFEEBFFEE242D7A
:1038030012452E60651240BFAA18AB1912129D749F
:1038130008120BF47403F09005B0120756123870B7
:103823001207569005C3E0F974041209ACEEFAEFDF
:10383300FB122335740412091CE9F974DC69602353
:1038430074DD69601E74E469601974F3696014744B
:10385300DE69600F74DF69600A74E869600574DB10
:10386300697007EEFAEFFB1224F1022FD7EE12383C
:103873007522242BF582E43FF58322740312091C7D
:1038830002493474F21203F58A088B09750C00752A
:103893000D00750AE7A2AFE433F50BC2AF901BBF6F
:1038A300800312364D12390A603512365C50F3121A
:1038B300452B640170ECEE242FF582E43F123AB9F4
:1038C300E06870DE780C1208EEEEFCEFFD7ABF7B49
:1038D3001B12112F740212091C901BC5E014F0E592
:1038E3000BA2E092AFEE4F6013EEFAEFFB12234D03
:1038F30079F0EEFAEFFB1224F1750A00A90AAA087F
:10390300AB091224F1800DE0FEA3E0FFEE4F227419
:103913000212091C7F0602065374F41203F574F7AE
:103923001209B4EAFEEBFF8E828F83A3E064F37087
:10393300030239C68E828F83A3E064DF70030239EA
:10394300C68E828F83A3E064E860788E828F83A320
:10395300E064DB606E12238FE9F508705EEE240EDF
:1039630012452E60561239D01223D7EA4B604C749D
:1039730008120BF41239DA1207567508FF7509FF9E
:1039830078081208EE8E828F83A3A3A3A3A3A3A315
:10399300A3E0F974041209AC122335740412091C50
:1039A300E9F50874F36508601274DF6508600C7448
:1039B300E86508600674DB6508700F8E828F83A349
:1039C300E508F0EEFAEFFB12239B022E7AEE240FAA
:1039D300FAE43FFB79092274021261B874FFF0A381
:1039E3001239E7221239EB22124CAAA3A32274F54F
:1039F3001203F58A088B097E008A828B83A3A3A313
:103A0300A3A3A3122E8440027EE88A828B83A3A3FE
:103A1300A3A3A3A3A3A3A3A3E0C3941040047EE89A
:103A230080138A828B83A3A3A3A3A3A3A3A3A3A388
:103A3300E0640F600A901C23E0540870027EE8EAF9
:103A4300240BF582E43509123AB9A3A3A3A3A3A3D4
:103A5300A3A3E0C398500CEA240B123548640F600B
:103A6300027EE89005B4E0F47003A3E0F470027EF4
:103A7300EC7A237B001211A7901BA61251CB901B4B
:103A8300A6124F4E6029850882850983A3A3A982C4
:103A9300AA8389088A09750A0078081208EA7C2330
:103AA3007D001251B81210CF740312091C80027EDC
:103AB3001AEEF9026359F583E0F88A828B83A3A394
:103AC3002274F51203F5EAFEEBFF8E828F83A3A324
:103AD300A3A3A3A3A3A3E090059B12609B9005B6A9
:103AE3001260819005961260A0901C47F0F9120EA7
:103AF30011901C47E06018EE2404FAE43FFB795070
:103B0300120DF9EE2406FAE43FFB79E1120DF99068
:103B13001C46122E706004740180027400901BA86E
:103B23001260871208EA7C0B7D007AA97B1B1210B6
:103B3300CF740312091CEE2418F508E43FF5097845
:103B4300081208EA7C0B7D007AB47B1B0263517474
:103B5300F71203F5EAFEEBFF8E828F83A3E0700674
:103B63001251B81223958E828F83742C12489812A7
:103B730024FD02493474F71203F5EAFEEBFF901BB0
:103B8300A6124F4E600D1251B8901BA6E4F0A3F09D
:103B93001211AD8E828F8374081248981219B702DE
:103BA300493474F61203F5901C46E06013901BA889
:103BB300E0700D123BC6122347EA4B600312242B1D
:103BC300025CFB900596E0FB9005B6E0FA90059B3E
:103BD300E0F92274F41203F574E71209B4EAFEEB78
:103BE300FF750B018E828F83A3A3A3A3A3A3A3E0DB
:103BF300A2E25068EE242BF582E43F12681D123CCA
:103C030094122353E9705590820DE0640170057599
:103C13000B008048123C9C1208EA7C0B7D00741157
:103C23001209A41210CF740312091C122533E9FAE6
:103C3300740E12099C8808890978081208EE750821
:103C43003075090078081208EE1238701207561200
:103C530059917901122551740612091C8518828520
:103C6300198374101237E7120BF4AA82AB83121272
:103C7300911238701259BD740B120BF4124EA674C4
:103C83000D120BF4E50B12470B1219B77419022E20
:103C93007CEE2413FAE43FFB22EE240812608F2209
:103CA300C082C083901C47E060031225A502467AB8
:103CB300C082C083901C3E7485F0A3741BF0A37470
:103CC30089F0A3741BF0A37495F0A3741BF0901DEB
:103CD3008C743AF0A3742BF0901C287429F0A3740D
:103CE30023F0901BCA745FF0A37423F0901BCC7471
:103CF30065F0A37423F0901C23E044028001E4F0F8
:103D030002467AC082C083EAFCEBFD7903024D16BA
:103D1300C082C083EAFCEBFD7905024D16C082C068
:103D2300837908025E8CC082C08374FE1209B4904A
:103D33001BD27413F0A37424F0901BD4740DF0A35E
:103D43007424F0800D7ABF7B1B12112312470112DA
:103D53002521901BBF124F4E70EB901BC1124F4E8B
:103D6300600F7AC17B1B1211231247011225218098
:103D7300E9901BBFE4F0A3F0901BC5122E5374020D
:103D83008002741112091C02467A74F61203F5E9D3
:103D9300FF74D229F582E4342DF583E493FEFA7B94
:103DA300001210F9EA4B6011EA2E124E9C8A828BA4
:103DB30083A3A3A3A3E4F0802C7A027B001210F95F
:103DC300EA4B601D74E82FF582E4342DF583E49308
:103DD3008A828B83F0A3741AF0901C1EE0F91211EF
:103DE300057A007B00025CFBE9FC740629F8EAA271
:103DF300E0501EE875F00A84E5F0F96014740A28AF
:103E0300C399F8E9C394054004740A28F8740B288D
:103E1300F8ECC3941340047A1480027A06EA2879F2
:103E2300002409F85001097A0A7B001202A5E8F977
:103E33000208CEC082C083901C23E05402600A12A1
:103E430019BDE9600479018002790002467AC082D3
:103E5300C083901C23E054026016901BC5E0700CD5
:103E6300124F4B600BE0C81243DF5004790180020C
:103E7300790002467AC082C08390820AE0F8901BE0
:103E8300C7E0C39850051210F980047A007B000242
:103E9300467AC082C083122521790002467A74F7DC
:103EA3001203F574FE1209B4851882851983EAF0AA
:103EB300A3EB124010A3A3A3A3A3E0600A146060C2
:103EC30024FE6069023F9190059BE0640F60181225
:103ED30024F7E970128518828519831251BB901B50
:103EE300CE1244A912056D9005C3E0C0E085188287
:103EF300851983124C74D0E012401074141261B40B
:103F030012681F7AC17B1B12111DA8A8C2AF901B98
:103F1300C7E0041251D179201224EB7402023880D5
:103F2300851882851983125DC1741580D085188226
:103F3300851983123FF3A3A3E06053851882851983
:103F430083E02402F8A3E03400F9888289831265B0
:103F5300F2E0C0E0851882851983E0FCA3E0CC245D
:103F630006F582E43CF583D0E01259FD888289830B
:103F73001251CB8518828519831242DB85188285FD
:103F830019836013123FF860051240004043AA18DA
:103F9300AB191225218084123FF860F212400050C1
:103FA3001C1243EFFA851882851983123FFAF874BD
:103FB30008124E97342EF583E4936A6014851882B1
:103FC300851983123FF8640870C41243EF640870C4
:103FD300BD1243EF14124018240AC0E085188285ED
:103FE30019831244A9D0E012401804023F00E0F8FC
:103FF300A3124CC122E0F8A3E012401F22851882CD
:104003008519831259CE124020C3940A2212402AE2
:10401300F58388822212402A12401F22C82406F503
:1040230082E438F583E0221261B8E0F8A3E022C00D
:1040330082C083901BD6124F4E6008125DC21205D8
:104043006D8002790002467A74F71203F5EAFEEBFB
:10405300FF1230167401F0EE2430F582E43FF5834D
:1040630012572B122FF0243212452EC0E0EE2413E8
:10407300F582E43FF583D0E0F0EE243312452EC001
:10408300E0EE2414F582E43FF583D0E0F0EE242C37
:10409300F582E43FF5831207561240BFEE242E1239
:1040A300452EF912254B740212091CE9F508700715
:1040B300EEFAEFFB12242BA908024934EE2423FC69
:1040C300E43FFD22C082C0831224F7E96004792013
:1040D3008002790102467AC082C083EA1242BD128D
:1040E300417ED2E0023D02C082C083124178640166
:1040F3007011124183400C8A828B83A3E0F912244E
:10410300F1806FEA241012417BA2E650128A828B5F
:1041130083A3E0F9901BD01244A912056D805312BA
:1041230041786401700D12418350088A828B837435
:104133003080368A828B83A3E0641B8A828B8370F0
:104143000474228024A3E0700D124178F874F312F2
:104153004E97342D800B124178F874E8124E973441
:104163002DF583E4938A828B83F0901C1EE0F91271
:10417300110502467AEA240DF582E43BF583E02239
:10418300EA1242E73BF583E0A2E32274F71203F558
:10419300E9FE124F4B70030242B4EE6011741B6EC2
:1041A3007013E0C81242B76405700302427F125DC8
:1041B300B1E402428374E96E70621242D3700B124F
:1041C30019C3E960051242ED606279EE120D7B902E
:1041D3001BC81242D0901BC8603B1242F0901BC810
:1041E300700B1242D014F0120F3D0242B41242DBA4
:1041F300C2E71243FB1242B76403700C1259C71291
:1042030042BD124025D2E2F079ED120D7B1242C37A
:1042130012056D8075125DB474E9806474E16E708B
:104223003E1219C3E960551242ED70509005BDE08E
:10423300C0E01259C72412F582E438F583D0E0F0C8
:104243009005ACE0C0E0901BC8123FF1123FF1D0E3
:10425300E0F09005ACE004F07901120F2580527470
:104263001C6E7018901BC81251BB901BD81244A926
:1042730012056D901BC8E4F0A3F08035125DB1EE1A
:10428300F0901BC81251BB1224191259C712599925
:10429300E0548060109005C3E0F9120E359005C21A
:1042A300E0F9120E29901BC8E4F0A3F07910122450
:1042B300EB024934240D124022222411F582E42218
:1042C300901BC81251BF901BCC125DBB22E0F8A318
:1042D300E0C8241212402222E0F8A3E0C81242E709
:1042E300124025222410F582E422901BC81259CED5
:1042F30012599DE054042274F41203F5750A0075F3
:104303000B00A2AFE433FFC2AF124F4B6003024373
:10431300B71244A612056DE94410F8901BBF80093B
:1043230085080A85090B1243D21243E7700302433F
:10433300B712353C586870E8780A1208EEAC08AD3D
:10434300097ABF7B1B12112F740212091C901BC820
:10435300E508F0A3E5091243FB1243DF405D901B20
:10436300C6E014F0EFA2E092AF901BC8E0240EF871
:10437300A3E03400F9880889098882F5831251BBC8
:10438300901BC81243F5F91223DDE9901BC3F01209
:104393004403E05480901BC860261259CA241312A8
:1043A3004022F9120E351259C72414124022F91271
:1043B3000E298018EFA2E092AF8011901BC580A157
:1043C3001242DBA2E1B3E433F9120F25022E7FE59B
:1043D3000824FBF582E50934FFF5832224111240FA
:1043E30022A2E7221263F6E5084509228518828591
:1043F300198312323EA3E022F0901BC81259CE2239
:10440300A3E4F08508828509832274F71203F5EA91
:10441300FEEBFF12251BEE241012452EA2E3400CE7
:1044230012452B640170059082088003908209E095
:10443300F9EEFCEFFD7ABF7B1B121135E96046EE06
:10444300FAEFFB901BD21244A912056DEE240E1253
:10445300452E54047020A8A8C2AF901BC6E00412D6
:1044630051B1FAE8A2E792AF124498A3E054017065
:1044730021122425801CEEFAEFFB901BCA1244A9DB
:1044830012056D800D8E828F83A374F112489812EA
:10449300241902493412449C22EE240EF582E43F8F
:1044A300F58322901BD4125DBB22C082C0831224E9
:1044B3002502467A74F71203F5EAFEEBFF790090C2
:1044C3001C23E05402700CEE243012452E54046079
:1044D3000279E8901C23E05460700CEE24301245FE
:1044E3002E5402600279E88E828F83A3A3A3A3E0F4
:1044F300F890820EE0C398500279E8EE242E12451C
:104503002E700CEE242B12452E700479F5800BE9E6
:104513007005122407E9F9E96007EEFAEFFB1224AC
:10452300F102493434FFF509EE240DF582E43FF539
:1045330083E022C082C0838A828B83740DF01219B8
:10454300B702467AC082C0838A828B83E4F0A3F0E9
:10455300EA243012417B54049082087012E0F890F0
:104563001BC6E0C398401279F11224F102467AE0A7
:10457300F8901BC5E0C39850EE901C1EE0F9121191
:104583000580E974F61203F5E9FE244CFAE43400DD
:10459300FB1210F9EA4B6012EE8A828B83A3A3A36A
:1045A300A3F0EA244C124E9C80047A007B00025C48
:1045B300FBC082C083901BDA7473F0A37424F0A34E
:1045C30074A3F0A37424F0A37479F0A37424F0A368
:1045D300747FF0A37424F0A3749DF0A37424F0A358
:1045E3007491F0A37424F0A3748BF0A37424F0A348
:1045F30074A9F0A37424F0A374AFF0A37424F0A3FC
:1046030074B5F0A37424F0A374C1F0A37424F0A3CD
:104613007485F0A37424F0A3746DF0A37424F0A341
:104623007467F0A37424F0901BF67497F0A37424BA
:10463300F0A374BBF0A37424F0A374DBF0A374257C
:10464300F0A374C7F0A37424F0A374CDF0A374246F
:10465300F0901C1AE4F0901C1DF0901C0612467199
:104663007402F0901C0F1246717401023D0274EB48
:10467300F0A37424F0A322D083D0820208CE74F571
:104683001203F574F11209B4851882851983740233
:10469300F07401120BF4E9F060047AFF7BFF7402FB
:1046A300120BF41251CB75081275091C750A0078A8
:1046B300081208EA7C0B7D007407120BF4AA82AB84
:1046C300831210CF740312091CAA18AB191219B75D
:1046D300740F02635674F71203F574FD1209B4855F
:1046E3001882851983740AF07401120BF4E9F074CB
:1046F30002120BF4EA12470B1219B702387E85181F
:1047030082851983EAF0A3EBF0AA18AB192274F699
:104713001203F574F71209B4EAFEEBFF12476112B4
:10472300300E7402124889AA18AB19121291EE24A2
:104733002E122FDC24301257981208EE740212093D
:10474300AC79831A1AEFFB12254B740212091CE988
:10475300F5087007EEFAEFFB12242B025CF4124407
:104763009C74012274F01203F512623F120B8578D8
:1047730008790C12030678081208E67A097B1C02F2
:10478300326174F41203F574C61209B490059BE008
:10479300640F6010851882851983742E12470B12DB
:1047A30024FD80277A007B1C122623122E8D1202F1
:1047B300AD88088909E4F50AF50B78081208E67A4A
:1047C300007B1C122617740412091C743A022E7CF7
:1047D30074F51203F5EAFEEBFF8E828F83A3E0F8F4
:1047E3006003024872EE242D12452E64026007E036
:1047F3006403600278E8EE2423F582E43FF5831234
:104803002E86400478E8806AE87064EE2423FAE494
:104813003FFB79E1120DF9EE242EFAE43FFB7950C8
:10482300120DF9EE242D12452E6402700E125987D3
:104833001259BD9005AA124EA680129005AA74FEC5
:10484300F0A3041248897AA17B0512129DEE241865
:10485300123C9F1208EA7C0B7D007A127B1C12101B
:10486300CF740312091CEEFAEFFB122461E9F8E896
:104873006011E88E828F83A3125BE9741712489844
:104883001224FD026359F0EE2425FCE43FFD228E41
:10489300828F837429F0EEFAEFFB2274F61203F58C
:1048A30074F71209B4901C1DE0703B7401F0F91207
:1048B3000EEFAA18AB1912252D75081275091C786D
:1048C300081208EE75080175090078081208EE90C1
:1048D30005B012075674061209AC7A03790512253E
:1048E30051740612091C025CF674F71203F5EAFE12
:1048F300EBFF7901120EF58E828F83E06420700442
:10490300A374EBF0901C1DE0A2E25003C2E2F0E0BE
:10491300A2E15008124B3612245B800C8E828F83E7
:10492300742A1248981224FD8007EEFAEFFB122531
:10493300997F0102065374F41203F574FE1209B44D
:10494300EAFEEBFF7901120EF57A007B1C12262397
:104953007A097B1C122623124C80851882851983C1
:10496300124CB4E0F50B700FAA18AB197953120D62
:10497300F91263E6120DF9123C9C1208EA7C0B7DD6
:10498300007A127B1C1210CF740312091C85188243
:104993008519831251BBA90B122455901C1DE0A24B
:1049A300E1500C7A008E828F83A3E0F912245B908E
:1049B3001C1DE4F07402022E7C74F71203F5EAFE68
:1049C300EBFF8E828F83A374EBF0901C1DE0A2E1BA
:1049D30050077A0079EB12245BEEFAEFFB12249175
:1049E30002493474F71203F5EAFEEBFF7901120E64
:1049F300F57A007B1C1226237A097B1C122623904E
:104A03001C1AE4F0901C1DF07AFF7BFF8E828F83CB
:104A1300A3E0F912245502493474F71203F5EAFEB0
:104A2300EBFF12248B02492D74F71203F5EAFEEB18
:104A3300FF7901120EF58E828F83A3A3A3A3E060F7
:104A4300047400800274EB124A7D5003C2E2F0E06A
:104A5300A2E15008124B7F12245B8014A2E0501095
:104A63008E828F83742AF0A374EB1248981224FD6C
:104A7300EEFAEFFB12243D0249348E828F83A3F0BA
:104A8300901C1DE0A2E22274F61203F5EAFEEBFF8E
:104A9300901C1DE0D2E1F07901120EEF8E828F831C
:104AA300A3E0703C122533E9FAEE240DF508E43F48
:104AB300F50978081208EE750801750900780812DF
:104AC30008EE124AF4120756EE2402FCE43FFD7985
:104AD30005122551740612091CE98E828F83A3F0F7
:104AE3008E828F83A3E060067A00F912245B025C56
:104AF300FB124AF822EE240BF582E43FF58322747D
:104B0300F71203F5EAFEEBFF7901120EF58E828FA1
:104B130083E064207004A374EBF0901C1DE0A2E218
:104B23005003C2E2F0E0A2E15006124B3612245BBE
:104B3300024934C2E1F07A008E828F83A3E0F92226
:104B430074F71203F5EAFEEBFF7901120EF57A0012
:104B53007B1C1226238E828F83A3A3A3A3E060046E
:104B63007400800274EB124A7D5003C2E2F0E0A2AB
:104B7300E15006124B7F12245B024A73C2E11239E1
:104B8300E7A3E0A2E4E433FA8E828F83A3E0F92261
:104B930074F71203F5EAFEEBFF7901120EF58E822C
:104BA3008F83A374EB124A825003C2E2F0E0A2E1C6
:104BB3005006124B3612245B02493474F71203F584
:104BC300EAFEEBFF7A007B1C122623EEFAEFFB12C0
:104BD30024B502492D74F71203F5EAFEEBFF7A00C0
:104BE3007B1C122623EEFAEFFB1224B50249347420
:104BF300F71203F574EF1209B4EAFEEBFF125991B1
:104C03007AA17B0512128BE960628518828519836C
:104C13007409F07401120BF474EFF0124C80F87401
:104C230002120BF4E8124CB4A3A3E0C0E074041224
:104C33000BF4D0E0124CA1640870158E828F83A30D
:104C4300A3124C74E0C0E07405120BF4D0E08006AC
:104C53007405120BF4E41259F07406120BF4AA82D1
:104C6300AB83122563AA18AB191219B77411023852
:104C7300801259CE2407F582E438F58322124C962C
:104C8300FB8A828B831259C188828983E0FCA3E06B
:104C9300F9EC22EE2402F8E43FF9E8FAE922124C97
:104CA300A522124CAAE022F08E828F83A3A3A3A392
:104CB30022F0A3E91259DF124CBE22E0F8A3125DE1
:104CC300C2A3A322C082C0831225A502467AC08252
:104CD300C083901C3A74DAF0A3741BF0A374F6F04B
:104CE300A3741BF0901D867476F0A3742AF0A3744A
:104CF30014F0A3742AF0901C26744FF0A37424F0CC
:104D0300901C23E04401023D02C082C083EAFCEB15
:104D1300FD790212250902467AC082C08379060210
:104D23005E8C74F61203F574FE1209B4901C1F1204
:104D33004F4E60077A1F7B1C122521901C25E4F03F
:104D43009018A0124F4E60268007AA18AB1912259F
:104D530021901C1EE0F91211118A088B09A808A9D9
:104D630009851882851983124EA6E84970DC7402FE
:104D7300025CF874F71203F5E9FA7B00901C1EE05D
:104D8300F912113B02493474F71203F574F0120956
:104D9300B4EAFCEBFDE9FE8C828D83E0F874FE122D
:104DA3004E97342DF583E493C0E07401120BF4D0D5
:104DB300E0F0640B700DEE8C828D83A3F0122587D7
:104DC300024E8AE07003024E8A640C6003024E7B3B
:104DD300741A6E700B7404120BF4E4F0A3024E7A8F
:104DE3007404120BF4ECF0A3EDF0EC242F124E8FAD
:104DF300C0E07403120BF4D0E0125F52120BAD74D7
:104E030006120BF4120BA18C828D831259B4740A0F
:104E1300120BF4124EA6EC240E124E8F541060099E
:104E2300851882851983E48013EC2412124E8FF8BF
:104E33009005BDE0C398851882851983F0E0C0E032
:104E4300740C120BF4D0E0F0EC2415124E8FC0E07A
:104E5300740D120BF4D0E0F0EC2416124E8FC0E068
:104E6300740E120BF4D0E0F0EC2417124E8FC0E056
:104E7300740F120BF4D0E0F07402120BF4EEF07422
:104E8300011209A41219B77410023880F582E43DA7
:104E9300F583E02228F582E422F8E43BF98A828B49
:104EA30083A3A3E8F0A3E9F022C082C083901C256A
:104EB300E06403700479018002790002467A74F792
:104EC3001203F5901C25E0124F3812681D8A828B5D
:104ED30083E0C2E7F025E0F8EC124E973DF583A39B
:104EE300E493FE124F38F583124F4E6005EE901C8B
:104EF30025F08A828B83E0124F44EC28F582ED394A
:104F0300F583E493FCC4540F25E0F87434124E97F0
:104F1300341CF583124F4E70051225758014EC5422
:104F23000F25E0FCE82CF582E439F5831244A9123D
:104F3300056D024934124F44748428F582741D3977
:104F43002225E0F8E433F922901BC81259C1E8493D
:104F53002274F11203F574FE1209B4890AEAFEEB16
:104F6300FF125050FA7B001210F98A088B09EA45A8
:104F73000960388A828B83E50AF0A3E4F08E0C8FF4
:104F83000DF50E780C1208EAA80A12505DEA240205
:104F9300FAE43509FB1210CF740312091CAA08ABFB
:104FA30009901C1EE0F912110580128518828519DB
:104FB30083E50AF0791AAA18AB191224F1740212C4
:104FC300091C0230EC74F21203F574FE1209B48961
:104FD3000B8A088B09125050F50AFA7B001210F95C
:104FE3008A0C8B0DAE0CAF0DEE4F604A8E828F8311
:104FF300E50BF0A3E4F0A80AEE28F8E43FF98E826B
:105003008F83124EA48E828F83A3A3A3A3E4F0F510
:105013000A78081208EAA80B12505D1233FF121027
:10502300CF740312091CEEFAEFFB901C1EE0F91279
:10503300110579008014851882851983E50BF079B1
:105043001AAA18AB191224F1791A02391274C72952
:10505300F582E4342DF583E4932274DD28F582E4AC
:10506300342DF583E493FC7D0022C082C083E99054
:105073001C1E023D0274F61203F574FE1209B4EA13
:10508300FEEBFFEE542070378040A8A8C2AF901B00
:10509300C7E0141251B1F508E8A2E792AF8A828BF8
:1050A300831251A8901C211251CB1224FD85188222
:1050B300851983E0641560077A217B1C1225217A08
:1050C300C17B1B121123EA4B70C0EF548070128016
:1050D3001C901C211251CB1224FD7A217B1C12251A
:1050E30021901C1EE0F9121111EA4B70E4EE5410EA
:1050F300600E851882851983742D12470B1224FDC7
:10510300EEA2E0500E851882851983742412470B92
:105113001224FDEE5402600E8518828519837425CE
:1051230012470B1224FDEE5404600E851882851974
:1051330083742612470B1224FDEE5408600E851863
:1051430082851983742812470B1224FDEE544060A4
:10515300107401120BF41261B3742C12470B122456
:10516300FDEE548060107401120BF41261B3742FBE
:1051730012470B1224FD901C1F124F4E6020A8A84B
:10518300C2AF901C1F1251BB901C1FE4F0A312511D
:10519300D11251CA1224FD7A217B1C1225217A00D7
:1051A3007B00024D71E0851882851983F022F0E8B7
:1051B300A2E7E43322901BA61251BF22E0FAA3E038
:1051C300FB22A3A3A3A3A3A3EAF0A3EBF022125110
:1051D300B1FEE8A2E792AF22C082C083901C2112E5
:1051E30059BDEA687002EB697007901C21E4F0A3D3
:1051F300F002467A74F71203F5EAFEEBFFEE4F7006
:105203000312264DA2AFE433F508C2AF8E828F831B
:10521300124F4E6028E824FBFAE934FFFB901C216F
:1052230012681FE86C7002E96D7007901C21E4F0AE
:10523300A3F08E828F83E4F0A3F01211AD0236D176
:10524300C082C083901C487469F0A37425F0A374D2
:105253007BF0A37425F0A37481F0A37425F0A374E9
:1052630037F0A37424F0A37487F0A37425F0A37418
:1052730031F0A37424F0A3743DF0A37424F0901CC4
:105283005674B7F0A37425F0A3748DF0A37425F0BE
:10529300A37493F0A37425F0A3749FF0A37425F073
:1052A300A37499F0A37425F0901C47023D01C082BA
:1052B300C0839005AAE064FE7003A3E0F470097C48
:1052C300A17D0512129180158A828B83A3A3A3A3C8
:1052D300A3A3A3A37402F0125433124EA602467A78
:1052E300C082C0839005B4C3E094FEA3E094FF4062
:1052F3000479038002790202467AC082C083125481
:105303003E8C828D831253F3687039740268701C6B
:105313008A828B8312534CE06870298A828B83A321
:1053230012534CA3E068701C7901801A74036870EF
:1053330013EC2405FC50010DEA2405FA50010B126D
:1053430012978002790002467AA3A3A3A3A3E0F8ED
:105353008C828D83A3A3A3A3A32274F61203F57EE9
:1053630000740A120BF4E01253E7FF8A828B83A3C3
:10537300A3A3A3A3A3A3A3E06F706474026F704EEF
:105383008A828B83C082C08388828983A3A3A3A3D9
:10539300A3E0F50888828983A3A3A3A3A3A3E0FBC7
:1053A300AA08D083D082E06A7003A3E06B703088D0
:1053B300828983A3A3A3E0FA88828983A3A3A3A3F7
:1053C300E0F9EA6C7002E96D70157E0180117403D7
:1053D3006F700CE82405FCE439FD121297E9FEEE28
:1053E300F9025CFBF8A3E0F9888289831253F32264
:1053F300A3E01313543F540322C082C0838A828BD9
:1054030083A3A3A3A3A3A3A3A3E0640270141254CE
:1054130033E0687003A3E06970047901800F7900B9
:10542300800BEAFCEBFD7AA17B0512128B02467A14
:105433009005AA1259C18A828B83228A828B831296
:1054430053F3F82274EC1203F5EAFEEBFF8C128D92
:1054530013750A008C828D83A3A3A3A3A3A3A3A381
:10546300E0F510E9A2E75008750CFF750DFF800603
:105473009005B0125683E9C2E7F511EE240E1245EA
:105483002E5420600712566474088004125664E494
:1054930012568B5404600712566C748080051256A2
:1054A3006C741012568B5410600612563CE4800B39
:1054B3009005BDE0C0E012563CD0E012568BA2E04E
:1054C3005003750A20540860067410450AF50A8EC5
:1054D300828F83A3A3E024FFF508A3E0124527C32B
:1054E3009402E0400B640B6005E01412340F740364
:1054F300450AF50A750B009005D0E0640170118E22
:10550300828F83A3A3A3A3E0C394674003750B1007
:1055130085110E750F00740E780E120A81E50F4582
:105523000BF50B7414120BF4E0F50EA3E0F50F74F6
:10553300026511700E9005B512340E9005B4125623
:105543007A80137403651170121256467CC47D056C
:10555300AA08FB12129D1256538004E5116028E538
:10556300106014E50E650C7004E50F650D7008748A
:1055730040450AF50A8010850882850983E50D12E6
:105583005691E50C12341585100C750D00740A78CC
:105593000C120A81E50D450BF50B740265107015AD
:1055A300851282851383A312340E85128285138399
:1055B30012567A8013740365107012125646AC1299
:1055C300AD13AA08FB12129D1256538004E5106016
:1055D30010850882850983E50F125691E50E123472
:1055E30015A808A909E824FFF508E912452770055D
:1055F3009005A080039005ACE0FA04F0EA88828964
:1056030083124405E50B125691E50AF0EE2404F8E3
:10561300E43FF91230FBAC088A828B83E0F50A88F9
:10562300828983E0250AC39C1259DBECF0A3E509C8
:10563300125B57E4F0F9022E60EE2412F582E43F88
:10564300F58322E50824F9F508E50934FFF5092275
:1056530012565722E50824FFF508E50934FFF5093A
:1056630022EE1242E73FF5832212567022EE2411F6
:10567300F582E43FF58322E0850882850983F022E1
:10568300E0F50CA3E0F50D22F012449CE022123465
:1056930019850882F5832274EE1203F5890A8A0BB1
:1056A3008C108D11750C1A7416120BF41263F2AA76
:1056B30008FB1223D78A0E8B0FAE0EAF0FEE4F608F
:1056C300607414120BF412572BE8F0A3E912301193
:1056D300E50AF085080C85090D750E00780C120893
:1056E300EA1233FB1210CF740312091C7412120B4B
:1056F300F4120756AC10AD11A90BEEFAEFFB12250D
:105703004B740212091CE9F50C7016E50A24F960C2
:1057130003147006123482D2E5F0EEFAEFFB122482
:105723002BA90C7F0A020653125DD012449D2274EA
:10573300F61203F574F71209B4EAFEEBFF7801EEF3
:10574300242F12452E60027805124498E812300E79
:10575300740412578B121291EE242C122FDC242E78
:105763001257981208EE74021209AC79031A1AEF51
:10577300FB12254B740212091CE9F5087007EEFAB7
:10578300EFFB12242B025CF4F0EE2423FCE43FFD38
:10579300AA18AB1922F582E43FF583123126124C85
:1057A300A504F078082274F21203F58A088B09EC39
:1057B300FEEDFF8A828B837405F0EE243212452EB0
:1057C3008A828B83A3A3F0EA2403F50AE43509F55F
:1057D3000B850A82F583125683125987120BADE5A6
:1057E3000C1242BD350DF583120BA1125991AA0C6F
:1057F300AB0D121291850A82850B83125DC8FAA341
:10580300E0FB88828983A3A3A31251C5EE242F1240
:10581300452EC0E01259A6D0E01259E52415F582B1
:10582300E438F583E41259E5125999E41259F085E5
:105833000A82850B83E02416FAA3E03400FB1225C9
:10584300638E828F83A3A3A3A3A3A3A3E0C0E08556
:105853000A82850B831259CA240DF582E438F58335
:10586300D0E01259D4FAA3E0FB850A82850B831298
:1058730059BDE8240BFCE439FD8A828B83E08C82DA
:105883008D83F0A3E41259FDE0F50B8C828D83A385
:10589300E0450B1259DBA3E0FCA30A0AAB83A2E7A2
:1058A300E433C0E0E8240FF582E439F583D0E0F077
:1058B30074075C600478018002780075F003740754
:1058C3005CA428F8EA28FAE43BFBE5082405F8E49D
:1058D3003509F98A828B831231261259FD85088294
:1058E3008509831251C588828983E0F50A54072507
:1058F300E0FCE50AC4540F5407F50A750B00740362
:10590300780A120A81EC250AF8EA28F8E43BF985BB
:105913000882850983A3A3A3A3A3A3A3A3A3E8F056
:10592300A3E9124CA1FA8E828F83A3A3E02AFAA3E0
:10593300E03400FBC3EA98EB9940308E828F83A357
:10594300A3E0F8850882850983A3A3A3A3A3A3A344
:10595300A3A3E0FA8E828F83A3A3A3A3E0C39A2811
:10596300850882850983A3A3A380108508828509FE
:1059730083A3A3A3A3A3A3A3124403A3A3A3A3A3A4
:10598300F0023917EE2425F582E43FF58322EE2455
:1059930013FCE43FFD2212599D22240EF582E438C4
:1059A300F583221259AA22E82410F582E439F583FB
:1059B30022A3A3A3A3A3A3A3A3A31259C122E0F8E1
:1059C300A3E0F922901BC81259CE22E0F8A3E0C845
:1059D30022125BE9A3A3E0221259DF22F08A828B11
:1059E3008322F0850A82850B831259CE22F0125945
:1059F300F522EE2408FCE43FFD221259DFA3AA821C
:105A0300AB832274F51203F58C088D09750A0078AF
:105A1300081208EA7C0B7D000263510208CEC082A3
:105A2300C08379181224F102467AC082C0838A8225
:105A33008B83E0C3940B500312256F02467AC08216
:105A4300C083791980DE74F71203F5EAFEEBFF9049
:105A53001C1F124F4E6010901C1F1251BB12257B4E
:105A63007A1F7B1C122521EEFAEFFB12251B901CDB
:105A73001FEEF0A3EF8002F0A3F002493474F71293
:105A830003F574DE1209B4EAFEEBFF8E828F83E026
:105A930024FD601124FE601524ED600924FA600DD5
:105AA30014600A803D7416120BF4E4800774161216
:105AB3000BF47401F01240BF740B120BF4AA82AB07
:105AC3008312129D7413120BF4125B5C120BF4120B
:105AD3004EA6740A120BF4125B68120BF4124EA654
:105AE30080427416120BF47402F0125991740B1263
:105AF3000BF4AA82AB8312129D7413120BF4125B84
:105B03005C120BF4124EA6740A120BF4125B6812A9
:105B13000BF4122FF01259F67417120BF4AA82AB7E
:105B230083122563851882851983740B125B57E0F2
