:020000040000FA
:06000000020B5702024A48
:03002B0002093790
:030033000206BF03
:03004300020805AB
:0300530002017F28
:03006B00020699F1
:100083000201DE010020FD00020000970F000000C6
:1000930000000039100000F70F00007F0F00000080
:1000A300000000000000000000000000000000004D
:1000B300000000000006FFFF060008B8180000005B
:1000C3000160EA00005357353A2048656C702020E0
:1000D3002020202020003B14471400004D1453140B
:1000E30000000000000000000000010000000020EC
:1000F300202020202020202020202020202020011C
:10010300080401000100026A82026E8201010104F7
:10011300000419000000E8030000FFFFD019E80302
:10012300000064006400B801A0BB0D00A0BB0D007B
:10013300020200F8FF0705021E0401051E02051E48
:10014300020A0A010108080103102702803E010286
:10015300FEFFE8030A050001FFFF010A1401E001A5
:100163000105030101FF0F10FEFFC62A0000000076
:100173009A2900000000FF000000FF00C0E074F1B6
:10018300120461A2AFE433F509D2AF85A708AFA18A
:10019300EF5508FE74105E6006120D1575A1EF741D
:1001A300085E6008120D1B75A1F78024EFA2E09290
:1001B300F0E508A2E082F05017906198E0F890050E
:1001C30083E0C398A2D265D0335002E8F075A1FE54
:1001D300E509A2E092AF7F020204C0C0E074F2120C
:1001E3000461A2AFE433FED2AF9061A4E0F8759B43
:1001F30000E59158540860087591F7120D63802348
:10020300E59158541060087591EF120D698014E55B
:1002130091A2E092F0E8A2E082F05007E0C2E0F0A1
:10022300120EB39061A3E0F8E5E9585404600E128E
:100233000E8975E9FB906193E0A2E640F2EEA2E03D
:1002430092AF7F010204C0C0E074F2120461A2AF56
:10025300E433FED2AF9061A5E0F8E5BF58540460E3
:100263000675BFFB120ECB80D4C3E498F8E499F96A
:100273001202AD8026C3E49AFAE49BFBE920E7E986
:100283001202ADE498F8E499F922C3E498F8E499EA
:10029300F91202ADE498F8E499F9C3E49AFAE49BFD
:1002A300FB22EB20E7CFE920E7E0B90010BB000811
:1002B300E88AF084F8AAF022E4FBC8FA22EB702261
:1002C3007B10C833C8C933C9335007C39AC3DBF2A1
:1002D30080069A50012ADBEAC833F4C8C933F4C94B
:1002E300FA2275F008E4C833C8C933C933C99AC9B7
:1002F3009B5004C92AC93BD5F0ECFBC833F4C8E4CE
:10030300C9FA22080808EAC0E0EBC0E086F0E7A4D7
:10031300FA180986F0E7A42AFA180986F0E7A42A4E
:10032300FA180986F0E7A42AFA1986F0E7A4FBE590
:10033300F02AFA190886F0E7A42BFBE5F03AFA193C
:100343000886F0E7A42BFBE5F03AFA18180986F0C3
:10035300E7A4C5F02BFBE43AFA1908E7C5F0C6A4F5
:1003630026F6E5F03BFBE43AFA1886F0E7A4F6E557
:10037300F00826F6E43B08F6E43A08F6D0E0FBD0B2
:10038300E0FA22E4CFC0E0E4CEC0E0E4CDC0E0E494
:10039300CCC0E075F020E626F608E633F608E6332F
:1003A300F608E633F6181818EC33FCED33FDEE339C
:1003B300FEEF33FFC3EC9709ED9709EE9709EF972B
:1003C300191919400FFFEC97FC09ED97FD09EE97FA
:1003D300FE191906D5F0BFECF709EDF709EEF70999
:1003E300EFF7191919D0E0FCD0E0FDD0E0FED0E022
:1003F300FF222518C582C0E0E51934FFC583C0E09C
:10040300E518C3958224F810AF08858319858218EF
:100413008008858319858218D2AFCEF0A3E520F03A
:10042300A37808E608F0A3DEFAEFF0A3E58124FA47
:10043300F8E608F0A3E608F0A3E608F0A30808E648
:1004430008F0A3E608F0A315811581D0E0FED0E003
:10045300F8158115811581E8C0E0EEC0E022C0D017
:100463002518C582C0E0E51934FFC583C0E0E5184F
:10047300C3958224F310AF088583198582188008F9
:10048300858319858218D2AFC8F0A3E9F0A3EAF0F7
:10049300A3EBF0A37908E709F0A3D8FAECF0A3EDF6
:1004A300F0A3EEF0A3EFF0A3D0E0F0A3D0E0F0A32D
:1004B300D0E0F0A3E520F0A3E5F0F0A322851983B3
:1004C300851882E0C0E0A3E0F9A3E0FAA3E0FBA370
:1004D3007808E0F608A3DFFAE0FCA3E0FDA3E0FE62
:1004E300A3E0FFA3E0C0E0A3E0C0E0A3E0F5D0A356
:1004F300E0F520A3E0A3F5F010AF0885831985820A
:10050300188008858319858218D2AFD082D083D012
:10051300E0F8D0E032120BE9B90003020557E4908A
:100523000301789B791A8002F0A3D8FCD9FA7A9B4D
:100533007B1C90008678FA79018015E493A3AD8241
:10054300AE838A828B83F0A3AA82AB838D828E8350
:10055300D8E9D9E775823E7583EA74051208C87530
:10056300829D75832774001208C8E4730975F0101F
:100573008E1A8F1B85821F85831E8518828519839A
:10058300E0CEA3E0CF851F82851E83EBC9EAC8EDC9
:10059300CBECCAC3E833C8E933C9EA33CAEB33CB7C
:1005A300C3EA9EF51DEB9FF51CB35004AB1CAA1DBB
:1005B300EC33CCED33CDD5F0DAAE1AAF1B22D083BA
:1005C300D082ECC0E0EDC0E0E493A3FCE493A3FD90
:1005D300ED4C600D1206DDEC24FFFCED34FFFD80D5
:1005E300EFE493A3FCE493A3FDED4C600D1207B07D
:1005F300EC24FFFCED34FFFD80EFD0E0FDD0E0FC08
:10060300E493A3C0E0E493C0E022D083D082E9C0A6
:10061300E0E493A3C386F0C5F095F0F908E493A34F
:1006230086F0C5F095F0700BE493A3C3994005E9F8
:10063300048002A3E475F002A42582F582E5F03577
:1006430083F583D0E0F9E493A3C0E0E493C0E02210
:10065300851983851882E0A3FEE0A3F5207808E0DE
:10066300A3F608DFFAE0A3FFE0A3C0E0E0A3C0E045
:10067300E0A3C0E0E0A3C0E0E0A3C0E010AF0885C2
:1006830082188583198008858218858319D2AFD093
:1006930083D0820208CEC0E074F2120461A2AFE4F8
:1006A30033FED2AFE589A2E150031226CB75890050
:1006B300C2C5EEA2E092AF7F010204C0C0E074F2B3
:1006C300120461A2AFE433FED2AFE58BA2E0500384
:1006D3001226CB758B00C2E880D8C0E0C3E49396A2
:1006E300087401939618400FE49366700808740128
:1006F30093661870007019A3A3C3E493960874015A
:10070300939618A3A3400DD0E0D0E0D0E00205FDFE
:10071300A3A3A3A3A3A3D0E022D083D082C5F0E4F4
:1007230093A3C5F0C395F0F5F0E493A3C395F0400C
:1007330005E5F0048001E475F002A42582F582E565
:10074300F03583F583E493A3C0E0E493C0E022741F
:1007530004800474028000CCC0E0EDC0E0E518C35F
:100763009CCCAD1950011D10AF068C188D19800655
:100773008C188D19D2AF12084AD0E0FDD0E0FC22CC
:1007830074028000CCC0E0EDC0E0E518C39CCCADA2
:100793001950011D10AF068C188D1980068C188D09
:1007A30019D2AF120828D0E0FDD0E0FC22C0E0C08F
:1007B300F088F0E49366700808740193661870007B
:1007C300A8F0A3A3700BD0F0D0E0D0E0D0E00205F6
:1007D300FDA3A3D0F0D0E022D083D082CCC0E0E44C
:1007E30093A3600612088A1470FAE493A3600612B6
:1007F30009CA1470FAD0E0FCE493A3C0E0E493C008
:10080300E022C0E074F2120461A2AFE433FED2AF7F
:10081300C2C0E5D1A2E45003120C85EEA2E092AF70
:100823007F010204C0CAC0E0E493A3C582CCC582A1
:10083300C583CDC583F0A3C582CCC582C583CDC591
:1008430083DAE5D0E0CA22CAC0E0E0A3C582CCC502
:1008530082C583CDC583F0A3C582CCC582C583CDB4
:10086300C583DAE6D0E0CA22C008C3E096F50808DB
:10087300A3E096420808A3E096420808A3E0964541
:10088300087001D3D00822C0E0E493A3D39C501096
:10089300E493A3C39C400AD0E0D0E0D0E00207F881
:1008A300A3A3A3D0E0227009080808226016181831
:1008B30018C6C333C608C633C608C633C608C6330C
:1008C300C6D5E0EA22C09FF59FE473D09F22D08370
:1008D300D082C09FE493C0E0740193C0E07402939C
:1008E300F59F227404800A740380067402800274E4
:1008F30001C0E0F404120901D0E0120B9422251880
:10090300F58210AF08F518400C15198008F518404A
:10091300021519D2AF8519832200C0D0251810AF54
:1009230008F518500C05198008F51850020519D25E
:10093300AFD0D022C0E0C0D0E8C0E0A8A8D2AFC2F8
:10094300C7E8A2E792AFD0E0F8D0D0D0E032BB0145
:1009530002E722C082C08389828A83BB0003E080CE
:1009630002E493D083D082226016080808C6C3131A
:10097300C618C613C618C613C618C613C6D5E0EAEA
:1009830022C3E0C696F608A3E0C696F608A3E0C61F
:1009930096F608A3E0C696F6222518F8E43519F969
:1009A300222518FAE43519FB222518FCE43519FD34
:1009B30022251810AF08F518400C15198008F518F2
:1009C30040021519D2AF22C0E0E493A36C7009D0A2
:1009D300E0D0E0D0E00207F8A3A3D0E022E0667005
:1009E3001008A3E066700A08A3E066700408A3E099
:1009F3006622E76670100809E766700A0809E76669
:100A030070040809E76622C3E09608A3E09608A3EA
:100A1300E09608A3E096A2D265D03322C3E096F015
:100A230008A3E096F008A3E096F008A3E096F0226E
:100A3300C3E697F60809E697F60809E697F6080964
:100A4300E697F622C3E4939608740193960874021A
:100A53009396087403939622E627F60809E637F679
:100A63000809E637F60809E637F622E026F608A372
:100A7300E036F608A3E036F608A3E036F622700463
:100A830022600D18C6C333C608C633C6D5E0F418B2
:100A930022E493F608740193F608740293F608743B
:100AA3000393F622E657F60809E657F60809E657D0
:100AB300F60809E657F622E056F608A3E056F608CC
:100AC300A3E056F608A3E056F622E056F008A3E0AA
:100AD30056F008A3E056F008A3E056F022E026F013
:100AE30008A3E036F008A3E036F008A3E036F022CE
:100AF300E647F60809E647F60809E647F60809E671
:100B030047F622E4C396F608E496F608E496F60858
:100B1300E496F622600D08C6A2E713C618C613C6EC
:100B2300D5E0F322C6F4C608C6F4C608C6F4C60860
:100B3300C6F4C622C3E7960809E7960809E79608AC
:100B430009E79622C3E09608A3E09608A3E0960877
:100B5300A3E0962275D00075813F751801751903BE
:100B630000020518E6F008A3E6F008A3E6F008A3E0
:100B7300E6F022600C08C6C313C618C613C6D5E038
:100B8300F422E0F608A3E0F608A3E0F608A3E0F6F3
:100B930022CAC0E0E6F0A308DAFAD0E0FA22E8F0CD
:100BA300A3E9F0A3EAF0A3EBF022E0F8A3E0F9A3B2
:100BB300E0FAA3E0FB22ECF0A3EDF0A3EEF0A3EF49
:100BC300F022E0FCA3E0FDA3E0FEA3E0FF22EAF0B5
:100BD300A3EBF0A3ECF0A3EDF022E0FAA3E0FBA378
:100BE300E0FCA3E0FD22E5C754F84401F5C7790111
:100BF300222518F582E43519F58322C2AF75D69FF5
:100C0300020000221208D16BD4051208D1DFD405EB
:100C13001208D1F9D4051208D110D5051208D11E36
:100C2300D5051208D136D5051208D14BD5051208C2
:100C3300D170D5051208D1C0D5051208D1B5DD058F
:100C43001208D1C3DD051208D13CDE051208D1100C
:100C5300DF051208D1E2E0051208D13B870612082E
:100C6300D19DB4051208D10AB5051208D1C2B50544
:100C73001208D138B6051208D151B7051208D1DCD4
:100C8300B8051208D145B9051208D194B90512085F
:100C9300D19DB9051208D1ACB9051208D1C2B90565
:100CA3001208D1D5B9051208D1DEB9051208D1F160
:100CB300B9051208D11DBA051208D18EBC05120858
:100CC300D1CEBC051208D10EBD051208D122BD0537
:100CD3001208D13BBD051208D12CBE051208D1D193
:100CE300BE051208D1E5BE051208D1E2FA051208C5
:100CF300D106FB051208D11FFB051208D151FB05D4
:100D03001208D181FB051208D1AEFB051208D110E0
:100D1300FC051208D11FFC051208D129FC05120895
:100D2300D136FC051208D1A8E7051208D1C8E7059A
:100D33001208D107E8051208D122E8051208D141AB
:100D4300E8051208D1A7E8051208D1B0E805120892
:100D5300D10DE9051208D131E9051208D1F2E905EF
:100D63001208D1FFE9051208D110EA051208D17261
:100D730085061208D18A85061208D1B6850612089F
:100D8300D1FBC8051208D155CA051208D163CA059B
:100D93001208D176CA051208D18BCA051208D1A050
:100DA300CA051208D1B3CA051208D127CB05120808
:100DB300D18CCB051208D12ECC051208D1F2CC056B
:100DC3001208D102CD051208D111CD051208D13C6C
:100DD30084061208D16084061208D188840612089A
:100DE300D1B084061208D1DAF3051208D101F40553
:100DF3001208D11FF4051208D192F4051208D1D5B7
:100E0300E4051208D1EEE4051208D1FAE40512084C
:100E1300D10EE5051208D12CE5051208D136E505FA
:100E23001208D140E5051208D153E5051208D1D9BE
:100E3300E5051208D14EE6051208D17DE605120834
:100E4300D1CBE6051208D11AE7051208D135E7051B
:100E53001208D13FE7051208D150E7051208D193D4
:100E6300E7051208D1AC86061208D132AB05120889
:100E7300D15CAB051208D179AB051208D18CAB0557
:100E83001208D1A2AB051208D100AC051208D13863
:100E9300AC051208D12CB0051208D171B1051208A6
:100EA300D1A4B1051208D107B2051208D171B30557
:100EB3001208D199B3051208D1AEB3051208D1BEF9
:100EC300B3051208D102B4051208D15DB4051208A6
:100ED300D16DB4051208D10080061208D11A80061C
:100EE3001208D14280061208D15B80061208D17F16
:100EF30080061208D19D80061208D1B4800612081C
:100F0300D1E280061208D1FD80061208D1F78606C9
:100F13001208D147E1051208D157E1051208D15E45
:100F2300E2051208D192E2051208D1B4E2051208D3
:100F3300D1D7E2051208D1F5E2051208D12FE30556
:100F43001208D194E3051208D1D6E3051208D1158E
:100F5300E4051208D146E4051208D17DE405120820
:100F6300D1C8FE051208D1E6FE051208D14BFF05D4
:100F73001208D1EAFF051208D14583061208D130C1
:100F830081061208D17681061208D1C8F705120826
:100F9300D107F9051208D18F8C051208D16190058C
:100FA3001208D15092051208D17E93051208D15B25
:100FB30094051208D1DD95051208D1AD96051208E6
:100FC300D10197051208D1FDF5051208D11EF605CA
:100FD3001208D150F7051208D17AF7051208D1D3B8
:100FE300EC051208D148ED051208D153ED0512089E
:100FF300D174ED051208D18DF0011208D117F50156
:101003001208D180F6011208D137F8011208D1BFB6
:10101300F8011208D156F9011208D115FA01120884
:10102300D109FB011208D121FC011208D14FFD01A6
:101033001208D172E4041208D175E4041208D15ADB
:10104300EB041208D194EC041208D1E5ED04120864
:10105300D19BEE041208D186EF041208D169F00483
:101063001208D165F1041208D117F2041208D1470E
:10107300F2041208D103F4041208D15BEF0512083D
:10108300D17BEF051208D18EF0051208D176F10558
:101093001208D140FC051208D176FC051208D19044
:1010A300FC051208D1D2FC051208D1E2FC05120896
:1010B300D17CFD051208D186FD051208D19FA1053B
:1010C3001208D1A9A1051208D1E3A1051208D14C38
:1010D300A2051208D169A2051208D182A20512083D
:1010E300D124A3051208D1A3A5051208D1ACA505E7
:1010F3001208D1F1A5051208D11AA6051208D127A5
:10110300A6051208D198A6051208D123A70512082F
:10111300D171A7051208D1AFA7051208D114A805EC
:101123001208D137A8051208D1AEA8051208D105B7
:10113300A9051208D140A9051208D175A9051208FD
:10114300D187A9051208D199A9051208D1B8A90513
:101153001208D1C1A9051208D17CAA051208D1C869
:10116300AA051208D106AB051208D1F0C30512086F
:10117300D130C5051208D153C5051208D164C50580
:101183001208D163C7051208D183C7051208D1A479
:10119300F1051208D1DAF1051208D122F20512087D
:1011A300D17BF3051208D14E68001208D172690091
:1011B3001208D1AC69001208D1566B001208D18015
:1011C3006B001208D1F56D001208D1356E001208BC
:1011D300D1CB6F001208D16870001208D1BA700029
:1011E3001208D15D71001208D19571001208D1D790
:1011F30071001208D14673001208D19474001208CA
:10120300D1C576001208D1F376001208D11A7700FF
:101213001208D12377001208D17377001208D10581
:1012230078001208D1347B001208D1B77B00120872
:10123300D1DAFF021208D1F0FF021208D14F86065D
:101243001208D1F5D5051208D10BD6051208D1AF76
:10125300D6051208D1EED6051208D10BD705120810
:10126300D13CD7051208D189D7051208D1BCD705BF
:101273001208D1F7D7051208D1ECD9051208D145C8
:1012830082061208D1A482061208D1E2820612084D
:10129300D12383061208D10080041208D10C8004E4
:1012A3001208D16E80041208D17880041208D10785
:1012B30081041208D14381041208D1F88104120871
:1012C300D10582041208D16882041208D1B58204C0
:1012D3001208D16183041208D1DA83041208D18B76
:1012E30085041208D1D287041208D1188904120880
:1012F300D16C8A041208D1FD8A041208D13C8C04F3
:101303001208D13D8D041208D1898E041208D153DD
:1013130093041208D13C94041208D1CF9404120808
:10132300D1F494041208D11995041208D1B195048B
:101333001208D1C795041208D12D96041208D14979
:1013430096041208D17596041208D18697041208E0
:10135300D15898041208D1D399041208D1F49904EE
:101363001208D1779A041208D11D9B041208D16583
:101373009B041208D1DB9B041208D1379C0412088A
:10138300D1C89C041208D1219E041208D1649F0481
:101393001208D1EF9F041208D152A0041208D19C65
:1013A300A2041208D134A4041208D144A4041208DC
:1013B300D178A4041208D1EDA4041208D127A504FE
:1013C3001208D195A5041208D12AA6041208D12A1D
:1013D300A8041208D1EEA8041208D1F0A904120837
:1013E300D1A5AB041208D13DFE011208D1D9FE01EB
:1013F3001208D1FAFE011208D189FD051208D1CDD8
:10140300FD051208D118FE051208D1FDF3031208D9
:10141300D12FF4031208D161F4031208D1F1F403BC
:101423001208D1DDF6031208D18AF8031208D1425B
:10143300FA031208D1A7FA031208D1E3FA03120838
:10144300D11EFB031208D137FB031208D14FFB0354
:101453001208D152FB031208D19BFB031208D1EDF2
:10146300FC031208D112FD031208D134FE03120843
:10147300D170D6031208D1CBD6031208D155D703A6
:101483001208D1C6D8031208D19ED9031208D187F6
:10149300DA031208D19EDA031208D1F0DA03120834
:1014A300D154DB031208D195DB031208D1A8DB0367
:1014B3001208D1FEDB031208D157DC031208D16FE7
:1014C300DC031208D11FDF031208D1B4DF031208B3
:1014D300D1DEDF031208D127E0031208D117E2039C
:1014E3001208D181E2031208D155E3031208D198FF
:1014F300E3031208D1B2E3031208D1F9E30312089C
:10150300D119E4031208D1C3E4031208D19AE50305
:101513001208D1A5E5031208D115E6031208D16F0D
:10152300E6031208D1C0E6031208D1CBE703120881
:10153300D16FEA031208D1A5EA031208D117EB030E
:101543001208D13CEB031208D1B6EB031208D17F8A
:10155300EC031208D1BCEC031208D11EED031208F0
:10156300D1DFED031208D1E2ED031208D1ECED0354
:101573001208D1F6ED031208D109EE031208D18542
:10158300EE031208D1AEEE031208D1C1EE03120826
:10159300D1EDEE031208D114EF031208D138EF0393
:1015A3001208D173EF031208D1E5EF031208D10D2E
:1015B300F0031208D14EF0031208D168F0031208A9
:1015C300D18DF0031208D1BBF0031208D1DBF00375
:1015D3001208D118F1031208D14FF1031208D1599F
:1015E300F2031208D18CF3031208D1A2F3031208F9
:1015F300D1B9F3031208D1CBF3031208D1F785064F
:101603001208D10F86061208D1F9BE051208D13788
:10161300BF051208D1C3BF051208D1CEC0051208F9
:10162300D1EAC2051208D167C3051208D1DDF7025A
:101633001208D12CF8021208D1CCF9021208D18772
:10164300FB021208D1C9FB021208D1E8FC021208FE
:10165300D1F2FD021208D114FE021208D15EFE027D
:101663001208D1DFFE021208D12ED8021208D1517E
:10167300D8021208D151D9021208D19AD9021208FC
:10168300D1F2D9021208D14EDA021208D19ADA0243
:101693001208D110DB021208D19CDB021208D1110F
:1016A300DC021208D154DC021208D157E0021208FE
:1016B300D1A6E2021208D1E0E2021208D169E302E4
:1016C3001208D19AE6021208D10FE7021208D19F3D
:1016D300E8021208D1A7E9021208D1BDEA021208F2
:1016E300D133EB021208D1FAEB021208D163EC02F8
:1016F3001208D166EC021208D13AED021208D17633
:10170300EE021208D136F0021208D131F2021208A9
:10171300D142F3021208D1DEF3021208D123F502FB
:101723001208D129F6021208D187F6021208D12431
:10173300F7021208D1C6AD041208D166AE0412082E
:10174300D1D0AE041208D1E9AE041208D178AF04A7
:101753001208D1BCAF041208D1D4B0041208D110BE
:10176300B1041208D18DB1041208D1D8B104120802
:10177300D137B2041208D1E3B2041208D18CB504F4
:101783001208D1BAB6041208D13EB7041208D11B0D
:10179300B9041208D1C0B9041208D163BA041208FB
:1017A300D1C2BA041208D137BB041208D190BC04C9
:1017B3001208D15ABD041208D190BD041208D1AD4C
:1017C300BD041208D153BE041208D19FBE041208EF
:1017D300D12BBF041208D1AAC0041208D167C204D6
:1017E3001208D1E8C3041208D146C5041208D15621
:1017F300C6041208D1FCC6041208D166C704120835
:10180300D185C8041208D1C4C9041208D13CCA0442
:101813001208D184CA041208D1C8CA041208D1110B
:10182300CB041208D15BCB041208D190CB0412086D
:10183300D10ECC041208D168CC041208D1C1CD0456
:101843001208D140CE041208D157CF041208D1791F
:10185300CF041208D185D0041208D196D0041208FF
:10186300D1AED0041208D1CED1041208D1EBD104E9
:101873001208D1BED2041208D1E2D2041208D1F95F
:10188300D2041208D11DD3041208D13FD304120885
:10189300D131D4041208D189D4041208D1FFD5045C
:1018A3001208D161D6041208D178D6041208D1A641
:1018B300D6041208D1D8D7041208D155D804120877
:1018C300D1C2D8041208D102D9041208D164D904B0
:1018D3001208D114DA041208D1E6DB041208D1D1BC
:1018E300DC041208D1CBDD041208D1D1DE041208C6
:1018F300D1EDDF041208D1FBDF041208D1D4E004D8
:101903001208D174E1041208D181FF031208D1CD6A
:10191300E1041208D1DEE2041208D181E3041208C3
:10192300D1D9E3041208D1F9D9051208D1A1DB05F5
:101933001208D15EDC051208D1B3DC051208D130E0
:10194300DD051208D1047C001208D1227C001208A4
:10195300D1667C001208D18C7C001208D1B27C00C5
:101963001208D1CA7C001208D1E27C001208D18689
:10197300D3051208D15D7D001208D19F7D001208A6
:10198300D1B47D001208D1D67E001208D1DF7E00CB
:101993001208D1E87E001208D1F17E001208D1FBB3
:1019A3007E001208D14ACD051208D12AD1051208AA
:1019B300D138D1051208D13DD1051208D160EB050C
:1019C3001208D1AA87061208D17387061208D1D646
:1019D30087061208D1FF87061208D1008002120879
:1019E300D15780021208D1C380021208D14F81025D
:1019F3001208D10582021208D14D82021208D16663
:101A030082021208D18982021208D1AB8202120823
:101A1300D1E982021208D13883021208D16383020A
:101A23001208D1C183021208D16884021208D110AE
:101A330085021208D18C85021208D1598602120838
:101A4300D1A086021208D1EC86021208D174870253
:101A53001208D1AD87021208D10388021208D11FE0
:101A630088021208D14E88021208D15A8A0212083B
:101A7300D1888B021208D1B48B021208D1E88B02F1
:101A83001208D1098C021208D1188C021208D12332
:101A93008C021208D1D28C021208D1428D02120894
:101AA300D1CD8D021208D1D58D021208D1428E02FA
:101AB3001208D17E8E021208D1448F021208D11768
:101AC30090021208D16C90021208D10B91021208F5
:101AD300D16591021208D1AA91021208D14394024E
:101AE3001208D18695021208D17098021208D154B7
:101AF30099021208D1389A021208D1499A0212089F
:101B0300D1BB9A021208D1529B021208D1B79B0291
:101B13001208D1A79C021208D1CC9C021208D1EA68
:101B23009C021208D1069D021208D1799D02120867
:101B3300D1889D021208D1109E021208D10D9F0276
:101B43001208D11A9F021208D1239F021208D1054D
:101B5300A1021208D127A2021208D137A202120849
:101B6300D165A3021208D1E4A3021208D1FFA40293
:101B73001208D13BA5021208D115A7021208D1D22F
:101B8300AA021208D1E6AA021208D1F0AA02120888
:101B9300D1FAAA021208D104AB021208D11DAB027A
:101BA3001208D127AB021208D194AB021208D19FBD
:101BB300AB021208D1C7AB021208D1D2AB02120892
:101BC300D137AC021208D142AC021208D166AC0282
:101BD3001208D18AAC021208D1FCAC021208D1451A
:101BE300AD021208D161AD021208D1D2AD021208C2
:101BF300D11EAE021208D167AE021208D1A5AE0201
:101C03001208D126AF021208D1CDAF021208D19C1F
:101C1300B1021208D101B2021208D12FB302120885
:101C2300D155B3021208D19DB4021208D1D7B7021D
:101C33001208D1D5B9021208D1A0BB021208D139BA
:101C4300BC021208D13ABE021208D1EFBE0212083A
:101C5300D128BF021208D18EBF021208D198BF0249
:101C63001208D1C1C1021208D100C3021208D15710
:101C7300C3021208D102C4021208D1B2C50212086B
:101C8300D1FFC6021208D11FC7021208D174C702BE
:101C93001208D175C8021208D19DC8021208D1FCDE
:101CA300C8021208D1F4C9021208D16BCA02120881
:101CB300D17ECB021208D1ECCB021208D1EBCC02BD
:101CC3001208D145CF021208D16ECF021208D1D427
:101CD300D0021208D156D2021208D1ADD202120894
:101CE300D15BD3021208D100D4021208D159D40215
:101CF3001208D117D5021208D1A9D5021208D108AA
:101D0300D6021208D14AD6021208D17BD602120893
:101D1300D1D2D7021208D10080031208D132800336
:101D23001208D16B80031208D12982031208D1FF54
:101D330082031208D15E83031208D174840312084C
:101D4300D1C084031208D14E87031208D1288A0315
:101D53001208D16F8B031208D1078C031208D11319
:101D63008C031208D15C8C031208D19E8D031208D8
:101D7300D1948E031208D1BE8E031208D1148F039F
:101D83001208D16D8F031208D1E08F031208D11608
:101D930092031208D19893031208D1839403120873
:101DA300D1CD95031208D10598031208D1029B03E4
:101DB3001208D1119B031208D1A59B031208D1501D
:101DC3009C031208D1939C031208D1FB9C031208B5
:101DD300D1179D031208D1469D031208D1859D0397
:101DE3001208D1809E031208D12F9F031208D1AC91
:101DF300A1031208D1DEA2031208D1B6A30312086D
:101E0300D138A4031208D16DA8031208D19CA803EA
:101E13001208D1F7A8031208D12AA9031208D1A2E4
:101E2300A9031208D1D5A9031208D136AA031208AF
:101E3300D186AA031208D153AB031208D10CAC0309
:101E43001208D1D0AC031208D14AAF031208D1ACA7
:101E5300B0031208D1FDB1031208D121B303120854
:101E6300D124B3031208D153B3031208D14BB503E2
:101E73001208D10AB6031208D139B6031208D15792
:101E8300B7031208D11FB8031208D1DDB903120832
:101E9300D10FBA031208D151BA031208D150BB03B0
:101EA3001208D1C3BB031208D1ECBD031208D14BF6
:101EB300BE031208D19FBE031208D1CEC00312087D
:101EC300D1B1C1031208D139C2031208D127C30308
:101ED3001208D13BC3031208D14FC3031208D17CAC
:101EE300C3031208D1ACC3031208D167C503120898
:101EF300D179C6031208D1CEC6031208D117C7037E
:101F03001208D13EC7031208D106C8031208D1AC88
:101F1300C8031208D132CA031208D179CA031208BE
:101F2300D1EBCA031208D140CC031208D1E9CC0388
:101F33001208D11DCD031208D135CD031208D1D813
:101F4300CD031208D154D0031208D1FCD1031208D7
:101F5300D11AD2031208D138D2031208D104D30301
:101F63001208D152D6031208D1C982011208D10135
:101F730083011208D1F587011208D14188011208A3
:101F8300D18788011208D1BD89011208D1228A01A3
:101F93001208D1978B011208D1A18E011208D1CA60
:101FA3008F011208D1DD99011208D16D9A0112082F
:101FB300D1579D011208D1649E011208D1C79E0119
:101FC3001208D10FA0011208D17DA2011208D10F6E
:101FD300A4011208D19CA4011208D1BBA5011208C7
:101FE300D148A6011208D152A6011208D17AA6013E
:101FF3001208D11AA7011208D105A8011208D1D2DB
:10200300A8011208D1EFA8011208D118A9011208DA
:10201300D145A9011208D18CAB011208D15BAC01E7
:102023001208D19AAC011208D11CAD011208D1BD1E
:10203300AD011208D1EFAD011208D136AE0112087D
:10204300D169AE011208D1ADAE011208D1FCAE01C7
:102053001208D101AF011208D15DAF011208D1A15D
:10206300AF011208D17BB0011208D1E0B001120810
:10207300D146B1011208D1C1B1011208D129B5016C
:102083001208D12CB6011208D1AAB7011208D1C087
:10209300BA011208D162BB011208D1ABBD0112080B
:1020A300D166BE011208D1A5BE011208D17DC001BF
:1020B3001208D19AC0011208D1A3C0011208D1ACF1
:1020C300C0011208D1B7C0011208D1D6C00112084D
:1020D300D17AC2011208D1D7C2011208D1E1C201DB
:1020E3001208D1EBC2011208D14AC3011208D194DC
:1020F300C3011208D195C4011208D1ECC40112081E
:10210300D1FDC5011208D146C6011208D100C7018D
:102113001208D117C8011208D1ECC8011208D13333
:10212300CA011208D137CB011208D130CC011208F1
:10213300D148CC011208D17FCC011208D189CC013E
:102143001208D193CC011208D19ECC011208D1BC44
:10215300CC011208D104CD011208D162CD011208BD
:10216300D189CD011208D19BCD011208D150CE01E6
:102173001208D189CE011208D1ABCF011208D1FECA
:10218300CF011208D1E4D0011208D10BD1011208FA
:10219300D17BD1011208D1F7D1011208D153D30158
:1021A3001208D17AD4011208D13CD5011208D10A00
:1021B300D6011208D1C8D6011208D1B0D70112082E
:1021C300D15AD8011208D1C2D8011208D177D90146
:1021D3001208D1D3D9011208D12BDA011208D1F197
:1021E300DA011208D114DB011208D1CFDB01120886
:1021F300D1F1DB011208D152DC011208D182DE01D8
:102203001208D17BDF011208D127E0011208D1485F
:10221300E2011208D191E2011208D1DCE2011208B5
:10222300D138E3011208D196E3011208D1BAE301D0
:102233001208D1DEE3011208D113E4011208D13BE5
:10224300E4011208D180E4011208D1D4E401120898
:10225300D12DE5011208D127E6011208D1C5E70106
:102263001208D10AE8011208D133E8011208D1BCDF
:10227300E8011208D12FE9011208D13DE901120842
:10228300D161E9011208D1B7E9011208D1D2E901FC
:102293001208D18DEA011208D1B9EA011208D1FC62
:1022A300EA011208D15FEB011208D16DED011208AA
:1022B300D199ED011208D154EE011208D138EF0182
:1022C3001208D1CCEF011208D11F97051208D1577C
:1022D30097051208D17897051208D1BA9705120805
:1022E300D11E98051208D12898051208D1389805EF
:1022F3001208D16F98051208D1189C051208D1E075
:102303009D051208D1C49F051208D166A0051208C5
:10231300D1F0A0051208D18C2E001208D1352F0060
:102323001208D11430001208D12031001208D14014
:1023330031001208D16232001208D112340012089F
:10234300D17F34001208D15035001208D15636001F
:102353001208D1CE36001208D10937001208D16213
:1023630037001208D19D37001208D1E63700120852
:10237300D17A38001208D11039001208D1E539009A
:102383001208D1B83A001208D1463B001208D16CAA
:102393003B001208D1993B001208D1CA3B00120836
:1023A300D1973C001208D1A73C001208D1FA3C0097
:1023B3001208D1073D001208D1143D001208D11DA7
:1023C3003D001208D1813D001208D1DF3D00120803
:1023D300D12A3E001208D1453E001208D16C3E00BE
:1023E3001208D1893E001208D1953E001208D12669
:1023F30040001208D13F40001208D1BB4000120830
:10240300D1CE40001208D1DE40001208D182410033
:102413001208D1EE42001208D10144001208D1A1E2
:1024230044001208D1AB44001208D12A4500120817
:10243300D13B45001208D17A45001208D1A84500C6
:102443001208D17546001208D1CC46001208D105F6
:1024530047001208D15B47001208D17947001208E0
:10246300D1C747001208D19248001208D1E04800B2
:102473001208D12D49001208D1B049001208D1DA4F
:1024830049001208D1104A001208D11F4A0012084D
:10249300D17E4A001208D1F64A001208D1374B0008
:1024A3001208D1874B001208D1B24B001208D1CCCD
:1024B3004B001208D1E64B001208D1BB4C001208A6
:1024C300D1C54C001208D1004D001208D1104D00A7
:1024D3001208D1194D001208D16A4D001208D17E9D
:1024E3004D001208D1A04E001208D1B54E001208BB
:1024F300D1484F001208D1BC4F001208D1615000DF
:102503001208D16C50001208D1CF51001208D1EB40
:1025130051001208D13752001208D1A552001208F7
:10252300D1D752001208D1F152001208D1515300F1
:102533001208D1F053001208D13B54001208D18E77
:1025430056001208D12657001208D19D57001208D1
:10255300D1FA59001208D1125A001208D1155A00A3
:102563001208D1215A001208D1355A001208D13D60
:102573005A001208D1745A001208D1685B0012087D
:10258300D1F25B001208D1745C001208D1F45C0034
:102593001208D1CB5D001208D1ED5D001208D1867F
:1025A3005E001208D1E35E001208D1E65E00120855
:1025B300D1555F001208D1A160001208D1B46100A7
:1025C3001208D13F62001208D15263001208D119D8
:1025D30064001208D14A64001208D1706400120822
:1025E300D17964001208D1A864001208D15865009B
:1025F3001208D10866001208D17B66001208D11EAA
:1026030067001208D19167001208D1D06700120841
:10261300D11968001208D1FEFE031208D16885069D
:102623001208D10085061208D1E584061208D1D517
:1026330084061208D1E4FF011208D1F47F001208C6
:10264300D1C2FF021208D124FF021208D113FF02E4
:102653001208D18AFF041208D1B68B051208D1DC07
:102663008A051208D1128A051208D1818805120839
:10267300D14A88051208D11C88051208D1D08705D4
:102683001208D13987051208D1A986051208D1830A
:1026930086051208D13886051208D102860512086C
:1026A300D18585051208D110D3051208D1208505DF
:1026B3001208D1F6D2051208D1C5D2051208D1B934
:1026C300D1051208D1A4D1051208D1A3FA05120825
:1026D300D14AFA051208D102FA051208D1E3F90525
:1026E3001208D1CF84051208D1F783051208D167E8
:1026F30083051208D11B83051208D17DF905120841
:10270300D19682051208D15182051208D13582056E
:102713001208D1DD80051208D15BF9051208D1AF8B
:1027230080051208D1FA7C001208D17C80051208BA
:10273300D10080051208D13FFF041208D1E6FE0440
:102743001208D1B1FE041208D17CFE041208D1484C
:10275300FE041208D1DBFD041208D1C3FD041208E4
:10276300D19EFD041208D177FA041208D14AF80465
:102773001208D151F6041208D1DDF5041208D18EE6
:10278300F5041208D1E7FF031208D148F504120833
:10279300D1EAF4041208D1B8E10400000080FB87F9
:1027A300000100721D35000400361D250002003AA9
:1027B3001D260002003C1D270002003E1D280001CB
:1027C30000481D29000100491D840004004A1D869C
:1027D3000001004E1D2A0001004F1D2B0001005077
:1027E3001D2C000100541D2D000800521A2E00015B
:1027F30000551D2F000100561D30000100571D31EB
:10280300000100581D320001005A1A330001005B19
:102813001A34000100591D360001005C1A3800010A
:10282300005A1D39000100531D83000200701D630F
:10283300000100671A64000100511D650001005288
:102843001D6D000100681A710008004A1A66000134
:10285300006F1D43000100601D44000200611D451F
:10286300000100631D46000200641D470008005F6D
:102873001A48000100661D4B000100671D0400019A
:1028830000731DA1000100761D37000100751D882E
:10289300000100741D3C0001005D1A3D0001005B56
:1028A3001D49000200681D67000100691A4D0002FE
:1028B300006A1D4E0001006C1D4F0002006D1D3E9D
:1028C3000001005F1D510001005C1D520001005D0D
:1028D3001D530001005E1D540001005E1A0000003C
:1028E300000000000136360101000102010001036E
:1028F3000100010401060605020000070100340877
:1029030001000F090401010D0100FF0E080000176B
:10291300020000190100FF1A0100011B0100FE1C47
:102923000100081D0200001F010001200100012118
:102933000200002301000F240200002601000127EA
:10294300010008280200FF2A0100072B0102402C86
:102953000100002D0100012E0100012F0100FF30B5
:10296300010B1D310800003A0100083B01000F3C38
:102973000100013D0100FF3E040000420400004647
:102983000400004A0400004E0400005204000056F4
:102993000400005A04000001037103010301030151
:1029A30003010301032203020301031003000300D5
:1029B3000300030003000300030003420300032496
:1029C3000306030003000304031203250323032563
:1029D300032303040304030003000300034403006D
:1029E3000300032303000365032100350381030070
:1029F300030503000300030003000325032303036C
:102A0300027102300160021102700201020202022D
:102A1300028002100261023A0041006302730272F3
:102A230002620243020002130238000002000204A1
:102A33000212020002000200020002040204023732
:102A43000037003C02440200023900000200026524
:102A530002000235028102000205028202830200A3
:102A630002010171010101010111010101310101A2
:102A73000101018001100161013B00140063017336
:102A8300017201620143010001130106013D013599
:102A9300000401120100010001000100010401040E
:102AA30001330133013C01440132013600000100CE
:102AB30001650100013500810100010501820183E7
:102AC300010001030071003001600011007000314A
:102AD3000220035004800010006100000014006312
:102AE3000073007200620043000000130006000040
:102AF30000000004001200000000000000000004B9
:102B0300000400370037003C0244000000000000CE
:102B13000000006500000035008100000005000092
:102B230000830000000304710402046004110470B4
:102B330004020402040104020410046104000414E6
:102B4300046304730472046204430400041304065C
:102B5300040004000404041204000400040004003C
:102B6300045104640000040004000444040004004D
:102B730004000400046504000435048104640005B2
:102B83000400048304000436000100060000000F63
:102B93000000000000000000000000000003FFFF31
:102BA30000000403FFFF0000FFFF0FF4010005C452
:102BB300040320000100000B0000000000000000DF
:102BC30003010F00000000000000000000000000EF
:102BD30000000000000000000000000000000000F2
:102BE30000000000007B13C9138113B5120000001D
:102BF300000000000000000000000000008713B583
:102C0300128D13B5129313B5129913B5129F13B501
:102C130012A513B512AB13CF13B113B512000000F5
:102C2300000000000000000000B713E113BD13B55E
:102C330012B713E113BD13B512AB13CF13C313B5FF
:102C430012000077171300FF161F0005171F800BD4
:102C530017010077170200871603008D16040093EF
:102C630016050099160600A5163000C3163100BDDF
:102C7300163200CF163300D5163500DB163400E1CB
:102C8300163600E7161100F3161400F9161500B7EF
:102C930016FFFF0000000003002001C682000000B1
:102CA300002001C7820000040042014B80000005A0
:102CB3000042016D800000060042017E8000000793
:102CC300002001C882000010004203061D0000110D
:102CD300002003CA18000012001003171D0600008D
:102CE300001001CD180A00000002000000040000DB
:102CF3000008000000100000002000000040000059
:102D03000080000000000100000002000000040039
:102D13000000080000001000000020000000400038
:102D23000001AB1F06D51F08CF1F0BED1F10C91CD9
:102D330002B11F05C31F07B71F0C931F0D9F1F640D
:102D4300C51AFF000007ECFDFDFDECDCDCCCBCACE0
:102D5300AC9C9C8C7C7C6C6C5C5C5C4C4C3C3C2CE0
:102D63002C1C1C03EAF5E5D5D5C5B5A59595858538
:102D73007575656555554545353525251515050085
:102D8300160F00000B150B020002220F3300000E7A
:102D93005A6967426565416C6C69616E6365303978
:102DA30001030507090B0D0F00020406080A0C0DA9
:102DB30000000004060000040600010406000204EB
:102DC30000034A49434E181A25050200393D3F378F
:102DD3003C3C362C442D00011916181616182303F3
:102DE30000303017181921301B1D1F3030301618D2
:102DF3001920231A1C1E300C0E020B040B0A0708A1
:102E0300000F020402010101010902E803000000AE
:102E1300BE040A00007F000E00E80300000504045E
:102E230000100803030A1E0C0A10080C281EFF00DA
:102E33000903010C0508150404E0041236BCA2E7DB
:102E430092AF22E4F0A3F0A3F022A3122E46A3F044
:102E5300227F0C020653E0F508E4F509F50AF50BA9
:102E6300227401F090059BE0640F22740912091C7F
:102E73007F04020653A3A3E024F5C3941322900511
:102E8300BB1259B57A147B0022C082C083901B8386
:102E93007477F0A37423F0A37489F0A37423F090E0
:102EA3001B87745FF0A37423F0A37459F0A37423F6
:102EB300F0A37495F0A37423F0A3749BF0A374237D
:102EC300F0A3748FF0A37423F0A37447F0A37423C7
:102ED300F0901B93746BF0A37423F0A37471F0A3AD
:102EE3007423F0A37465F0A37423F0A374A1F0A377
:102EF3007423F0901BA4124F4260061251AC1211BE
:102F0300A1901BA11246657408F0A3E4F0A3F0900E
:102F13001C44F0901BA6F07C0BFDF97AA77B1B12D7
:102F230010CF7C0B7D0079007AB27B1B1210CF028D
:102F3300466E74F71203F574F71209B4EAFEEBFF59
:102F430012448C74051230027403F0EE2402FAE486
:102F53003F122FDC242DFCE43FFD8C828D83123144
:102F63001A122FEB600812386474FFF0A3F0EE24FA
:102F73002BE43F1C1CFD8C828D83A3E0C0E08A827E
:102F83008B8312449DD0E0122FEB88828983124CED
:102F930095240312577F1212917408120BF47403D1
:102FA300F09005B012075674021209AC7903EEFAD9
:102FB300EFFB122539740212091CE9F5087007EEBC
:102FC300FAEFFB122419A9087409023874F582E494
:102FD3003FF5831263EA124C8AFB8A828B83122F9A
:102FE300FAE8F0A3E9F0EE221259D3122FFAE8F02F
:102FF300A3E9125F4FE0221230E58A828B8322F02D
:10300300A3E4F012300A22EE240DF582E43FF583A7
:103013002274F11203F5EAFEEBFF8C088D09890A8D
:103023001230EF8A828B831230E5740F120BF41285
:103033003108E824FF18E934FFF988828983E50A17
:103043001230FA9005B51230F79005B41230F774C8
:1030530011120BF4123108EE2404FCE43FFD880B3B
:103063008A828B83E0F50C8C828D83E0250CC395DB
:103073000B1259CFE8F0A3E91243F9A3A3A3A3A327
:10308300A3A3A3E064037008124755F0A3E48003ED
:103093001233FB1230057409F0750CA7750D1B75FF
:1030A3000E00780C1208EA1233EF1210C3740312E5
:1030B300091C750CFF750DFF780C1208EEAC08ADFA
:1030C300097903EEFAEFFB122539740212091CE9A0
:1030D300F5087007EEFAEFFB122419A9087F07021F
:1030E3000653E024FFF8A3E034FFF922EE2402FAAA
:1030F300E43FFB2212311A1230FE22F0E824FF18BB
:10310300E934FFF922E0F50CA312311A1230FE88DC
:10311300828983E50CF022E08882898322C082C001
:1031230083901BC3E0C39408400474078001E08AC2
:10313300828B83F033333354F8F902466E74F01202
:1031430003F5EAFEEBFF890C8C0E8D0F750A00A2C6
:10315300AFE433F50BC2AF901BBD803F1232285052
:103163003712323964037030EE24F9FEEF34FFFF77
:10317300850882850983A3A3E02405FCA3E034002A
:10318300FDEEFAEFFB121291EE24FF1EEF34FFFF68
:103193007410250AF50A150C1243C61263E6E50CF2
:1031A3006006E508450970B4E50BA2E092AFA2AF53
:1031B300E433F50BC2AF901BBD802C2402FAE43537
:1031C30009FB8A828B831259BE2406F582E438F503
:1031D300831232468A828B8312322EA3A312324683
:1031E300050A150C1243C61243DB602212323964FE
:1031F3000270F1123228E50840C1123529A2E550C8
:10320300E3850E82850F837401F0E50C70D6E50B20
:10321300A2E092AF8E828F83E50AF0EE24FFFAEFED
:1032230034FFFB8035123534A2E6221232322212E9
:103233005DB3A3A3A322850882850983125DAD1222
:1032430053E722E08E828F83F0EE24FF1EEF34FFDC
:10325300FF22122605740412091C7F080206537408
:10326300EC1203F574F51209B489138A128B0F85D6
:103273001882851983E4F0041209A4122329E9F8BA
:1032830090059AE0292434F508FA7B001210ED8AA0
:103293000A8B0BAE0AAF0BEE4F70030233E3EE243F
:1032A30002F50AE43FF50BA808EE28F8E43FF98598
:1032B3000A82850B83122FE42404F510E43FF511F1
:1032C300851082F583E4F090059AE0FCF8C3E49856
:1032D300F895E0F9850A82850B83E028F508A3E0D9
:1032E30039F509900598125677750E00780C120877
:1032F300EA7D00AA08AB091210C3740312091CACBF
:1033030018AD197401120BF4E0F9E50824FFFAE58E
:103313000934FFFB12232F8A828B83E4F0EA24FF14
:10332300F508EB34FFF509E50FC454F0F9901C459B
:10333300E0C4333354C0F8900594E0A2E0E43313BF
:10334300134849440F123403E512C454F04513855E
:103353000882850983F0A808850A82850B83E0FA31
:10336300851082851183E02AC398F0850A82850B34
:1033730083E8F0A3E509F01233FB123005E4F0749F
:103383000A120BF4E4F07508B275091BF50A780804
:103393001208EA1233EF1210C3740312091C8518C2
:1033A30082851983E06009EE240E1245224408F059
:1033B300122521E9F9E4F508F50978081208EE74F5
:1033C300041209ACEEFAEFFB122539740212091C40
:1033D300E97006EEFAEFFB800BEEFAEFFB1210F347
:1033E3007A007B00740B12091C022E547C0B7D00A7
:1033F300EE2418FAE43FFB22124490E4F0A322E007
:1034030085088285098312340D22F012564B2274EB
:10341300F31203F58A0A8B0BA2AFE433F50CC2AFA8
:10342300750800750900901BBD802C12365050247E
:10343300850A82850B83A3A31268138E828F83A3CD
:10344300A31251AF122527E9600A123476C2E6F0BF
:103453008E088F091236451238FE70CFE5084509EC
:103463006006123530D2E6F0E50CA2E092AF7F059C
:1034730002065312347A22125664E02274F01203C5
:10348300F5EAFEEBFF8C0C8D0D750E00A2AFE43355
:10349300F50FC2AF750800750900901BBD8020852C
:1034A3000A08850B09123530D2E4F0E508123529F4
:1034B300D2E7F0E50A24FBF582E50B34FFF583E060
:1034C300F50AA3E0F50BE50A450B6043E50A124252
:1034D300B1350BF583E0A2E750D9850A82850B83CA
:1034E300A3A3120756AC0CAD0DEEFAEFFB12252D7C
:1034F300740212091CE960BBE508450960A1E508EF
:10350300240D12353C64017006123545D2E4F0E512
:103513000FA2E092AFE50845096006122413750E69
:1035230001A90E02325D1242DB12353F22123534FD
:1035330022E508241112353C22F582E43509F5838E
:10354300E022850882850983125DADE02274F212C0
:1035530003F574FE1209B4750C00750D008518820D
:10356300851983E4F0A3F0A2AF33F50AC2AF901B31
:10357300BDE0FEA3E0FF8035EE24FBF582EF34FFD0
:103583001263E4780C1208EEEEFCEFFD7ABD7B1BB0
:10359300121123740212091CEEFCEFFDAA18AB19D9
:1035A300121111AE08AF09901BC3E014F0EE4F6087
:1035B30027123650501DEE240BF8E43FF988828918
:1035C30083E024FFF0A3E034FFF088828983124F65
:1035D3004260A51236418099E50AA2E092AF901BA2
:1035E300C3E0603190059BE0640F6006901C44E0EB
:1035F30070237A9B7B1B1226119082BA1207527A90
:103603009B7B1B122605740412091C800874F0129C
:10361300488C122407AA18AB191211178A0A8B0BAC
:10362300AE0AAF0BEE4F601312233B123476A2E2C5
:103633008E828F83A350D674E980D40239068E0C10
:103643008F0DEE24FBF582EF34FFF5832212347ADB
:10365300A2E72274F71203F5EAFEEBFF12233B12F3
:10366300449A12056DE964019005B7700AE02401DC
:10367300F8A3E034008004E0F8A3E0F9124AE8126A
:103683004E9A901BC3E0702190059BE0640F701964
:103693007A9B7B1B1226119082BA1207527A9B7B6C
:1036A3001B122605740412091CA9A8C2AF901BC3E0
:1036B300E0041236BCA2E7800DF0E9A2E7E433F898
:1036C300E922E508A2E092AF02492874F71203F554
:1036D300EAFEEBFF123703F012233BEEFCEFFD7A19
:1036E300BD7B1B12111DA9A8C2AF901BC3122E3C98
:1036F30090059BE0640F700579081224D9024928CC
:1037030012347AC2E42274F71203F574EA1209B48C
:10371300EAFEEBFF900594E06040851882851983EB
:103723007401F0120BF4E41237DB120BF4AA82AB30
:10373300831212918E828F8312354BC0E0740A126A
:103743000BF4D0E01259E4740B120BF4AA82AB838E
:10375300122551AA18AB191219A5741602387474DC
:10376300F71203F5EAFEEBFF12231DE9F974DC6996
:10377300601E74DD69601974E469601474F3696030
:103783000F74DE69600A74DF69600574DB697007B2
:10379300EEFAEFFB1224DF02492874F71203F574E3
:1037A300EB1209B4EAFEEBFF8518828519837406D0
:1037B3001237DB120BF4AA82AB831212911259E96E
:1037C300740A120BF4AA82AB83122551AA18AB19FF
:1037D3001219A57415023874F0EE2413FCE43FFDAE
:1037E30074022274F71203F574F71209B4EAFEEBBC
:1037F300FFEE242D12452260651240B3AA18AB19BF
:103803001212917408120BF47403F09005B01207AE
:10381300561238641207569005C3E0F9740412096E
:10382300ACEEFAEFFB122323740412091CE9F974BA
:10383300DC69602374DD69601E74E469601974F3E4
:1038430069601474DE69600F74DF69600A74E86983
:10385300600574DB697007EEFAEFFB1224DF022FB9
:10386300CBEE12386922242BF582E43FF5832274D0
:103873000312091C02492874F21203F58A088B0902
:10388300750C00750D00750AE7A2AFE433F50BC2A2
:10389300AF901BBD80031236411238FE60351236DD
:1038A3005050F312451F640170ECEE242FF582E4AF
:1038B3003F123AADE06870DE780C1208EEEEFCEFD2
:1038C300FD7ABD7B1B121123740212091C901BC3CA
:1038D300E014F0E50BA2E092AFEE4F6013EEFAEFC7
:1038E300FB12233B79F0EEFAEFFB1224DF750A009B
:1038F300A90AAA08AB091224DF800DE0FEA3E0FFAA
:10390300EE4F22740212091C7F0602065374F4124E
:1039130003F574F71209B4EAFEEBFF8E828F83A3DB
:10392300E064F370030239BA8E828F83A3E064DF0D
:1039330070030239BA8E828F83A3E064E860788EC5
:10394300828F83A3E064DB606E12237DE9F5087048
:103953005EEE240E12452260561239C41223C5EAC4
:103963004B604C7408120BF41239CE1207567508CB
:10397300FF7509FF78081208EE8E828F83A3A3A335
:10398300A3A3A3A3A3E0F974041209AC1223237421
:103993000412091CE9F50874F36508601274DF6505
:1039A30008600C74E86508600674DB6508700F8EA8
:1039B300828F83A3E508F0EEFAEFFB122389022E30
:1039C3006EEE240FFAE43FFB79092274021261AC14
:1039D30074FFF0A31239DB221239DF22124C9EA3AB
:1039E300A32274F51203F58A088B097E008A828B61
:1039F30083A3A3A3A3A3A3122E7840027EE88A8203
:103A03008B83A3A3A3A3A3A3A3A3A3A3E0C3941000
:103A130040047EE880138A828B83A3A3A3A3A3A37A
:103A2300A3A3A3A3E0640F600A901C21E0540870D1
:103A3300027EE8EA240BF582E43509123AADA3A32A
:103A4300A3A3A3A3A3A3E0C398500CEA240B1235AA
:103A53003C640F60027EE89005B4E0F47003A3E0D9
:103A6300F470027EEC7A237B0012119B901BA4124C
:103A730051BF901BA4124F42602985088285098398
:103A8300A3A3A982AA8389088A09750A0078081260
:103A930008EA7C237D001251AC1210C3740312098F
:103AA3001C80027E1AEEF902634DF583E0F88A82E8
:103AB3008B83A3A32274F51203F5EAFEEBFF8E8238
:103AC3008F83A3A3A3A3A3A3A3A3E090059B126047
:103AD3008F9005B6126075900596126094901C4500
:103AE300F0F9120E11901C45E06018EE2404FAE47C
:103AF3003FFB7950120DF9EE2406FAE43FFB79E11E
:103B0300120DF9901C44122E646004740180027437
:103B130000901BA612607B1208EA7C0B7D007AA73B
:103B23007B1B1210C3740312091CEE2418F508E45E
:103B33003FF50978081208EA7C0B7D007AB27B1BFB
:103B430002634574F71203F5EAFEEBFF8E828F835F
:103B5300A3E070061251AC1223838E828F83742CE0
:103B630012488C1224EB02492874F71203F5EAFE7B
:103B7300EBFF901BA4124F42600D1251AC901BA49B
:103B8300E4F0A3F01211A18E828F83740812488C83
:103B93001219A502492874F61203F5901C44E0603B
:103BA30013901BA6E0700D123BBA122335EA4B604B
:103BB30003122419025CEF900596E0FB9005B6E032
:103BC300FA90059BE0F92274F41203F574E71209E5
:103BD300B4EAFEEBFF750B018E828F83A3A3A3A32D
:103BE300A3A3A3E0A2E25068EE242BF582E43F12E4
:103BF3006811123C88122341E9705590820DE064EC
:103C0300017005750B008048123C901208EA7C0B8A
:103C13007D0074111209A41210C3740312091C123B
:103C23002521E9FA740E12099C880889097808127B
:103C330008EE75083075090078081208EE1238642A
:103C4300120756125985790112253F740612091C71
:103C530085188285198374101237DB120BF4AA823C
:103C6300AB831212851238641259B1740B120BF420
:103C7300124E9A740D120BF4E50B1246FF1219A59E
:103C83007419022E70EE2413FAE43FFB22EE24088B
:103C930012608322C082C083901C45E0600312251A
:103CA3009302466EC082C083901C3C7483F0A3745D
:103CB3001BF0A37487F0A3741BF0A37493F0A37495
:103CC3001BF0901D8A7428F0A3742BF0901C2674AB
:103CD30017F0A37423F0901BC8744DF0A37423F062
:103CE300901BCA7453F0A37423F0901C21E0440288
:103CF3008001E4F002466EC082C083EAFCEBFD79EA
:103D030003024D0AC082C083EAFCEBFD7905024D34
:103D13000AC082C0837908025E80C082C08374FEB9
:103D23001209B4901BD07401F0A37424F0901BD239
:103D330074FBF0A37423F0800D7ABD7B1B12111763
:103D43001246F512250F901BBD124F4270EB901BCC
:103D5300BF124F42600F7ABF7B1B1211171246F539
:103D630012250F80E9901BBDE4F0A3F0901BC31252
:103D73002E4774028002741112091C02466E74F6F7
:103D83001203F5E9FF74CE29F582E4342DF583E4BB
:103D930093FEFA7B001210EDEA4B6011EA2E124EED
:103DA300908A828B83A3A3A3A3E4F0802C7A027B63
:103DB300001210EDEA4B601D74E42FF582E4342DFC
:103DC300F583E4938A828B83F0A3741AF0901C1C0E
:103DD300E0F91210F97A007B00025CEFE9FC74064B
:103DE30029F8EAA2E0501EE875F00A84E5F0F960CC
:103DF30014740A28C399F8E9C394054004740A2883
:103E0300F8740B28F8ECC3941340047A1480027AF4
:103E130006EA2879002409F85001097A0A7B00127E
:103E230002A5E8F90208CEC082C083901C21E054A9
:103E330002600A1219ABE960047901800279000279
:103E4300466EC082C083901C21E054026016901B12
:103E5300C3E0700C124F3F600BE0C81243D3500411
:103E630079018002790002466EC082C08390820A83
:103E7300E0F8901BC5E0C39850051210ED80047A5A
:103E8300007B0002466EC082C08312250F790002B8
:103E9300466E74F71203F574FE1209B48518828511
:103EA3001983EAF0A3EB124004A3A3A3A3A3E06046
:103EB3000A14606024FE6069023F8590059BE064FC
:103EC3000F60181224E5E970128518828519831290
:103ED30051AF901BCC12449D12056D9005C3E0C0F9
:103EE300E0851882851983124C68D0E0124004746F
:103EF300141261A81268137ABF7B1B121111A8A8B0
:103F0300C2AF901BC5E0041251C579201224D974A5
:103F130002023874851882851983125DB574158081
:103F2300D0851882851983123FE7A3A3E0605385E8
:103F33001882851983E02402F8A3E03400F988820B
:103F430089831265E6E0C0E0851882851983E0FC69
:103F5300A3E0CC2406F582E43CF583D0E01259F1CA
:103F6300888289831251BF8518828519831242CFB3
:103F73008518828519836013123FEC6005123FF4A4
:103F83004043AA18AB1912250F8084123FEC60F24C
:103F9300123FF4501C1243E3FA85188285198312E9
:103FA3003FEEF87404124E8B342EF583E4936A606B
:103FB30014851882851983123FEC640870C4124378
:103FC300E3640870BD1243E31412400C240AC0E0FA
:103FD30085188285198312449DD0E012400C040297
:103FE3003EF4E0F8A3124CB522E0F8A3E01240132C
:103FF300228518828519831259C2124014C3940A68
:104003002212401EF58388822212401E1240132280
:10401300C82406F582E438F583E0221261ACE0F8A7
:10402300A3E022C082C083901BD4124F42600812C7
:104033005DB612056D8002790002466E74F71203B5
:10404300F5EAFEEBFF12300A7401F0EE2430F5823C
:10405300E43FF58312571F122FE42432124522C086
:10406300E0EE2413F582E43FF583D0E0F0EE243351
:10407300124522C0E0EE2414F582E43FF583D0E03C
:10408300F0EE242CF582E43FF5831207561240B379
:10409300EE242E124522F9122539740212091CE965
:1040A300F5087007EEFAEFFB122419A90802492854
:1040B300EE2423FCE43FFD22C082C0831224E5E901
:1040C300600479208002790102466EC082C083EACF
:1040D3001242B1124172D2E0023CF6C082C0831296
:1040E300416C64017011124177400C8A828B83A367
:1040F300E0F91224DF806FEA241012416FA2E65028
:10410300128A828B83A3E0F9901BCE12449D120581
:104113006D805312416C6401700D12417750088A0F
:10412300828B83743080368A828B83A3E0641B8AFC
:10413300828B83700474228024A3E0700D12416C7F
:10414300F874EF124E8B342D800B12416CF874E42B
:10415300124E8B342DF583E4938A828B83F0901C6B
:104163001CE0F91210F902466EEA240DF582E43BD5
:10417300F583E022EA1242DB3BF583E0A2E32274FB
:10418300F71203F5E9FE124F3F70030242A8EE60F7
:1041930011741B6E7013E0C81242AB640570030206
:1041A3004273125DA5E402427774E96E70621242B3
:1041B300C7700B1219B1E960051242E1606279EE32
:1041C300120D7B901BC61242C4901BC6603B124269
:1041D300E4901BC6700B1242C414F0120F3102425A
:1041E300A81242CFC2E71243EF1242AB6403700C32
:1041F3001259BB1242B1124019D2E2F079ED120DFD
:104203007B1242B712056D8075125DA874E9806454
:1042130074E16E703E1219B1E960551242E17050BB
:104223009005BDE0C0E01259BB2412F582E438F5D5
:1042330083D0E0F09005ACE0C0E0901BC6123FE5F0
:10424300123FE5D0E0F09005ACE004F07901120FE5
:10425300198052741C6E7018901BC61251AF901BBC
:10426300D612449D12056D901BC6E4F0A3F0803571
:10427300125DA5EEF0901BC61251AF12240712591E
:10428300BB12598DE0548060109005C3E0F9120E03
:10429300359005C2E0F9120E29901BC6E4F0A3F095
:1042A30079101224D9024928240D12401622241110
:1042B300F582E422901BC61251B3901BCA125DAF64
:1042C30022E0F8A3E0C8241212401622E0F8A3E08B
:1042D300C81242DB124019222410F582E422901BFB
:1042E300C61259C2125991E054042274F41203F510
:1042F300750A00750B00A2AFE433FFC2AF124F3F44
:1043030060030243AB12449A12056DE94410F8901E
:104313001BBD800985080A85090B1243C61243DBBE
:1043230070030243AB123530586870E8780A1208FC
:10433300EEAC08AD097ABD7B1B121123740212097E
:104343001C901BC6E508F0A3E5091243EF1243D303
:10435300405D901BC4E014F0EFA2E092AF901BC647
:10436300E0240EF8A3E03400F9880889098882F56F
:10437300831251AF901BC61243E9F91223CBE99084
:104383001BC1F01243F7E05480901BC660261259FC
:10439300BE2413124016F9120E351259BB241412FF
:1043A3004016F9120E298018EFA2E092AF80119007
:1043B3001BC380A11242CFA2E1B3E433F9120F1958
:1043C300022E73E50824FBF582E50934FFF5832209
:1043D3002411124016A2E7221263EAE508450922D6
:1043E300851882851983123232A3E022F0901BC60E
:1043F3001259C222A3E4F08508828509832274F747
:104403001203F5EAFEEBFF122509EE2410124522F2
:10441300A2E3400C12451F640170059082088003DB
:10442300908209E0F9EEFCEFFD7ABD7B1B121129A6
:10443300E96046EEFAEFFB901BD012449D12056D26
:10444300EE240E12452254047020A8A8C2AF901B7C
:10445300C4E0041251A5FAE8A2E792AF12448CA378
:10446300E054017021122413801CEEFAEFFB901B21
:10447300C812449D12056D800D8E828F83A374F143
:1044830012488C12240702492812449022EE240E6B
:10449300F582E43FF58322901BD2125DAF22C082E6
:1044A300C08312241302466E74F71203F5EAFEEB7F
:1044B300FF7900901C21E05402700CEE2430124569
:1044C300225404600279E8901C21E05460700CEEE1
:1044D30024301245225402600279E88E828F83A32E
:1044E300A3A3A3E0F890820EE0C398500279E8EE0C
:1044F300242E124522700CEE242B124522700479CF
:10450300F5800BE970051223F5E9F9E96007EEFA86
:10451300EFFB1224DF02492834FFF509EE240DF5E1
:1045230082E43FF583E022C082C0838A828B837456
:104533000DF01219A502466EC082C0838A828B8356
:10454300E4F0A3F0EA243012416F5404908208701F
:1045530012E0F8901BC4E0C398401279F11224DFF3
:1045630002466EE0F8901BC3E0C39850EE901C1C0B
:10457300E0F91210F980E974F61203F5E9FE244C10
:10458300FAE43400FB1210EDEA4B6012EE8A828BE0
:1045930083A3A3A3A3F0EA244C124E9080047A00D1
:1045A3007B00025CEFC082C083901BD87461F0A3D0
:1045B3007424F0A37491F0A37424F0A37467F0A39C
:1045C3007424F0A3746DF0A37424F0A3748BF0A38C
:1045D3007424F0A3747FF0A37424F0A37479F0A37C
:1045E3007424F0A37497F0A37424F0A3749DF0A330
:1045F3007424F0A374A3F0A37424F0A374AFF0A302
:104603007424F0A37473F0A37424F0A3745BF0A375
:104613007424F0A37455F0A37424F0901BF47485F0
:10462300F0A37424F0A374A9F0A37424F0A374C9B1
:10463300F0A37425F0A374B5F0A37424F0A374BBA2
:10464300F0A37424F0901C18E4F0901C1BF0901C51
:10465300041246657402F0901C0D12466574010243
:104663003CF674D9F0A37424F0A322D083D0820241
:1046730008CE74F51203F574F11209B48518828516
:1046830019837402F07401120BF4E9F060047AFFE9
:104693007BFF7402120BF41251BF75081075091CCD
:1046A300750A0078081208EA7C0B7D007407120B68
:1046B300F4AA82AB831210C3740312091CAA18ABA9
:1046C300191219A5740F02634A74F71203F574FDE6
:1046D3001209B4851882851983740AF07401120BC8
:1046E300F4E9F07402120BF4EA1246FF1219A50260
:1046F3003872851882851983EAF0A3EBF0AA18AB08
:10470300192274F61203F574F71209B4EAFEEBFFEB
:10471300124755123002740212487DAA18AB1912BF
:104723001285EE242E122FD0243012578C1208EE4D
:1047330074021209AC79831A1AEFFB122539740239
:1047430012091CE9F5087007EEFAEFFB12241902AF
:104753005CE812449074012274F01203F512623380
:10476300120B857808790C12030678081208E67A8A
:10477300077B1C02325574F41203F574C61209B494
:1047830090059BE0640F6010851882851983742E51
:104793001246FF1224EB80277AFE7B1B122611128E
:1047A3002E811202AD88088909E4F50AF50B780811
:1047B3001208E67AFE7B1B122605740412091C7488
:1047C3003A022E7074F51203F5EAFEEBFF8E828F28
:1047D30083A3E0F86003024866EE242D12452264A9
:1047E300026007E06403600278E8EE2423F582E4C4
:1047F3003FF583122E7A400478E8806AE87064EE0D
:104803002423FAE43FFB79E1120DF9EE242EFAE4B6
:104813003FFB7950120DF9EE242D124522640270EC
:104823000E12597B1259B19005AA124E9A8012901A
:1048330005AA74FEF0A30412487D7AA17B05121227
:1048430091EE2418123C931208EA7C0B7D007A1037
:104853007B1C1210C3740312091CEEFAEFFB122423
:104863004FE9F8E86011E88E828F83A3125BDD7451
:104873001712488C1224EB02634DF0EE2425FCE45E
:104883003FFD228E828F837429F0EEFAEFFB2274B0
:10489300F61203F574F71209B4901C1BE0703B7415
:1048A30001F0F9120EE3AA18AB1912251B750810B3
:1048B30075091C78081208EE750801750900780857
:1048C3001208EE9005B012075674061209AC7A036B
:1048D300790512253F740612091C025CEA74F7126B
:1048E30003F5EAFEEBFF7901120EE98E828F83E076
:1048F30064207004A374EBF0901C1BE0A2E250034D
:10490300C2E2F0E0A2E15008124B2A122449800CC3
:104913008E828F83742A12488C1224EB8007EEFA5E
:10492300EFFB1225877F0102065374F41203F5741B
:10493300FE1209B4EAFEEBFF7901120EE97AFE7B5F
:104943001B1226117A077B1C122611124C74851830
:1049530082851983124CA8E0F50B700FAA18AB19C6
:104963007953120DF91263DA120DF9123C90120801
:10497300EA7C0B7D007A107B1C1210C374031209AE
:104983001C8518828519831251AFA90B12244390F9
:104993001C1BE0A2E1500C7A008E828F83A3E0F906
:1049A300122449901C1BE4F07402022E7074F71257
:1049B30003F5EAFEEBFF8E828F83A374EBF0901C6A
:1049C3001BE0A2E150077A0079EB122449EEFAEFDB
:1049D300FB12247F02492874F71203F5EAFEEBFF6A
:1049E3007901120EE97AFE7B1B1226117A077B1CD2
:1049F300122611901C18E4F0901C1BF07AFF7BFF29
:104A03008E828F83A3E0F912244302492874F7129C
:104A130003F5EAFEEBFF12247902492174F712032E
:104A2300F5EAFEEBFF7901120EE98E828F83A3A3D1
:104A3300A3A3E060047400800274EB124A71500374
:104A4300C2E2F0E0A2E15008124B73122449801431
:104A5300A2E050108E828F83742AF0A374EB124865
:104A63008C1224EBEEFAEFFB12242B0249288E82E0
:104A73008F83A3F0901C1BE0A2E22274F61203F5CD
:104A8300EAFEEBFF901C1BE0D2E1F07901120EE38A
:104A93008E828F83A3E0703C122521E9FAEE240D68
:104AA300F508E43FF50978081208EE750801750961
:104AB3000078081208EE124AE8120756EE2402FCA8
:104AC300E43FFD790512253F740612091CE98E8225
:104AD3008F83A3F08E828F83A3E060067A00F9129E
:104AE3002449025CEF124AEC22EE240BF582E43FE8
:104AF300F5832274F71203F5EAFEEBFF7901120E38
:104B0300E98E828F83E064207004A374EBF0901C21
:104B13001BE0A2E25003C2E2F0E0A2E15006124B16
:104B23002A122449024928C2E1F07A008E828F8337
:104B3300A3E0F92274F71203F5EAFEEBFF79011201
:104B43000EE97AFE7B1B1226118E828F83A3A3A309
:104B5300A3E060047400800274EB124A715003C234
:104B6300E2F0E0A2E15006124B73122449024A67B5
:104B7300C2E11239DBA3E0A2E4E433FA8E828F832D
:104B8300A3E0F92274F71203F5EAFEEBFF790112B1
:104B93000EE98E828F83A374EB124A765003C2E22E
:104BA300F0E0A2E15006124B2A122449024928746C
:104BB300F71203F5EAFEEBFF7AFE7B1B122611EEDA
:104BC300FAEFFB1224A302492174F71203F5EAFE5C
:104BD300EBFF7AFE7B1B122611EEFAEFFB1224A3E6
:104BE30002492874F71203F574EF1209B4EAFEEBD5
:104BF300FF1259857AA17B0512127FE9606285183D
:104C0300828519837409F07401120BF474EFF012A6
:104C13004C74F87402120BF4E8124CA8A3A3E0C07E
:104C2300E07404120BF4D0E0124C95640870158EF6
:104C3300828F83A3A3124C68E0C0E07405120BF4C7
:104C4300D0E080067405120BF4E41259E4740612E2
:104C53000BF4AA82AB83122551AA18AB191219A51A
:104C630074110238741259C22407F582E438F583AB
:104C730022124C8AFB8A828B831259B588828983DC
:104C8300E0FCA3E0F9EC22EE2402F8E43FF9E8FAB1
:104C9300E922124C9922124C9EE022F08E828F83DD
:104CA300A3A3A3A322F0A3E91259D3124CB222E087
:104CB300F8A3125DB6A3A322C082C0831225930278
:104CC300466EC082C083901C3874D8F0A3741BF066
:104CD300A374F4F0A3741BF0901D847464F0A374A4
:104CE3002AF0A37402F0A3742AF0901C24743DF0FC
:104CF300A37424F0901C21E04401023CF6C082C05E
:104D030083EAFCEBFD79021224F702466EC082C0EF
:104D1300837906025E8074F61203F574FE1209B4F9
:104D2300901C1D124F4260077A1D7B1C12250F90A9
:104D33001C23E4F090189E124F4260268007AA18A5
:104D4300AB1912250F901C1CE0F91211058A088B70
:104D530009A808A909851882851983124E9AE8497A
:104D630070DC7402025CEC74F71203F5E9FA7B0061
:104D7300901C1CE0F912112F02492874F71203F555
:104D830074F01209B4EAFCEBFDE9FE8C828D83E03A
:104D9300F874FA124E8B342DF583E493C0E074015A
:104DA300120BF4D0E0F0640B700DEE8C828D83A3B4
:104DB300F0122575024E7EE07003024E7E640C6095
:104DC30003024E6F741A6E700B7404120BF4E4F04A
:104DD300A3024E6E7404120BF4ECF0A3EDF0EC247A
:104DE3002F124E83C0E07403120BF4D0E0125F461F
:104DF300120BAD7406120BF4120BA18C828D83126D
:104E030059A8740A120BF4124E9AEC240E124E8314
:104E130054106009851882851983E48013EC2412E9
:104E2300124E83F89005BDE0C398851882851983D7
:104E3300F0E0C0E0740C120BF4D0E0F0EC24151297
:104E43004E83C0E0740D120BF4D0E0F0EC24161284
:104E53004E83C0E0740E120BF4D0E0F0EC24171272
:104E63004E83C0E0740F120BF4D0E0F07402120B07
:104E7300F4EEF074011209A41219A5741002387427
:104E8300F582E43DF583E02228F582E422F8E43B51
:104E9300F98A828B83A3A3E8F0A3E9F022C082C03E
:104EA30083901C23E064037004790180027900027B
:104EB300466E74F71203F5901C23E0124F2C126810
:104EC300118A828B83E0C2E7F025E0F8EC124E8B67
:104ED3003DF583A3E493FE124F2CF583124F4260FA
:104EE30005EE901C23F08A828B83E0124F38EC2866
:104EF300F582ED39F583E493FCC4540F25E0F8748F
:104F030032124E8B341CF583124F42700512256307
:104F13008014EC540F25E0FCE82CF582E439F5838A
:104F230012449D12056D024928124F38748228F5E8
:104F330082741D392225E0F8E433F922901BC6124E
:104F430059B5E8492274F11203F574FE1209B489C4
:104F53000AEAFEEBFF125044FA7B001210ED8A08B6
:104F63008B09EA450960388A828B83E50AF0A3E45A
:104F7300F08E0C8F0DF50E780C1208EAA80A125069
:104F830051EA2402FAE43509FB1210C3740312092F
:104F93001CAA08AB09901C1CE0F91210F9801285B9
:104FA3001882851983E50AF0791AAA18AB19122415
:104FB300DF740212091C0230E074F21203F574FE6E
:104FC3001209B4890B8A088B09125044F50AFA7B3B
:104FD300001210ED8A0C8B0DAE0CAF0DEE4F604A34
:104FE3008E828F83E50BF0A3E4F0A80AEE28F8E4A1
:104FF3003FF98E828F83124E988E828F83A3A3A351
:10500300A3E4F0F50A78081208EAA80B125051122B
:1050130033F31210C3740312091CEEFAEFFB901C56
:105023001CE0F91210F97900801485188285198320
:10503300E50BF0791AAA18AB191224DF791A023991
:105043000674C329F582E4342DF583E4932274D9DD
:1050530028F582E4342DF583E493FC7D0022C0829D
:10506300C083E9901C1C023CF674F61203F574FE2F
:105073001209B4EAFEEBFFEE542070378040A8A873
:10508300C2AF901BC5E0141251A5F508E8A2E79240
:10509300AF8A828B8312519C901C1F1251BF122422
:1050A300EB851882851983E0641560077A1F7B1CE2
:1050B30012250F7ABF7B1B121117EA4B70C0EF54F6
:1050C300807012801C901C1F1251BF1224EB7A1F98
:1050D3007B1C12250F901C1CE0F9121105EA4B7082
:1050E300E4EE5410600E851882851983742D1246E0
:1050F300FF1224EBEEA2E0500E851882851983740B
:10510300241246FF1224EBEE5402600E85188285AA
:10511300198374251246FF1224EBEE5404600E85A6
:10512300188285198374261246FF1224EBEE540865
:10513300600E85188285198374281246FF1224EBAA
:10514300EE544060107401120BF41261A7742C1218
:1051530046FF1224EBEE548060107401120BF4121C
:1051630061A7742F1246FF1224EB901C1D124F42AD
:105173006020A8A8C2AF901C1D1251AF901C1DE463
:10518300F0A31251C51251BE1224EB7A1F7B1C12DD
:10519300250F7A007B00024D65E08518828519830F
:1051A300F022F0E8A2E7E43322901BA41251B322C9
:1051B300E0FAA3E0FB22A3A3A3A3A3A3EAF0A3EB38
:1051C300F0221251A5FEE8A2E792AF22C082C0836B
:1051D300901C1F1259B1EA687002EB697007901CAA
:1051E3001FE4F0A3F002466E74F71203F5EAFEEB38
:1051F300FFEE4F700312263BA2AFE433F508C2AFB4
:105203008E828F83124F426028E824FBFAE934FF31
:10521300FB901C1F126813E86C7002E96D70079015
:105223001C1FE4F0A3F08E828F83E4F0A3F012112D
:10523300A10236C5C082C083901C467457F0A37484
:1052430025F0A37469F0A37425F0A3746FF0A3741D
:1052530025F0A37425F0A37424F0A37475F0A3744C
:1052630025F0A3741FF0A37424F0A3742BF0A3748C
:1052730024F0901C5474A5F0A37425F0A3747BF060
:10528300A37425F0A37481F0A37425F0A3748DF0A7
:10529300A37425F0A37487F0A37425F0901C450232
:1052A3003CF5C082C0839005AAE064FE7003A3E0CE
:1052B300F470097CA17D0512128580158A828B8387
:1052C300A3A3A3A3A3A3A3A37402F0125427124E70
:1052D3009A02466EC082C0839005B4C3E094FEA3D5
:1052E300E094FF400479038002790202466EC08293
:1052F300C0831254328C828D831253E768703974E1
:105303000268701C8A828B83125340E06870298A7A
:10531300828B83A3125340A3E068701C7901801A27
:105323007403687013EC2405FC50010DEA2405FA9C
:1053330050010B12128B8002790002466EA3A3A3C5
:10534300A3A3E0F88C828D83A3A3A3A3A32274F663
:105353001203F57E00740A120BF4E01253DBFF8A8A
:10536300828B83A3A3A3A3A3A3A3A3E06F706474FB
:10537300026F704E8A828B83C082C0838882898346
:10538300A3A3A3A3A3E0F50888828983A3A3A3A36C
:10539300A3A3E0FBAA08D083D082E06A7003A3E052
:1053A3006B703088828983A3A3A3E0FA8882898300
:1053B300A3A3A3A3E0F9EA6C7002E96D70157E0163
:1053C300801174036F700CE82405FCE439FD12129C
:1053D3008BE9FEEEF9025CEFF8A3E0F9888289839A
:1053E3001253E722A3E01313543F540322C082C095
:1053F300838A828B83A3A3A3A3A3A3A3A3E06402AF
:105403007014125427E0687003A3E06970047901F3
:10541300800F7900800BEAFCEBFD7AA17B05121269
:105423007F02466E9005AA1259B58A828B83228A1F
:10543300828B831253E7F82274EC1203F5EAFEEB36
:10544300FF8C128D13750A008C828D83A3A3A3A3F3
:10545300A3A3A3A3E0F510E9A2E75008750CFF7519
:105463000DFF80069005B0125677E9C2E7F511EEFD
:10547300240E1245225420600712565874088004E3
:10548300125658E412567F54046007125660748013
:105493008005125660741012567F5410600612561F
:1054A30030E4800B9005BDE0C0E0125630D0E0122E
:1054B300567FA2E05003750A205408600674104515
:1054C3000AF50A8E828F83A3A3E024FFF508A3E0E5
:1054D30012451BC39402E0400B640B6005E01412F9
:1054E30034037403450AF50A750B009005D0E06494
:1054F3000170118E828F83A3A3A3A3E0C39467409B
:1055030003750B1085110E750F00740E780E120AB9
:1055130081E50F450BF50B7414120BF4E0F50EA3A4
:10552300E0F50F74026511700E9005B51234029008
:1055330005B412566E801374036511701212563A35
:105543007CC47D05AA08FB1212911256478004E51C
:10555300116028E5106014E50E650C7004E50F6515
:105563000D70087440450AF50A8010850882850984
:1055730083E50D125685E50C12340985100C750D63
:1055830000740A780C120A81E50D450BF50B7402C1
:1055930065107015851282851383A3123402851258
:1055A3008285138312566E80137403651070121272
:1055B300563AAC12AD13AA08FB1212911256478049
:1055C30004E5106010850882850983E50F1256856E
:1055D300E50E123409A808A909E824FFF508E91221
:1055E300451B70059005A080039005ACE0FA04F01C
:1055F300EA888289831243F9E50B125685E50AF09E
:10560300EE2404F8E43FF91230EFAC088A828B836E
:10561300E0F50A88828983E0250AC39C1259CFECFE
:10562300F0A3E509125B4BE4F0F9022E54EE2412C9
:10563300F582E43FF58322E50824F9F508E509340A
:10564300FFF5092212564B22E50824FFF508E50968
:1056530034FFF50922EE1242DB3FF5832212566432
:1056630022EE2411F582E43FF58322E0850882854A
:105673000983F022E0F50CA3E0F50D22F01244902B
:10568300E02212340D850882F5832274EE1203F5AD
:10569300890A8A0B8C108D11750C1A7416120BF46F
:1056A3001263E6AA08FB1223C58A0E8B0FAE0EAF58
:1056B3000FEE4F60607414120BF412571FE8F0A33F
:1056C300E9123005E50AF085080C85090D750E0011
:1056D300780C1208EA1233EF1210C3740312091C78
:1056E3007412120BF4120756AC10AD11A90BEEFA9B
:1056F300EFFB122539740212091CE9F50C7016E54B
:105703000A24F96003147006123476D2E5F0EEFA37
:10571300EFFB122419A90C7F0A020653125DC4126F
:1057230044912274F61203F574F71209B4EAFEEBFE
:10573300FF7801EE242F1245226002780512448C73
:10574300E8123002740412577F121285EE242C12D1
:105753002FD0242E12578C1208EE74021209AC7942
:10576300031A1AEFFB122539740212091CE9F50812
:105773007007EEFAEFFB122419025CE8F0EE242323
:10578300FCE43FFDAA18AB1922F582E43FF583122E
:10579300311A124C9904F078082274F21203F58A34
:1057A300088B09ECFEEDFF8A828B837405F0EE24EF
:1057B300321245228A828B83A3A3F0EA2403F50ADB
:1057C300E43509F50B850A82F58312567712597B66
:1057D300120BADE50C1242B1350DF583120BA1127C
:1057E3005985AA0CAB0D121285850A82850B83128B
:1057F3005DBCFAA3E0FB88828983A3A3A31251B9FA
:10580300EE242F124522C0E012599AD0E01259D942
:105813002415F582E438F583E41259D912598DE43D
:105823001259E4850A82850B83E02416FAA3E03437
:1058330000FB1225518E828F83A3A3A3A3A3A3A34B
:10584300E0C0E0850A82850B831259BE240DF582E0
:10585300E438F583D0E01259C8FAA3E0FB850A8245
:10586300850B831259B1E8240BFCE439FD8A828B42
:1058730083E08C828D83F0A3E41259F1E0F50B8C65
:10588300828D83A3E0450B1259CFA3E0FCA30A0A40
:10589300AB83A2E7E433C0E0E8240FF582E439F5F3
:1058A30083D0E0F074075C600478018002780075AF
:1058B300F00374075CA428F8EA28FAE43BFBE50844
:1058C3002405F8E43509F98A828B8312311A1259B7
:1058D300F18508828509831251B988828983E0F5AD
:1058E3000A540725E0FCE50AC4540F5407F50A756A
:1058F3000B007403780A120A81EC250AF8EA28F8E7
:10590300E43BF9850882850983A3A3A3A3A3A3A3E7
:10591300A3A3E8F0A3E9124C95FA8E828F83A3A385
:10592300E02AFAA3E03400FBC3EA98EB9940308EF7
:10593300828F83A3A3E0F8850882850983A3A3A3A9
:10594300A3A3A3A3A3A3E0FA8E828F83A3A3A3A3FA
:10595300E0C39A28850882850983A3A3A3801085C1
:105963000882850983A3A3A3A3A3A3A31243F7A335
:10597300A3A3A3A3F002390BEE2425F582E43FF59C
:105983008322EE2413FCE43FFD2212599122240EBC
:10599300F582E438F5832212599E22E82410F58219
:1059A300E439F58322A3A3A3A3A3A3A3A3A3125917
:1059B300B522E0F8A3E0F922901BC61259C222E0F7
:1059C300F8A3E0C822125BDDA3A3E0221259D3227D
:1059D300F08A828B8322F0850A82850B831259C257
:1059E30022F01259E922EE2408FCE43FFD22125969
:1059F300D3A3AA82AB832274F51203F58C088D0915
:105A0300750A0078081208EA7C0B7D0002634502E0
:105A130008CEC082C08379181224DF02466EC0828A
:105A2300C0838A828B83E0C3940B500312255D02EB
:105A3300466EC082C083791980DE74F71203F5EADB
:105A4300FEEBFF901C1D124F426010901C1D125163
:105A5300AF1225697A1D7B1C12250FEEFAEFFB129C
:105A63002509901C1DEEF0A3EF8002F0A3F002497C
:105A73002874F71203F574DE1209B4EAFEEBFF8E05
:105A8300828F83E024FD601124FE601524ED6009FC
:105A930024FA600D14600A803D7416120BF4E4803E
:105AA300077416120BF47401F01240B3740B120B4B
:105AB300F4AA82AB831212917413120BF4125B508B
:105AC300120BF4124E9A740A120BF4125B5C120B53
:105AD300F4124E9A80427416120BF47402F01259A7
:105AE30085740B120BF4AA82AB83121291741312F6
:105AF3000BF4125B50120BF4124E9A740A120BF44D
:105B0300125B5C120BF4122FE41259EA7417120B96
:105B1300F4AA82AB83122551851882851983740BED
:105B2300125B4BE0C0E07401120BF4D0E01259E4B5
