:020000040000FA
:060000000216E4020A1BD7
:03001300020AD707
:03002B0002145B61
:03003300020C6557
:03003B00020B2C89
:03004B0002136F2E
:030053000209504F
:03005B000211C7C8
:030063000211E89F
:03006B00020C0B79
:03007B00020C3C38
:100083000209AF010020FD0002012C050000000160
:10009300061E181E00001E1E241E000000002A1E3D
:1000A300481E4E1E541E0000000000000000010107
:1000B3000204081020408001FFFF090D0101040123
:1000C300FEFF000000000000000612FFFFFFFFFF1D
:1000D300FFFF01010104000212000000E803000019
:1000E300FFFFAA12E803000064006400B801A0BB8C
:1000F3000D00A0BB0D00020200F8FF0705021E045D
:1001030001051E02051E020A0A0101080803102741
:1001130002803E0102FEFFE8030A050001FFFF0221
:100123000A1401E002000000C503423F1A51123FC6
:10013300F304B53F0000803EFFFFFF00050301010C
:10014300FF593A00000000F13900000000FF0000F1
:1001530000FF00C082C083E9FA5407F8744528F50C
:1001630082E43415F583E0F87900EAC4540F5403AC
:10017300600814600914600D8012E5808002E59028
:100183005870078007E5A0586002790102025DC03C
:1001930082C0831202EF600814601214601C802B6B
:1001A300EA6005EB42808023E85280801EEA600506
:1001B300EB42908016E852908011EBC39420500BD1
:1001C300EA6005EB42A08003E852A002025DC08210
:1001D300C0831202EF600814602C146050807BE827
:1001E30052F374016A601274026A601574046A70CF
:1001F30003EB428FEB42FD806153F7DFE8528F80C0
:10020300F343F72080F6E852F474016A6012740233
:100213006A601574046A7003EB42F6EB42FE803A9F
:1002230053F7BFE852F680F343F74080F6EBC394ED
:10023300205027E852F574016A601274026A60154F
:1002430074046A7003EB42F7EB42FF800D53F77FB0
:10025300E852F780F343F78080F6D083D08222C040
:1002630082C0831202EF600814602B14604E806C0E
:10027300E852F352FD74016A600F74026A600F74EE
:10028300046A7058EB428F805353F7DF800343F7C0
:1002930020E8528F8046E852F452FE74016A600FE0
:1002A30074026A600F74046A7032EB42F6802D5355
:1002B300F7BF800343F740E852F68020EBC3942056
:1002C300501AE844E0F852F552FF74016A60107462
:1002D300026A601374046A7003EB42F702025D530F
:1002E300F77FE852F780F543F78080F6E95407FC7F
:1002F30074452CF582E43415F583E0FBF4F8E9C486
:10030300540F540322C082C0831202EF60081460AA
:100313001214601C802DEA6005EB42FD8025E85233
:10032300FD8020EA6005EB42FE8018E852FE801350
:10033300EBC39420500DEA6005EB42FF800574E0A7
:100343004852FF02025DC082C0831202EF600814AC
:1003530060151460228034EA6005EB42808003E874
:100363005280EB42FD8024EA6005EB42908003E873
:100373005290EB42FE8014EBC39420500EEA6005CA
:10038300EB42A08003E852A0EB42FF02025DE9C406
:10039300540F54036007146013146020227801E89B
:1003A300F4FBEA602014602114601522740F59C312
:1003B30094045004780280E7780480E3780880DFAF
:1003C300E58C586004EB528C22E8428C221216F41E
:1003D300601D1217037005191919801A12155D7023
:1003E3001F121585C37003E66733191919400718DF
:1003F30018182208080874FFF618F618F618F622DB
:1004030012158560171217A9702192F01217B27096
:1004130019501720F014080808090909E7F61819F4
:10042300E7F61819E7F61819E7F6221217B260E68D
:10043300E869701F0808E62480F608E436F61854C5
:100443007FB47F0CE654806007F6E418F618F622B2
:10045300181822E9C6CC08C6CD08C6CE08C6CFC038
:10046300E0E8C0E0EAC0E0EBC0E009E9F809E7FA38
:1004730009E7FBE6F918E6F8C3EC98ED99EE9AEB79
:10048300C2E7F5F0EFC2E795F0500E600CEBCFFB3F
:10049300EACEFAE9CDF9E8CCF8EAA2E7D2E7FAEB3B
:1004A30033FB13F5F0EEA2E7D2E7FEEF33FFC5F01F
:1004B30013A2E730E601B313C5F0C3C0E0C0F07F79
:1004C30000C39BFB605E9418600F401D14601AD03C
:1004D300E023F9D0E0F80205B18AF0E9486003D2DD
:1004E300F0E4AFF0FAF9F8803BEB30E40D89F0EA81
:1004F3006003D2F0E4AFF0F9CAF8EB30E30D88F013
:10050300EF6002D2F0AFF0E4CAC9F8EB540760140D
:10051300FBC3EA13FAE913F9E813F8EF135002D215
:10052300E0FFDBEDD0E0C0E030E739C3E49FFFF547
:10053300F0EC98FC42F0ED99FD42F0EE9AFE42F0A9
:10054300D0E0F9D0E0F8E5F0607AE923F9EE20E7AE
:1005530042D8028067C3EF33FFEC33FCED33FDEE8B
:1005630033FE80EAEC28FCED39FDEE3AFED0E023C1
:10057300F9D0E0F84002801BC3EE13FEED13FDEC4F
:1005830013FCEF135002D2E0FF08B800067F7F741C
:10059300FF802EEF3350178CF020F00260100CBC5C
:1005A300000C0DBD00080EBE000408E860DFE9334F
:1005B300E813FFEE2313FE4F4D4C8008E95480FFF0
:1005C300E4FEFDFCEE33EF33F47004FCFD7E80D0DB
:1005D300E0FBD0E0FAD0E0F8D0E0CFC618CEC618E2
:1005E300CDC618CCC6F9221216F4700418181822B6
:1005F300121703700D74FFF61819F61819F6181967
:10060300F622E7548066F61217B2700F1217A9701C
:10061300F014F608F608F608F680D11217A9700C44
:10062300F608F608768008E6447F80EC1215887099
:100633000C12156060BFE65480F6E480BB121560AF
:10064300700519191980A5E869700C763F18768032
:1006530018F618F6E8F922E6CDC0E018ECC0E0E69B
:1006630033CD33CDD313F6E719FCE7191933CC3364
:10067300C3947F400ECD9D502408E65480F6E418C1
:10068300F6800FF4043D14501408E6447FF6187600
:1006930080E418F618F6D0E0FCD0E0FD22CCD313AA
:1006A300CCFD18E4C6CBC0E018E4C6CAC0E0080815
:1006B300ED08C633E613F618E433C675F003C3CA70
:1006C30097CA09CB97CB199C40047D08802EBD00A7
:1006D3000302079316B6FF050606081618C3CA33A6
:1006E300CACB33CB33CA27CA09CB37CB193CC37D1B
:1006F30008803E187D0820E75CC633C6CA33CACBE0
:1007030033CB33DDF1D5F0EB30E77BCA97CA09CBA6
:10071300974ACB199C406F4B7025E620E0218066F9
:10072300187D08C3CA97CA09CB97CB199CD3C63384
:10073300C6CA33CACB33CB3350C9DDE7D5F0E1D3D7
:10074300E4C636C608C636C608C636C608C636C6A2
:100753001818188031C3CA97CA09CB97CB199CB311
:100763004097C633C6CA33CACB33CB33DD34D5F057
:100773002EC6A2E0C640C8CA27CA09CB37194A7099
:10078300BECB3CB480B90808E63308E633601F18D3
:100793001818D0E0FAD0E0FBD0E0FCD0E0FD22183E
:1007A3007D08CA27CA09CB37CB193CD3808013F6FF
:1007B30018E4B67F11F618B6FF0EF618C60470D209
:1007C3000808768080CAF618F618F680C500121657
:1007D300F4604F1217036012E7548066F612155D3A
:1007E30070111217A9703B090909F4F618F618F6E7
:1007F30018F62212158570151217B208080860EA58
:10080300E6447FF618768018E4F618F6221217B23B
:1008130060161217A97012E4F608F608F608E654F3
:1008230080F609090918181822EAC0E0EBC0E0ECC9
:10083300C0E0EDC0E0E687F0A4FBACF008E687F08B
:10084300A42CFCE435F0FA1809E687F0A42C4B60DD
:10085300027401CA35F0FCE433FB09E687F0D2F7F2
:10086300A42CCB35F0FC1908E687F0A42BCC35F08B
:10087300FBE433FD0819E687F0D2E7A42C4ACB3515
:10088300F0CD3400FC09E687F0D2E7A42DCC35F097
:10089300FDE433FA0918E687F0D2F7A42CCD35F03E
:1008A300CA3400FC08E687F0D2E7D2F7A42ACC3595
:1008B300F07A7E20E70B0ACB33CBCD33CDCC33CCD0
:1008C30033CB3350147004ED30E00ED2F1E4CD3D60
:1008D300CDCC3CCC3B5005DA05C2F1EB547FC6339B
:1008E30008E63392F0FBE73309E733C39A502D2B25
:1008F30070190C0D4C4D70151806E608C333700DB6
:1009030020F10AA2F013F6E418800B4024E4F63039
:10091300F002768018F618F618F68024D33B1450AC
:100923001074FFA2F013F6187680E418F618F68018
:100933000FA2F013F618E63303F618ECF618EDF6EB
:10094300D0E0FDD0E0FCD0E0FBD0E0FA22C0E074C0
:10095300F1120E61A2AFE433F509D2AF85A708AF58
:10096300A1EF5508FE74105E6006121B0075A1EF1F
:1009730074085E6008121B0675A1F78024EFA2E0DD
:1009830092F0E508A2E082F05017906198E0F890A9
:10099300049CE0C398A2D265D0335002E8F075A15D
:1009A300FEE509A2E092AF7F02020EC0C0E074F23E
:1009B300120E61A2AFE433FED2AF9061A4E0F875EA
:1009C3009B00E59158540860087591F7121B4E80FF
:1009D30023E59158541060087591EF121B5480144D
:1009E300E591A2E092F0E8A2E082F05007E0C2E0D5
:1009F300F0121C9E9061A3E0F8E5E9585404600EE0
:100A0300121C7475E9FB906193E0A2E640F2EEA23A
:100A1300E092AF7F01020EC0C0E074F2120E61A239
:100A2300AFE433FED2AF9061A5E0F8E5BF585404BC
:100A3300600675BFFB121CB680D4C3E498F8E49932
:100A4300F9120A7E8026C3E49AFAE49BFBE920E7C5
:100A5300E9120A7EE498F8E499F922C3E498F8E4E9
:100A630099F9120A7EE498F8E499F9C3E49AFAE44E
:100A73009BFB22EB20E7CFE920E7E0B90010BB00A6
:100A830008E88AF084F8AAF022E4FBC8FA22EB70A3
:100A9300227B10C833C8C933C9335007C39AC3DB99
:100AA300F280069A50012ADBEAC833F4C8C933F44A
:100AB300C9FA2275F008E4C833C8C933C933C99ADF
:100AC300C99B5004C92AC93BD5F0ECFBC833F4C811
:100AD300E4C9FA22C0E0C0D0E8C0E0E9C0E0C082C7
:100AE300C083A8C1E8C0E0900409E0F8748828F541
:100AF30082E43403F583D0E0F0900408E0F8A3E047
:100B0300687006E59590040BF0900409E004F0C3C7
:100B130094804002E4F0A374C6F0D083D082D0E086
:100B2300F9D0E0F8D0D0D0E032C0E0C0D0E8C0E0E7
:100B3300E9C0E0C082C08390048CE0F8A3E0687051
:100B430008539AFBA374018022C2E990048CE0F855
:100B5300740128F0740C28F582E43404F583E0F57D
:100B6300C190048CE0C394804002E4F080AC120B8B
:100B7300BC30F039120C018034120BBC20F014305D
:100B8300E72B74FFFCFBFA747F8022E4FCFBFA740E
:100B930080801AB48008BC00F2BB00EF800F50EBDA
:100BA300F9E4C39AFAE49BFBE49CFCE499C6CC18F1
:100BB300C6CB18C6CA18C6F922E4C9C608CAC608ED
:100BC300CBC6D3330308CCC63392F0C3947F402EF5
:100BD30094184019C9B90704CACBCC225025C309BC
:100BE300CA33CACB33CBCC33CC33D9F422F4600D24
:100BF300C9CCC313CB13CBCA13CAD9F6CC22E4FC9A
:100C0300FBFA2214FCFBFA22C0E074F2120E61A27A
:100C1300AFE433FED2AF90062DE05589600FE5892E
:100C2300FA7900121F6290062DE0F45289C2C5EED4
:100C3300A2E092AF7F01020EC0C0E074F2120E6117
:100C4300A2AFE433FED2AF90062EE0558A600FE5E3
:100C53008AFA7901121F6290062EE0F4528AC2EBDF
:100C630080CDC0E074F2120E61A2AFE433FED2AFC6
:100C730090062FE0558B600FE58BFA7902121F6205
:100C830090062FE0F4528BC2E880A4080808EAC05B
:100C9300E0EBC0E086F0E7A4FA180986F0E7A42A9F
:100CA300FA180986F0E7A42AFA180986F0E7A42AB5
:100CB300FA1986F0E7A4FBE5F02AFA190886F0E7AB
:100CC300A42BFBE5F03AFA190886F0E7A42BFBE521
:100CD300F03AFA18180986F0E7A4C5F02BFBE43ABA
:100CE300FA1908E7C5F0C6A426F6E5F03BFBE43A9B
:100CF300FA1886F0E7A4F6E5F00826F6E43B08F6D2
:100D0300E43A08F6D0E0FBD0E0FA22080808E6301F
:100D1300E7111215C1120D26080808C64480C6182B
:100D2300181822181818E9799EC608CAC608CBC62F
:100D330008CCC6C370207996CACBCC7019798ECBF8
:100D4300CC70137986CC700EF9802ACA33CACB33A0
:100D5300CBCC33CC331930E7F2CCCBCA335014703D
:100D630004EA30E00DE4CA3ACACB3BCBCC3CCC50CE
:100D73000209C3E913C6CC182313C6CB18C6CA1875
:100D8300C6F922E4CFC0E0E4CEC0E0E4CDC0E0E4A5
:100D9300CCC0E075F020E626F608E633F608E63325
:100DA300F608E633F6181818EC33FCED33FDEE3392
:100DB300FEEF33FFC3EC9709ED9709EE9709EF9721
:100DC300191919400FFFEC97FC09ED97FD09EE97F0
:100DD300FE191906D5F0BFECF709EDF709EEF7098F
:100DE300EFF7191919D0E0FCD0E0FDD0E0FED0E018
:100DF300FF222518C582C0E0E51934FFC583C0E092
:100E0300E518C3958224F810AF08858319858218E5
:100E13008008858319858218D2AFCEF0A3E520F030
:100E2300A37808E608F0A3DEFAEFF0A3E58124FA3D
:100E3300F8E608F0A3E608F0A3E608F0A30808E63E
:100E430008F0A3E608F0A315811581D0E0FED0E0F9
:100E5300F8158115811581E8C0E0EEC0E022C0D00D
:100E63002518C582C0E0E51934FFC583C0E0E51845
:100E7300C3958224F310AF088583198582188008EF
:100E8300858319858218D2AFC8F0A3E9F0A3EAF0ED
:100E9300A3EBF0A37908E709F0A3D8FAECF0A3EDEC
:100EA300F0A3EEF0A3EFF0A3D0E0F0A3D0E0F0A323
:100EB300D0E0F0A3E520F0A3E5F0F0A322851983A9
:100EC300851882E0C0E0A3E0F9A3E0FAA3E0FBA366
:100ED3007808E0F608A3DFFAE0FCA3E0FDA3E0FE58
:100EE300A3E0FFA3E0C0E0A3E0C0E0A3E0F5D0A34C
:100EF300E0F520A3E0A3F5F010AF08858319858200
:100F0300188008858319858218D2AFD082D083D008
:100F1300E0F8D0E0321215C4181818120D86121614
:100F23009319191922121693191919080808E618A2
:100F3300181820E7E0120D861215C4181818220994
:100F43000909E719191920E7DC080808E618181831
:100F530020E703020D861215C4181818120D861205
:100F630015C418181812169319191922121794B9BF
:100F73000003020FAEE490033178E979128002F0A6
:100F8300A3D8FCD9FA7A197B1590008678D1790118
:100F93008015E493A3AD82AE838A828B83F0A3AAE8
:100FA30082AB838D828E83D8E9D9E77582E9758315
:100FB300F574061213EC75820A75833574001213E7
:100FC300EC75F0108E1A8F1B85821F85831E851882
:100FD30082851983E0CEA3E0CF851F82851E83EB34
:100FE300C9EAC8EDCBECCAC3E833C8E933C9EA336D
:100FF300CAEB33CBC3EA9EF51DEB9FF51CB350043C
:10100300AB1CAA1DEC33CCED33CDD5F0DAAE1AAF61
:101013001B221216F4601C12170360171217B2700A
:10102300071217A97001D322C0D01217A97006D0D6
:10103300D0B322C32233D0D0501430E0F6C3E796A6
:101043000809E7960809E7960809E796B32220E01E
:10105300D5E6970809E6970809E6970809E697B3DE
:1010630022D083D082ECC0E0EDC0E0E493A3FCE4A3
:1010730093A3FDED4C600D121188EC24FFFCED34BD
:10108300FFFD80EFE493A3FCE493A3FDED4C600D1F
:1010930012128FEC24FFFCED34FFFD80EFD0E0FD56
:1010A300D0E0FCE493A3C0E0E493C0E0221216F482
:1010B300601B12170360161217B270071217A9608C
:1010C3000CB322C0D01217A97005D0D022C322338B
:1010D300D0D0501330E0EBC3E7960809E796080930
:1010E300E7960809E7962220E0E4E6970809E697E1
:1010F3000809E6970809E69722851983851882E08F
:10110300A3FEE0A3F5207808E0A3F608DFFAE0A346
:10111300FFE0A3C0E0E0A3C0E0E0A3C0E0E0A3C021
:10112300E0E0A3C0E010AF0885821885831980082A
:10113300858218858319D2AFD083D0820213F2D06F
:1011430083D082E9C0E0E493A3C386F0C5F095F0B1
:10115300F908E493A386F0C5F095F0700BE493A32C
:10116300C3994005E9048002A3E475F002A4258233
:10117300F582E5F03583F583D0E0F9E493A3C0E08D
:10118300E493C0E022C0E0C3E4939608740193960D
:1011930018400FE493667008087401936618700092
:1011A3007019A3A3C3E49396087401939618A3A399
:1011B300400DD0E0D0E0D0E00210A0A3A3A3A3A3EE
:1011C300A3D0E022C0E074F2120E61C2D99015637D
:1011D300E0C39400A2D265D0334005E0F91222B6F1
:1011E3007F01020EC0C0E074F2120E61C2DC9015E2
:1011F30065E0F9C39400A2D265D03340031222B64E
:1012030080DE7404800474028000CCC0E0EDC0E092
:10121300E518C39CCCAD1950011D10AF068C188D79
:101223001980068C188D19D2AF12134ED0E0FDD061
:10123300E0FC2274028000CCC0E0EDC0E0E518C3FE
:101243009CCCAD1950011D10AF068C188D1980066A
:101253008C188D19D2AF12130AD0E0FDD0E0FC2216
:101263001216F4602512170360201217B2700302DE
:1012730017A9080808E76670101819E766700A18B6
:1012830019E76670041819E76622F422C0E0C0F07B
:1012930088F0E4936670080874019366187000A8D8
:1012A300F0A3A3700BD0F0D0E0D0E0D0E00210A008
:1012B300A3A3D0F0D0E022D083D082CCC0E0E493CB
:1012C300A3600612138F1470FAE493A3600612143A
:1012D300F21470FAD0E0FCE493A3C0E0E493C0E01E
:1012E30022C008C3E096F50808A3E096420808A3C5
:1012F300E096420808A3E0964208A2D265D033E5FF
:10130300087001D3D00822CAC0E0E493A3C582CCFD
:10131300C582C583CDC583F0A3C582CCC582C583F1
:10132300CDC583DAE5D0E0CA22A2E792D65002F413
:101333000430F70663F0FF05F0B3400384800384B1
:10134300F40430D60563F0FF05F022CAC0E0E0A341
:10135300C582CCC582C583CDC583F0A3C582CCC568
:1013630082C583CDC583DAE6D0E0CA22C0E0C0D00F
:10137300C082C08375AF0090066BE02401F0A3E048
:101383003400F0D083D082D0D0D0E032C0E0E493F8
:10139300A3D39C5010E493A3C39C400AD0E0D0E0B5
:1013A300D0E00212D7A3A3A3D0E022700908080853
:1013B300226016181818C6C333C608C633C608C633
:1013C30033C608C633C6D5E0EA22C008C3E096F5A3
:1013D3000808A3E096420808A3E096420808A3E0A1
:1013E3009645087001D3D00822C09FF59FE473D0BF
:1013F3009F22D083D082C09FE493C0E0740193C046
:10140300E0740293F59F227404800A7403800674C7
:101413000280027401C0E0F404121425D0E0121714
:101423003F222518F58210AF08F518400C151980D6
:1014330008F51840021519D2AF8519832200C0D0D0
:10144300251810AF08F518500C05198008F5185029
:10145300020519D2AFD0D022C0E0C0D0E8C0E0A8C6
:10146300A8D2AFC2C7E8A2E792AFD0E0F8D0D0D0FD
:10147300E032BB0102E722C082C08389828A83BB38
:101483000003E08002E493D083D08222601708082F
:1014930008C6A2E713C618C613C618C613C618C6CD
:1014A30013C6D5E0E9226016080808C6C313C61898
:1014B300C613C618C613C618C613C6D5E0EA222536
:1014C30018F8E43519F9222518FAE43519FB222511
:1014D30018FCE43519FD22C3E0C696F608A3E0C65E
:1014E30096F608A3E0C696F608A3E0C696F622C0D1
:1014F300E0E493A36C7009D0E0D0E0D0E00212D70F
:10150300A3A3D0E022251810AF08F518400C151935
:101513008008F51840021519D2AF22C3E09608A33C
:10152300E09608A3E09608A3E096A2D265D0332202
:10153300E76670100809E766700A0809E766700431
:101543000809E76622E066701008A3E066700A08DF
:10155300A3E066700408A3E06622181818E608469C
:10156300087009E626087005E633F4220822C3E46E
:1015730093960874019396087402939608740393E0
:101583009622191919E70947097009E72709700510
:10159300E733F4220922C3E096F008A3E096F008AB
:1015A300A3E096F008A3E096F022C3E697F60809B5
:1015B300E697F60809E697F60809E697F62218185B
:1015C30018E4C396F608E496F608E496F608E4965B
:1015D300F622E026F608A3E036F608A3E036F6087E
:1015E300A3E036F622E627F60809E637F60809E609
:1015F30037F60809E637F622E493F608740193F602
:1016030008740293F608740393F622E657F6080962
:10161300E657F60809E657F60809E657F622E056B4
:10162300F008A3E056F008A3E056F008A3E056F054
:1016330022E647F60809E647F60809E647F60809E9
:10164300E647F622700422600D18C6C333C608C6E7
:1016530033C6D5E0F41822E667F60809E667F6080C
:1016630009E667F60809E667F622E026F008A3E034
:1016730036F008A3E036F008A3E036F022E056F691
:1016830008A3E056F608A3E056F608A3E056F622B0
:10169300E4C397F709E497F709E497F709E497F7A1
:1016A30022600D08C6A2E713C618C613C6D5E0F319
:1016B30022C6F4C608C6F4C608C6F4C608C6F4C6ED
:1016C30022C3E09608A3E09608A3E09608A3E09659
:1016D30022C3E7960809E7960809E7960809E796FB
:1016E3002275D00075813F75183175190300020FFB
:1016F3006FE6084608C3134608336002E633F42254
:10170300E7094709C3134709336002E733F422604B
:101713000C08C6C313C618C613C6D5E0F422E6F0F8
:1017230008A3E6F008A3E6F008A3E6F022E0F60833
:10173300A3E0F608A3E0F608A3E0F622CAC0E0E6B9
:10174300F0A308DAFAD0E0FA22E0FCA3E0FDA3E07C
:10175300FEA3E0FF22EAF0A3EBF0A3ECF0A3EDF08D
:1017630022E0FAA3E0FBA3E0FCA3E0FD22E8F0A360
:10177300E9F0A3EAF0A3EBF022ECF0A3EDF0A3EE83
:10178300F0A3EFF022E0F8A3E0F9A3E0FAA3E0FB73
:1017930022E5C754F84401F5C77901222518F582DB
:1017A300E43519F58322E72719471947194722E634
:1017B3002618461846184622C2AF75D69F02000067
:1017C300221213F53A8F031213F5768F031213F5D2
:1017D3008891031213F50094031213F52B97031248
:1017E30013F5268A051213F5B58B051213F5508CE4
:1017F300051213F59B8C051213F5B88D051213F51D
:10180300718E051213F5408F051213F560900512C2
:1018130013F5C990051213F53291051213F5909241
:10182300051213F5E693051213F53D94051213F50E
:101833009B94051213F52D95051213F58995051241
:1018430013F5C298051213F5F09A051213F51D9CB2
:10185300051213F59AE4061213F504E5061213F5BF
:1018630025E5061213F563E5061213F5A8E506123E
:1018730013F5CEE5061213F5D7E5061213F585E643
:10188300061213F5E9E6061213F53384071213F56E
:10189300FA8A071213F5158B071213F5FE90061239
:1018A30013F55191061213F5D491061213F51C95F5
:1018B300061213F5B995061213F548DB041213F556
:1018C30027DC041213F527DD041213F5FBDD0412E4
:1018D30013F5DDE0041213F52FE2041213F5E5E22C
:1018E300041213F5E4E3041213F517E5041213F5D8
:1018F300F8C1051213F506C2051213F527C3051225
:1019030013F51AC4051213F596C5051213F59DC5F3
:10191300051213F561C8051213F5CFEC061213F582
:1019230057ED061213F597EE061213F561830712AE
:1019330013F57283071213F51084071213F51B8432
:10194300071213F5FD7F001213F5108C071213F520
:10195300BB86071213F5CB86071213F5E086071231
:1019630013F54687071213F5FB7E001213F57E7FEE
:10197300001213F5E47F001213F5EBF3061213F5CF
:1019830026F4061213F581F4061213F5D9F40612A0
:1019930013F55FF5061213F59BF5061213F5ECFF2D
:1019A300031213F5FCFF031213F570C3061213F5AC
:1019B300C6C3061213F515C4061213F542C4061264
:1019C30013F598C4061213F53C8B071213F55FEF5A
:1019D300061213F5A9EF061213F53FF0061213F5DD
:1019E300C5F0061213F5F6F0061213F50EF1061202
:1019F30013F582F1061213F598F1061213F5ABF104
:101A0300061213F5B5F1061213F515D0041213F5EA
:101A1300C6D4041213F5DBD5041213F507D604124A
:101A230013F58CD6041213F553D9041213F5008061
:101A3300051213F56380051213F51381051213F5CF
:101A4300DE81051213F53383051213F51384051292
:101A530013F51085051213F5E886051213F50F87A4
:101A6300051213F59B87051213F5F588051213F577
:101A73006B89051213F5A989051213F5BB890512A4
:101A830013F5A6C9051213F574CB051213F59FCCF4
:101A9300051213F562CE051213F5329B061213F5E8
:101AA3005E9B061213F5CF9D061213F50F9E0612C9
:101AB30013F54F9E061213F5639E061213F57C9ED3
:101AC300061213F56D9F061213F512A0061213F5F5
:101AD30026A0061213F5EFFA061213F513FB0612EE
:101AE30013F52CFB061213F55EFB061213F58EFBA2
:101AF300061213F5BBFB061213F51DFC061213F5B4
:101B03002CFC061213F536FC061213F543FC0612E1
:101B130013F539EA061213F559EA061213F598EA92
:101B2300061213F5B3EA061213F5D2EA061213F5F9
:101B330038EB061213F541EB061213F59EEB061272
:101B430013F5C2EB061213F583EC061213F590ECB2
:101B5300061213F5A1EC061213F5D787071213F536
:101B6300EF87071213F51B88071213F587FB04127F
:101B730013F5E1FC041213F5EFFC041213F502FD57
:101B8300041213F517FD041213F52CFD041213F5BB
:101B93003FFD041213F5B3FD041213F518FE0412EE
:101BA30013F5BAFE041213F57EFF041213F58EFF2C
:101BB300041213F59DFF041213F5F184071213F5B4
:101BC3001585071213F53D85071213F56585071271
:101BD30013F5C8F1061213F5EFF1061213F50DF222
:101BE300061213F580F2061213F566E7061213F5D3
:101BF3007FE7061213F58BE7061213F59FE706122C
:101C030013F5BDE7061213F5C7E7061213F5D1E77F
:101C1300061213F5E4E7061213F56AE8061213F544
:101C2300DFE8061213F50EE9061213F55CE9061256
:101C330013F5ABE9061213F5C6E9061213F5D0E95D
:101C4300061213F5E1E9061213F524EA061213F559
:101C53009189071213F5919D051213F5BB9D05128A
:101C630013F5D89D051213F5EB9D051213F5019E8F
:101C7300051213F55F9E051213F5979E051213F5D2
:101C83008BA2051213F5D0A3051213F503A40512B5
:101C930013F566A4051213F5D0A5051213F5F8A5DF
:101CA300051213F50DA6051213F51DA6051213F55E
:101CB30061A6051213F5BCA6051213F5CCA60512F1
:101CC30013F53181071213F54B81071213F5738155
:101CD300071213F58C81071213F5B081071213F560
:101CE300CE81071213F5E581071213F5138207124C
:101CF30013F52E82071213F5B68A071213F5F8CAE5
:101D0300061213F508CB061213F50FCC061213F5C2
:101D130043CC061213F565CC061213F588CC0612D4
:101D230013F5A6CC061213F5E0CC061213F545CD38
:101D3300061213F587CD061213F5C6CD061213F559
:101D4300F7CD061213F52ECE061213F5A7B9051219
:101D530013F5A3BA051213F5C1BA051213F5E8BAC0
:101D6300051213F5B2BC051213F5E0BC051213F509
:101D730095BD051213F558BE051213F567BF05127D
:101D830013F5A2C0051213F559BB061213F5AEBB2A
:101D9300061213F528BC061213F53BBC061213F505
:101DA30062BC061213F5F5BC061213F5CFBD06127D
:101DB30013F55CB0051213F587B0051213F552B194
:101DC300051213F58FB1051213F520B2051213F5A1
:101DD3009CB5051213F5AFB7051213F596980312C8
:101DE30013F5D098031213F5D09A031213F50E9D31
:101DF300031213F507A0031213F579A0031213F5C9
:101E030013A1031213F562A1031213F5A5A1031283
:101E130013F5BFA1031213F518A2031213F546A27B
:101E2300031213F549A2031213F559A2031213F572
:101E33006CA2031213F5B7A2031213F5CBA403127A
:101E430013F5FEA4031213F563A5031213F5B6A548
:101E5300031213F53CA6031213F5C8A6031213F5D8
:101E6300E0A8031213F580AA031213F5BEAB031205
:101E730013F562AD031213F56182071213F57B822A
:101E8300071213F5C282071213F5F082071213F536
:101E93000A83071213F52383071213F547830712E7
:101EA30013F50080061213F53180061213F58580B1
:101EB300061213F55581061213F58281061213F5E6
:101EC300AF81061213F50182061213F52B82061257
:101ED30013F54F82061213F57782061213F5B782B4
:101EE300061213F54183061213F57283061213F5D6
:101EF3009983061213F5DF83061213F5FD83061289
:101F030013F52184061213F54184061213F5778421
:101F1300061213F5D684061213F5F884061213F588
:101F23005785061213F56685061213F59F8506126B
:101F330013F51FD1051213F559D1051213F594D2D8
:101F4300051213F5ACD3051213F50ED8051213F5CC
:101F5300A0F8051213F5DAF8051213F59DF9051229
:101F630013F5ECFE021213F55DFF021213F5BFFF2A
:101F7300021213F5AE85061213F5BF86061213F58A
:101F8300D087061213F51E89061213F574890612FB
:101F930013F5B289061213F5C089061213F5518B96
:101FA300061213F543D8061213F5A5D8061213F536
:101FB300A1DA061213F51E96061213F55F960612A2
:101FC30013F59596061213F5BC97061213F5589957
:101FD300061213F5F899061213F5169B061213F55C
:101FE30035D8051213F57DD8051213F564D90512FA
:101FF30013F56FDC051213F599DC051213F56BDD90
:10200300051213F563DE051213F587F9061213F5AE
:10201300C4F9061213F5F8F9061213F50BFA0612B2
:1020230013F586CE061213F599CF061213F55BD07E
:10203300061213F506D1061213F532D1061213F563
:10204300A9D1061213F502ED051213F562ED05127F
:1020530013F5F1ED051213F512EF051213F5FCF16B
:10206300051213F512F2051213F54DFC061213F5C2
:102073005FFC061213F572FD061213F575FD0612C9
:1020830013F5A2FD061213F5D8FD061213F5F2FDA2
:10209300061213F534FE061213F544FE061213F569
:1020A300DEFE061213F544DF051213F54EDF0512AB
:1020B30013F588DF051213F5F1DF051213F50EE0B2
:1020C300051213F5B0E0051213F5B9E0051213F587
:1020D300FEE0051213F527E1051213F534E10512AD
:1020E30013F5A5E1051213F530E2051213F57EE2AF
:1020F300051213F5BCE2051213F521E3051213F5DE
:1021030044E3051213F5BBE3051213F512E40512BC
:1021130013F54DE4051213F582E4051213F594E467
:10212300051213F5A6E4051213F5C5E4051213F51C
:10213300CEE4051213F589E5051213F5D5E505126D
:1021430013F513E6051213F506A5061213F546A6B5
:10215300061213F569A6061213F57AA6061213F5ED
:1021630079A8061213F599A8061213F5E28B071244
:1021730013F58BDE061213F5CFDE061213F517DF08
:10218300061213F5FDE0061213F58CE1061213F5A2
:102193005C88071213F501C3031213F525C4031258
:1021A30013F55FC4031213F509C6031213F533C6FF
:1021B300031213F5A8C8031213F5E8C8031213F5A5
:1021C3007ECA031213F51BCB031213F56DCB031257
:1021D30013F510CC031213F548CC031213F58ACC74
:1021E300031213F5F9CD031213F547CF031213F5B9
:1021F30078D1031213F5A6D1031213F5CDD103122F
:1022030013F5D6D1031213F526D2031213F5B8D260
:10221300031213F5E7D5031213F56AD6031213F568
:10222300E8FF061213F56CBF061213F582BF061200
:1022330013F526C0061213F565C0061213F582C006
:10224300061213F5B3C0061213F500C1061213F5F7
:1022530033C1061213F56EC1061213F563C30612DA
:1022630013F5D6F2051213F5FCF4051213F52EF649
:10227300051213F546F6051213F53AA0061213F5E7
:102283007CA1061213F514A3061213F53FE60512FB
:1022930013F543E7051213F565E8051213F580E915
:1022A300051213F556EA051213F5C9F7061213F5CD
:1022B3003FF8061213F50080041213F5C5800412CB
:1022C30013F5D280041213F57B81041213F5DA811E
:1022D300041213F54A83041213F5C283041213F58F
:1022E3008485041213F5B085041213F5BD87041217
:1022F30013F5E587041213F54688041213F5A18834
:10230300041213F5F289041213F5458A041213F526
:10231300CA8A041213F55C8B061213F5838B06121B
:1023230013F5D78D061213F5FE8D061213F5538E92
:10233300061213F5858F061213F50190061213F595
:10234300E8FE061213F547FF061213F585FF061282
:1023530013F5C6FF061213F518AB041213F581AB80
:10236300041213F5CCAB041213F507AC041213F5E6
:102373007CAE041213F598B2041213F5B4B404122C
:1023830013F5C2B5041213F59CB6041213F591F9B3
:10239300031213F5CBF9031213F504FB031213F520
:1023A300A5FC031213F5D2FC031213F575FD0312FA
:1023B30013F5D8FD031213F50FFF031213F58A85E6
:1023C300071213F5D485071213F518FA011213F542
:1023D30075FA011213F553FB011213F544FC0112B4
:1023E30013F570FC011213F54CFD011213F568FD92
:1023F300011213F501FE011213F58AFE011213F502
:10240300A08B071213F5B38B071213F50080071285
:1024130013F50F80071213F56F80071213F5FD8B69
:10242300071213F5CDC4041213F538C5041213F5BE
:1024330036C6041213F548C7041213F5D2C70412A3
:1024430013F5ACC8041213F58CC9041213F5AECA04
:10245300041213F5D9CB041213F562CE041213F54B
:102463000080021213F50C80021213F56E80021223
:1024730013F57880021213F50B81021213F54781CD
:10248300021213F50782021213F51482021213F5D6
:102493007782021213F50C83021213F542830212A0
:1024A30013F5BF83021213F55F85021213F5338709
:1024B300021213F51488021213F55E89021213F542
:1024C300C08B021213F5258D021213F5BA8D021279
:1024D30013F5ED8E021213F5E18F021213F51A9123
:1024E300021213F5B095021213F59D96021213F51D
:1024F3003597021213F55A97021213F586970212B3
:1025030013F51E98021213F53498021213F5569818
:10251300021213F5BC98021213F5DB98021213F59D
:102523000499021213F5249A021213F5FA9A02126D
:1025330013F56F9C021213F5909C021213F5119D73
:10254300021213F5B79D021213F5FF9D021213F544
:10255300709E021213F5FC9E021213F57B81031287
:1025630013F5C09F021213F56FA0021213F5DBA03F
:10257300021213F50EA1021213F58CA1021213F528
:10258300E8A2021213F558A3021213F5EAA30212EA
:1025930013F54DA5021213F5D4A5021213F539A6AE
:1025A300021213F567A8021213F5F3A9021213F529
:1025B30003AA021213F537AA021213F5A5AA0212EF
:1025C30013F5E0AA021213F542AB021213F5D7ABCF
:1025D300021213F5B2AD021213F57DAF021213F519
:1025E30087B0021213F584B4021213F551B5021227
:1025F30013F5348E031213F513B8021213F556C7ED
:10260300061213F5C6C7061213F5D4C7061213F53F
:10261300E2C8061213F53E9D041213F5F59D04124C
:1026230013F5FC9E041213F57A9F041213F5BCA054
:10263300041213F5DDA0041213F595A1041213F58A
:1026430040A2041213F520A6041213F53CA80412A9
:1026530013F5A3A9041213F5728A071213F57AE589
:10266300021213F5D2E5021213F558E6021213F51E
:102673006AE7021213F5B7E7021213F59DE8021297
:1026830013F5B4E8021213F506E9021213F53EE955
:10269300021213F551E9021213F5A7E9021213F519
:1026A30000EA021213F518EA021213F5ADEC021256
:1026B30013F544ED021213F56EED021213F5A6EDB8
:1026C300021213F5CCEF021213F512F0021213F5F6
:1026D3005CF0021213F530F1021213F571F10212DC
:1026E30013F594F1021213F5DBF1021213F5FBF16A
:1026F300021213F57CF2021213F500F3021213F522
:102703005AF3021213F5A2F3021213F5ABF40212F9
:1027130013F56BF7021213F597F8021213F5D4F8B9
:10272300021213F59BF9021213F5DBF9021213F5EA
:10273300DEF9021213F5E8F9021213F5FBF902129E
:1027430013F580FA021213F5B6FA021213F5E2FA40
:10275300021213F509FB021213F52DFB021213F5F6
:10276300C4FB021213F5DDFB021213F510FC021277
:1027730013F530FC021213F56DFC021213F5A4FCE1
:10278300021213F5A3FD021213F5D6FE021213F57E
:102793005087071213F55C87071213F5A2870712F8
:1027A30013F558AE061213F596AE061213F522AFC3
:1027B300061213F52DB0061213F549B2061213F5DE
:1027C300B7D6031213F5DAD6031213F5B1D70312F2
:1027D30013F5FAD7031213F552D8031213F5ACD835
:1027E300031213F5F8D8031213F56ED9031213F578
:1027F300FCD9031213F574DA031213F5B7DA0312D3
:1028030013F585DE031213F5CCE0031213F506E18D
:10281300031213F590E1031213F50FE2031213F5FC
:10282300DCE2031213F508E4031213F5F3E40312D5
:1028330013F5C7E5031213F54BE7031213F5E1E7AD
:10284300031213F502EA031213F5A2EA031213F5B6
:102853000CEB031213F5B3EB031213F517EC03128E
:1028630013F54AED031213F570EE031213F5E9EEB7
:10287300031213F5C1F0031213F561F1031213F5FB
:1028830004F2031213F563F2031213F51EF303129A
:1028930013F5E4F4031213F587F6031213F533F774
:1028A300031213F548F8031213F57BAE031213F565
:1028B300F3AE031213F53BAF031213F57FAF03120D
:1028C30013F5C8AF031213F512B0031213F547B093
:1028D300031213F5C5B0031213F51FB1031213F559
:1028E30078B2031213F501B3031213F55DB30312A8
:1028F30013F577B3031213F59EB3031213F5F6B36F
:10290300031213F560B5031213F57FB5031213F524
:10291300A7B6031213F524B7031213F591B70312E5
:1029230013F5F3B7031213F5A3B8031213F575BA2E
:10293300031213F560BB031213F55ABC031213F50C
:1029430060BD031213F57CBE031213F58ABE031296
:1029530013F563BF031213F503C0031213F547C046
:10296300031213F55CC0031213F56DC1031213F5C3
:1029730010C2031213F568C2031213F50CD5061225
:1029830013F5B4D6061213F571D7061213F5C6D78D
:10299300061213F567DB061213F582DB061213F535
:1029A300C6DB061213F5ECDB061213F512DC061276
:1029B30013F52ADC061213F58DDC061213F5A2DCDF
:1029C300061213F5C4DD061213F5CDDD061213F559
:1029D300D6DD061213F5DFDD061213F5E9DD061267
:1029E30013F5D7B2061213F5B7B6061213F5BCB634
:1029F300061213F5BEB6061213F556F6061213F5B4
:102A0300C48B071213F5CE88071213F52C8A07120D
:102A130013F5748B071213F525B7061213F52586E4
:102A2300071213F54F86071213F554FE051213F51B
:102A3300D6FF041213F5E0FF051213F52F890712D1
:102A430013F5DC89071213F5D1D1061213F529D634
:102A5300011213F580D6011213F5ECD6011213F50A
:102A630078D7011213F52ED8011213F576D8011277
:102A730013F58FD8011213F5B2D8011213F5D4D878
:102A8300011213F512D9011213F561D9011213F5CD
:102A93008CD9011213F5EAD9011213F591DA011257
:102AA30013F539DB011213F5B5DB011213F582DCE3
:102AB300011213F5CEDC011213F556DD011213F5E5
:102AC3008FDD011213F520DE011213F531DE011241
:102AD30013F5A3DE011213F53CDF011213F5A6DF94
:102AE300011213F596E0011213F5BBE0011213F581
:102AF300B8E1011213F5C5E1011213F5CEE101129C
:102B030013F5B7E3011213F5D3E4011213F564E5EA
:102B1300011213F5D5E5011213F5AFE7011213F511
:102B23007AEB011213F58EEB011213F59EEB0112F2
:102B330013F5A8EB011213F5B1EB011213F5BAEB80
:102B4300011213F5C4EB011213F5F3EB011213F5A4
:102B530021EC011213F52CEC011213F550EC0112C8
:102B630013F574EC011213F5E6EC011213F52FEDD6
:102B7300011213F54BED011213F5BCED011213F520
:102B830008EE011213F551EE011213F58FEE011247
:102B930013F510EF011213F5DBF0011213F57AF1BF
:102BA300011213F542F2011213F5CEF4011213F5DB
:102BB30023F5011213F54BF5011213F57EF60112FD
:102BC30013F5C3F6011213F518F7011213F5C6F73F
:102BD300011213F56BF8011213F5A0F8011213F5A6
:102BE30040F9011213F5BCF9011213F50085011226
:102BF30013F53285011213F56685011213F51A8751
:102C0300011213F5EE87011213F54D88011213F526
:102C13006389011213F5AF89011213F54C8C01126C
:102C230013F5C18E011213F50D90011213F5A59042
:102C3300011213F5B190011213F5FA90011213F575
:102C43002D91011213F5B991011213F5CB920112D3
:102C530013F50C94011213F50B95011213F5359529
:102C6300011213F5A095011213F5F995011213F54D
:102C73006C96011213F5A298011213F5289A01120A
:102C830013F5139B011213F5619C011213F5999E21
:102C9300011213F590A1011213F59FA1011213F56F
:102CA30033A2011213F5DEA2011213F521A30112BF
:102CB30013F56AA3011213F5BAA3011213F527A49E
:102CC300011213F593A4011213F5AFA4011213F526
:102CD300DEA4011213F51DA5011213F505A60112B9
:102CE30013F5B4A6011213F52BA9011213F55DAA6E
:102CF300011213F52CAB011213F5AEAB011213F550
:102D0300FAAF011213F529B0011213F584B00112C1
:102D130013F5B7B0011213F512B1011213F52EB169
:102D2300011213F58FB1011213F5DFB1011213F57F
:102D33008EB2011213F551B3011213F519B4011236
:102D430013F565B6011213F5F1B7011213F548B97E
:102D5300011213F564BA011213F567BA011213F5E0
:102D630096BA011213F585BC011213F54EBD01127B
:102D730013F58FBD011213F5E5BE011213F55BBF09
:102D8300011213F58EBF011213F5F2BF011213F5F1
:102D930013C2011213F572C2011213F548C30112D3
:102DA30013F55CC3011213F570C3011213F59DC330
:102DB300011213F5CDC3011213F571C5011213F5F9
:102DC3006EC6011213F5BCC6011213F5E3C6011258
:102DD30013F5BEC7011213F564C8011213F5EAC94E
:102DE300011213F531CA011213F59ECA011213F52C
:102DF300F3CB011213F59CCC011213F5D0CC0112C5
:102E030013F5E8CC011213F58BCD011213F507D09E
:102E1300011213F5AFD1011213F5D3D1011213F53A
:102E2300F1D1011213F5BDD2011213F50BD6011224
:102E330013F5B13D001213F5E33D001213F56342A0
:102E4300001213F5B242001213F5F842001213F503
:102E53009B43001213F50044001213F5444400127F
:102E630013F5AB45001213F5D746001213F5D44AF8
:102E7300001213F5534B001213F5794C001213F59E
:102E8300DC4C001213F5284E001213F5C05000124B
:102E930013F54D51001213F55751001213F57F51DD
:102EA300001213F54752001213F5DC52001213F50A
:102EB3000553001213F53253001213F58755001210
:102EC30013F55456001213F59356001213F51557C4
:102ED300001213F5C057001213F5F257001213F541
:102EE3003D58001213F57658001213F5C558001219
:102EF30013F52159001213F5A359001213F5085ABB
:102F0300001213F5805A001213F5295C001213F511
:102F1300215D001213F5625E001213F5B661001213
:102F230013F51264001213F5CB64001213F5136545
:102F3300001213F5F466001213F52F67001213F550
:102F43003867001213F54167001213F54C6700123E
:102F530013F56B67001213F51E68001213F57B68F7
:102F6300001213F58568001213F58F68001213F52C
:102F7300DB68001213F52369001213F5276A0012A8
:102F830013F5C06A001213F5876B001213F5B16CC9
:102F9300001213F5DC6D001213F5D26E001213F557
:102FA300EA6E001213F51E6F001213F53C6F001248
:102FB30013F5846F001213F5BD6F001213F57470CF
:102FC300001213F53571001213F5A871001213F5F1
:102FD3002472001213F5C072001213F5E673001287
:102FE30013F5A274001213F54275001213F52F7630
:102FF300001213F58776001213F54D77001213F5BF
:103003007077001213F58578001213F5D07800124B
:1030130013F52C79001213F59479001213F5B8798E
:10302300001213F5E079001213F5257A001213F557
:10303300497A001213F5CD7A001213F5B67B00120C
:1030430013F5FB7B001213F5247C001213F5C27CED
:10305300001213F52D7D001213F5597D001213F59F
:103063003A7E001213F5C5F0041213F5FDF00412B5
:1030730013F51EF1041213F560F1041213F5C4F1F4
:10308300041213F5CEF1041213F5DEF1041213F555
:1030930015F2041213F5BEF5041213F586F70412A4
:1030A30013F56AF9041213F50CFA041213F596FAE0
:1030B300041213F556BB021213F5BABB021213F531
:1030C30018BC021213F563BC021213F57EBC021284
:1030D30013F5A5BC021213F5C2BC021213F5CEBC44
:1030E300021213F55FBE021213F578BE021213F536
:1030F300F4BE021213F507BF021213F517BF021233
:1031030013F5BBBF021213F527C1021213F53AC21E
:10311300021213F5DAC2021213F5E4C2021213F516
:1031230063C3021213F574C3021213F5B3C302127D
:1031330013F5E1C3021213F5AEC4021213F505C56C
:10314300021213F53EC5021213F594C5021213F5CC
:10315300B2C5021213F500C6021213F5CBC6021252
:1031630013F519C7021213F566C7021213F5E9C75F
:10317300021213F513C8021213F549C8021213F50C
:1031830058C8021213F5B7C8021213F52FC9021259
:1031930013F570C9021213F5C0C9021213F5EBC976
:1031A300021213F505CA021213F51FCA021213F510
:1031B300F4CA021213F5FECA021213F539CB021236
:1031C30013F549CB021213F552CB021213F5A3CB1D
:1031D300021213F5B7CB021213F5D9CC021213F571
:1031E300EECC021213F581CD021213F5F5CD0212C6
:1031F30013F59ACE021213F5A5CE021213F505D0DC
:10320300021213F521D0021213F56DD0021213F539
:10321300DBD0021213F50DD1021213F527D10212DE
:1032230013F569D1021213F5BCD3021213F554D46A
:10323300021213F5CBD4021213F528D7021213F599
:1032430040D7021213F543D7021213F54FD70212D8
:1032530013F563D7021213F56BD7021213F5A2D736
:10326300021213F596D8021213F520D9021213F5A0
:10327300A2D9021213F522DA021213F5F9DA0212B5
:1032830013F51BDB021213F5B4DB021213F511DC89
:10329300021213F514DC021213F583DC021213F588
:1032A300CFDD021213F5E2DE021213F56DDF021217
:1032B30013F580E0021213F545E1021213F576E1EE
:1032C300021213F59CE1021213F5A5E1021213F5A4
:1032D300D4E1021213F584E2021213F534E302126D
:1032E30013F5A7E3021213F54AE4021213F5BDE442
:1032F300021213F5FCE4021213F545E5021213F56D
:103303007181031213F55481031213F57C800312A8
:1033130013F50080031213F58A9B041213F50F9A19
:10332300041213F51299041213F5D396041213F52C
:103333007D96041213F5C094041213F53792041208
:1033430013F5B191041213F5DC8B031213F5688B9B
:10335300031213F56D90041213F5298F041213F55C
:103363002D8A031213F5EC89031213F5A28E0412AE
:1033730013F58AE2061213F562E2061213F5F5E17C
:10338300061213F595E1061213F5F4C3041213F5AF
:103393001AC3041213F550C2041213F5BFC004126A
:1033A30013F588C0041213F55AC0041213F50EC0A6
:1033B300041213F577BF041213F5E7BE041213F5D5
:1033C300C1BE041213F576BE041213F540BE0412F7
:1033D30013F5C3BD041213F55EBD041213F50DBD41
:1033E300041213F535BC041213F5A5BB041213F52F
:1033F30059BB041213F5D4BA041213F58FBA04128D
:1034030013F573BA041213F58A86031213F51BB965
:10341300041213F58F85031213F5FA84031213F5BF
:10342300AD84031213F52B84031213F5B083031237
:1034330013F53083031213F5E682031213F58A8220
:10344300031213F5EDB8041213F5BAB8041213F509
:103453003EB8041213F539AC061213F53982031280
:1034630013F524AB061213F550AA061213F5CFA9D0
:10347300061213F57AF0041213F5FC81031213F507
:1034830021F0041213F569B6021213F5ECEF0412DE
:1034930013F5B7EF041213F583EF041213F516EFC8
:1034A300041213F5FEEE041213F5D9EE041213F50C
:1034B300B2EB041213F585E9041213F58CE7041239
:1034C30013F518E7041213F5C9E6041213F583E69E
:1034D300041213F525E6041213F513AD051213F5C3
:1034E300B681031213F581AC051213F59DAB0512DA
:1034F30013F503AA051213F5C3A7051213F5FCA6CA
:10350300051213F5609F0200000080FBE4730000C6
:1035130000002001FF84000001002001FF8400005F
:1035230002002001FD84000003002001FB84000051
:10353300040042016D800000050042017E8000000E
:1035430006004201A080000007002001AB800000BC
:1035530000404201A0800000100042018F80000063
:10356300110020010107000012001003441506009A
:1035730000001011000008000000203300000A00C2
:103583000000E23300000A000100183300000C00C1
:103593005500393300000C001C00423300001100B9
:1035A30004004233000011004300233300001100E4
:1035B30051001011000011005500101100001100FE
:1035C30067001811000011006F00181100001200AD
:1035D30055002001000014000E0042220000050BDC
:1035E300000021010000050B010021010000050B73
:1035F300000123010000050B010123010000050B5D
:10360300020123010000050B030123010000050B48
:10361300040121010000050B050121010000050B38
:10362300060121010000050B070121010000050B24
:10363300080121010000050B090121010000050B10
:103643000A0121010000050B0B0121010000050BFC
:103653000C0121010000050B0D0121010000050BE8
:103663000E0121010000050B0F0121010000050BD4
:10367300100121010000050B110121010000050BC0
:10368300120121010000050B130121010000050BAC
:10369300140121010000050B150121010000050B98
:1036A300160121010000050B170121010000050B84
:1036B300180121010000050B190121010000050B70
:1036C3001A0121010000050B1B0121010000050B5C
:1036D3001C0120010000050B1D01280100008F00C3
:1036E3000100471387000100B515350004007A1562
:1036F300250002007E152600020080152700020027
:103703008215280001008C15290001008D15840005
:1037130004008E158600010092152A0001009315FE
:103723002B00010094152C00010098152D000800B2
:103733002A132E00010099152F0001009A1530005D
:1037430001009B15310001009C153200010032136A
:10375300330001003313340001009D1536000100CE
:103763003413380001009E153900010097158300BA
:103773000200B315630001004413640001009515B2
:103783006500010096156D000100451371000800E6
:10379300221366000100B21543000100A315440083
:1037A3000200A41545000100A61546000200A71556
:1037B300470008003C1348000100A9154B00010015
:1037C300AA1504000100B615A1000100B9153700C0
:1037D3000100B81588000100B7153C00010035133E
:1037E3003D0001009F1549000200AB156700010071
:1037F30046134D000200AD154E000100AF154F00FA
:103803000200B0153E0001003B1351000100A0155A
:1038130052000100A11553000100A215540001003C
:1038230036130000000000000001363601010001DC
:103833000201000103010001040106060502000064
:10384300070100340801000F090401010D0100FF05
:103853000E08000017020000190100FF1A01000101
:103863001B0100FE1C0100081D0200001F010001D6
:1038730020010001210200002301000F24020000A7
:103883002601000127010008280200FF2A01000782
:103893002B0102402C0100002D0100012E0100012B
:1038A3002F0100FF30010B1D310800003A01000811
:1038B3003B01000F3C0100013D0100FF3E040000FD
:1038C30042040000460400004A0400004E040000C5
:1038D30052040000560400005A04000000002101B5
:1038E300000100210200000123660001012367009B
:1038F300020123680003012369000401216A000512
:1039030001216B000601212C010701212D01080172
:10391300212E010901212F010A012130010B01216F
:1039230031010C0121C8000D0121C9000E0121CA7A
:10393300000F0121CB00100121CC00110121CD008A
:10394300120121CE0013012132011401213301158B
:103953000121CF001601213401170121D0001801E4
:1039630021D100190121D2001A0121D30000202006
:10397300202020202020202828282828202020201C
:1039830020202020202020202020202020208810DC
:10399300101010101010101010101010101004043C
:1039A3000404040404040404101010101010104143
:1039B30041414141410101010101010101010101B4
:1039C3000101010101010101011010101010104249
:1039D3004242424242020202020202020202020284
:1039E300020202020202020202101010102001035E
:1039F3007103010301030103010301032203020312
:103A0300010310030003000300030003000300038A
:103A1300000342030003240306030003000304031B
:103A230012032503230325032303040304030003D1
:103A3300000300034403000300032303000365039F
:103A43002100350381030003050300030003000382
:103A530000032503230303007100300160001100FC
:103A63007000310220035004800010006100000048
:103A7300140063007300720062004300000013002F
:103A83000600000000000400120000000000000017
:103A9300000004000400370037003C02440000002B
:103AA30000000000000065000000350081000000F8
:103AB3000500000083000000030271023001600270
:103AC300110270020102020202028002100261026C
:103AD3003A0041006302730272026202430200026F
:103AE3001302380000020002040212020002000264
:103AF3000002000204020402370037003C024402C1
:103B03000002390000020002650200023502810250
:103B13000002050282028302000201017101010118
:103B230001011101010131010101010180011001B4
:103B330061013B00140063017301720162014301DF
:103B43000001130106013D013500040112010001CA
:103B530000010001000104010401330133013C01B0
:103B63004401320136000001000165010001350006
:103B7300810100010501820183010001360001007A
:103B8300060000000F00000000000000000000001D
:103B9300000003FFFF00000403FFFF0000FFFF0F0F
:103BA300F4010005C4040320000100000B00000021
:103BB300000000000003010F0000000000000000EF
:103BC30000000000000000000000000000000000F2
:103BD300000000000000000000007425CE257A25B7
:103BE3007E248025D4258025E02586257E248025F6
:103BF300D4258C257E2492257E2498257E249E25FB
:103C03007E24A4257E24AA257E24B025E625B62578
:103C13007E24000000000000000000000000BC251E
:103C2300F825C2257E24BC25F825C2257E24B0258F
:103C3300E625C8257E240A000000020000000400D7
:103C430000000800000010000000200000004000F9
:103C530000008000000000010000000200000004DA
:103C630000000008000000100000002000000040D9
:103C7300000001005C280200DE270300E4270400A3
:103C8300EA270500F0270600FC273000142833003C
:103C930020283400262811002C281400322815006F
:103CA3000E28FFFF000007ECFDFDFDECDCDCCCBCC7
:103CB300ACAC9C9C8C7C7C6C6C5C5C5C4C4C3C3CF1
:103CC3002C2C1C1C51001000005500100000670034
:103CD3001800006F00180000040042000043002396
:103CE300000003EAF5E5D5D5C5B5A5959585857598
:103CF30075656555554545353525251515050AA4BD
:103D03002E02742E05862E077A2E0C5C2E0D682E3D
:103D1300FF000000160F00000B150B020002220F1C
:103D23003300000E5A6967426565416C6C69616EC8
:103D33006365303901030507090B0D0F0002040603
:103D4300080A0C0D303016181920231A1C1E3000D7
:103D5300393D3F373C3C362C442D00034A49434E02
:103D6300181A250502000119161816161823030040
:103D7300303017181921301B1D1F300C0E020B0495
:103D83000B0A0708000F020402010101010902E8FE
:103D930003000000BE040AE8030E00FF1E0409032B
:103DA300101E0A0C040408280C05083A030474F7CF
:103DB300120DF5E9901412F09013C7E4F012206A83
:103DC30090141BE4F0A3F0901413F0A3F012300648
:103DD300122070901357E4F0A3F01229C402591C67
:103DE30074EC120DF574D7121508EAFEEBFF54803C
:103DF3006068901412E0F91220E28A088B09EA4500
:103E030009604F7C0080010CEC75F003A4F8A9F065
:103E1300740128F582743D39F583E493F4602CE44E
:103E230093F88508828B83E06870DCAA08EC75F050
:103E330003A4F8740228F582743D39F583E493C032
:103E4300E0740193F583D08212350FAA08AB0912EF
:103E530020D0EEFAEF6480024245EF5420601E1238
:103E63002EFE8A088B09EA4509600A122E68AA0801
:103E7300AB091220D0EEFAEF6420024245EEA2E035
:103E8300501F9013CCE0640F70117900122E3EE99D
:103E9300600990157A121764122E56EE64010242DD
:103EA3001AEF5440604F90156AE064067028740B53
:103EB300F0901592E0F9750801750900750A00750F
:103EC3000B009013BAE078081213AEAA08AB09AC42
:103ED3000AAD0B122AEA9013371212057A007B40BF
:103EE300901412E0F91222447404121440EEFAEF13
:103EF3006440024245EE5420700302421E7A207B46
:103F030000901412E0F9122250EA4B4C4D701A90B3
:103F13001417121788E8494A4B700E750C01750D7A
:103F230000750E00750F008061750C00750D00752E
:103F33000E00750F0012225C8A088B098C0A8D0B08
:103F4300901417121788E8494A4B602A901417787F
:103F5300081213CD400E750CFF750DFF750EFF751E
:103F63000FFF801285080C85090D8C0E8D0F9014A0
:103F730017780C1214DA7401780C1214A9E50C45A5
:103F83000D450E450F700302414B7C0079047A0006
:103F93007B00122EDA8A088B09024072851882850B
:103FA300198374FFF0740112179F74FFF0740212E7
:103FB300179F74FF124E0BFAA3E0FB74031214D283
:103FC300126EB7126728122F1CE9640160030240C6
:103FD30054E508125D1412555B4480F8A3E0F974AC
:103FE3002412179FE8F0A3E9126693A3A3A3E0C0EA
:103FF300E0742612179FD0E0126CA9A3E054086066
:1040030016742412179FA3E0440112425DC0E074AA
:104013002812179FD0E0F0127AA23509126FB5600B
:1040230018127AA2126649A3E0C8127DB9E0F874A7
:104033001212179FE8F0A3E4F0908417121205748C
:10404300041214D274071214CA122B1A7404121411
:1040530040850882850983A3A3A3A3A3A3A3A3A342
:10406300740612425DF9122EBC850A08850B09E518
:10407300084509700302414B7C007904AA08AB0987
:10408300122EDA8A0A8B0B850882850983A3A3A3E0
:10409300A3E0F510A3E0F511E4F512F513780C791C
:1040A300101216D44029E5082404F8E43509F985EB
:1040B3000C10850D1188828983C3E09510F0A3E06D
:1040C30095111245A6F8A3E0F9E849709C800E8586
:1040D3000882850983A3A3A3A3E4F0A3F085088240
:1040E300850983A3A3A3A3A3A3A3A3A3A3E0640119
:1040F300850882850983A3A3A3A3A3A3702BE054FC
:10410300046003023F9F850882850983A3A3A3A3B9
:10411300A3A3A3A3A37406F07AB7850882850983B2
:10412300124392122E5002406CA3A3A3A3E0600398
:10413300023F9F850882850983A3A3A3A3A3A3A307
:10414300A3A37401F002406C122EAA7C0079017AB9
:10415300007B00122EDA8B09EA4509600C7A207B7A
:1041630000901412E0F912210C850C0A850D0B7CCA
:104173000079047A007B00122EDAEA4B7015805323
:104183008A828B83A3A3A3A312784DE50898E5093C
:104193009940078A828B831259877C007904122EF7
:1041A300DA8B0DA90DEA4970D7C3E50A9508E50B2B
:1041B30095095013C3E508950AF508E509950BF52C
:1041C30009E508450970167A207B00901412E0F97E
:1041D30012210C901417124256A3F08037E50825DC
:1041E300E0F508E50933F509E4F50AF50B7808125B
:1041F300140A7A207B00901412E0F912223E740410
:1042030012144012225CEAF8EBF9ECFAEDFB90147D
:1042130017121770EE6420FAEF8027EF5402600A3A
:10422300123000EEFAEF64028018EF5404601612A5
:104233006B6A79019013C512672A122B2CEEFAEFE1
:104243006404FB80047A007B0074291214407F0C01
:104253000210FCE4F0A3F0A3F022126697A3E0227D
:10426300C082C08374EA1215087C167D007900AA07
:1042730018AB191220B8740812179F7402F0901328
:10428300BB126EC81242A6740912179F126DD67420
:104293001312179FE4126ABA1229B8741612144043
:1042A30002670AE8F0A3E9F09013C51261A722742C
:1042B300F7120DF574DA121508EAFEEBFFEE4F6004
:1042C3002DAC18AD19122F1C740612179FE0601E37
:1042D300741712179FE0FD740112179FE0FCEEFAAA
:1042E300EFFB7900122E14E9600479A480027900AF
:1042F300742602591974F7120DF5EAFEEBFF8E824C
:104303008F83A3A3A3A3A3A3E05440601712781140
:1043130012672A122FACE960067AFF7BFF80151221
:10432300781180039013BB12672A74FE6A700374BA
:10433300FF6B60471278111273E0122FACE98E8283
:104343008F83600E125E50125D1438F583E4F0A380
:104353008003127DE4F07C447D2E8E828F8312676E
:104363002A1229BEE9F5087015EE4F60097901EEAE
:10437300FAEFFB122EB6A90802591C7508CDAA083C
:1043830012438E122E50E960E080EB8E828F8312EF
:104393005E54127D9CE0F92274F6120DF5E9FEEAF3
:1043A300FF7A0F7B001220CAEA4B601F8A828B833D
:1043B300740CF0EEA3A3F0EF8A828B831256F9906C
:1043C3001412E0F91220D67900802FEEF9122EE0B4
:1043D3008A088B09A808A909E849601C888289838F
:1043E300A3A3A3A3A3A3A3A3A37406127AAAE0F986
:1043F300122BBCEEF9122EBC7910026A7874F412F7
:104403000DF58A088B098C0A8D0B9013CCE0640F91
:10441300702CEA4509450A450B60239013C7E064F5
:10442300086005E064047016780812140A7A017BA8
:1044330000901412E0F912223E7404121440024652
:10444300D274F4120DF574FC121508EAFEEBFF8E1C
:10445300828F83A3A3E0F9122EE08A088B09EA4531
:104463000970030245818E828F83A3A882A983E00A
:10447300C0E0EA240B126646D0E01245A664F16060
:10448300288E828F83A3E064CD601E8E828F83A3E8
:10449300E0641A60148E828F83A3E064E9600A8E5D
:1044A300828F83A3E064E170367900122EB6E9604F
:1044B3002EE5082404F50AE43509F50B8508828501
:1044C3000983124592A3E0F9850A82850B8312675B
:1044D3002A12207C850A82850B831273E0806E8EFC
:1044E300828F83A3E0C0E0740212179FD0E01250C2
:1044F300B4127E261250A6C0E0740312179FD0E0B8
:10450300F0E508240C125558AA18AB197005122BA4
:10451300148003122F94740212179FE064E9702D24
:10452300850882850983124E20750A01780A1214C0
:1045330016750AE9780A12141612554E125096127D
:10454300595B12672A122F52740212144085088293
:10455300850983A3A3A3A3A3A3A3A3A3E0640270D6
:1045630012850882850983A3A3A3A3A3A3A3A3A35B
:104573007406F08E828F83A3A3E0F9122EBC122E51
:10458300AA901580124AC2122E5674040246CFA373
:10459300A3A3A3A3A312459C22E0FCA3E0FD8E8268
:1045A3008F8322127ABAE02274F4120DF5EAFEEB3D
:1045B300FF7508008E828F83A3A3A3A3A3E06048A3
:1045C3007508088E828F83A3A3A3A3A3A3A3A3A386
:1045D30012672A79FF122CA68B0BEA450B60107524
:1045E300082C8E828F83A3A3A3A3A3E0D2E0F08E33
:1045F300828F83A3A3A3A3A3E054036401600302F4
:1046030046CB4308110246CBEE2418125C106038E7
:10461300EE241A125C106003F470131277377003E0
:10462300A3E06960030246CB7508220246CBEE2461
:104633001B12761FEE241A125C10FAEE2419125C78
:1046430010F9122BAA0246CB8E828F83A3A3A3A3B6
:10465300A3A3A3A3A312672A122FACE964027003D6
:104663007508011277377003A3E0697006E508D275
:10467300E1F508E50860158E828F83A3A3E0700639
:10468300E508D2E58004E508D2E6F5088E828F833B
:10469300A3A3A3A3A3A3A3A3A312672A122FACE9E3
:1046A30064017006E508D2E0F5088E828F83A3A328
:1046B300E06015EE241D125A6EF9122F9AE9640177
:1046C3006006E508C2E0F508A90880031214407FDC
:1046D300040210FC74F0120DF574D7121508EAFEEB
:1046E300EBFF8E828F83A3A3A3A3E0601190157EBB
:1046F300126FB7600990157E124AC2122E567403C8
:104703001214D28E828F83A3A3A3A312508712679E
:104713002A122F1CE97003024870780174051217DE
:104723009FE0C3940240027800740712179FE0C30E
:10473300940240027800740C12179FE064F870032F
:10474300A3E0F47003024870740C12179FE064F93D
:104753007003A3E0F47003024870740C12179FE017
:1047630064FA7003A3E0F47003024870740C121728
:104773009FE064FB7003A3E0F470030248707406C7
:1047830012179FE0F99013B5E0696003024870E8DF
:10479300A2E04003024870742712179FE0600302EF
:1047A3004870EE241312619D742212179F126C91AC
:1047B300241C12619D741012179F126DD674091276
:1047C300179FE0601F741A12179FE0FD74041217FD
:1047D3009FE0FC8E828F83A3A312672A7901122E96
:1047E30014E9703D74031214CA122E62E9F50874B9
:1047F3000912179FE0702E9013AFE06028742255C2
:1048030008642260207442550864427014742012B4
:10481300179F124ACE600E742012179F124AAB6084
:10482300047ACF804AE9A2E6504D742012179F12F2
:104833005A7424FD600F14600C24FD600824FD608D
:104843000424FE7028742012179F124AA4700E7459
:104853002012179F126A22A3E0640D601A740312D8
:1048630014CA122FC4E96401700D024A977AD37BEC
:10487300001227AE024A97EE242DF582E43FF5831A
:10488300124DFE7003A3E0697022750900780912C6
:1048930014167809121416EE242F125C10F9124A1A
:1048A300B2126724122F52740212144074091217A1
:1048B3009FE07003024953124AB212672412302A4E
:1048C3008A0A8B0BEA450B70030249F07404121732
:1048D3009FE0F88E828F83A3A3E028F8A3E034003F
:1048E300F9E8240D124A9CF88A828B83A3A3A3E0E0
:1048F30068600EE88A828B83A3A3A31256F2124246
:10490300577904E912179F12507EE02AF8A3E03486
:10491300008882F583A3AA82AB831220BE8A0C8B04
:104923000D8C0E8D0F850A82850B83A3A3A3A37819
:104933000C1213CD4003024A97908463780C12152E
:10494300D5850A82850B83A3A3A3A3780C12172111
:104953009013C7E064046008E064096003024A97A7
:10496300E508A2E54003024A2AEE242F125C1085D3
:104973001882851983F0EE2430125C10C0E07401B4
:1049830012179FD0E0F0EE2431125C10C0E07402E5
:1049930012179FD0E0F0741412179FE06401702C7B
:1049A300740E12179F1255682413125C106870035B
:1049B300A3E0697017740C12179F12672A122FACA9
:1049C300E964027007741412179FE4F0EE2425F5CE
:1049D30082E43FF58312120574041214D274071291
:1049E30014CA122B1A7404121440024A9790140C1E
:1049F300E064016003024953742012179F124ACEE8
:104A03007009E508A2E65003024953741012179F78
:104A1300E0F47003A3E0F4607BEEFCEFFD7403129B
:104A230014CA122E6E806DA2E65069742012179F6D
:104A3300126E9E7016741A12179FE06402705574FA
:104A4300031214CA7900122F8E8049742012179F03
:104A5300124AAB7014741A12179FE0640470357411
:104A6300031214CA122F82802B742012179F124A2A
:104A7300A4700C790074031214CA122FD080157419
:104A83002012179F126A22E0640C70087403121438
:104A9300CA122FE8742902557FF582E439F583E0C1
:104AA3002212781BE064032212781BE0640722EED3
:104AB300242BF582E43FF583127629EE241322E0BA
:104AC300F508A3E0AA08FBE4FCFD2212597764066B
:104AD3002274F4120DF5EAFEEBFF8C088D09901396
:104AE30032E0600F1277377003A3E0697005122B71
:104AF30098805A79008E828F83A3A3A3A3A3A3A331
:104B0300A3A312672A122BC88A828B83E58245836B
:104B13006033A3A3A3A3A3A3E054186028E5082448
:104B23001C126646121209E5082413126646121275
:104B330009EE2418125C10F9126711122BDA7404AF
:104B430012144080087900126711122B9E0246D27C
:104B530074F7120DF574F7121508EAFEEBFF9013C4
:104B6300C7E06403600DE064016008E0640960036A
:104B7300024C6B8E828F83A3E06003024C317C0076
:104B83007D007A027B001220761278578A828B830B
:104B93001261A39013B8126DD679531229A69013FC
:104BA300C7E0640960099013C512672A123024858F
:104BB30018828519837401126ABA79421229A69060
:104BC30013C77404F074011214CA794A1229A07429
:104BD300011214D27ABD7B1312235290156AE0643A
:104BE3000B70057406F0800B79009013C512672AC9
:104BF300122B2C9013B81276257A037B00122076A1
:104C03009013BB1276257A047B001220769013B2A0
:104C1300E0A2E35004D2F08002C2F0126AB07952EB
:104C23001229A690157A121764122E568037FC7D2E
:104C3300007A037B1012207690156AE0640B7003F0
:104C4300740AF09015A0E4F0FA7B40901412E0F996
:104C530012224A8E828F83124C7212672A122B2CD5
:104C63009013C7E4F0122E987409025919E0F8A3BF
:104C7300E0F99013C522C082C083901357126FB717
:104C8300701F9013C7E014600924FC600A14600CC1
:104C9300800F901361803490135D802F90135F8099
:104CA3002AE8496008901358125090700C8A828B3E
:104CB30083A3E0F9122B20801D901357126EA46476
:104CC300027005122FF4800E901436126FB760062F
:104CD300126A2312350F02670A74F4120DF574FE7B
:104CE3001215088A088B097A007B04901412E0F9E4
:104CF30012224AAA18AB1979501229A07A0F7B0005
:104D03001220CA8A0A8B0BAE0AAF0BEE4F602085C6
:104D13000882850983A3E070169013C5E0F470033D
:104D2300A3E0F4603B124DF87003A3E069603185A2
:104D33000882850983A374EA1250AC1229A67ABBB0
:104D43007B13794B1229A67AC57B1379501229A6B6
:104D53007ABA7B1379E11229A6EE4F7003024DEC68
:104D63008E828F837402F09013C5E0F47003A3E086
:104D7300F4600A124DF87003A3E069704F8518823E
:104D8300851983124C70E8F0A3E91250AC1229A0E4
:104D93009013B812556D126DD67ABB7B13794B12F3
:104DA30029A07ABA7B1379E11229A0750A00780A3F
:104DB300121416780A12141690155F124C731252BD
:104DC300CD12672A122F527402121440850882856D
:104DD3000983124DF1A3F09013C77403F0EEFAEFB9
:104DE300FB901412E0F91220D674020246CFA3E01E
:104DF3008E828F83228518828519831261A790136F
:104E0300C5E06822E8F0A3E9124E0F22F08508827C
:104E1300850983E022F582E43BF583E0221261A752
:104E2300E8FAE9FB2274F5120DF574D11215088A1C
:104E3300088B098A828B83125A66741C1214D28AD5
:104E4300828B83A3A3A3A3A3A3A3A3125096126746
:104E53002A122E9E741C12179FE0702C85088285DF
:104E63000983A3A3A3A3A3A3A3A3E0C3940B401801
:104E73008E828F83A3A3A3A3A3A3A3A3E06402703F
:104E830007126DC2E0F460030250799013C7E06427
:104E9300027003024F60E064067003024F609013D8
:104EA30057126FB760081250907003024F9090131F
:104EB300C7E064086008E064046003025079741E6C
:104EC30012179F12507EA3A3A3A3125A66901357DF
:104ED300E0F8496007126EAA640260779013C5E098
:104EE3006E7003A3E06F600302507974016A601669
:104EF300742312179FAC82AD837AD97B1312234C90
:104F0300E960030250797A007B02901412E0F912EF
:104F13002250EA4B4C4D60030250799013C812178C
:104F2300888518828519831217709013CEE0C0E02C
:104F3300740412179FD0E0F0740512179F7401F0E8
:104F4300740612179F7402126ABA122ADEE960030A
:104F5300025076EEFAEFFB122FEE025079901357C0
:104F6300126FB770287508007808121416780812A3
:104F73001416EE2410F582E43FF583125087A31232
:104F8300459212672A122F5274021214408E828F96
:104F9300831261A3740712179FE8F0A3E9125573F4
:104FA3001261A3740912179F126C9112613CC0E045
:104FB300740B12179FD0E01250A6F508A3E0F50971
:104FC300740F7808121712740C12179FE508F07407
:104FD3002012179FE0C0E0740D12179FD0E0F07409
:104FE3002212179FE0C0E0740E12179FD0E0F074F6
:104FF3001D12179FE0C0E0741012179FD0E0F074E9
:105003001E12179FE0C0E0740F12179FD0E0F0EE5E
:105013002410125C10C0E0741112179FD0E0F074DA
:105023002112179FE0C0E0741212179FD0E0F074B2
:105033002E12179FE0C0E0741312179FD0E0F07494
:105043002312179FA982AA8389088A09750A0078FF
:105053000812140E7C087D00741712179FAA82ABE6
:10506300831220AC740312144074071214CA122B57
:10507300268003122AE4742F025A78E0FA8E828F74
:1050830083A3A322E0F98E828F83A3A322126EABA4
:10509300640122E0F98A828B83A3A3A3A3A3A3A31E
:1050A300A3A322F0126DC6E022F07AB87B137953E2
:1050B300221250B822F08518828519832274F212C5
:1050C3000DF574F8121508EAFEEBFF8C0A8D0B89B7
:1050D3000D90829DAC18AD19740812134E750C0017
:1050E300EEFCEFFDAA18AB1912234CE97003750C03
:1050F30001901413801AEEFCEFFDE508240BFAE48B
:105103003509FB12234CE97023E508241412664683
:105113001251456024E50CA2E040DB850882850935
:1051230083E0650A7004A3E0650B70DD8508828562
:105133000983A3A3E0650D70D0AA08AB0974080224
:10514300570D12598FE508450922C082C083901478
:105153001302670774F7120DF5901413127AC880BF
:105163000C127215125A69122184EEFAEFFBEA4B04
:1051730070EF901413E4F0A3F002591C74F1120DB4
:10518300F5EAFEEBFF890A8C088D098E828F83E096
:105193008C828D8312616BAE82AF83E01264B01296
:1051A30066B7C41264B012523EE01264B71266B519
:1051B300A2E2E4338C828D831266B4131313541F5B
:1051C3001264B01266B3A2E7E4338C828D83A3A387
:1051D300A3A312523E8E0C8F0D750E00780C121481
:1051E3000E7C087D00E5082407FAE43509FB12204C
:1051F300AC7403121440EE2408FE50010F8E0C8F82
:105203000D780C12140E7C037D00E508240FFAE4DC
:105213003509FB1220AC7403121440E50AC3940F42
:1052230040118E828F83A3A3A3E0C0E0126642D015
:10523300E08004126642E4F0027852A3A312616F85
:105243000EAF832274F5120DF58A088B098A828BBF
:1052530083A3AE82AF83E0F9122B448E828F83E067
:1052630064EB6024850882850983A3E064E1601808
:10527300850882850983A3E064F1600C8508828533
:105283000983A3E0641A7009850882850983A3E46E
:10529300F090157A121764122E56750A01780A12C5
:1052A3001416850882850983A3E0F508780812148B
:1052B3001679009013C51252CD12672A122F527419
:1052C30002121440122EAA025A7B1276299013BBA3
:1052D30022EAF0A3EBF002670A74F6120DF59014BC
:1052E30016E0701B7C0079017A007B00122EDAEA4B
:1052F3004B600C8A828B83126FB76003122E4A02B3
:105303006A78C082C0837904122ED4E9F8903DAC48
:10531300E493C398401079FF122ED4E9F8903DAB83
:10532300E493C398500479018002790002670A74F8
:10533300F0120DF58A088B09890B750C008A828B94
:1053430083A3A3A3A3A3A3A3A3E0F9122EE08A0E2E
:105353008B0FAE0EAF0F750A01EE4F600302542C94
:10536300850882850983A3A3A3A3A3A31276258516
:105373000882850983A3A3A3A3A3A3A3A3E0F98519
:10538300088285098312672A122EC88A0C8B0DAEF8
:105393000CAF0DEE4F70030255478E828F83A3A38C
:1053A300A3A3E4F0A3F0E508240CFAE43509FB8A8F
:1053B300828B83E0C0E012554ED0E0F0E508240D67
:1053C300125561240D126DD0122FB2EE240F1273F9
:1053D300DAE50824111255612411126DD0E5082471
:1053E30013125558C0E0126C7AD0E0F0750C01EE40
:1053F3002406126130547FF0A3E054FC1245A654F6
:105403000460030254A190158CE0F508750900743B
:105413000778081216478E828F83A3A3A3A3A3A39F
:10542300E04508F0A3E04509F08E828F83A3A31221
:10543300598774077808121712E5085407FCE50B1F
:10544300606C8E828F83A3A3A3A3A3A3A3A3A3743C
:10545300021266B8125832600B9013B312556DA343
:10546300A3126DD6EC7003025515EE2406127DA52A
:10547300547FF508A3E054FCF509EC24FFF50EE492
:1054830034FFF50F7407780E121647E508450EF83A
:10549300E509450FF98A828B83126DD680748E825B
:1054A3008F83A3A3A3A3A3A3E0448002542BEC7094
:1054B30005750A00805C8E828F83A3A3A3A3A3A395
:1054C300E05420600C1220C4EA547F7900245F80EA
:1054D300198E828F83A3A3A3A3A3A3E05410601AFE
:1054E3001220C4EA540F7900240A5001098E828FD6
:1054F30083A3A3A3A3F0A3E9800D8E828F83A3A329
:10550300A3A37401F0A3E412557374041257B512E4
:10551300210CE50CA2E0502F8E828F83A3A3A3A3BB
:1055230012719BE0F9EEFAEFFB122ECEE96018122E
:105533006FAE6009EE240F126724122184EEFAEF96
:10554300FB122184750A00A90A8034EE240CF5822B
:10555300E43FF58322F582E43509F583E022F58201
:10556300E43509F5831261A7EE2212787BA3A32207
:10557300125577221263F3A3A3A3A3221214407F2D
:10558300080210FC74F4120DF574F71215087E006E
:10559300122EE0EA4B700302564D8A828B83A3A33B
:1055A300A3A3A3A3A3A3A3E06406600302564D8AA7
:1055B300828B83A3A3A3A3A3A3A3E0FF8A828B83EA
:1055C300127DC9E0C0E0740812179FD0E012596E33
:1055D300F8A3E0F9851882851983126DD6122EF28D
:1055E300EF540860638518828519831276257A0043
:1055F3007B00122EC28B0BEA450B704C127E1812E5
:1056030029D07C007D007A007B0080288E828F83E6
:10561300125A74F47003A3E0F4602D9013C512457D
:105623009812672A1229CAE9641A601C7C007D005B
:10563300EEFAEFFB122EC28A0A8B0BAE0AAF0BEE09
:105643004F70C979001229D67E01EEF9740902461A
:10565300CFC082C083EA4B700590141B80068A82F8
:105663008B83A3A312586A60208A828B83A3A3A38C
:10567300A3A3A3A3E0540860E5EC4D601012587196
:105683007003A3E06D70D780047A007B0002670A81
:1056930074F2120DF5EAFEEBFF890A8C088D097A84
:1056A300147B0012217EEA4B603A8A828B83A3A388
:1056B300A3A3A3A3A3A3A3E4125963A3E50A1278A4
:1056C30022A3127E241256F21259811256F98A82AB
:1056D3008B8312783FEA127AA43BF583E4F01256E7
:1056E300E9F0A3F08027A3F08A828B83A3A322127D
:1056F3007836E4F0A322A3F01257043BF583E4F0D9
:1057030022EA126A9F22A90A74031214407F060236
:1057130010FC74F4120DF5EAFEEBFF89088C0A8D78
:105723000BEE4F70030257B07401650870127901D4
:10573300122ED4E9F8903DADE493C398502280161D
:105743007404650870147904122ED4E9F8903DAC02
:10575300E493C398500A7911805574026508704D1B
:105763008E828F83A3A3A3A3A3A3A3A3A3E508125A
:10577300616BA3127479E4F0A3F090141B126FB75A
:10578300601A8003E0F8A3E0F988828983A3A31257
:10579300586A88828983A3A370EA800390141BEE5E
:1057A300F0A3EF1257B512210C7900800279C102E0
:1057B30046D2F07A207B00901412E0F922C082C016
:1057C30083E9F8790090141B801D8A828B83A3A33D
:1057D300A3A3A3A3A3A3A3E068600574FF68700158
:1057E300098A828B83A3A312586A70DE02670A7444
:1057F300F7120DF5EA4B700590141B80068A828B15
:1058030083A3A312586A60208A828B83A3A3A3A3D2
:10581300A3A3A3A3A3E06970E4EC60108A828B8343
:10582300E012583270D780047A007B0002591CF8CA
:10583300A3E0C8127DF0E0540422C082C083901418
:105843001B80068A828B83A3A312586A60128A8202
:105853008B83A3A3A3A3A3A3A3A3E06970E58004FD
:105863007A007B0002670A127AC8FBEA4B221259BC
:10587300736C2274F2120DF58A0A8B0B8C0C8D0D4E
:10588300750800750900EA450B603090141B80060B
:105893008E828F83A3A3125A69EE4F601EAC0CADA8
:1058A3000DEEFAEFFB850A82850B8312350FE9644F
:1058B3000170DDEEF8EFF988088909AA08AB09023F
:1058C300571074F7120DF590141B1261A37C007D21
:1058D30000800DE8FCE9FD88828983A3A31261A3FC
:1058E300E8496030EA687002EB6970E790141B12B4
:1058F300672AE86A7002E96B88828983A3A3700828
:105903001261A390141B80091261A38C828D83A35F
:10591300A3126DD680031214407F010210FC74F7AA
:10592300120DF5EAFEEBFFEE4F602B122EEC12592F
:10593300971267281221848E828F8312672A12217D
:1059430084126FAE6009EE240F126724122184EED5
:10595300FAEFFB12218480C11276298A828B83227B
:105963001259672212783AA3A3A322F01259732281
:105973008A828B83E0F8A3E0F5838882E0221259C0
:1059830067A3A322A3A3A3A312598F22E0F508A31D
:10599300E0F509228E828F83125E54125E4A38220A
:1059A300C082C083EAFCEBFDEC4D6017EC24FBF5F1
:1059B30082ED34FF126FB570071259FDE0F46007F2
:1059C3001220D079058030901412E0C0E01259FD06
:1059D300D0E0F0903DA5E493F97A1D7B14122106E3
:1059E300E9640170107A007B20901412E0F912210F
:1059F3000C79008002790402670AEC24FFF582ED3A
:105A030034FFF5832274F4120DF5A2AFE433F508E5
:105A1300C2AF90141D125A69EE4F603AEE24FBF5A3
:105A230082EF34FF126FB57A007B20901412600767
:105A3300E0F912210C8005E0F9122112E4F50AF5D0
:105A43000B780A121412EEFCEFFD7A1D7B1412215F
:105A5300007402121440E508A2E092AFEEFAEFFBE5
:105A63000246D2A3A3A3127491FF22F582E43FF569
:105A730083125977221214407F030210FC74F2122E
:105A83000DF574FA121508EAFEEBFF750AFE750BA5
:105A9300FF122EB0E960057911025C08EE2415129D
:105AA3005C1060359015AAE0C43354E0F8E033335A
:105AB30054FC48C0E01263B9D0E0127DF9FAA3E0C8
:105AC300FB79FF122CA68B09EA4509600C750AFFC6
:105AD300126C7E126B64D2E0F08E828F83A3A312CA
:105AE300672A122FACE96006EE2412126A87EE24AD
:105AF30013125C10700D903D9FE493C0E0126C7A1A
:105B0300D0E0F08E828F83E0A2E750045403801923
